:020000040800F2
:1000000000800120713C0008FD3B0008FF3B000818
:10001000013C0008033C0008053C0008000000000B
:10002000000000000000000000000000073C000885
:10003000093C0008000000000B3C00080D3C0008D3
:10004000C13C0008C13C0008C13C0008C13C00089C
:10005000C13C0008C13C0008C13C0008C13C00088C
:10006000C13C0008C13C0008C13C0008C13C00087C
:10007000C13C0008C13C0008C13C0008C13C00086C
:10008000C13C0008C13C0008113C0008C13C00080C
:10009000C13C0008C13C0008C13C0008C13C00084C
:1000A000C13C0008C13C0008C13C0008C13C00083C
:1000B000C13C00081D3C0008C13C0008C13C0008D0
:1000C000C13C0008C13C0008C13C0008C13C00081C
:1000D000C13C0008C13C0008C13C0008C13C00080C
:1000E000C13C0008C13C0008C13C0008C13C0008FC
:1000F000C13C0008C13C0008C13C0008C13C0008EC
:10010000C13C0008C13C0008C13C0008C13C0008DB
:10011000C13C0008C13C0008C13C0008C13C0008CB
:10012000C13C0008C13C0008C13C0008C13C0008BB
:10013000C13C0008C13C0008C13C0008C13C0008AB
:10014000C13C0008C13C0008C13C0008C13C00089B
:10015000C13C0008C13C0008C13C0008C13C00088B
:10016000C13C0008C13C0008C13C0008C13C00087B
:10017000C13C0008C13C0008C13C00080000000070
:08018000C13C0008C13C00086D
:1001900010B5054C237833B9044B13B10448AFF3C1
:1001A00000800123237010BD8800002000000000A3
:1001B000404C000808B5034B1BB103490348AFF39B
:1001C000008008BD000000008C000020404C0008AA
:1001D00001F0FF01102A2BDB10F0070F08D010F8F8
:1001E000013B013A8B422DD010F0070F42B3F6D1FC
:1001F000F0B441EA012141EA014122F007047FF015
:1002000000070023F0E80256083C85EA010586EA6B
:10021000010685FA47F5A3FA87F586FA47F6A5FAA7
:1002200087F68EB9EED1F0BC01F0FF0102F00702B3
:1002300032B110F8013B013A83EA010313B1F8D15E
:100240000020704701387047002D06BF354603383F
:10025000073815F0010F07D1013015F4807F02BF78
:10026000013015F4C03F0130F0BC0138704700BFC9
:1002700053B94AB9002908BF00281CBF4FF0FF310D
:100280004FF0FF3000F07AB9ADF1080C6DE904CE03
:1002900000F006F8DDF804E0DDE9022304B0704761
:1002A0002DE9F0478C460D460446089E002B51D19F
:1002B0008A4217466DD9B2FA82FEBEF1000F0BD00A
:1002C000CEF1200C01FA0EF520FA0CFC02FA0EF722
:1002D0004CEA050C00FA0EF44FEA174A250CBCFB59
:1002E000FAF81FFA87F90AFB18CC45EA0C4508FB17
:1002F00009F3AB420AD9ED1908F1FF3280F02381EE
:10030000AB4240F22081A8F102083D44ED1AA4B2AC
:10031000B5FBFAF00AFB105544EA054400FB09F965
:10032000A14509D9E41900F1FF3380F00A81A14504
:1003300040F2078102383C44A4EB090440EA08403B
:100340000021002E61D024FA0EF400233460736083
:10035000BDE8F0878B4207D9002E54D0002186E8F3
:1003600021000846BDE8F087B3FA83F1002940F088
:100370008E80AB4202D3824200F2FA80841A65EB8F
:1003800003050120AC46002E3FD086E81010BDE8E2
:10039000F08712B90127B7FBF2F7B7FA87FEBEF173
:1003A000000F34D1EB1B3A0C1FFA87FC0121B3FB81
:1003B000F2F8250C02FB183345EA03450CFB08F361
:1003C000AB4207D9ED1908F1FF3002D2AB4200F27F
:1003D000D1808046ED1AA3B2B5FBF2F002FB1055B6
:1003E00043EA05440CFB00FCA44507D9E41900F1DD
:1003F000FF3302D2A44500F2B8801846A4EB0C04E7
:1004000040EA08409DE731463046BDE8F087CEF12E
:10041000200405FA0EF307FA0EF720FA04F83A0C56
:1004200025FA04F448EA0308B4FBF2F14FEA184550
:1004300002FB11441FFA87FC45EA044501FB0CF35B
:10044000AB4200FA0EF409D9ED1901F1FF3080F04A
:100450008A80AB4240F2878002393D44EB1A1FFA92
:1004600088F5B3FBF2F002FB103345EA034500FBCD
:100470000CF3AB4207D9ED1900F1FF386FD2AB4254
:100480006DD902383D44EB1A40EA01418FE7C1F1D2
:10049000200722FA07F88B4005FA01F448EA030323
:1004A00020FA07FE4FEA134CFD404EEA040EB5FB5E
:1004B000FCF94FEA1E440CFB19551FFA83F844EA75
:1004C000054509FB08F4AC4202FA01F200FA01FA10
:1004D00008D9ED1809F1FF3043D2AC4241D9A9F156
:1004E00002091D442D1B1FFA8EFEB5FBFCF00CFB10
:1004F00010554EEA054400FB08F8A04507D9E4185A
:1005000000F1FF3529D2A04527D902381C4440EA22
:100510000940A4EB0804A0FB02894C45C6464D46A1
:1005200015D312D056B1BAEB0E0364EB050404FAEE
:1005300007F7CB401F43CC40376074600021BDE813
:10054000F0871846F8E69046E0E6C245EAD2B8EBF6
:10055000020E69EB03050138E4E72846D7E7404679
:1005600091E78146BEE7014678E702383C4445E71B
:10057000084608E7A8F102083D442BE7704700BF92
:1005800038B50A4B054618684FF47A73B0FBF3F0A0
:1005900000F0EEFD044638B9024629464FF0FF3020
:1005A00000F0A6FD204638BD012038BD2000002007
:1005B000094A136843F4807310B50320136000F0F8
:1005C00085FD0020FFF7DCFF044618B903F040FA70
:1005D000204610BD0124FBE700200240024A1368B8
:1005E00001331360704700BFB8000020014B18684A
:1005F000704700BFB800002030B5CC0D04F00404F3
:100600001430C1F30451072303FA01F5235802FA09
:1006100001F123EA05031943215030BD806800F041
:10062000010070478068C0F38000704737B5002331
:1006300001930446002800F08580456D25B903F03C
:100640001FFAA56584F85050206883689B007BD40E
:100650008368DD007FD58368D90040F18A8000215E
:10066000FFF7E0FF636D13F0100F636D67D1002893
:1006700065D123F4817343F0020363652068FFF7BB
:10068000CDFF98B95248FFF7C9FF03465148FFF71D
:10069000C5FF03435048FFF7C1FF034306D14F4A4C
:1006A0006068936823F47C1303439360E068636B92
:1006B00094F820200343A0680343607E012A43EAA4
:1006C000403343EA024302BF626A02F1FF3243EA67
:1006D0004243A26A22B1E06A02F4707202431343F9
:1006E00020683F4AC5682A401343C360FFF79AFF5A
:1006F00023689A68120746D52269012A05BF186B3C
:10070000E2691A6B02F1FF3206BF20F00F000243CC
:1007100022F00F021A63636D23F0030343F0010319
:100720006365084603B030BD019B013B0193019B0B
:10073000002BF9D18FE71A6922F0010245E043F05E
:10074000100363650121ECE7836823F0204323F065
:100750003F0383607CE78368224A23F0104323F041
:100760003F0343F0805383601F4B1B68B3FBF2F3DE
:10077000DCE7636D43F010036365A36D43F0010391
:10078000A36501216CE70028B6D1D86894F8302021
:10079000257E520020F4804042EA853220F002009B
:1007A0000243DA6094F83820012AC4D1256CE26B48
:1007B00018692A43656C42F001022A43A56C20F4B3
:1007C000FF602A4320F0040002431A6194E700BF4F
:1007D00000000450000104500002045000030450C3
:1007E00007C0F0FF400D0300200000200368186CD4
:1007F000704770477047000003682DE9F0411D689D
:100800005E688B4B9F6815F0020F044607F01F07C8
:1008100098460ED0B0070CD5636DD9065EBF636DE8
:1008200043F400636365204600F0D6FB2368022290
:100830001A606A0701D5730703D4280739D5310731
:1008400037D5636D2068DA065EBF636D43F40073CD
:100850006365C36813F4406F25D1764B984208D185
:10086000092F9DBF40F22123FB40DB430123DA0720
:1008700055D4C3689B0416D40368190713D5FFF732
:10088000D1FE00284ED12268536823F00C03536038
:10089000636D23F480736365636DDA0403D4636D61
:1008A00043F001036365204603F0AEF823680C2291
:1008B0001A60AB0601D5B00603D4690658D5720696
:1008C00056D5636D5B4ADB065EBF636D43F4005330
:1008D00063652368D86CD968934200F0C00001F4C6
:1008E000406103D117B1BA1F012A24D8DA6828B1B0
:1008F000900137D4002935D1910433D419684806C2
:1009000030D591022ED49A6812071CD5636D43F03E
:1009100010036365A36D43F00103A36522E0464B1A
:10092000DB68A7E7636D43F010036365A36D43F0D5
:100930000103A365B7E7404AD268D8E72368DB68BC
:1009400013F0010F4CE05A6822F060025A60636DA8
:1009500023F480536365636DDB0503D4636D43F05B
:1009600001036365204600F033FB236860221A60B0
:1009700028060BD5310609D5636D43F480336365D2
:100980002046FFF736FF236880221A60EA050CD55F
:10099000F3050AD5636D43F400336365204600F028
:1009A00019FB23684FF480721A60A8050CD5B105B5
:1009B0000AD5636D43F480236365204600F00BFB8A
:1009C00023684FF400721A60EA060DD5F3060BD5C2
:1009D000636BF3B1002FB1D0D8F8083013F4604F37
:1009E00017D1236810221A6068051ED571051CD521
:1009F000636D43F480436365A36D43F00803A3650F
:100A000023684FF4806220461A60BDE8F04100F090
:100A1000E0BA636D43F480636365A36D43F0020342
:100A2000A3652046FFF7E6FEDBE7BDE8F08100BFE7
:100A3000000304500001045000000450F7B50023E7
:100A4000019390F85030012B05460C4600F0878149
:100A5000012380F850300068FFF7E4FD002840F0E3
:100A600078814B68052B08D8023B032B65D8DFE85B
:100A700003F0025D5F610C236360616828688E0982
:100A800000F1300706F00C0601F01F011F2303FAE6
:100A900001F2F35923EA02032268C2F384628A4016
:100AA0001343F351FFF7BEFD2B689A68110740F11D
:100AB00058812868FFF7B2FD002840F0D780E6682B
:100AC00028682368C34AD0F8B01006F0180EC3F3A4
:100AD000120722FA0EF21A4021EA07010A43C0F86F
:100AE000B020BD4A964240F0C180002F40F0938074
:100AF0009E0E013606F01F02092A4FF001014FEA4F
:100B0000866640F2A28006F0F846914041EA06026D
:100B1000002F40F0CB809B0E013303F01F0303EB4B
:100B200043011E39090541F000719BE01223A3E740
:100B30001823A1E74FF480739EE706239CE7DEF8B5
:100B40006010C3F31200C1F384670EF1640600283D
:100B50003AD1C3F38460874240F0288121F00041FC
:100B6000CEF860102368DEF86410C3F31207C1F3F7
:100B700084609FBBC3F38463834240F01C8121F0F7
:100B80000041316023689168C3F3120702F108063F
:100B9000C1F3846077BBC3F38463834240F0128166
:100BA00021F000413160236802F10C00D268C3F3E8
:100BB0001206C2F384614EBBC3F384638B4204BF4D
:100BC00022F00042026074E793FAA3F0B0FA80F0DA
:100BD0008742C3D0DEF86410C1F3846093FAA3F3B4
:100BE000B3FA83F38342CAD09168236802F10806FE
:100BF000C1F3846093FAA3F3B3FA83F38342CFD0B3
:100C000002F10C00D2682368C2F3846193FAA3F363
:100C1000B3FA83F3D2E793FAA3F2B2FA82F2013283
:100C200002F01F02092A30D893FAA3F6B6FA86F624
:100C30000136B60606F0F84693FAA3F1B1FA81F14F
:100C4000013101F01F02012101E006F0F846914058
:100C500041EA0602A7B9990E013101F01F0101EB2B
:100C6000410109051143A268FFF7C6FC22685B4BEE
:100C70001A4220D10020002385F8503003B0F0BD87
:100C800093FAA3F1B1FA81F1E6E793FAA3F2B2FA8B
:100C900082F20132920602F0F84693FAA3F1B1FA19
:100CA00081F1013101F01F0201212EE793FAA3F334
:100CB000B3FA83F330E74A494A4B88689A4200F016
:100CC000E0760C461ED10202D4D42B68464A9342E9
:100CD00003D002F500729342CCD1A368434A23F0BB
:100CE000E073334343F40003A360414B1B68B3FB41
:100CF000F2F20C2353430193019B002BBAD0019BCA
:100D0000013BF8E73B4B9A4211D1C301B2D42B68A7
:100D1000354A934203D002F500729342AAD1A368E8
:100D200023F0E073334343F08073A360A2E7324BB8
:100D30009A429FD110F480009CD12A682A4B9A4293
:100D400098D18B6823F0E073334343F480038B60C6
:100D500091E76A6D42F020026A6518468BE702202F
:100D60008CE700287FF4A5AEA26821681846FFF73B
:100D700043FC2669D5F800E02368DEF80C10042E49
:100D80000EF160023FF4DBAEC1F3C10148006169BE
:100D900003F0F843814043F00043194352F8260022
:100DA000164B0340194342F8261082E6DEF8641021
:100DB000C1F38460DEE69168236802F10806C1F39E
:100DC0008460E8E602F10C00D2682368C2F3846113
:100DD000F2E600BFFFFF070000007F400000088030
:100DE00000030450000052C700000450400D0300EF
:100DF00020000020000084CB0100008000F0FF03F1
:100E000070B504460068FFF709FC08B1002070BD0A
:100E10002268154B9168194209D0636D43F01003A5
:100E20006365A36D43F00103A365012070BD936862
:100E30000E4D2B4043F001039360FFF7D7FB0646AE
:100E400020680368DB07E1D4FFF7E8FB28B92268D4
:100E500093682B4043F001039360FFF7C7FB801BAF
:100E60000228EDD9D9E700BF3F000080C0FFFF7F17
:100E7000504B70B5044600689E68FFF7D3FB0546EB
:100E8000002840F0908094F85030012B00F08B80C7
:100E9000012384F850302046FFF7B2FF00287FD1AD
:100EA000636D454A23F4706323F0010343F48073B8
:100EB00063652368934206F01F0176D01E46626D7B
:100EC00022F480126265626D656912F480521CBF63
:100ED000A26D22F00602A2651C221A60002284F88C
:100EE00050205A6822F01C025A605A68082D0CBF24
:100EF00042F0080242F004025A60626B1AB95A6862
:100F000042F010025A60B34208D009299DBF40F256
:100F10002122CA40D2430122D20722D4DA689101A9
:100F200016D5626D22F4405242F4805262655A68CE
:100F3000082D0BBF22F0200222F040025A605A60B6
:100F40000BBF5A685A6842F0400242F020025A60D1
:100F50009A6822F0004222F03F0242F004029A60B6
:100F600070BD626D42F480126265F268920120D514
:100F7000626D22F4405242F4805262655A68082D34
:100F80000BBF22F0200222F040025A605A600BBFD1
:100F90005A685A6842F0400242F020025A6070BD1E
:100FA00084F8505070BD022070BD044E002986D0D8
:100FB00089E770BD00030450000104500000045094
:100FC000806800F0010070478068C0F380007047BF
:100FD00070477047704770477047000030B590F811
:100FE0005030012B9BB0024666D0012380F8503070
:100FF000324B006898420CBF03F5807300230193C5
:10100000019840B9536D82F8500043F020035365B6
:1010100001201BB030BDFFF7D7FF03461068FFF774
:10102000D3FF002842D1002B40D10B68244C33B3AE
:10103000A368486823F46043034392F8300043EA0E
:101040004033A3601D48FFF7BBFF03461D48FFF771
:10105000B7FF03431C48FFF7B3FF184304D0002039
:10106000002382F85030D4E70B68A56889680B43E9
:1010700025F4716121F00F010B43A360F0E7A36831
:101080000E4823F46043A360FFF79AFF03460D4820
:10109000FFF796FF03430C48FFF792FF1843DED19A
:1010A000A36823F4716323F00F03E6E7536D43F065
:1010B000200353650120D3E70220AAE70000045073
:1010C000000304500001045000020450074AD36892
:1010D00023F4E0631B041B0C43F0BF63000243F4E2
:1010E000003300F4E0600343D360704700ED00E09C
:1010F000174B30B5DC68C4F30224C4F10703251D87
:10110000042B28BF0423062D4FF0010505FA03F335
:1011100003F1FF338CBF033C00241940A14005FAC2
:1011200004F4013C2240002842EA01024FEA021284
:10113000AFBF00F1604000F00F00064BD2B2A5BF78
:1011400000F56140D2B21A5480F8002330BD00BFD0
:1011500000ED00E014ED00E04209012300F01F0063
:1011600003FA00F0014B43F82200704700E100E071
:101170000138B0F1807F0AD2064B074A5860F0214F
:1011800082F823100020072298601A60704701201F
:10119000704700BF10E000E000ED00E02DE9F04FE7
:1011A00085B00B68DFF8A881674C01930023019A92
:1011B000DA4002D105B0BDE8F08F0126019A9E40C9
:1011C00012EA060E00F0B1804A6822F01007022FE2
:1011D00016D14FEAD30900EB890903F0070AD9F8C1
:1011E00020504FEA8A0A4FF00F0C0CFA0AFC25EA4D
:1011F0000C0C0D6905FA0AF545EA0C05C9F82050F2
:101200004FEA430C0325D0F800B005FA0CF5ED4386
:1012100002F0030A0BEA050B0AFA0CF9013F49EA4E
:101220000B09012FC0F8009011D8876805EA07095B
:10123000CF6807FA0CF747EA09078760476827EA8B
:101240000609C2F300179F4047EA09074760BAF151
:10125000030F07D1C76A27EA0606C2F3C0079F40FB
:101260003E43C662C66835408E6806FA0CF63543C2
:10127000C560D50059D5D8F8605045F00105C8F8CB
:101280006050D8F8605023F0030606F1804605F060
:10129000010506F58036039503F0030C039DB56840
:1012A0004FEA8C0C0F2707FA0CF7B0F1904F25EAA4
:1012B00007073CD0254DA8423BD005F58065A842E4
:1012C00039D005F58065A84237D005F58065A8427C
:1012D00035D005F58065A84233D005F58065A84274
:1012E00014BF0725062505FA0CF53D43B5602568B2
:1012F0006FEA0E06D70354BF35404EEA0505256058
:101300006568970354BF35404EEA05056560A568DA
:10131000D70254BF35404EEA0505A560E568920244
:1013200054BF35404EEA0505E56001333FE700252F
:10133000D9E70125D7E70225D5E70325D3E704251B
:10134000D1E70525CFE700BF0004014000040048B5
:101350000010024003689A69910744BF00229A6214
:101360009A69D2075EBF9A6942F001029A6170479A
:1013700030B5039C05682343640D04F4806444F095
:101380007F7444F458346868C1F3090144F47F74ED
:10139000194344F0030441EA024120EA04042143D2
:1013A000696030BD2DE9F041069F04468846164627
:1013B0001D462268936938EA03030CBF012300230A
:1013C000B34202D00020BDE8F0816B1CF2D0FFF7E1
:1013D0000DF9C01B854201D3002DEAD1636C43F0A7
:1013E00020036364202384F84130002384F84230D2
:1013F00084F840300120BDE8F081036870B50446F0
:10140000986910F010000D46164616D170BD691C83
:1014100014D0FFF7EBF8801B854200D36DB9636CE5
:1014200043F020036364202384F84130002384F8D0
:10143000423084F84030012070BD236899698A06E3
:10144000E5D510222025DA612046DD61FFF782FF15
:101450002268536823F0FF7323F48B3323F4FF7364
:1014600023F001035360636C43F00403636484F866
:101470004150DBE770B504460D46164623689B696C
:101480009B0701D5002070BD324629462046FFF754
:10149000B4FFA0B96A1CF1D0FFF7A8F8801B854201
:1014A00001D3002DEAD1636C43F020036364202351
:1014B00084F84130002384F8423084F84030012021
:1014C00070BD0000F7B5099E1F46164B00930546F8
:1014D00014464FF08073FAB2FFF74AFF324608997C
:1014E0002846FFF7C7FF10B1012003B0F0BD012F60
:1014F0002B680CD1E4B29C62089B009600228021EC
:101500002846FFF74FFF003018BF0120EDE7220A01
:101510009A62089932462846FFF7ACFF0028E3D1CB
:101520002B68E7E700200080F7B5099E1F46164BA1
:101530000093054614460023FAB2FFF719FF32461E
:1015400008992846FFF796FF10B1012003B0F0BDBF
:10155000012F2B680CD1E4B29C62089B00960022FC
:1015600040212846FFF71EFF003018BF0120EDE79D
:10157000220A9A62089932462846FFF77BFF002824
:10158000E3D12B68E7E700BF0020008070B5044678
:101590000D46164623689B699B0601D5002070BD49
:1015A000324629462046FFF728FF90B9FFF71EF87C
:1015B000801B854201D3002DECD1636C43F02003E6
:1015C0006364202384F84130002384F8423084F897
:1015D0004030012070BD10B5044600284AD090F874
:1015E000413003F0FF021BB980F8402002F080FA7E
:1015F000242384F841302368E1681A6822F001024C
:101600001A60626822F070621A619A68012922F4F5
:1016100000429A60A26824D142F400429A605A685B
:10162000616942F0007242F400425A60DA6822F4C2
:101630000042DA6022690A43A16942EA0122DA60C3
:10164000216AE2690A431A601A6842F001021A60CC
:1016500000202023606484F84130206384F8420035
:1016600010BD42F4044202299A6004BF4FF40062A4
:101670005A60D4E7012010BD2DE9F04F9B4690F849
:10168000413085B0202B04460F460392BDF83CA0A4
:10169000DDF8408040F0A5800E9B13B1BAF1000F39
:1016A00006D14FF400736364012005B0BDE8F08FEC
:1016B00090F84030012B00F09480012580F84050D4
:1016C000FEF794FF1923009006462A464FF4004186
:1016D0002046FFF767FE81460028E5D1212384F8E4
:1016E0004130402384F842300E9B60646362606343
:1016F000A4F82AA00196CDF800805B46039A3946EB
:101700002046FFF7DFFE10B184F84090CCE7638DF0
:101710009BB2FF2B55D9FF22228500904FF080739A
:1017200039462046FFF724FE324641462046FFF761
:10173000A1FE0028B8D1636A226813F8011B9162E8
:101740006362638D228D013B9BB26385638D013A99
:1017500092B29BB22285ABB1A2B9009643468021DA
:101760002046FFF71FFE00289ED1638D9BB2FF2B02
:101770002FD9FF22228500904FF0807339462046F2
:10178000FFF7F6FD638D9BB2002BCDD1324641466B
:101790002046FFF7FBFE002886D123682021D9616F
:1017A0005A6822F0FF7222F48B3222F4FF7222F088
:1017B00001025A6084F8411084F8400084F8420025
:1017C00073E7628D009092B222854FF00073D2B21F
:1017D000A6E7628D009092B222854FF00073D2B2DC
:1017E000CCE7022061E700002DE9F04F9B4690F81E
:1017F000413085B0202B04460F460392BDF83CA033
:10180000DDF8408040F0A9800E9B13B1BAF1000FC3
:1018100006D14FF400736364012005B0BDE8F08F7A
:1018200090F84030012B00F09880012580F840505E
:10183000FEF7DCFE1923009006462A464FF40041CD
:101840002046FFF7AFFD81460028E5D1222384F82A
:101850004130402384F842300E9B606463626063D1
:10186000A4F82AA00196CDF800805B46039A394679
:101870002046FFF759FE10B184F84090CCE7638D05
:101880009BB2FF2B364B58D9FF22009322854FF095
:10189000807339462046FFF76BFD009643460022D1
:1018A00004212046FFF77EFD0028B5D12268636A37
:1018B000526A1A70636A228D01336362638D013B41
:1018C0009BB26385638D013A92B29BB22285ABB124
:1018D000A2B90096434680212046FFF763FD002809
:1018E0009AD1638D9BB2FF2B2FD9FF2222850090C6
:1018F0004FF0807339462046FFF73AFD638D9BB267
:10190000002BCAD1324641462046FFF73FFE002851
:1019100082D123682021D9615A6822F0FF7222F413
:101920008B3222F4FF7222F001025A6084F84110D7
:1019300084F8400084F842006FE7628D009392B211
:1019400022854FF00073D2B2A3E7628D009092B26D
:1019500022854FF00073D2B2CCE702205DE700BFD2
:101960000024008090F84120D2B2202A10B51DD169
:1019700090F84030012B19D0242380F841300368BF
:101980001C6824F001041C601C6824F480541C6052
:101990001C6821431960196841F001011960002396
:1019A00080F8412080F84030184610BD022010BD5C
:1019B00010B590F84140E4B2202C1CD190F8403092
:1019C000012B18D0242380F8413003681A6822F0D4
:1019D00001021A601A6822F4706242EA0121196059
:1019E0001A6842F001021A60002380F8414080F832
:1019F0004030184610BD022010BD0000024B186890
:101A000000F4C060704700BF00700040174B1A68B8
:101A1000B0F5007F02F4C0621CD1B2F5007F15D092
:101A20001A6822F4C06242F400721A60104A116807
:101A300032224A430F49B2FBF1F21946013258698A
:101A4000400500D522B94B695B050DD400207047D5
:101A5000013AF4E7B2F5806F1FBF1A6822F4C06242
:101A600042F480621A60F1E7032070470070004082
:101A70002000002040420F0037B51E4DAB6DDA004C
:101A8000044618D5FFF7BAFFB0F5007F23D1802CAC
:101A900029D9A02C8CBF02200120174A136823F0FB
:101AA000070303431360136803F00703181A18BFF2
:101AB000012003B030BDAB6D43F08053AB65AB6D1F
:101AC00003F080530193019BFFF798FFAB6D23F068
:101AD0008053AB65D8E7802C07D808D0A4F17003F9
:101AE00058425841D9E70020D7E70320D5E7022024
:101AF000D3E700BF0010024000200240254B9A6847
:101B0000D96812F00C0205D00C2A15D101F003019E
:101B1000012918D119682048090755BFD3F8941036
:101B20001968C1F30321C1F3031150F8210082B3F6
:101B30000C2A09D000207047042A29D0082A174807
:101B400018BF002070470020D968DA6801F003014F
:101B5000C2F30212022902F1010205D0032912D0B8
:101B6000D968C1F3062103E0D9680D48C1F3062105
:101B7000DB68B0FBF2F0C3F34163013348435B0021
:101B8000B0FBF3F07047D9680448C1F30621EFE7D2
:101B90000348704700100240D84C000800127A0039
:101BA0000024F4002DE9F743054618B9012003B0DD
:101BB000BDE8F083A54C0368A668E768DB0606F07D
:101BC0000C0607F003073CD51EB10C2E63D1012F84
:101BD00061D12368980702D5AB69002BE6D0236852
:101BE000286A190756BFD4F8943023681B0903F0FC
:101BF000F00383423AD2FFF73FFF0028D6D1236893
:101C000043F00803236023682A6A23F0F003134398
:101C100023606368EA6923F47F4343EA0223636035
:101C2000FFF76CFFA3688A4AC3F30313D35C03F086
:101C30001F03D840874B18600020FEF7A1FC002846
:101C4000B5D12B68D8075DD42B68990700F19C802B
:101C50002B68180700F1D0802B68590700F1FC8031
:101C6000AB6A002B40F065810020A0E7236843F0B9
:101C700008032360236823F0F003034323606368B1
:101C8000EA6923F47F4343EA02236360FFF7F4FE2B
:101C90000028C5D08AE7AB691BB3236843F0010372
:101CA0002360FEF7A3FC804623689A0711D52368BA
:101CB00043F00803236023682A6A23F0F0031343E8
:101CC00023606368EA6923F47F4343EA0223636085
:101CD000B7E7FEF78BFCA0EB08000228E4D903204D
:101CE00065E7236823F001032360FEF77FFC80464D
:101CF00023689B07A5D5FEF779FCA0EB0800022816
:101D0000F6D9ECE7082E03D00C2E08D1032F06D10C
:101D100023689A0398D56B68002B95D146E76B68CA
:101D2000B3F5803F10D1236843F480332360FEF77E
:101D30005DFC804623689B0386D4FEF757FCA0EB2E
:101D400008006428F6D9CAE7B3F5A02F04D12368A8
:101D500043F480232360E6E7226822F48032226085
:101D6000226822F480222260002BE0D1FEF73EFCA4
:101D70008046236898037FF567AFFEF737FCA0EB3A
:101D800008006428F5D9AAE7042E03D00C2E10D140
:101D9000022F0ED12368590503D5EB68002B3FF4C1
:101DA00005AF63682A6923F0F85343EA026363606E
:101DB0004EE7EB687BB1236843F480732360FEF742
:101DC00015FC074623685A05EBD4FEF70FFCC01B31
:101DD0000228F7D983E7236823F480732360FEF792
:101DE00005FC074623685B057FF532AFFEF7FEFB77
:101DF000C01B0228F6D972E76B699BB1D4F8943006
:101E000043F00103C4F89430FEF7F0FB0746D4F822
:101E100094309A073FF520AFFEF7E8FBC01B02287D
:101E2000F5D95CE7D4F8943023F00103C4F894307A
:101E3000FEF7DCFB0746D4F894309B077FF50CAF28
:101E4000FEF7D4FBC01B0228F5D948E7001002407A
:101E5000BE4C000820000020A36DD80029D4A36D3B
:101E600043F08053A365A36D03F080530193019B5E
:101E70004FF001085D4F3B68D9051DD5AB68012BBC
:101E80002BD1D4F8903043F00103C4F89030FEF722
:101E9000ADFB41F288390746D4F890309B0742D514
:101EA000B8F1000F3FF4DCAEA36D23F08053A365BF
:101EB000D6E64FF00008DDE73B6843F480733B60F3
:101EC000FEF794FB81463B68DA05D7D4FEF78EFB1C
:101ED000A0EB09000228F6D901E7052B06D1D4F8BA
:101EE000903043F00403C4F89030CAE7D4F890204F
:101EF00022F00102C4F89020D4F8902022F00402CD
:101F0000C4F89020002BC2D1FEF770FB41F2883953
:101F10000746D4F890309807C2D5FEF767FBC01B80
:101F20004845F6D9DBE6FEF761FBC01B4845B3D94F
:101F3000D5E60C2E3FF43AAE022B236823F08073D3
:101F4000236037D1FEF752FB0646236899012BD454
:101F50006A6BEB6A43EA02232A6B013A43EA0213F3
:101F6000AA6B120943EA4243EA6B5208013A43EA78
:101F700042532A6C5208013A43EA4263E360236801
:101F800043F080732360E36843F08073E360FEF7FF
:101F90002DFB054623689A013FF566AEFEF726FB4A
:101FA000401B0228F6D99AE6FEF720FB801B022888
:101FB000CBD994E6236813F0205F02BFE36823F0D7
:101FC0000303E360E36823F0887323F48033E36062
:101FD000FEF70CFB054623689B017FF545AEFEF737
:101FE00005FB401B0228F6D979E600BF00700040CF
:101FF0002DE9F0410E46044610B90120BDE8F081FC
:10200000404A136803F007038B4229D32368D9079A
:1020100031D421688A075BD43A4A136803F0070376
:102020009E425DD311F0040F374D64D10B0706D5E6
:10203000AB68226923F4605343EAC203AB60FFF745
:102040005DFDAB68314AC3F30313BDE8F041D35CD7
:1020500003F01F03D8402E4B18600020FEF790BA03
:10206000136823F007030B431360136803F007039F
:102070009942C2D1CAE76268234D032A2B681BD15B
:1020800013F0007FB9D0AB6823F003031343AB60B8
:10209000FEF7ACFA41F288380746AB68626803F095
:1020A0000C03B3EB820FB4D0FEF7A0FAC01B40457F
:1020B000F3D90320BDE8F081022A02D113F4003FD6
:1020C000E0E712B913F0020FDCE713F4806FD9E7F1
:1020D0000D4AA068936823F0F003034393609BE7E5
:1020E000136823F0070333431360136803F00703F7
:1020F0009E4282D196E7AB68E26823F4E063134323
:10210000AB6093E70020024000100240BE4C000884
:1021100020000020054B064A9B68C3F30223D35CD2
:10212000044A106803F01F03D840704700100240B3
:10213000CE4C000820000020054B064A9B68C3F3E4
:10214000C223D35C044A106803F01F03D8407047D1
:1021500000100240CE4C000820000020F8B5454B8E
:10216000DA6812F0030F05460E461C4600682AD0B6
:10217000DA6802F0030282423CD1002A3AD0DB68DE
:102180006A68C3F302130133934233D1236823F007
:1021900080632360FEF72AFA074623681A0132D4C7
:1021A000AF68002E36D0012E50D12269286922F462
:1021B000C002400822F4FE42013842EA072242EA05
:1021C0004052226132E0022810D0032814D00128A6
:1021D00010D11B689F0738D5E3686A6823F0730342
:1021E000013A184340EA0210E060CFE71B6813F49D
:1021F000806FF1D10120F8BD1A689103ECD41B68FF
:1022000013F4802FF5E7FEF7F1F9C01B0228C4D9BB
:102210000320F8BD2169EB6821F41F3121F44071DE
:1022200041EA07211B0941EA43412161236843F048
:1022300080632360FEF7DAF9064623681B0113D595
:102240002369AA69134323610020F8BD23696869E3
:1022500023F0C063400823F4FE43013843EA072318
:1022600043EA40632361E1E7FEF7C0F9801B0228DF
:10227000E3D9CDE700100240F8B53D4BDA6812F023
:10228000030F05460E461C46006828D0DA6802F0A7
:10229000030282423AD1002A38D0DB686A68C3F36D
:1022A00002130133934231D1236823F0805323601A
:1022B000FEF79CF9074623689A0030D4A868002EE0
:1022C00034D06369296923F0C063490823F4FE43CD
:1022D000013943EA002343EA4163636132E00228A3
:1022E00010D0032814D0012810D11B689F0738D5BF
:1022F000E3686A6823F07303013A184340EA021066
:10230000E060D1E71B6813F4806FF1D10120F8BDC4
:102310001A689103ECD41B6813F4802FF5E7FEF7DD
:1023200065F9C01B0228C6D90320F8BD6269EB68B5
:1023300022F41F3222F4407242EA00221B0942EAD0
:1023400043426261236843F080532360FEF74EF9F5
:10235000064623689B0005D563696A691343636178
:102360000020F8BDFEF742F9801B0228F1D9DBE717
:10237000001002402DE9F347066816F40066044693
:1023800024D0416EB1F5800F2CD002D8C1B1012606
:102390001CE0B1F5000F0DD0B1F5400FF7D14D4A5B
:1023A000616ED2F8883023F440030B43C2F88830C2
:1023B00000260BE0474AD36843F48033D360EEE74E
:1023C0000430FFF7CBFE06460028E8D02368D80487
:1023D00006D5A16EB1F1807F74D008D8A9B10126CD
:1023E000354621E000212030FFF746FFEBE7B1F151
:1023F000007F04D0B1F1407FF1D1354609E0354A84
:10240000D36843F48033D360F7E7201DFFF7A6FEBF
:102410000546002D5CD12F4AA16ED2F8883023F0FA
:1024200040730B43C2F888302368990340F14F8111
:10243000284FBB6DDA0040F176814FF00008DFF8DD
:102440009890D9F8003043F48073C9F80030FEF753
:10245000CDF88246D9F80030DB053FD5002D44D1B8
:10246000D7F8903013F4407315D0D4F884209342F9
:1024700011D0D7F89030D7F8902042F48032C7F8C6
:102480009020D7F8902023F4407322F48032C7F8CC
:102490009020C7F89030D80709D5FEF7A7F841F289
:1024A00088390546D7F89030990740F10981D7F867
:1024B0009030D4F8842023F440731343C7F890304D
:1024C000354612E0002104F12000FFF7D5FE9FE71A
:1024D0002E46A9E70010024000700040FEF786F883
:1024E000A0EB0A000228B5D90325B8F1000F03D0EC
:1024F000BB6D23F08053BB652368DA0708D590498C
:10250000A06BD1F8882022F003020243C1F8882092
:102510009F0708D58A49E06BD1F8882022F00C0289
:102520000243C1F888205E0708D58549206CD1F8A0
:10253000882022F030020243C1F88820180708D50D
:102540007F49606CD1F8882022F0C0020243C1F8B4
:102550008820D90608D57A49A06CD1F8882022F4C1
:1025600040720243C1F888209A0608D57449E06C8D
:10257000D1F8882022F440620243C1F888209F05E8
:1025800008D56F49E06DD1F8882022F4402202433B
:10259000C1F888205E0508D56949206ED1F88820E9
:1025A00022F440120243C1F88820580608D5644935
:1025B000206DD1F8882022F440520243C1F88820CF
:1025C000190608D55E49606DD1F8882022F4404292
:1025D0000243C1F88820DA0508D55949A06DD1F821
:1025E000882022F440320243C1F888209B040FD592
:1025F000534AE16ED2F8883023F040630B43B1F1C7
:10260000006FC2F8883064D1D36843F48013D3607C
:1026100023681F030FD54A4A216FD2F8883023F070
:1026200040630B43B1F1006FC2F888305CD1D368CE
:1026300043F48013D36023685E030FD5404A616F73
:10264000D2F8883023F040630B43B1F1006FC2F839
:10265000883054D1D36843F48013D360236858047E
:1026600012D53749A26FD1F8883023F04053134375
:10267000B2F1805FC1F888304CD10221201DFFF7F4
:102680006DFD002818BF05462268110408D52C49A5
:10269000E06FD1F8883023F080430343C1F88830DD
:1026A000D30309D5264AD4F88010D2F8883023F015
:1026B00000430B43C2F88830284602B0BDE8F087DB
:1026C000FDF794FF401B48457FF6ECAE0CE735461E
:1026D00012E7B1F1806F9BD10121201DFFF73EFD74
:1026E000002818BF054693E7B1F1806FA3D10121FF
:1026F000201DFFF733FD002818BF05469BE7B1F109
:10270000806FABD10121201DFFF728FD002818BFE5
:102710000546A3E7B2F1005FB6D1022104F1200023
:10272000FFF7AAFDADE7BB6D43F08053BB65BB6D02
:1027300003F080530193019B4FF001087FE600BF37
:102740000010024003680A48DA6842F00102DA60C9
:1027500099680140062908D09A680240B2F5803F86
:102760001EBF1A6842F001021A600020704700BFC5
:1027700007000100704770477047704703681A6987
:10278000910710B504460FD5DA6892070CD56FF0A3
:1027900002021A619B6901229907027700F0858085
:1027A000FFF7E9FF0023237723681A69520710D542
:1027B000DA6850070DD56FF004021A619B69022296
:1027C00013F4407F2277204675D0FFF7D4FF002313
:1027D000237723681A6911070FD5DA6812070CD519
:1027E0006FF008021A61DB6904229B0722772046FA
:1027F00067D0FFF7C0FF0023237723681A69D0064C
:1028000010D5DA68D1060DD56FF010021A61DB69B8
:10281000082213F4407F2277204658D0FFF7ABFF01
:102820000023237723681A69D20708D5DA68D0070E
:1028300005D56FF001021A61204600F0F3FC236811
:102840001A69110608D5DA68120605D56FF08002FC
:102850001A61204600F09BF923681A69D00508D553
:10286000DA68110605D56FF480721A61204600F00F
:102870008FF923681A69520608D5DA68500605D51B
:102880006FF040021A612046FFF777FF23681A694C
:10289000910622D5DA6892061FD56FF020022046F5
:1028A0001A61BDE8104000F071B9FFF763FF2046E0
:1028B000FFF762FF76E7FFF75DFF2046FFF75CFF5B
:1028C00085E7FFF757FF2046FFF756FF93E7FFF72F
:1028D00051FF2046FFF750FFA2E710BD304A0368C2
:1028E000904212D0B0F1804F0FD0A2F594329042B6
:1028F0000BD002F58062904207D002F580629042D0
:1029000003D002F59432904219D14A6823F0700343
:102910001343234A90421DD0B0F1804F1AD0A2F544
:102920009432904216D002F58062904212D002F5A5
:10293000806290420ED002F5943290420AD0194A39
:10294000904207D002F58062904203D002F5806287
:10295000904203D1CA6823F4407313434A6923F0B9
:102960008003134303608B68C3620B6883620C4B64
:1029700098420FD003F5006398420BD003F54063F3
:10298000984207D003F58063984203D003F5806333
:10299000984201D10B69036301234361704700BF73
:1029A000002C01400040014010B50446A0B190F851
:1029B0003D3003F0FF021BB980F83C2001F0CEF857
:1029C000022384F83D302068211DFFF787FF012393
:1029D00084F83D30002010BD012010BD10B5846882
:1029E0000A4324F47F4442EA03232343836010BD57
:1029F00090F83C30012B70B504464FF0020017D020
:102A000084F83D002068012384F83C308268484BFC
:102A1000134083600B68402B72D015D8102B0CD05C
:102A200007D853B10123002084F83D3084F83C00DE
:102A300070BD202B01D0302BF4D1826843F0070306
:102A400022F07002134333E0702B33D01BD8502B8D
:102A50003FD0602BE6D14D68CE68016A21F01001AD
:102A600001628269036A22F4704223F0A00343EA00
:102A7000051342EA063282610362836823F0700321
:102A800043F0670314E0B3F5805F0CD0B3F5005F4B
:102A9000C8D1CB684A688968FFF7A0FF22689368AD
:102AA00043F4804313E0836823F4803323F0070367
:102AB0008360B7E7CB684A688968FFF78FFF2268B1
:102AC000936823F4803323F0770343F07703936014
:102AD000A8E74A68CE68016A056A25F00105056223
:102AE000836921F00A0123F0F00343EA06130A4345
:102AF00083610262836823F0700343F05703D7E7D2
:102B00004A68CE68016A056A25F001050562836995
:102B100021F00A0123F0F00343EA06130A4383611C
:102B20000262836823F0700343F04703C0E700BFED
:102B30008800FEFF90F83C30012B30B54FF00203C7
:102B40001FD00268104D80F83D30AA425368946847
:102B500003D005F50065AA4203D14D6823F4700344
:102B60002B430D68896823F070032B4324F0800405
:102B7000536021430123916080F83D30002380F8A9
:102B80003C30184630BD00BF002C014070477047F4
:102B9000704700000268C169F8B50446836800699F
:102BA0001568034360690343BA480B432840034355
:102BB00013605368E06823F4405303435360B64BFB
:102BC000A0699A421CBF236A1843936823F43063B8
:102BD00003439360B14B9A4219D103F55843B04A6D
:102BE000D3F8883003F00303B1F5004FD35C40F015
:102BF0003881082B00F28F80DFE813F01A01CA0039
:102C0000F9008D0014018D008D008D003600A54B5C
:102C10009A4207D103F5E633A34AD3F8883003F08C
:102C20000C03E1E7A14B9A4223D103F5E433D3F837
:102C3000883003F03003102B00F0F1800BD8002B0C
:102C400000F0F380B1F5004F4FF001024FF00003A8
:102C500000F0F880A8E0202B00F0C680302BF1D1E6
:102C6000B1F5004F40F0B8806068430803F5803349
:102C7000C3E08F4B9A421ED103F5E233D3F888307C
:102C800003F0C003402B00F0BB800AD87BB9824B15
:102C90009A4240F0CA80FFF73DFA0023B0BB0246DB
:102CA0003AE0802B00F09D80C02B00F0B0807A4B82
:102CB0009A42C7D12FE07F4B9A4211D103F5E033FE
:102CC000D3F8883003F44073B3F5807F00F0988028
:102CD000DCD9B3F5007F00F08480B3F5407FE4E7F2
:102CE0006D4B9A42AED103F5C833D3F8883003F464
:102CF0004063B3F5806F00F08380C7D9B3F5006FF0
:102D00006FD0B3F5406FD0E76B480223626802EBE7
:102D10004201814205D901220023236663661046E1
:102D2000F8BDB0EB023FF6D8082B2ED8DFE803F051
:102D3000052D1C2D242D2D2D2700FFF7EBF96268A2
:102D40004FF4807156080027E1FB006700233046EE
:102D50003946FDF78DFA0022584BA0F54071994293
:102D6000D9D82368D860D7E75548550800230021F3
:102D7000401941F10001ECE7FEF7C0FEDFE7500823
:102D80000021002310F50000F3E701220020E3E713
:102D9000FFF7D2F94EE0FFF7BDF9626800EB52038E
:102DA000B3FBF2F39BB20022A3F110004FF6EF71D8
:102DB0008842B0D82168CB60AEE7FFF7BDF9ECE7F9
:102DC0006068430803F5740303F51053B3FBF0F395
:102DD000E8E7FEF793FEE0E76068430803F5004389
:102DE000F4E72D4B9A428FD0B1F5004FE8D16068DF
:102DF000430803F1F47303F59043B3FBF0F31FE0D2
:102E0000254B9A420BD1FEF779FE042346E7224B6D
:102E10009A427FF425AF4FF40040082376E7B1F5DE
:102E2000004FD6D1FEF76AFE04E0B1F5004FB2D1F3
:102E3000FFF770F961684A0802EB4003B3FBF1F356
:102E40009BB20022A3F110004FF6EF7188423FF6CB
:102E500062AF23F00F012068C3F342030B43C3604A
:102E60005AE7082B3FF657AF01A252F823F000BFF4
:102E7000972D0008BB2D0008C12D0008172D000854
:102E8000D32D0008172D0008172D0008172D000856
:102E9000D92D0008F369FFEF0080004000380140A1
:102EA000584C0008004400405C4C000800480040BA
:102EB000004C0040005000400024F400FFFC0F00D4
:102EC000000024F4436ADA0710B506D50168846A65
:102ED0004A6822F4003222434A609C0706D5016802
:102EE000C46A4A6822F4803222434A60590706D5F0
:102EF0000168046B4A6822F4802222434A601A0760
:102F000006D50168446B4A6822F4004222434A60B5
:102F1000DC0606D50168846B8A6822F4805222435D
:102F20008A60990606D50168C46B8A6822F400524B
:102F300022438A605A060FD50168046C4A6822F45D
:102F400080122243B4F5801F4A6005D14A68446C60
:102F500022F4C00222434A601B0606D50268816C37
:102F6000536823F400230B43536010BD2DE9F04157
:102F7000069D04460F46164698462168CA6937EAF8
:102F800002030CBF01220022B24202D00020BDE8A1
:102F9000F0816B1CF2D09DB923681A6822F4D072BC
:102FA0001A609A6822F001029A60202384F8713036
:102FB00084F87230002384F870300320BDE8F0817B
:102FC000FDF714FBA0EB08008542D6D2E4E72DE91B
:102FD000F3411F4690F87130202B04460D46904671
:102FE0004AD1002946D0002A44D090F87030012BF5
:102FF00042D0012380F8703000234367212380F8FA
:103000007130FDF7F3FAA4F850800646A4F8528018
:10301000B4F85220009792B2334652B9402120466C
:10302000FFF7A4FF58B9202384F8713084F87000AA
:1030300006E0002280212046FFF798FF18B1032008
:1030400002B0BDE8F081A3682268B3F5805F0DD1BE
:1030500023695BB935F8023BC3F308031385B4F861
:103060005230013B9BB2A4F85230D1E72B78138544
:103070000135F4E70120E3E70220E1E773B50446F8
:1030800000264667FDF7B2FA23681B681A07054653
:1030900017D423681B685B070AD56FF07E43009343
:1030A00000222B464FF480012046FFF75FFFA0B9B6
:1030B0002023002084F8713084F8700084F8723086
:1030C0000CE06FF07E430093324603464FF400114C
:1030D0002046FFF74BFF0028DBD0032002B070BD75
:1030E00010B5044660B390F8713003F0FF021BB9CD
:1030F00080F8702000F050FD2268242384F871309D
:10310000136823F0010313602046FFF743FD0128F5
:1031100016D0636A13B12046FFF7D4FE23685A68BD
:1031200022F490425A609A6822F02A029A601A6841
:1031300042F0010220461A60BDE81040FFF79EBF32
:10314000012010BDF0B5B9B04422002105A800F05F
:10315000DDFD14220021684600F0D8FD8822002100
:1031600016A800F0D3FD4FF48073089310230224B7
:10317000099301270A23072605A800251293059421
:103180000F9410941197139614941594FEF70AFD5A
:103190000F220421032368468DE82C000395049533
:1031A000FEF726FF44F2420316934FF08053349308
:1031B0000823199316A84FF080731D9325952A951F
:1031C000179418971A961B941C94FFF7D3F84FF492
:1031D0000070FEF71BFC39B0F0BD000010B50A23EB
:1031E0001446034892B2FFF7F2FE204610BD00BF1E
:1031F000F40100200148FDF73BBE00BF680100203C
:1032000008B5054800F08AFD044B05481988BDE85B
:10321000084000F083BD00BF694C0008A6000020F4
:10322000714C000808B5FFF7EBFF0248BDE8084005
:10323000FDF71EBE680100201FB50D4B0D4C1A781E
:103240000D4800944FF47A73029301230193BF2138
:10325000FEF7CAFA2178094800F060FD084800F03E
:103260005DFD2178074804B0BDE8104000F056BD70
:103270001F000020A8000020CC000020834C000884
:10328000914C0008994C00087FB5194B194D1A78DC
:10329000194B009301244FF47A7623460296019449
:1032A000BE212846FEF7E8F9144B1A78144B009318
:1032B000029623460194BA212846FEF7DDF9114B08
:1032C0001A78114B0093029623460194BA2128469E
:1032D000FEF7D2F90D4B1A780D4B0093029601942C
:1032E0002346BA212846FEF7C7F904B070BD00BFD7
:1032F00005000020CC000020010000200400002078
:103300000000002006000020020000200F00002026
:103310000300002080B58EB0FDF74AF9FFF712FFD9
:103320001422002108A800F0F1FC754B7548DA6CF6
:1033300042F00402DA64DA6C02F004020092009AAD
:10334000DA6C42F08002DA64DA6C02F080020192F8
:10335000019ADA6C42F00102DA64DA6C02F00102DE
:103360000292029ADA6C42F00202DA64DA6C02F03B
:1033700002020392039ADA6C42F00802DA64DB6C10
:1033800003F008030493049B4FF40053089308A927
:103390005D4B09930024FDF701FF032541F6FF7300
:1033A00008A95848089309950A94FDF7F7FE49F6CD
:1033B000E37308A94FF09040089309950A94FDF72C
:1033C000EDFE4FF6F74308A95048089304260995E7
:1033D0000A94FDF7E3FE08A94D48089609950A945A
:1033E000FDF7DCFE4B484C4A4C4D84604FF4E13312
:1033F00080E80C000C234361C46004618461C461F3
:1034000004624462FFF76CFE1822214608A8059466
:103410000694079400F07AFC414B6E610127284620
:1034200085E81800AC60EC602C612C766F76EF615B
:1034300085F82040AC62EC6285F830406C6385F81A
:103440003840FDF7F3F805A928460594FDF7C6FDB9
:10345000344B08930623099308A97F2328460B932E
:103460000C960A940D94FDF7E9FA1022214608A85B
:1034700000F04CFC2C4E2D49059448F69F4386E8FD
:103480000A0030464FF47A73F36006940794B460F0
:103490003461B461FFF788FA4FF4805308A93046CD
:1034A0000893FFF7A5FA05A93046214D0594079426
:1034B000FFF740FB1F4B2048AC6085E80900284619
:1034C000EF602C616C61AC61EC612C62FEF783F8FB
:1034D00021462846FEF746FA21462846FEF768FAB6
:1034E000164800F01BFC164800F08CFCFFF7A4FE09
:1034F000FFF7CAFEFFF77EFE3046FFF723F9FEE72F
:10350000001002400008004800002110000400489C
:10351000000C0048F4010020004400406801002035
:10352000000004500002B0252401002000040040E7
:10353000CC000020EC9C901000540040A74C0008E8
:10354000B24C00082DE9F04F664B674D1A78674B77
:10355000674FDFF8F481DFF8F4A1DFF8F491DFF8CA
:10356000F4B185B001244FF47A7602960194009369
:10357000BF2123462846FEF737F95E4B1A785E4B8B
:10358000029601940093BF2123462846FEF72CF9AA
:103590005A4B1A785A4B029601940093BF21234646
:1035A0002846FEF721F93A78029601942346CDF891
:1035B0000080BF212846FEF717F93A780296019459
:1035C0002346CDF80080BF212846FEF70DF94D4B6C
:1035D0004D4F1A784D4B029601940093BF2123461C
:1035E0002846FEF701F94A4B1A784A4B0296019495
:1035F0000093BF2123462846FEF7F6F8464BBF212D
:103600001A78029601942346CDF800A02846FEF7CA
:10361000EBF8424BBF211A78029601942346CDF86D
:1036200000902846FEF7E0F89BF8002002960194EF
:1036300023460097BF212846FEF7D6F89BF80020C6
:103640000296019423460097BF212846FEF7CCF846
:103650002E4A98F8003011789AF800003A78304CE9
:1036600001EB03212F4B89B219802A4B1B7800EB09
:1036700003202D4B80B2188099F8003002EB032212
:103680002A4B92B21A801E4B1B7803F00306C3F339
:103690008105274B26701D70144B1C78254B04EBBD
:1036A00006241C80144B1B7803EB0523224D2B8032
:1036B000224DE408521A2C8012B2214DDB0802EB95
:1036C00082022B8052001B1B5343411A04EB8404DB
:1036D0001C4A09B293FBF1F303EB4403138005B0DA
:1036E000BDE8F08F19000020CC0000206701002009
:1036F000160000201C000020660100201800002099
:10370000D401002017000020C2000020BE000020CD
:103710001A000020C30000201B0000201D00002014
:10372000D8010020D2010020E4010020EE01002099
:10373000BC00002064010020D0010020EA0100202C
:10374000CA000020D6010020CD0100202101002068
:10375000E20100201E0000202DE9F04F4A4B4B4DA6
:10376000DFF870811A784A4FDFF86CB1DFF86CA18E
:10377000DFF86C9185B001244FF47A7602960194BB
:103780002346CDF80080BF212846FEF72DF8414B97
:103790001A78414B029601940093BF212346284694
:1037A000FEF722F83D4BBF211A780296019423467A
:1037B00000972846FEF718F8394BBF211A78029671
:1037C0000194234600972846FEF70EF8354BBF219B
:1037D0001A78029601942346CDF800B02846FEF7E9
:1037E00003F8314BBF211A78029601942346CDF895
:1037F00000A02846FDF7F8FF2C4BBF211A7802964F
:1038000001942346CDF800902846FDF7EDFF284BA4
:103810001A780296274E019423460096BF21284627
:10382000FDF7E2FF3878244B244A99F8001098F805
:103830000050E0401880224B1B78E34013809BF837
:1038400000409AF8002002EB042294B21D4A148032
:10385000327802EB01221C4992B20A800E490978A3
:1038600001EB0521194D89B229801B1A091B121B76
:1038700013FB01F312B293FBF2F3154A03441380D6
:1038800005B0BDE8F08F00BF0D000020CC00002087
:10389000EC0100200E000020700200200900002032
:1038A0000C00002007000020080000200A00002073
:1038B0000B000020BD00002018010020C0000020E7
:1038C000E6010020E001002072020020C600002076
:1038D000F0010020E7010020E8010020C8000020DE
:1038E000C40000202DE9F04F374BDFF80C91374D25
:1038F0001A78374E374FDFF80481DFF804B185B00E
:1039000001244FF47A7ACDF808A02346019400955B
:10391000BB214846FDF768FF2F4BBB211A78CDF835
:1039200008A02346019400964846FDF75DFF2B4B07
:10393000BB211A78CDF808A0234601940097484689
:10394000FDF752FF264BBB211A78CDF808A023467D
:103950000194CDF800804846FDF746FF214BBB217E
:103960001A78CDF808A023460194CDF800B0484657
:10397000FDF73AFF1C4B1A78CDF808A0DFF884A0B9
:1039800001942346CDF800A0BB214846FDF72CFF4B
:103990009BF800309AF800201B0203EB024398F8D2
:1039A00000201344114A136033783A781B0203EB6A
:1039B00002432A7813440E4A13600E4A1B0B13600D
:1039C00005B0BDE8F08F00BF150000201A010020EF
:1039D000CE01002020010020140000201300002050
:1039E000120000201100002010000020DC01002047
:1039F0006C0200201C010020CC000020710200207D
:103A0000CC010020ED01002010B50F4C23789A075F
:103A100003D1FCF7EBFE0D4B188022780323B2FB99
:103A2000F3F303EB4303D31A13F0FF0F01D1FFF7B6
:103A300089FD2378DB0701D4FFF78EFEFFF752FFE5
:103A400023780133237010BDA4000020A6000020BD
:103A50000A4B1A6E42F001021A661A6E82B002F028
:103A600001020092009A9A6D42F080529A659B6D15
:103A700003F080530193019B02B070470010024095
:103A800010B5044688B01422002103A800F03EF9C6
:103A90002268164B9A4226D103F17043A3F5F833FE
:103AA00003A9DA6C42F40052DA64DA6C02F40052D0
:103AB0000192019ADA6C42F00102DA64DB6C03F0E5
:103AC00001030293029B102303934FF090400B23BA
:103AD0000493FDF763FB002212201146FDF708FB5B
:103AE0001220FDF739FB08B010BD00BF00000450E4
:103AF00010B5044688B01422002103A800F006F98E
:103B00002268134B9A4221D1124C1348E36C43F0C4
:103B10000203E364E36C03F002030193019B4FF49F
:103B20004073039312230493012305930323069305
:103B300003A904230793FDF731FBA36D43F400139E
:103B4000A365A36D03F400130293029B08B010BD9C
:103B500000540040001002400004004807B50D4B1F
:103B600002689A4212D103F503331D209A6D42F088
:103B700002029A659B6D002203F002030193114635
:103B8000019BFDF7B5FA1D20FDF7E6FA03B05DF8DD
:103B900004FB00BF0004004010B5044688B01422A6
:103BA000002103A800F0B2F82268134B9A4220D1FA
:103BB00003F5E63303A99A6D42F400329A659A6DD3
:103BC00002F400320192019ADA6C42F00102DA64E6
:103BD000DB6C03F001030293029B0C23039302238B
:103BE0000493032306934FF0904007230793FDF7B8
:103BF000D5FA08B010BD00BF004400407047FEE792
:103C0000FEE7FEE7FEE7704770477047FCF7E6BC4B
:103C10000148FCF7F1BD00BF680100200148FEF734
:103C2000ADBD00BF240100200F49D1F8883043F416
:103C30007003C1F888300D4B1A68002042F0010271
:103C40001A6098601A6822F0A85222F410221A60B2
:103C50004FF48052DA601A6822F480221A60986168
:103C60004FF000638B60704700ED00E000100240F1
:103C7000DFF834D0002103E00C4B5B584350043193
:103C80000B480C4B42189A42F6D30B4A02E0002331
:103C900042F8043B094B9A42F9D3FFF7C5FF00F005
:103CA00011F8FFF737FBFEE700800120B04D000858
:103CB00000000020880000208800002078020020FA
:103CC000FEE7000070B50D4E0D4CA41BA41000259E
:103CD000A54209D10B4E0C4C00F0B2FFA41BA4105E
:103CE0000025A54205D170BD56F82530984701350D
:103CF000EEE756F8253098470135F2E7A84D000861
:103D0000A84D0008A84D0008AC4D00080244034629
:103D1000934200D1704703F8011BF9E70FB40A4B37
:103D200013B51C6824B1A36913B9204600F024FA26
:103D300005AB049AA1680193204600F0E1FB02B0B4
:103D4000BDE8104004B070472400002070B50E4656
:103D5000054618B183690BB900F00EFAAB69AC687F
:103D600013B9284600F008FA234B9C4217D16C681F
:103D7000A3891B071DD52369DBB1013EA36816F893
:103D8000011F013BA360E9B9002B2EDA22460A216C
:103D9000284600F03FF8013011D00A2070BD174BC3
:103DA0009C4201D1AC68E3E7154B9C4208BFEC682C
:103DB000DEE72146284600F07FF80028DDD04FF0EE
:103DC000FF3070BD002B04DAA269934206DB0A299A
:103DD00004D023685A1C22601970CFE72246284677
:103DE00000F018F80130C9D1E9E723680A205A1C0D
:103DF0002260187070BD00BF284D0008484D0008B3
:103E0000084D0008024B01461868FFF79FBF00BF2E
:103E100024000020F8B50E461446054618B1836903
:103E20000BB900F0A9F9214B9C422AD16C68A36917
:103E3000A360A3891A072ED5236963B32369206879
:103E4000C01A6369F6B29842374604DB2146284619
:103E500000F028F928BBA368013BA36023685A1C23
:103E600022601E7063690130984204D0A389DB0789
:103E700019D50A2E17D12146284600F013F990B122
:103E80000FE00B4B9C4201D1AC68D0E7094B9C4240
:103E900008BFEC68CBE72146284600F00DF8002863
:103EA000CCD04FF0FF373846F8BD00BF284D000892
:103EB000484D0008084D0008324B70B51D68064695
:103EC0000C4625B1AB6913B9284600F055F92E4BC5
:103ED0009C420FD16C68B4F90C309AB215072CD4FF
:103EE000D00611D40922326043F04003A3814FF081
:103EF000FF3070BD254B9C4201D1AC68EBE7244BF1
:103F00009C4208BFEC68E6E7510712D5616B41B1EE
:103F100004F14403994202D0304600F01BFA00231A
:103F20006363A38923F02403A381002363602369CF
:103F30002360A38943F00803A38123694BB9A389B4
:103F400003F42073B3F5007F03D02146304600F020
:103F5000C1F9A28912F001030CD00023A3606369A8
:103F60005B42A361236953B9B4F90C3013F08000AC
:103F7000BAD170BD920758BF6369A360F2E7002011
:103F8000F7E700BF24000020284D0008484D000836
:103F9000084D00088A892DE9F041054610070C46B6
:103FA0005AD44B68002B05DC0B6C002B02DC002084
:103FB000BDE8F081E66A002EF9D0002312F48052A9
:103FC0002F682B6033D0606DA3895A0705D56368CD
:103FD000C01A636B0BB1236CC01A00230246E66A59
:103FE000216A2846B047431CA38906D129681D29A8
:103FF0004BD82B4ACA40D60747D500226260D90465
:104000002269226004D5421C01D12B6803B9606586
:10401000616B2F600029CAD004F14403994202D099
:10402000284600F097F900206063BDE8F081216A1E
:1040300001232846B047411CC6D12B68002BC3D0B2
:104040001D2B01D0162B01D12F60B0E7A38943F0BF
:104050004003A381BDE8F0810F69002FA7D093072B
:104060000E6808BF4B690F6018BF0023A6EB070856
:104070008B60B8F1000F9ADD43463A46216AA66A82
:104080002846B047002807DCA38943F04003A381FA
:104090004FF0FF30BDE8F0810744A8EB0008E8E7E7
:1040A0000100402038B50B6905460C46DBB118B15C
:1040B00083690BB900F060F80C4B9C4209D16C6825
:1040C000B4F90C307BB121462846BDE83840FFF7F3
:1040D00061BF074B9C4201D1AC68F1E7054B9C42A4
:1040E00008BFEC68ECE7002038BD00BF284D000891
:1040F000484D0008084D0008014900F0A9B800BF6C
:10410000A5400008002310B50446036043608360A7
:1041100081814366C281036143618361194608223C
:104120005C30FFF7F3FD054B6362054BA362054B63
:10413000E362054B2462236310BD00BF794A000887
:104140009B4A0008D34A0008F74A000870B54A1E87
:10415000682555430E4605F1740100F049F90446FF
:1041600040B1002180E842000C30A06005F16802F7
:10417000FFF7CCFD204670BD836910B5044633BB04
:104180008364C3640365124B124A1B6882629842BF
:1041900004BF0123836100F01FF86060204600F037
:1041A0001BF8A060204600F017F80022E060042110
:1041B0006068FFF7A7FF01220921A068FFF7A2FFAF
:1041C00002221221E068FFF79DFF0123A36110BDC9
:1041D000684D0008F9400008F8B51C4B1E68B3692B
:1041E000074613B93046FFF7C7FF4836B46873680F
:1041F000013B03D5336833B13668F7E7B4F90C50A7
:104200006DB16834F4E704213846FFF79FFF306052
:104210000028F1D10C233B6004462046F8BD4FF640
:10422000FF73E3810123A38165662560A560656056
:1042300025616561A5610822294604F15C00FFF74C
:1042400065FD6563A563A564E564E6E7684D000860
:104250002DE9F8438046894600F14804002614B948
:104260003046BDE8F883A5686768013F01D524683A
:10427000F5E7AB89012B07D9B5F90E30013303D02F
:1042800029464046C84706436835EEE770B50E46F6
:10429000B1F90E10002990B014461D4607DA00232C
:1042A0002B60B3891A0610D44FF480630EE001AA84
:1042B00000F048FC0028F2DB029A02F47042A2F5FA
:1042C00000535A425A412A60EEE7402300202360FF
:1042D00010B070BD8B8973B59D0706460C4607D597
:1042E00004F14703236023610123636102B070BDC1
:1042F00001AB6A46FFF7CAFF00990546304600F059
:1043000077F848B9B4F90C309A05EFD423F00303D9
:1043100043F00203A381E3E70D4BB362A38920605E
:1043200043F08003A381009B6361019B20615BB12B
:10433000B4F90E10304600F017FC28B1A38923F021
:10434000030343F00103A381A3891D43A581CDE7A6
:10435000F940000838B50546002945D051F8043C1D
:104360000C1F002BB8BFE41800F020FC1F4A136894
:10437000104633B9636014602846BDE8384000F049
:1043800016BCA3420CD921686218934204BF1A6874
:104390005B68636004BF521822600460ECE7134658
:1043A0005A680AB1A242FAD919685818A0420BD12A
:1043B00020680144581882421960DDD110685268A3
:1043C0005A6001441960D7E702D90C232B60D3E768
:1043D000206821188A4204BF11685268626004BFD5
:1043E000091821605C60C7E738BD00BFAC00002041
:1043F00070B5CD1C25F0030508350C2D38BF0C25F4
:10440000002D064601DBA94203D90C2333600020AE
:1044100070BD00F0CBFB234A1468214691B9224CB1
:1044200023681BB9304600F017FB20602946304650
:1044300000F012FB431C26D10C233360304600F001
:10444000B6FBE4E70B685B1B1AD40B2B0FD90B6090
:10445000CD50CC18304600F0AAFB04F10B00231D10
:1044600020F00700C31A1BD05A42E25070BD8C42A4
:104470000DBF63684B686360136018BF0C46E9E7C3
:104480000C464968CAE7C41C24F00304A04205D0C6
:10449000211A304600F0E0FA0130CDD02560D9E78E
:1044A00070BD00BFAC000020B00000209368013B4D
:1044B000002B10B4936009DA9469A34202DBCBB2FB
:1044C0000A2B03D15DF8044BFFF7A4BC1368581CFA
:1044D00010601970C8B25DF8044B7047F8B5064615
:1044E0000F461446D518AC4201D1002007E03A46E9
:1044F00014F8011B3046FFF7D9FF431CF3D1F8BD78
:104500002DE9F04F9DB00C4617460393064618B1AF
:1045100083690BB9FFF730FE7C4B9C4257D174681E
:10452000A38918075DD52369002B5AD0002309936E
:1045300020238DF8293030238DF82A304FF0010BDD
:10454000B846454615F8013B002B55D1B8EB070A94
:104550000BD053463A4621463046FFF7BFFF0130A5
:1045600000F0C480099B5344099398F80030002B55
:1045700000F0BC8000234FF0FF32049307930592B4
:1045800006938DF853301A93052229786048FBF77B
:104590001FFE05F10108049B002831D1D90644BF54
:1045A00020228DF853201A0744BF2B228DF8532068
:1045B0002A782A2A2CD0079A00210A20A8460135F9
:1045C00098F80030303B092B6DD971B326E0514B80
:1045D0009C4201D1B468A3E74F4B9C4208BFF468EA
:1045E0009EE721463046FFF767FC00289ED04FF03B
:1045F000FF301DB0BDE8F08F252BA7D0A846A0E75F
:10460000434A801A0BFA00F0184304904546BBE772
:10461000039A111D12680391002A01DB079204E03E
:10462000524243F002030792049398F800302E2B75
:1046300010D198F801302A2B08F1010137D1039BE2
:104640001A1D1B680392002BB8BF4FF0FF3308F10F
:1046500002080593314D98F8001003222846FBF715
:10466000B7FD40B14023401B03FA00F0049B034315
:10467000049308F1010898F8001029488DF82810D3
:10468000062208F10107FBF7A3FD002834D0254BD3
:1046900003BB039B073323F0070308330393099BF2
:1046A0004B4409934CE700FB0232012186E70023CB
:1046B000059318460A258846013198F80020303ABB
:1046C000092A03D9002BC5D00590C3E705FB0020BC
:1046D0000123F0E703AB00932246134B04A93046B5
:1046E000AFF30080B0F1FF3F8146D8D1A3895B06CC
:1046F0003FF57DAF09987CE703AB009322460A4B58
:1047000004A9304600F088F8ECE700BF284D000807
:104710006C4D0008484D0008084D0008724D000817
:10472000764D000800000000DD4400082DE9F04748
:1047300091461F468A680B69DDF820809342B8BF16
:104740001346C9F8003091F8432006460C4612B1D2
:104750000133C9F800302368990642BFD9F8003008
:104760000233C9F80030256815F0060507D104F1B9
:10477000190AE368D9F800209B1A9D4229DB94F8B6
:1047800043302268003318BF012392062ED404F16F
:10479000430239463046C047013021D02368E568DE
:1047A000D9F8002003F00603042B08BFAD1AA36854
:1047B00022690CBF25EAE57500259342C4BF9B1A08
:1047C000ED184FF000091A344D451BD10020BDE80B
:1047D000F0870123524639463046C047013003D1A5
:1047E0004FF0FF30BDE8F0870135C2E7E1185A1CF1
:1047F000302081F84300224494F8451082F8431099
:104800000233C4E70123224639463046C04701300F
:10481000E6D009F10109D7E72DE9F04317460A7EF2
:1048200085B06E2A984606460C460C9B01F1430E55
:1048300000F0BC801AD8632A2ED00AD8002A00F0D3
:10484000C880582A00F08A8004F1420584F842208A
:104850002AE0642A01D0692AF6D121681A6811F089
:10486000800F23D0111D1960136827E0732A00F010
:10487000B48008D86F2A2AD0702AE5D10A6842F09D
:1048800020020A6003E0752A21D0782ADCD1782240
:1048900084F845206E4964E01A6801F14205111D53
:1048A0001960136884F842300123A3E011F0400F2F
:1048B00002F104011960D7D0B2F90030002B03DAFD
:1048C0002D225B4284F8432062490A2217E02068C7
:1048D000196810F0800F03D0081D18600B6806E0FF
:1048E00010F0400F01F104001860F7D00B8859490F
:1048F0006F2A14BF0A220822002084F8430065684A
:10490000A560002DC0F29C80206820F0040020608B
:10491000002B3FD1002D40F095807546082A0BD121
:104920002368DA0708D5236962689A42DEBF30231C
:1049300005F8013C05F1FF35AEEB05032361CDF829
:1049400000803B4603AA21463046FFF7EFFE0130C8
:1049500055D14FF0FF3005B0BDE8F08381F8452018
:104960003C492268186812F0800F00F104051D60B0
:1049700001D0036802E05506FBD50388D00744BF89
:1049800042F0200222601BB9226822F0200222603D
:104990001022B1E77546B3FBF2F002FB1033CB5C9B
:1049A00005F8013D03460028F5D1B7E708681A6805
:1049B000496910F0800F04D0101D18601368196049
:1049C00007E010F0400F02F1040018601368F6D001
:1049D0001980002323617546B1E71A68111D19601B
:1049E0001568626800212846FBF7F2FB08B1401BFE
:1049F000606063682361002384F843309FE7236984
:104A00002A4639463046C0470130A2D023689B076A
:104A100007D5002504F11909E368039A9B1A9D4202
:104A200005DBE068039B9842B8BF184693E7012373
:104A30004A4639463046C04701308AD00135EBE757
:104A4000002BA7D10B7884F8423004F1420565E7CA
:104A50008E4D00087D4D000838B5064C00230546F4
:104A60000846236000F0DEF8431C02D1236803B13E
:104A70002B6038BD7402002010B50C46B1F90E1041
:104A800000F096F80028ABBF636DA3891B1823F4D0
:104A90008053ACBF6365A38110BD2DE9F0411F4673
:104AA0008B89DB0505460C46164605D502230022F8
:104AB000B1F90E1000F068F8A389B4F90E1023F4D0
:104AC0008053A38132463B462846BDE8F04100F0C2
:104AD00017B810B50C46B1F90E1000F055F8431C8C
:104AE000A38915BF606523F4805343F48053A381E9
:104AF00018BFA38110BDB1F90E1000F013B800006B
:104B000038B5074C054608461146002222601A4671
:104B1000FEF764FB431C02D1236803B12B6038BD50
:104B20007402002038B5064C002305460846236071
:104B300000F050F8431C02D1236803B12B6038BD4C
:104B40007402002038B5074C00230546084611467C
:104B5000236000F047F8431C02D1236803B12B60A7
:104B600038BD00BF7402002038B5064C002305464E
:104B70000846236000F03EF8431C02D1236803B1CD
:104B80002B6038BD7402002038B5074C0546084636
:104B90001146002222601A4600F034F8431C02D16C
:104BA000236803B12B6038BD740200207047704742
:104BB00038B5074C054608461146002222601A46C1
:104BC00000F028F8431C02D1236803B12B6038BDE4
:104BD00074020020024B58221A604FF0FF307047D9
:104BE00074020020024B58221A604FF0FF307047C9
:104BF00074020020024B58221A600020704700BF48
:104C000074020020024B58221A604FF0FF307047A8
:104C100074020020024B58221A604FF0FF30704798
:104C200074020020044B1968024609B9034919604F
:104C3000186802441A607047B4000020780200200F
:104C4000F8B500BFF8BC08BC9E467047F8B500BF79
:084C5000F8BC08BC9E46704749
:104C580001040208001010100410101002101010A7
:104C6800087461206D6572650053454E534F52209C
:104C7800434F32203A2025640D0A0057686F2041BF
:104C88004D2049203A2025640061707269636F7471
:104C98000057686F20414D2049203A202575001B98
:104CA8005B324A1B5B313B314800476173205365D7
:104CB8006E736F720D00000000000000000001021A
:104CC80003040607080900000000010203040000AD
:104CD800A0860100400D0300801A060000350C0074
:104CE80040420F0080841E0000093D0000127A0037
:104CF8000024F40000366E010048E801006CDC0274
:104D0800000000000000000000000000000000009B
:104D1800000000000000000000000000000000008B
:104D2800000000000000000000000000000000007B
:104D3800000000000000000000000000000000006B
:104D4800000000000000000000000000000000005B
:104D5800000000000000000000000000000000004B
:104D680028000020232D302B2000686C4C0065663D
:104D780067454647003031323334353637383941A4
:104D880042434445460030313233343536373839BA
:084D98006162636465660000BE
:084DA00000B5FF7F01000000D7
:044DA800B501000849
:044DAC009101000869
:104DB000508301301020113736303B3A3129280B0F
:104DC0002A29281716153D3C35323F3E332B2A0F32
:104DD00000093D002800002000000000284D0008C8
:104DE000484D0008084D00080000000000000000C9
:104DF00000000000000000000000000000000000B3
:104E000000000000000000000000000000000000A2
:104E10000000000000000000000000000000000092
:104E20000000000000000000000000000000000082
:084E300000000000000000007A
:0400000508003C7142
:00000001FF
