:020000040800F2
:100000000080012061420008894000088B40000800
:100010008D4000088F40000891400008000000005B
:1000200000000000000000000000000093400008F5
:100030009540000800000000974000089940000823
:10004000B1420008B1420008B1420008B1420008C4
:10005000B1420008B1420008B1420008B1420008B4
:10006000B1420008B1420008B1420008B1420008A4
:10007000B1420008B1420008B1420008B142000894
:10008000B1420008B14200089D400008B14200089A
:10009000B1420008B1420008B1420008B142000874
:1000A000B1420008B1420008B1420008B142000864
:1000B000B1420008A9400008B1420008B54000085C
:1000C000C1400008B1420008B1420008B142000836
:1000D000B1420008B1420008B1420008B142000834
:1000E000B1420008B1420008B1420008B142000824
:1000F000B1420008B1420008B1420008B142000814
:10010000B1420008B1420008B1420008B142000803
:10011000B1420008B1420008B1420008B1420008F3
:10012000B1420008B1420008B1420008B1420008E3
:10013000B1420008B1420008B1420008B1420008D3
:10014000B1420008B1420008B1420008B1420008C3
:10015000B1420008B1420008B1420008B1420008B3
:10016000B1420008B1420008B1420008B1420008A3
:10017000B1420008B1420008B1420008000000008E
:08018000B1420008B142000881
:1001900010B5054C237833B9044B13B10448AFF3C1
:1001A00000800123237010BD8800002000000000A3
:1001B0003052000808B5034B1BB103490348AFF3A5
:1001C000008008BD000000008C00002030520008B4
:1001D00001F0FF01102A2BDB10F0070F08D010F8F8
:1001E000013B013A8B422DD010F0070F42B3F6D1FC
:1001F000F0B441EA012141EA014122F007047FF015
:1002000000070023F0E80256083C85EA010586EA6B
:10021000010685FA47F5A3FA87F586FA47F6A5FAA7
:1002200087F68EB9EED1F0BC01F0FF0102F00702B3
:1002300032B110F8013B013A83EA010313B1F8D15E
:100240000020704701387047002D06BF354603383F
:10025000073815F0010F07D1013015F4807F02BF78
:10026000013015F4C03F0130F0BC0138704700BFC9
:1002700053B94AB9002908BF00281CBF4FF0FF310D
:100280004FF0FF3000F07AB9ADF1080C6DE904CE03
:1002900000F006F8DDF804E0DDE9022304B0704761
:1002A0002DE9F0478C460D460446089E002B51D19F
:1002B0008A4217466DD9B2FA82FEBEF1000F0BD00A
:1002C000CEF1200C01FA0EF520FA0CFC02FA0EF722
:1002D0004CEA050C00FA0EF44FEA174A250CBCFB59
:1002E000FAF81FFA87F90AFB18CC45EA0C4508FB17
:1002F00009F3AB420AD9ED1908F1FF3280F02381EE
:10030000AB4240F22081A8F102083D44ED1AA4B2AC
:10031000B5FBFAF00AFB105544EA054400FB09F965
:10032000A14509D9E41900F1FF3380F00A81A14504
:1003300040F2078102383C44A4EB090440EA08403B
:100340000021002E61D024FA0EF400233460736083
:10035000BDE8F0878B4207D9002E54D0002186E8F3
:1003600021000846BDE8F087B3FA83F1002940F088
:100370008E80AB4202D3824200F2FA80841A65EB8F
:1003800003050120AC46002E3FD086E81010BDE8E2
:10039000F08712B90127B7FBF2F7B7FA87FEBEF173
:1003A000000F34D1EB1B3A0C1FFA87FC0121B3FB81
:1003B000F2F8250C02FB183345EA03450CFB08F361
:1003C000AB4207D9ED1908F1FF3002D2AB4200F27F
:1003D000D1808046ED1AA3B2B5FBF2F002FB1055B6
:1003E00043EA05440CFB00FCA44507D9E41900F1DD
:1003F000FF3302D2A44500F2B8801846A4EB0C04E7
:1004000040EA08409DE731463046BDE8F087CEF12E
:10041000200405FA0EF307FA0EF720FA04F83A0C56
:1004200025FA04F448EA0308B4FBF2F14FEA184550
:1004300002FB11441FFA87FC45EA044501FB0CF35B
:10044000AB4200FA0EF409D9ED1901F1FF3080F04A
:100450008A80AB4240F2878002393D44EB1A1FFA92
:1004600088F5B3FBF2F002FB103345EA034500FBCD
:100470000CF3AB4207D9ED1900F1FF386FD2AB4254
:100480006DD902383D44EB1A40EA01418FE7C1F1D2
:10049000200722FA07F88B4005FA01F448EA030323
:1004A00020FA07FE4FEA134CFD404EEA040EB5FB5E
:1004B000FCF94FEA1E440CFB19551FFA83F844EA75
:1004C000054509FB08F4AC4202FA01F200FA01FA10
:1004D00008D9ED1809F1FF3043D2AC4241D9A9F156
:1004E00002091D442D1B1FFA8EFEB5FBFCF00CFB10
:1004F00010554EEA054400FB08F8A04507D9E4185A
:1005000000F1FF3529D2A04527D902381C4440EA22
:100510000940A4EB0804A0FB02894C45C6464D46A1
:1005200015D312D056B1BAEB0E0364EB050404FAEE
:1005300007F7CB401F43CC40376074600021BDE813
:10054000F0871846F8E69046E0E6C245EAD2B8EBF6
:10055000020E69EB03050138E4E72846D7E7404679
:1005600091E78146BEE7014678E702383C4445E71B
:10057000084608E7A8F102083D442BE7704700BF92
:1005800038B50A4B054618684FF47A73B0FBF3F0A0
:1005900000F0EEFD044638B9024629464FF0FF3020
:1005A00000F0A6FD204638BD012038BD2000002007
:1005B000094A136843F4807310B50320136000F0F8
:1005C00085FD0020FFF7DCFF044618B903F044FD69
:1005D000204610BD0124FBE700200240024A1368B8
:1005E00001331360704700BFB4000020014B18684E
:1005F000704700BFB400002030B5CC0D04F00404F7
:100600001430C1F30451072303FA01F5235802FA09
:1006100001F123EA05031943215030BD806800F041
:10062000010070478068C0F38000704737B5002331
:1006300001930446002800F08580456D25B903F03C
:1006400075F8A56584F85050206883689B007BD4BA
:100650008368DD007FD58368D90040F18A8000215E
:10066000FFF7E0FF636D13F0100F636D67D1002893
:1006700065D123F4817343F0020363652068FFF7BB
:10068000CDFF98B95248FFF7C9FF03465148FFF71D
:10069000C5FF03435048FFF7C1FF034306D14F4A4C
:1006A0006068936823F47C1303439360E068636B92
:1006B00094F820200343A0680343607E012A43EAA4
:1006C000403343EA024302BF626A02F1FF3243EA67
:1006D0004243A26A22B1E06A02F4707202431343F9
:1006E00020683F4AC5682A401343C360FFF79AFF5A
:1006F00023689A68120746D52269012A05BF186B3C
:10070000E2691A6B02F1FF3206BF20F00F000243CC
:1007100022F00F021A63636D23F0030343F0010319
:100720006365084603B030BD019B013B0193019B0B
:10073000002BF9D18FE71A6922F0010245E043F05E
:10074000100363650121ECE7836823F0204323F065
:100750003F0383607CE78368224A23F0104323F041
:100760003F0343F0805383601F4B1B68B3FBF2F3DE
:10077000DCE7636D43F010036365A36D43F0010391
:10078000A36501216CE70028B6D1D86894F8302021
:10079000257E520020F4804042EA853220F002009B
:1007A0000243DA6094F83820012AC4D1256CE26B48
:1007B00018692A43656C42F001022A43A56C20F4B3
:1007C000FF602A4320F0040002431A6194E700BF4F
:1007D00000000450000104500002045000030450C3
:1007E00007C0F0FF400D0300200000200368186CD4
:1007F000704770477047000003682DE9F0411D689D
:100800005E688B4B9F6815F0020F044607F01F07C8
:1008100098460ED0B0070CD5636DD9065EBF636DE8
:1008200043F400636365204600F0D6FB2368022290
:100830001A606A0701D5730703D4280739D5310731
:1008400037D5636D2068DA065EBF636D43F40073CD
:100850006365C36813F4406F25D1764B984208D185
:10086000092F9DBF40F22123FB40DB430123DA0720
:1008700055D4C3689B0416D40368190713D5FFF732
:10088000D1FE00284ED12268536823F00C03536038
:10089000636D23F480736365636DDA0403D4636D61
:1008A00043F001036365204603F0AAFB23680C2292
:1008B0001A60AB0601D5B00603D4690658D5720696
:1008C00056D5636D5B4ADB065EBF636D43F4005330
:1008D00063652368D86CD968934200F0C00001F4C6
:1008E000406103D117B1BA1F012A24D8DA6828B1B0
:1008F000900137D4002935D1910433D419684806C2
:1009000030D591022ED49A6812071CD5636D43F03E
:1009100010036365A36D43F00103A36522E0464B1A
:10092000DB68A7E7636D43F010036365A36D43F0D5
:100930000103A365B7E7404AD268D8E72368DB68BC
:1009400013F0010F4CE05A6822F060025A60636DA8
:1009500023F480536365636DDB0503D4636D43F05B
:1009600001036365204600F033FB236860221A60B0
:1009700028060BD5310609D5636D43F480336365D2
:100980002046FFF736FF236880221A60EA050CD55F
:10099000F3050AD5636D43F400336365204600F028
:1009A00019FB23684FF480721A60A8050CD5B105B5
:1009B0000AD5636D43F480236365204600F00BFB8A
:1009C00023684FF400721A60EA060DD5F3060BD5C2
:1009D000636BF3B1002FB1D0D8F8083013F4604F37
:1009E00017D1236810221A6068051ED571051CD521
:1009F000636D43F480436365A36D43F00803A3650F
:100A000023684FF4806220461A60BDE8F04100F090
:100A1000E0BA636D43F480636365A36D43F0020342
:100A2000A3652046FFF7E6FEDBE7BDE8F08100BFE7
:100A3000000304500001045000000450F7B50023E7
:100A4000019390F85030012B05460C4600F0878149
:100A5000012380F850300068FFF7E4FD002840F0E3
:100A600078814B68052B08D8023B032B65D8DFE85B
:100A700003F0025D5F610C236360616828688E0982
:100A800000F1300706F00C0601F01F011F2303FAE6
:100A900001F2F35923EA02032268C2F384628A4016
:100AA0001343F351FFF7BEFD2B689A68110740F11D
:100AB00058812868FFF7B2FD002840F0D780E6682B
:100AC00028682368C34AD0F8B01006F0180EC3F3A4
:100AD000120722FA0EF21A4021EA07010A43C0F86F
:100AE000B020BD4A964240F0C180002F40F0938074
:100AF0009E0E013606F01F02092A4FF001014FEA4F
:100B0000866640F2A28006F0F846914041EA06026D
:100B1000002F40F0CB809B0E013303F01F0303EB4B
:100B200043011E39090541F000719BE01223A3E740
:100B30001823A1E74FF480739EE706239CE7DEF8B5
:100B40006010C3F31200C1F384670EF1640600283D
:100B50003AD1C3F38460874240F0288121F00041FC
:100B6000CEF860102368DEF86410C3F31207C1F3F7
:100B700084609FBBC3F38463834240F01C8121F0F7
:100B80000041316023689168C3F3120702F108063F
:100B9000C1F3846077BBC3F38463834240F0128166
:100BA00021F000413160236802F10C00D268C3F3E8
:100BB0001206C2F384614EBBC3F384638B4204BF4D
:100BC00022F00042026074E793FAA3F0B0FA80F0DA
:100BD0008742C3D0DEF86410C1F3846093FAA3F3B4
:100BE000B3FA83F38342CAD09168236802F10806FE
:100BF000C1F3846093FAA3F3B3FA83F38342CFD0B3
:100C000002F10C00D2682368C2F3846193FAA3F363
:100C1000B3FA83F3D2E793FAA3F2B2FA82F2013283
:100C200002F01F02092A30D893FAA3F6B6FA86F624
:100C30000136B60606F0F84693FAA3F1B1FA81F14F
:100C4000013101F01F02012101E006F0F846914058
:100C500041EA0602A7B9990E013101F01F0101EB2B
:100C6000410109051143A268FFF7C6FC22685B4BEE
:100C70001A4220D10020002385F8503003B0F0BD87
:100C800093FAA3F1B1FA81F1E6E793FAA3F2B2FA8B
:100C900082F20132920602F0F84693FAA3F1B1FA19
:100CA00081F1013101F01F0201212EE793FAA3F334
:100CB000B3FA83F330E74A494A4B88689A4200F016
:100CC000E0760C461ED10202D4D42B68464A9342E9
:100CD00003D002F500729342CCD1A368434A23F0BB
:100CE000E073334343F40003A360414B1B68B3FB41
:100CF000F2F20C2353430193019B002BBAD0019BCA
:100D0000013BF8E73B4B9A4211D1C301B2D42B68A7
:100D1000354A934203D002F500729342AAD1A368E8
:100D200023F0E073334343F08073A360A2E7324BB8
:100D30009A429FD110F480009CD12A682A4B9A4293
:100D400098D18B6823F0E073334343F480038B60C6
:100D500091E76A6D42F020026A6518468BE702202F
:100D60008CE700287FF4A5AEA26821681846FFF73B
:100D700043FC2669D5F800E02368DEF80C10042E49
:100D80000EF160023FF4DBAEC1F3C10148006169BE
:100D900003F0F843814043F00043194352F8260022
:100DA000164B0340194342F8261082E6DEF8641021
:100DB000C1F38460DEE69168236802F10806C1F39E
:100DC0008460E8E602F10C00D2682368C2F3846113
:100DD000F2E600BFFFFF070000007F400000088030
:100DE00000030450000052C700000450400D0300EF
:100DF00020000020000084CB0100008000F0FF03F1
:100E000070B504460068FFF709FC08B1002070BD0A
:100E10002268154B9168194209D0636D43F01003A5
:100E20006365A36D43F00103A365012070BD936862
:100E30000E4D2B4043F001039360FFF7D7FB0646AE
:100E400020680368DB07E1D4FFF7E8FB28B92268D4
:100E500093682B4043F001039360FFF7C7FB801BAF
:100E60000228EDD9D9E700BF3F000080C0FFFF7F17
:100E7000504B70B5044600689E68FFF7D3FB0546EB
:100E8000002840F0908094F85030012B00F08B80C7
:100E9000012384F850302046FFF7B2FF00287FD1AD
:100EA000636D454A23F4706323F0010343F48073B8
:100EB00063652368934206F01F0176D01E46626D7B
:100EC00022F480126265626D656912F480521CBF63
:100ED000A26D22F00602A2651C221A60002284F88C
:100EE00050205A6822F01C025A605A68082D0CBF24
:100EF00042F0080242F004025A60626B1AB95A6862
:100F000042F010025A60B34208D009299DBF40F256
:100F10002122CA40D2430122D20722D4DA689101A9
:100F200016D5626D22F4405242F4805262655A68CE
:100F3000082D0BBF22F0200222F040025A605A60B6
:100F40000BBF5A685A6842F0400242F020025A60D1
:100F50009A6822F0004222F03F0242F004029A60B6
:100F600070BD626D42F480126265F268920120D514
:100F7000626D22F4405242F4805262655A68082D34
:100F80000BBF22F0200222F040025A605A600BBFD1
:100F90005A685A6842F0400242F020025A6070BD1E
:100FA00084F8505070BD022070BD044E002986D0D8
:100FB00089E770BD00030450000104500000045094
:100FC000806800F0010070478068C0F380007047BF
:100FD00070477047704770477047000030B590F811
:100FE0005030012B9BB0024666D0012380F8503070
:100FF000324B006898420CBF03F5807300230193C5
:10100000019840B9536D82F8500043F020035365B6
:1010100001201BB030BDFFF7D7FF03461068FFF774
:10102000D3FF002842D1002B40D10B68244C33B3AE
:10103000A368486823F46043034392F8300043EA0E
:101040004033A3601D48FFF7BBFF03461D48FFF771
:10105000B7FF03431C48FFF7B3FF184304D0002039
:10106000002382F85030D4E70B68A56889680B43E9
:1010700025F4716121F00F010B43A360F0E7A36831
:101080000E4823F46043A360FFF79AFF03460D4820
:10109000FFF796FF03430C48FFF792FF1843DED19A
:1010A000A36823F4716323F00F03E6E7536D43F065
:1010B000200353650120D3E70220AAE70000045073
:1010C000000304500001045000020450074AD36892
:1010D00023F4E0631B041B0C43F0BF63000243F4E2
:1010E000003300F4E0600343D360704700ED00E09C
:1010F000174B30B5DC68C4F30224C4F10703251D87
:10110000042B28BF0423062D4FF0010505FA03F335
:1011100003F1FF338CBF033C00241940A14005FAC2
:1011200004F4013C2240002842EA01024FEA021284
:10113000AFBF00F1604000F00F00064BD2B2A5BF78
:1011400000F56140D2B21A5480F8002330BD00BFD0
:1011500000ED00E014ED00E04209012300F01F0063
:1011600003FA00F0014B43F82200704700E100E071
:101170000138B0F1807F0AD2064B074A5860F0214F
:1011800082F823100020072298601A60704701201F
:10119000704700BF10E000E000ED00E090F825206F
:1011A000022A10B503D00422C263012010BD0268D8
:1011B000046C1168836B21F00E011160116821F03D
:1011C00001011160426C012102F01C0201FA02F2DD
:1011D0006260002480F8251080F8244013B19847FD
:1011E000204610BD184610BD2DE9F04F85B00B68A4
:1011F000DFF8A881674C01930023019ADA4002D1FD
:1012000005B0BDE8F08F0126019A9E4012EA060E55
:1012100000F0B1804A6822F01007022F16D14FEA81
:10122000D30900EB890903F0070AD9F820504FEAE7
:101230008A0A4FF00F0C0CFA0AFC25EA0C0C0D6917
:1012400005FA0AF545EA0C05C9F820504FEA430CA7
:101250000325D0F800B005FA0CF5ED4302F0030ABF
:101260000BEA050B0AFA0CF9013F49EA0B09012FB9
:10127000C0F8009011D8876805EA0709CF6807FA17
:101280000CF747EA09078760476827EA0609C2F3AF
:1012900000179F4047EA09074760BAF1030F07D1DB
:1012A000C76A27EA0606C2F3C0079F403E43C662EC
:1012B000C66835408E6806FA0CF63543C560D50021
:1012C00059D5D8F8605045F00105C8F86050D8F8F5
:1012D000605023F0030606F1804605F0010506F58F
:1012E0008036039503F0030C039DB5684FEA8C0C20
:1012F0000F2707FA0CF7B0F1904F25EA07073CD00B
:10130000254DA8423BD005F58065A84239D005F5AA
:101310008065A84237D005F58065A84235D005F52F
:101320008065A84233D005F58065A84214BF072523
:10133000062505FA0CF53D43B56025686FEA0E06F3
:10134000D70354BF35404EEA05052560656897030D
:1013500054BF35404EEA05056560A568D70254BF05
:1013600035404EEA0505A560E568920254BF354058
:101370004EEA0505E56001333FE70025D9E7012581
:10138000D7E70225D5E70325D3E70425D1E70525CF
:10139000CFE700BF000401400004004800100240F5
:1013A00003689A69910744BF00229A629A69D2073A
:1013B0005EBF9A6942F001029A61704730B5039CA2
:1013C00005682343640D04F4806444F07F7444F49E
:1013D00058346868C1F3090144F47F74194344F038
:1013E000030441EA024120EA04042143696030BD5C
:1013F00011F0010307D090F8413003F02803282BA7
:101400000CBF4223F2238A0709D590F8412002F04D
:101410002802282A0CBF43F0440343F0F4034A0790
:1014200001F0110248BF43F0B80301F01201112A84
:1014300008BF43F09003122901680A6808BF43F00F
:10144000600322EA03030B6070472DE9F041069F19
:101450000446884616461D462268936938EA030307
:101460000CBF01230023B34202D00020BDE8F0816D
:101470006B1CF2D0FFF7BAF8C01B854201D3002DD8
:10148000EAD1636C43F020036364202384F8413085
:10149000002384F8423084F840300120BDE8F08118
:1014A000036870B50446986910F010000D461646A2
:1014B00016D170BD691C14D0FFF798F8801B8542C7
:1014C00000D36DB9636C43F020036364202384F878
:1014D0004130002384F8423084F84030012070BD50
:1014E000236899698A06E5D510222025DA6120460D
:1014F000DD61FFF755FF2268536823F0FF7323F483
:101500008B3323F4FF7323F001035360636C43F0C8
:101510000403636484F84150DBE770B504460D466C
:10152000164623689B699B0701D5002070BD324693
:1015300029462046FFF7B4FFA0B96A1CF1D0FFF797
:1015400055F8801B854201D3002DEAD1636C43F02E
:1015500020036364202384F84130002384F8423060
:1015600084F84030012070BDF7B5099E1F46164B28
:101570000093054614464FF08073FAB2FFF71EFF42
:10158000324608992846FFF7C8FF10B1012003B082
:10159000F0BD012F2B680CD1E4B29C62089B009631
:1015A000002280212846FFF750FF003018BF01209D
:1015B000EDE7220A9A62089932462846FFF7ADFF06
:1015C0000028E3D12B68E7E700200080F7B5099EEB
:1015D0001F46164B0093054614460023FAB2FFF748
:1015E000EDFE324608992846FFF797FF10B101201B
:1015F00003B0F0BD012F2B680CD1E4B29C62089BB4
:101600000096002240212846FFF71FFF003018BF38
:101610000120EDE7220A9A62089932462846FFF730
:101620007CFF0028E3D12B68E7E700BF00200080A3
:1016300070B504460D46164623689B699B0601D586
:10164000002070BD324629462046FFF729FF90B999
:10165000FEF7CCFF801B854201D3002DECD1636CDB
:1016600043F020036364202384F84130002384F88E
:10167000423084F84030012070BD10B50446002887
:101680004AD090F8413003F0FF021BB980F84020A7
:1016900002F022F9242384F841302368E1681A68B3
:1016A00022F001021A60626822F070621A619A6880
:1016B000012922F400429A60A26824D142F4004237
:1016C0009A605A68616942F0007242F400425A60BE
:1016D000DA6822F40042DA6022690A43A16942EA28
:1016E0000122DA60216AE2690A431A601A6842F04C
:1016F00001021A6000202023606484F841302063D6
:1017000084F8420010BD42F4044202299A6004BFEA
:101710004FF400625A60D4E7012010BD2DE9F04F6C
:101720009B4690F8413085B0202B04460F4603922B
:10173000BDF83CA0DDF8408040F0A5800E9B13B1C1
:10174000BAF1000F06D14FF400736364012005B0B5
:10175000BDE8F08F90F84030012B00F09480012517
:1017600080F84050FEF742FF1923009006462A46B3
:101770004FF400412046FFF768FE81460028E5D17E
:10178000212384F84130402384F842300E9B60646A
:1017900063626063A4F82AA00196CDF800805B46DE
:1017A000039A39462046FFF7DFFE10B184F84090D7
:1017B000CCE7638D9BB2FF2B55D9FF222285009089
:1017C0004FF0807339462046FFF7F8FD3246414618
:1017D0002046FFF7A2FE0028B8D1636A226813F8FA
:1017E000011B91626362638D228D013B9BB2638515
:1017F000638D013A92B29BB22285ABB1A2B9009639
:10180000434680212046FFF720FE00289ED1638DAD
:101810009BB2FF2B2FD9FF22228500904FF08073BF
:1018200039462046FFF7CAFD638D9BB2002BCDD110
:10183000324641462046FFF7FBFE002886D123684A
:101840002021D9615A6822F0FF7222F48B3222F4EF
:10185000FF7222F001025A6084F8411084F84000BF
:1018600084F8420073E7628D009092B222854FF0B7
:101870000073D2B2A6E7628D009092B222854FF03B
:101880000073D2B2CCE7022061E700002DE9F04FEF
:101890009B4690F8413085B0202B04460F460392BA
:1018A000BDF83CA0DDF8408040F0A9800E9B13B14C
:1018B000BAF1000F06D14FF400736364012005B044
:1018C000BDE8F08F90F84030012B00F098800125A2
:1018D00080F84050FEF78AFE1923009006462A46FB
:1018E0004FF400412046FFF7B0FD81460028E5D1C6
:1018F000222384F84130402384F842300E9B6064F8
:1019000063626063A4F82AA00196CDF800805B466C
:10191000039A39462046FFF759FE10B184F84090EB
:10192000CCE7638D9BB2FF2B364B58D9FF22009337
:1019300022854FF0807339462046FFF73FFD009621
:101940004346002204212046FFF77FFD0028B5D141
:101950002268636A526A1A70636A228D0133636275
:10196000638D013B9BB26385638D013A92B29BB25A
:101970002285ABB1A2B90096434680212046FFF7ED
:1019800064FD00289AD1638D9BB2FF2B2FD9FF22D3
:10199000228500904FF0807339462046FFF70EFDF8
:1019A000638D9BB2002BCAD1324641462046FFF7D9
:1019B0003FFE002882D123682021D9615A6822F095
:1019C000FF7222F48B3222F4FF7222F001025A607D
:1019D00084F8411084F8400084F842006FE7628D7B
:1019E000009392B222854FF00073D2B2A3E7628DCA
:1019F000009092B222854FF00073D2B2CCE7022061
:101A00005DE700BF002400800268436B91691268A3
:101A100003B1184770477047704738B5002580F804
:101A2000425090F84130292B0CD1282380F84130C6
:101A3000212303630121FFF7DBFC80F84050FFF70F
:101A4000EAFF38BD90F841302A2B0BD1282380F8CB
:101A50004130222303630221FFF7CAFC80F8405083
:101A6000FFF7DAFF38BD7047F8B590F8413003F062
:101A70002803282B0446036834D19E69C1689D69F8
:101A80009A68DF682D0C0229C6F3004605F0FE05B2
:101A900020D1C2F3090285EAD21515F006050ED150
:101AA000816C01318164816C022920D10821856417
:101AB000D96180F840503146FFF7D5FFF8BD0421C9
:101AC000FFF796FC002380F8403007F0FE02314615
:101AD0002046F1E70421FFF78BFC002380F840301B
:101AE0002A46F4E70822DA61002380F84030F8BD86
:101AF00070470000174B10B52022C3620023036318
:101B0000436380F8412080F842304B07044612D5E9
:101B10000268436A526A1A70436A01334362038D52
:101B20004BB1013B0385438D013B9BB24385436C25
:101B300043F00403436420460721FFF759FC236860
:101B40001022DA61002384F840302046FFF7D0FFEE
:101B500010BD00BF0000FFFF7047704770B5324AEC
:101B600090F84130002580F84250C2624585426CB1
:101B7000283B1143022B0446416422D80321FFF77E
:101B800037FC282380F84130284B056363632368C2
:101B900019681A6811F4804120D0A06B22F48042A9
:101BA0001A6000283ED0224B8363002384F8403023
:101BB000FFF7F4FA002835D0A06B836BBDE87040C6
:101BC00018470721FFF714FC90F84130602B1CBF29
:101BD000202380F8413000230363D7E712F400424A
:101BE0000ED01A68E06B22F400421A60D0B1104B9C
:101BF000836384F84010FFF7D1FA98B1E06BDCE71B
:101C000094F84130602B08D1202384F8413084F8C7
:101C100040202046FFF7A1FF70BD84F840202046F9
:101C2000FFF79AFF70BD00BF0000FFFF251D0008F1
:101C3000951E00080368202270B51E68DA6108222C
:101C4000DA610D4607210446FFF7D2FB03685A68A4
:101C500042F400425A605A6822F0FF7222F48B323A
:101C600022F4FF7222F001025A60FFF799FB71041F
:101C700032D5836B1BB11B685B689BB263856B07B6
:101C80000ED52268636A526A1A70636A013363620E
:101C9000238D2BB1013B2385638D013B9BB2638573
:101CA000638D9BB21BB1636C43F004036364002338
:101CB000236384F842306363636C8BB1616C2046AC
:101CC000FFF74CFF94F84130282B28D129462046B5
:101CD000BDE87040FFF70EBF3204D0D5C36BC9E733
:101CE000E26A12F5803F0AD00D4AE262202284F8AF
:101CF000412084F840302046FFF7FAFE70BD94F88A
:101D0000412084F84030222A4FF0200284F84120FC
:101D1000204602D1FFF780FE70BDFFF77CFE70BD4C
:101D20000000FFFF70B5164690F84020C36A012AF4
:101D300004460D467CD0012280F84020CA0639D5E1
:101D4000F20637D5428D92B232BB90F84120282A54
:101D500010D1B3F1007F0DD1FFF7CCFEAA0605D557
:101D6000B30603D529462046FFF764FF002084F818
:101D7000400070BD94F84120292A22684FF01001DC
:101D8000D161EBD113F5803FE8D02046FFF708FB87
:101D90002046FFF742FEE1E702681021D161426C64
:101DA00033F0807342F004024264D7D1416CFFF7F4
:101DB000D5FED3E76A071AD5700718D5628D92B29F
:101DC0006AB12168626A496A1170626A01326262AC
:101DD000228D013A2285628D013A92B26285628D2E
:101DE00092B2002ABAD113F5803FD1D1B6E72907C4
:101DF00005D5320703D52046FFF736FEAEE7A80724
:101E0000ACD5B107AAD5628D92B26AB1636A226875
:101E100013F8011B91626362638D013B9BB2638582
:101E2000238D013B238599E733F08073B0D095E78C
:101E3000022070BD036899691A6810B4CC0508D5F2
:101E4000140606D5446C44F0010444644FF48074D5
:101E5000DC614C0508D5140606D5446C44F0080432
:101E600044644FF48064DC61890508D5120606D508
:101E7000426C42F0020242644FF40072DA61416C3B
:101E800011F00B0F03D05DF8044BFFF767BE5DF850
:101E9000044B7047806A826B08B500239363C26B62
:101EA000936390F84130602B05D1202380F84130B6
:101EB000FFF753FE08BDFFF74FFE08BD90F8412025
:101EC000D2B2202A10B51DD190F84030012B19D084
:101ED000242380F8413003681C6824F001041C604E
:101EE0001C6824F480541C601C6821431960196824
:101EF00041F001011960002380F8412080F8403052
:101F0000184610BD022010BD10B590F84140E4B253
:101F1000202C1CD190F84030012B18D0242380F8BD
:101F2000413003681A6822F001021A601A6822F42C
:101F3000706242EA012119601A6842F001021A60D7
:101F4000002380F8414080F84030184610BD022040
:101F500010BD0000024B186800F4C060704700BF5D
:101F600000700040174B1A68B0F5007F02F4C062A1
:101F70001CD1B2F5007F15D01A6822F4C06242F479
:101F800000721A60104A116832224A430F49B2FBAC
:101F9000F1F2194601325869400500D522B94B6962
:101FA0005B050DD400207047013AF4E7B2F5806F6D
:101FB0001FBF1A6822F4C06242F480621A60F1E71F
:101FC00003207047007000402000002040420F00B6
:101FD00037B51E4DAB6DDA00044618D5FFF7BAFFD2
:101FE000B0F5007F23D1802C29D9A02C8CBF0220F2
:101FF0000120174A136823F0070303431360136893
:1020000003F00703181A18BF012003B030BDAB6DF1
:1020100043F08053AB65AB6D03F080530193019B9C
:10202000FFF798FFAB6D23F08053AB65D8E7802CAA
:1020300007D808D0A4F1700358425841D9E70020CE
:10204000D7E70320D5E70220D3E700BF0010024006
:1020500000200240254B9A68D96812F00C0205D086
:102060000C2A15D101F00301012918D11968204863
:10207000090755BFD3F894101968C1F30321C1F3C0
:10208000031150F8210082B30C2A09D000207047B8
:10209000042A29D0082A174818BF002070470020BA
:1020A000D968DA6801F00301C2F30212022902F1D1
:1020B000010205D0032912D0D968C1F3062103E03B
:1020C000D9680D48C1F30621DB68B0FBF2F0C3F319
:1020D0004163013348435B00B0FBF3F07047D968BC
:1020E0000448C1F30621EFE703487047001002409F
:1020F000E852000800127A000024F4002DE9F743AA
:10210000054618B9012003B0BDE8F083A54C03686B
:10211000A668E768DB0606F00C0607F003073CD567
:102120001EB10C2E63D1012F61D12368980702D50F
:10213000AB69002BE6D02368286A190756BFD4F88C
:10214000943023681B0903F0F00383423AD2FFF76F
:102150003FFF0028D6D1236843F00803236023689B
:102160002A6A23F0F003134323606368EA6923F4C7
:102170007F4343EA02236360FFF76CFFA3688A4A48
:10218000C3F30313D35C03F01F03D840874B1860DD
:102190000020FEF7F5F90028B5D12B68D8075DD4EB
:1021A0002B68990700F19C802B68180700F1D080FC
:1021B0002B68590700F1FC80AB6A002B40F0658169
:1021C0000020A0E7236843F008032360236823F07E
:1021D000F003034323606368EA6923F47F4343EA1F
:1021E00002236360FFF7F4FE0028C5D08AE7AB69DD
:1021F0001BB3236843F001032360FEF7F7F9804621
:1022000023689A0711D5236843F0080323602368E5
:102210002A6A23F0F003134323606368EA6923F416
:102220007F4343EA02236360B7E7FEF7DFF9A0EBE1
:1022300008000228E4D9032065E7236823F001039E
:102240002360FEF7D3F9804623689B07A5D5FEF7E8
:10225000CDF9A0EB08000228F6D9ECE7082E03D050
:102260000C2E08D1032F06D123689A0398D56B68EA
:10227000002B95D146E76B68B3F5803F10D12368FA
:1022800043F480332360FEF7B1F9804623689B0353
:1022900086D4FEF7ABF9A0EB08006428F6D9CAE7AC
:1022A000B3F5A02F04D1236843F480232360E6E72D
:1022B000226822F480322260226822F48022226086
:1022C000002BE0D1FEF792F98046236898037FF552
:1022D00067AFFEF78BF9A0EB08006428F5D9AAE7F1
:1022E000042E03D00C2E10D1022F0ED123685905D5
:1022F00003D5EB68002B3FF405AF63682A6923F030
:10230000F85343EA026363604EE7EB687BB12368EE
:1023100043F480732360FEF769F9074623685A0582
:10232000EBD4FEF763F9C01B0228F7D983E72368D3
:1023300023F480732360FEF759F9074623685B0591
:102340007FF532AFFEF752F9C01B0228F6D972E7CB
:102350006B699BB1D4F8943043F00103C4F8943016
:10236000FEF744F90746D4F894309A073FF520AFBA
:10237000FEF73CF9C01B0228F5D95CE7D4F894308D
:1023800023F00103C4F89430FEF730F90746D4F87F
:1023900094309B077FF50CAFFEF728F9C01B02288D
:1023A000F5D948E700100240CE5200082000002076
:1023B000A36DD80029D4A36D43F08053A365A36D0A
:1023C00003F080530193019B4FF001085D4F3B6880
:1023D000D9051DD5AB68012B2BD1D4F8903043F033
:1023E0000103C4F89030FEF701F941F2883907463D
:1023F000D4F890309B0742D5B8F1000F3FF4DCAE23
:10240000A36D23F08053A365D6E64FF00008DDE707
:102410003B6843F480733B60FEF7E8F881463B6815
:10242000DA05D7D4FEF7E2F8A0EB09000228F6D9C6
:1024300001E7052B06D1D4F8903043F00403C4F82B
:102440009030CAE7D4F8902022F00102C4F890201E
:10245000D4F8902022F00402C4F89020002BC2D1BE
:10246000FEF7C4F841F288390746D4F8903098074F
:10247000C2D5FEF7BBF8C01B4845F6D9DBE6FEF730
:10248000B5F8C01B4845B3D9D5E60C2E3FF43AAE9B
:10249000022B236823F08073236037D1FEF7A6F860
:1024A0000646236899012BD46A6BEB6A43EA022340
:1024B0002A6B013A43EA0213AA6B120943EA424328
:1024C000EA6B5208013A43EA42532A6C5208013A35
:1024D00043EA4263E360236843F080732360E36868
:1024E00043F08073E360FEF781F8054623689A01A4
:1024F0003FF566AEFEF77AF8401B0228F6D99AE659
:10250000FEF774F8801B0228CBD994E6236813F0F9
:10251000205F02BFE36823F00303E360E36823F076
:10252000887323F48033E360FEF760F80546236880
:102530009B017FF545AEFEF759F8401B0228F6D9FE
:1025400079E600BF007000402DE9F0410E460446D8
:1025500010B90120BDE8F081404A136803F0070379
:102560008B4229D32368D90731D421688A075BD4E9
:102570003A4A136803F007039E425DD311F0040F3B
:10258000374D64D10B0706D5AB68226923F460533D
:1025900043EAC203AB60FFF75DFDAB68314AC3F3AA
:1025A0000313BDE8F041D35C03F01F03D8402E4B6A
:1025B00018600020FDF7E4BF136823F007030B4306
:1025C0001360136803F007039942C2D1CAE7626837
:1025D000234D032A2B681BD113F0007FB9D0AB68C1
:1025E00023F003031343AB60FEF700F841F2883891
:1025F0000746AB68626803F00C03B3EB820FB4D0FC
:10260000FDF7F4FFC01B4045F3D90320BDE8F0817E
:10261000022A02D113F4003FE0E712B913F0020FCF
:10262000DCE713F4806FD9E70D4AA068936823F0C4
:10263000F003034393609BE7136823F007033343DE
:102640001360136803F007039E4282D196E7AB68DC
:10265000E26823F4E0631343AB6093E70020024099
:1026600000100240CE52000820000020054B064A10
:102670009B68C3F30223D35C044A106803F01F0372
:10268000D840704700100240DE52000820000020B1
:10269000054B064A9B68C3F3C223D35C044A106807
:1026A00003F01F03D840704700100240DE520008BC
:1026B00020000020F8B5454BDA6812F0030F0546FC
:1026C0000E461C4600682AD0DA6802F003028242F5
:1026D0003CD1002A3AD0DB686A68C3F302130133A5
:1026E000934233D1236823F080632360FDF77EFF9C
:1026F000074623681A0132D4AF68002E36D0012E67
:1027000050D12269286922F4C002400822F4FE4216
:10271000013842EA072242EA4052226132E00228AE
:1027200010D0032814D0012810D11B689F0738D57A
:10273000E3686A6823F07303013A184340EA021021
:10274000E060CFE71B6813F4806FF1D10120F8BD82
:102750001A689103ECD41B6813F4802FF5E7FDF79A
:1027600045FFC01B0228C4D90320F8BD2169EB68CE
:1027700021F41F3121F4407141EA07211B0941EA8C
:1027800043412161236843F080632360FDF72EFFFE
:10279000064623681B0113D52369AA6913432361E5
:1027A0000020F8BD2369686923F0C063400823F462
:1027B000FE43013843EA072343EA40632361E1E72C
:1027C000FDF714FF801B0228E3D9CDE7001002407B
:1027D000F8B53D4BDA6812F0030F05460E461C466D
:1027E000006828D0DA6802F0030282423AD1002A57
:1027F00038D0DB686A68C3F302130133934231D1E6
:10280000236823F080532360FDF7F0FE074623681A
:102810009A0030D4A868002E34D06369296923F067
:10282000C063490823F4FE43013943EA002343EA25
:102830004163636132E0022810D0032814D00128DC
:1028400010D11B689F0738D5E3686A6823F07303CB
:10285000013A184340EA0210E060D1E71B6813F424
:10286000806FF1D10120F8BD1A689103ECD41B6888
:1028700013F4802FF5E7FDF7B9FEC01B0228C6D977
:102880000320F8BD6269EB6822F41F3222F4407223
:1028900042EA00221B0942EA43426261236843F094
:1028A00080532360FDF7A2FE064623689B0005D5F2
:1028B00063696A69134363610020F8BDFDF796FE02
:1028C000801B0228F1D9DBE7001002402DE9F34715
:1028D000066816F40066044624D0416EB1F5800FF8
:1028E0002CD002D8C1B101261CE0B1F5000F0DD0EB
:1028F000B1F5400FF7D14D4A616ED2F8883023F41C
:1029000040030B43C2F8883000260BE0474AD368E7
:1029100043F48033D360EEE70430FFF7CBFE064686
:102920000028E8D02368D80406D5A16EB1F1807FD5
:1029300074D008D8A9B10126354621E00021203005
:10294000FFF746FFEBE7B1F1007F04D0B1F1407F24
:10295000F1D1354609E0354AD36843F48033D3607A
:10296000F7E7201DFFF7A6FE0546002D5CD12F4A94
:10297000A16ED2F8883023F040730B43C2F8883040
:102980002368990340F14F81284FBB6DDA0040F175
:1029900076814FF00008DFF89890D9F8003043F4C2
:1029A0008073C9F80030FDF721FE8246D9F8003067
:1029B000DB053FD5002D44D1D7F8903013F4407398
:1029C00015D0D4F88420934211D0D7F89030D7F89E
:1029D000902042F48032C7F89020D7F8902023F45A
:1029E000407322F48032C7F89020C7F89030D8079F
:1029F00009D5FDF7FBFD41F288390546D7F890303F
:102A0000990740F10981D7F89030D4F8842023F455
:102A100040731343C7F89030354612E0002104F1AB
:102A20002000FFF7D5FE9FE72E46A9E700100240E1
:102A300000700040FDF7DAFDA0EB0A000228B5D9CE
:102A40000325B8F1000F03D0BB6D23F08053BB65A5
:102A50002368DA0708D59049A06BD1F8882022F0C6
:102A600003020243C1F888209F0708D58A49E06B1A
:102A7000D1F8882022F00C020243C1F888205E07BA
:102A800008D58549206CD1F8882022F03002024315
:102A9000C1F88820180708D57F49606CD1F88820D4
:102AA00022F0C0020243C1F88820D90608D57A492D
:102AB000A06CD1F8882022F440720243C1F888202B
:102AC0009A0608D57449E06CD1F8882022F4406257
:102AD0000243C1F888209F0508D56F49E06DD1F801
:102AE000882022F440220243C1F888205E0508D5E0
:102AF0006949206ED1F8882022F440120243C1F8BF
:102B00008820580608D56449206DD1F8882022F421
:102B100040520243C1F88820190608D55E49606D0D
:102B2000D1F8882022F440420243C1F88820DA0517
:102B300008D55949A06DD1F8882022F440320243CB
:102B4000C1F888209B040FD5534AE16ED2F8883033
:102B500023F040630B43B1F1006FC2F8883064D1B9
:102B6000D36843F48013D36023681F030FD54A4A08
:102B7000216FD2F8883023F040630B43B1F1006F2E
:102B8000C2F888305CD1D36843F48013D3602368E3
:102B90005E030FD5404A616FD2F8883023F040635E
:102BA0000B43B1F1006FC2F8883054D1D36843F4BD
:102BB0008013D3602368580412D53749A26FD1F827
:102BC000883023F040531343B2F1805FC1F888305E
:102BD0004CD10221201DFFF76DFD002818BF0546CE
:102BE0002268110408D52C49E06FD1F8883023F011
:102BF00080430343C1F88830D30309D5264AD4F86B
:102C00008010D2F8883023F000430B43C2F888309C
:102C1000284602B0BDE8F087FDF7E8FC401B4845B8
:102C20007FF6ECAE0CE7354612E7B1F1806F9BD131
:102C30000121201DFFF73EFD002818BF054693E740
:102C4000B1F1806FA3D10121201DFFF733FD0028D2
:102C500018BF05469BE7B1F1806FABD10121201D64
:102C6000FFF728FD002818BF0546A3E7B2F1005F73
:102C7000B6D1022104F12000FFF7AAFDADE7BB6D3C
:102C800043F08053BB65BB6D03F080530193019B00
:102C90004FF001087FE600BF0010024003680A48B9
:102CA000DA6842F00102DA6099680140062908D02A
:102CB0009A680240B2F5803F1EBF1A6842F00102D6
:102CC0001A600020704700BF07000100704770477E
:102CD0007047704703681A69910710B504460FD50D
:102CE000DA6892070CD56FF002021A619B69012223
:102CF0009907027700F08580FFF7E9FF002323772B
:102D000023681A69520710D5DA6850070DD56FF09D
:102D100004021A619B69022213F4407F2277204645
:102D200075D0FFF7D4FF0023237723681A691107B2
:102D30000FD5DA6812070CD56FF008021A61DB694B
:102D400004229B072277204667D0FFF7C0FF0023AD
:102D5000237723681A69D00610D5DA68D1060DD515
:102D60006FF010021A61DB69082213F4407F2277AA
:102D7000204658D0FFF7ABFF0023237723681A695A
:102D8000D20708D5DA68D00705D56FF001021A61BD
:102D9000204600F04FFE23681A69110608D5DA684C
:102DA000120605D56FF080021A61204600F09BF9EB
:102DB00023681A69D00508D5DA68110605D56FF4BD
:102DC00080721A61204600F08FF923681A69520652
:102DD00008D5DA68500605D56FF040021A61204622
:102DE000FFF777FF23681A69910622D5DA68920601
:102DF0001FD56FF0200220461A61BDE8104000F098
:102E000071B9FFF763FF2046FFF762FF76E7FFF730
:102E10005DFF2046FFF75CFF85E7FFF757FF204681
:102E2000FFF756FF93E7FFF751FF2046FFF750FFEC
:102E3000A2E710BD304A0368904212D0B0F1804F33
:102E40000FD0A2F5943290420BD002F580629042EE
:102E500007D002F58062904203D002F5943290428E
:102E600019D14A6823F070031343234A90421DD0BE
:102E7000B0F1804F1AD0A2F59432904216D002F5EC
:102E80008062904212D002F5806290420ED002F52C
:102E9000943290420AD0194A904207D002F58062DB
:102EA000904203D002F58062904203D1CA6823F4B5
:102EB000407313434A6923F08003134303608B6814
:102EC000C3620B6883620C4B98420FD003F500631A
:102ED00098420BD003F54063984207D003F5806316
:102EE000984203D003F58063984201D10B690363D4
:102EF00001234361704700BF002C014000400140A6
:102F000010B50446A0B190F83D3003F0FF021BB9A4
:102F100080F83C2001F036F9022384F83D30206827
:102F2000211DFFF787FF012384F83D30002010BDED
:102F3000012010BD10B584680A4324F47F4442EA9E
:102F400003232343836010BD90F83C30012B70B500
:102F500004464FF0020017D084F83D00206801239A
:102F600084F83C308268484B134083600B68402BE8
:102F700072D015D8102B0CD007D853B101230020E4
:102F800084F83D3084F83C0070BD202B01D0302BFC
:102F9000F4D1826843F0070322F07002134333E058
:102FA000702B33D01BD8502B3FD0602BE6D14D680F
:102FB000CE68016A21F0100101628269036A22F47D
:102FC000704223F0A00343EA051342EA063282610D
:102FD0000362836823F0700343F0670314E0B3F5E2
:102FE000805F0CD0B3F5005FC8D1CB684A688968B0
:102FF000FFF7A0FF2268936843F4804313E08368DF
:1030000023F4803323F007038360B7E7CB684A6873
:103010008968FFF78FFF2268936823F4803323F0D9
:10302000770343F077039360A8E74A68CE68016AA4
:10303000056A25F001050562836921F00A0123F084
:10304000F00343EA06130A4383610262836823F0B4
:10305000700343F05703D7E74A68CE68016A056AF0
:1030600025F001050562836921F00A0123F0F003D0
:1030700043EA06130A4383610262836823F0700304
:1030800043F04703C0E700BF8800FEFF90F83C30E4
:10309000012B30B54FF002031FD00268104D80F8AD
:1030A0003D30AA425368946803D005F50065AA42F2
:1030B00003D14D6823F470032B430D68896823F016
:1030C00070032B4324F0800453602143012391605B
:1030D00080F83D30002380F83C30184630BD00BFFA
:1030E000002C014070477047704700000268C169BA
:1030F000F8B50446836800691568034360690343B3
:10310000BA480B432840034313605368E06823F434
:10311000405303435360B64BA0699A421CBF236AD5
:103120001843936823F4306303439360B14B9A428E
:1031300019D103F55843B04AD3F8883003F003039C
:10314000B1F5004FD35C40F03881082B00F28F803E
:10315000DFE813F01A01CA00F9008D0014018D0098
:103160008D008D003600A54B9A4207D103F5E6335A
:10317000A34AD3F8883003F00C03E1E7A14B9A424D
:1031800023D103F5E433D3F8883003F03003102B58
:1031900000F0F1800BD8002B00F0F380B1F5004F68
:1031A0004FF001024FF0000300F0F880A8E0202B60
:1031B00000F0C680302BF1D1B1F5004F40F0B8805F
:1031C0006068430803F58033C3E08F4B9A421ED1F9
:1031D00003F5E233D3F8883003F0C003402B00F04E
:1031E000BB800AD87BB9824B9A4240F0CA80FFF775
:1031F0003DFA0023B0BB02463AE0802B00F09D80F0
:10320000C02B00F0B0807A4B9A42C7D12FE07F4BA1
:103210009A4211D103F5E033D3F8883003F44073B8
:10322000B3F5807F00F09880DCD9B3F5007F00F023
:103230008480B3F5407FE4E76D4B9A42AED103F54D
:10324000C833D3F8883003F44063B3F5806F00F0DF
:103250008380C7D9B3F5006F6FD0B3F5406FD0E767
:103260006B480223626802EB4201814205D90122C8
:103270000023236663661046F8BDB0EB023FF6D824
:10328000082B2ED8DFE803F0052D1C2D242D2D2D25
:103290002700FFF7EBF962684FF4807156080027AA
:1032A000E1FB0067002330463946FCF7E1FF0022CE
:1032B000584BA0F540719942D9D82368D860D7E718
:1032C0005548550800230021401941F10001ECE761
:1032D000FEF7C0FEDFE750080021002310F50000D4
:1032E000F3E701220020E3E7FFF7D2F94EE0FFF712
:1032F000BDF9626800EB5203B3FBF2F39BB200220C
:10330000A3F110004FF6EF718842B0D82168CB606E
:10331000AEE7FFF7BDF9ECE76068430803F5740317
:1033200003F51053B3FBF0F3E8E7FEF793FEE0E795
:103330006068430803F50043F4E72D4B9A428FD0B1
:10334000B1F5004FE8D16068430803F1F47303F569
:103350009043B3FBF0F31FE0254B9A420BD1FEF7ED
:1033600079FE042346E7224B9A427FF425AF4FF4BF
:103370000040082376E7B1F5004FD6D1FEF76AFE8C
:1033800004E0B1F5004FB2D1FFF770F961684A0867
:1033900002EB4003B3FBF1F39BB20022A3F1100058
:1033A0004FF6EF7188423FF662AF23F00F012068BD
:1033B000C3F342030B43C3605AE7082B3FF657AFF2
:1033C00001A252F823F000BFEF32000813330008C7
:1033D000193300086F3200082B3300086F320008E1
:1033E0006F3200086F32000831330008F369FFEFD5
:1033F000008000400038014048520008004400406E
:103400004C52000800480040004C00400050004072
:103410000024F400FFFC0F00000024F4436ADA07E4
:1034200010B506D50168846A4A6822F40032224346
:103430004A609C0706D50168C46A4A6822F4803253
:1034400022434A60590706D50168046B4A6822F492
:10345000802222434A601A0706D50168446B4A68F5
:1034600022F4004222434A60DC0606D50168846BE0
:103470008A6822F4805222438A60990606D5016840
:10348000C46B8A6822F4005222438A605A060FD520
:103490000168046C4A6822F480122243B4F5801F4C
:1034A0004A6005D14A68446C22F4C00222434A6053
:1034B0001B0606D50268816C536823F400230B4376
:1034C000536010BD2DE9F041069D04460F46164697
:1034D00098462168CA6937EA02030CBF012200221C
:1034E000B24202D00020BDE8F0816B1CF2D09DB941
:1034F00023681A6822F4D0721A609A6822F00102D6
:103500009A60202384F8713084F87230002384F8A4
:1035100070300320BDE8F081FDF768F8A0EB0800EB
:103520008542D6D2E4E72DE9F3411F4690F8713089
:10353000202B04460D4690464AD1002946D0002A49
:1035400044D090F87030012B42D0012380F87030C5
:1035500000234367212380F87130FDF747F8A4F872
:1035600050800646A4F85280B4F85220009792B2D8
:10357000334652B940212046FFF7A4FF58B9202313
:1035800084F8713084F8700006E000228021204623
:10359000FFF798FF18B1032002B0BDE8F081A368DF
:1035A0002268B3F5805F0DD123695BB935F8023B22
:1035B000C3F308031385B4F85230013B9BB2A4F85F
:1035C0005230D1E72B7813850135F4E70120E3E78A
:1035D0000220E1E773B5044600264667FDF706F8CA
:1035E00023681B681A07054617D423681B685B0706
:1035F0000AD56FF07E43009300222B464FF48001E2
:103600002046FFF75FFFA0B92023002084F8713027
:1036100084F8700084F872300CE06FF07E43009301
:10362000324603464FF400112046FFF74BFF0028B7
:10363000DBD0032002B070BD10B5044660B390F833
:10364000713003F0FF021BB980F8702000F0D6FD46
:103650002268242384F87130136823F00103136077
:103660002046FFF743FD012816D0636A13B12046B8
:10367000FFF7D4FE23685A6822F490425A609A6891
:1036800022F02A029A601A6842F0010220461A606B
:10369000BDE81040FFF79EBF012010BD10B500240B
:1036A0008AB01822214604A801940294039400F0E1
:1036B00025FE1B481B4B846080E8180004234361EF
:1036C0000123C460046104764376C36180F820401E
:1036D0008462C46280F83040446380F83840FCF76C
:1036E000A5FF08B100F0B6FC01A90D480194FDF753
:1036F00075FC08B100F0AEFC0B4B04937F2206234F
:10370000059307920023042204A905480693089212
:103710000993FDF793F908B100F09CFC0AB010BDC5
:10372000B8000020000004500002B02510B5044687
:1037300088B01422002103A800F0E0FD2268164B97
:103740009A4226D103F17043A3F5F83303A9DA6C4A
:1037500042F40052DA64DA6C02F400520192019AE7
:10376000DA6C42F00102DA64DB6C03F001030293CD
:10377000029B502303934FF090400B230493FDF7DB
:1037800033FD002212201146FDF7B2FC1220FDF796
:10379000E3FC08B010BD00BF0000045070B5142257
:1037A0008AB00DEB0200002100F0A8FD2F4B304E37
:1037B000DA6C42F00402DA64DA6C02F0040200927D
:1037C000009ADA6C42F08002DA64DA6C02F080026D
:1037D0000192019ADA6C42F00102DA64DA6C02F0CA
:1037E00001020292029ADA6C42F00202DA64DA6CA6
:1037F00002F002020392039ADA6C42F00802DA64E1
:10380000DB6C03F008030493049B4FF4005305930F
:1038100005A9184B06933046FDF7E6FC0325002466
:1038200041F6FF7305A93046059306950794FDF709
:10383000DBFC49F6A37305A94FF09040059306956C
:103840000794FDF7D1FC4FF6F74305A90A48059305
:1038500006950794FDF7C8FC042305A907480593BE
:1038600006950794FDF7C0FC0AB070BD0010024039
:10387000000800480000211000040048000C004827
:1038800008B51248124B1349012280E80A000023B0
:103890008360C260036143618361C3610362FDF7BA
:1038A000ECFE08B100F0D6FB00210848FEF706FB4D
:1038B00008B100F0CFFB00210448FEF725FB18B14A
:1038C000BDE8084000F0C6BB08BD00BF1C010020D9
:1038D000EC9C90100054004010B5044688B01422AF
:1038E000002103A800F00AFD22681B4B9A4231D147
:1038F0001A4C1B48E36C43F00203E364E36C03F0EF
:1039000002030193019B4FF440730393122304932A
:10391000012305930323069303A904230793FDF7CB
:1039200063FCA36D43F40013A365A36D002203F4AD
:103930000013114602931F20029BFDF7D9FB1F20A5
:10394000FDF70AFC002220201146FDF7D1FB2020C4
:10395000FDF702FC08B010BD00540040001002400A
:1039600000040048F0B5B9B04422002105A800F0D9
:10397000C5FC14220021684600F0C0FC882200210A
:1039800016A800F0BBFC4FF48073089310230224A8
:10399000099301270A23072605A8002512930594F9
:1039A0000F9410941197139614941594FEF7A6FB98
:1039B0000F220421032368468DE82C00039504950B
:1039C000FEF7C2FD44F2420316934FF08053349346
:1039D0000823199316A84FF080731D9325952A95F7
:1039E000179418971A961B941C94FEF76FFF4FF4C8
:1039F0000070FEF7B7FA39B0F0BD000010B50A2329
:103A00001446034892B2FFF78EFD204610BD00BF5A
:103A1000140200200148FDF72BBA00BFB8000020B7
:103A2000024B0348198800F071BC00BFA6000020BB
:103A30007752000808B5FFF7F3FF0248BDE80840D9
:103A4000FDF716BAB80000207FB5194B194D1A784A
:103A5000194B009301244FF47A7623460296019481
:103A6000BE212846FDF75AFE144B1A78144B0093DA
:103A7000029623460194BA212846FDF74FFE114BCA
:103A80001A78114B0093029623460194BA212846D6
:103A9000FDF744FE0D4B1A780D4B009302960194EE
:103AA0002346BA212846FDF739FE04B070BD00BF99
:103AB000050000201C01002001000020040000205F
:103AC0000000002006000020020000200F0000205F
:103AD0000300002008B5FCF76BFDFFF743FFFFF77D
:103AE0005DFE00F06DFBFFF7D9FD00F013FBFFF763
:103AF000C7FE074800F00AFC064800F07BFCFFF711
:103B0000A3FFFFF787FF0448FFF7C8F8FEE700BFF1
:103B100098520008A3520008D40100202DE9F04F6C
:103B2000684B694D1A78694B694FDFF80082DFF8FE
:103B300000A2DFF80092DFF800B285B001244FF454
:103B40007A76029601940093BF2123462846FDF71A
:103B50009DFE604B1A78604B029601940093BF2142
:103B600023462846FDF792FE5C4B1A785C4B029682
:103B700001940093BF2123462846FDF787FE3A783B
:103B8000029601942346CDF80080BF212846FDF718
:103B90007DFE3A78029601942346CDF80080BF213D
:103BA0002846FDF773FE4F4B4F4F1A784F4B029646
:103BB00001940093BF2123462846FDF767FE4C4B36
:103BC0001A784C4B029601940093BF212346284655
:103BD000FDF75CFE484BBF211A78029601942346FC
:103BE000CDF800A02846FDF751FE444BBF211A78BE
:103BF000029601942346CDF800902846FDF746FE34
:103C00009BF800200296019423460097BF21284686
:103C1000FDF73CFE9BF80020029601942346009796
:103C2000BF212846FDF732FE304B98F80010187877
:103C3000334B9AF800403A78324D00EB012080B2C5
:103C400018802C4B1978304B04EB0124A4B21C8053
:103C500099F8003002EB03222C4B92B21A80204BD1
:103C60001B7803F00301C3F38106294B29701E70F2
:103C7000164B1D78274B05EB01251D80164B264959
:103C80001B7803EB06230B802449ED08121A0D80E4
:103C900012B22349DB0802EB82020B805200591B4F
:103CA000201A05EB8505514300B21E4B91FBF0F144
:103CB0001D4801EB450189B2198005B0BDE8F04F00
:103CC00000F024BB190000201C01002095010020F9
:103CD000160000201C000020940100201800002085
:103CE000A001002017000020700100206C010020BE
:103CF0001A000020750100201B0000201D0000207C
:103D00009E010020A4010020B2010020BC0100207F
:103D10006A010020920100209A010020B8010020D1
:103D20007E010020A2010020BC5200089801002062
:103D300090010020B00100201E0000202DE9F04F6E
:103D40004C4B4D4DDFF87C811A784C4FDFF878B141
:103D5000DFF878A1DFF8789185B001244FF47A7606
:103D6000029601942346CDF80080BF212846FDF736
:103D70008DFD434B1A78434B029601940093BF216B
:103D800023462846FDF782FD3F4BBF211A78029655
:103D90000194234600972846FDF778FD3B4BBF2151
:103DA0001A7802960194234600972846FDF76EFD87
:103DB000374BBF211A78029601942346CDF800B004
:103DC0002846FDF763FD334BBF211A780296019414
:103DD0002346CDF800A02846FDF758FD2E4BBF2105
:103DE0001A78029601942346CDF800902846FDF7F4
:103DF0004DFD2A4B1A780296294E019423460096CF
:103E0000BF212846FDF742FD3978264B264A99F80E
:103E1000000098F80050E1401980244B1B78E340E3
:103E200013809BF800409AF8002002EB042294B221
:103E30001F4A1480327802EB00221E4892B20280A0
:103E40001048007800EB05201B4D80B228805B1ADB
:103E5000001B121B13FB00F312B2184893FBF2F382
:103E60001944174B89B2198005B0BDE8F04F00F036
:103E70004DBA00BF0D0000201C010020BA01002037
:103E80000E000020CB010020090000200C000020C3
:103E900007000020080000200A0000200B0000207E
:103EA0006B010020800100206E010020B401002081
:103EB000AC010020CE0100207801002089520008CA
:103EC000BE010020B5010020B70100207A010020CA
:103ED000770100202DE9F04F384BDFF81491384D71
:103EE0001A78384E384FDFF80C81DFF80CB185B006
:103EF00001244FF47A7ACDF808A023460194009566
:103F0000BB214846FDF7C2FC304BBB211A78CDF8E7
:103F100008A02346019400964846FDF7B7FC2C4BB9
:103F2000BB211A78CDF808A0234601940097484693
:103F3000FDF7ACFC274BBB211A78CDF808A023462F
:103F40000194CDF800804846FDF7A0FC224BBB2130
:103F50001A78CDF808A023460194CDF800B0484661
:103F6000FDF794FC1D4B1A78CDF808A0DFF88CA063
:103F700001942346CDF800A0BB214846FDF786FCFE
:103F80009BF800309AF80020317815481B0203EBAB
:103F9000024398F800201344124A13603B78090248
:103FA00001EB03412B7819440F4B19600F4B090BA0
:103FB000196005B0BDE8F04F00F0A8B91500002069
:103FC00084010020990100208C01002014000020B1
:103FD000130000201200002011000020100000201B
:103FE000AC520008A8010020C40100208801002074
:103FF0001C010020CC01002096010020BB01002004
:1040000010B5114C23789A0703D1FCF7EFFB0F4B47
:10401000188022780323B2FBF3F303EB4303D31A94
:1040200013F0FF0F01D1FFF779FD2378DB0701D4EF
:10403000FFF784FEFFF74EFF054800F0DBF9237819
:104040000133237010BD00BFA4000020A600002093
:1040500059520008704700000A4B1A6E42F00102E4
:104060001A661A6E82B002F001020092009A9A6DEE
:1040700042F080529A659B6D03F080530193019B3F
:1040800002B07047001002407047FEE7FEE7FEE70F
:10409000FEE7704770477047FCF7A0BA0148FCF78D
:1040A000ABBB00BFB80000200148FEF713BE00BF45
:1040B000D40100200148FDF7A7BC00BF1C0100206F
:1040C0000148FDF7B7BE00BF1C0100200F49D1F821
:1040D000883043F47003C1F888300D4B1A68002013
:1040E00042F001021A6098601A6822F0A85222F485
:1040F00010221A604FF48052DA601A6822F480228B
:104100001A6098614FF000638B60704700ED00E02B
:104110000010024000B5102289B000210DEB020012
:1041200000F0ECF8154816494FF6FF12002380E81E
:1041300006004FF47A720193029303938360C26086
:1041400003618361FEF7DCFE08B1FFF783FF4FF4E4
:10415000805304A909480493FEF7F6FE08B1FFF75F
:1041600079FF002301A9054801930393FEF78EFF11
:1041700008B1FFF76FFF09B05DF804FBD401002020
:104180000004004007B50D4B02689A4212D103F5B6
:1041900003331D209A6D42F002029A659B6D002246
:1041A00003F0020301931146019BFCF7A1FF1D20C0
:1041B000FCF7D2FF03B05DF804FB00BF0004004031
:1041C00008B50C480C4B4FF4E13E80E808400C2247
:1041D00000238360C360036142618361C361036242
:1041E0004362FFF729FA18B1BDE80840FFF732BF74
:1041F00008BD00BF140200200044004010B5044672
:1042000088B01422002103A800F078F82268134B2C
:104210009A4220D103F5E63303A99A6D42F40032A5
:104220009A659A6D02F400320192019ADA6C42F0BA
:104230000102DA64DB6C03F001030293029B0C239E
:10424000039302230493032306934FF09040072324
:104250000793FCF7C9FF08B010BD00BF0044004041
:10426000DFF834D0002103E00C4B5B58435004319D
:104270000B480C4B42189A42F6D30B4A02E000233B
:1042800042F8043B094B9A42F9D3FFF71FFF00F0B5
:1042900011F8FFF71FFCFEE700800120C053000863
:1042A00000000020880000208800002090020020EC
:1042B000FEE7000070B50D4E0D4CA41BA4100025A8
:1042C000A54209D10B4E0C4C00F0B2FFA41BA41068
:1042D0000025A54205D170BD56F825309847013517
:1042E000EEE756F8253098470135F2E7B853000855
:1042F000B8530008B8530008BC53000802440346F2
:10430000934200D1704703F8011BF9E70FB40A4B41
:1043100013B51C6824B1A36913B9204600F024FA30
:1043200005AB049AA1680193204600F0E1FB02B0BE
:10433000BDE8104004B070472400002070B50E4660
:10434000054618B183690BB900F00EFAAB69AC6889
:1043500013B9284600F008FA234B9C4217D16C6829
:10436000A3891B071DD52369DBB1013EA36816F89D
:10437000011F013BA360E9B9002B2EDA22460A2176
:10438000284600F03FF8013011D00A2070BD174BCD
:104390009C4201D1AC68E3E7154B9C4208BFEC6836
:1043A000DEE72146284600F07FF80028DDD04FF0F8
:1043B000FF3070BD002B04DAA269934206DB0A29A4
:1043C00004D023685A1C22601970CFE72246284681
:1043D00000F018F80130C9D1E9E723680A205A1C17
:1043E0002260187070BD00BF385300085853000891
:1043F00018530008024B01461868FFF79FBF00BF23
:1044000024000020F8B50E461446054618B183690D
:104410000BB900F0A9F9214B9C422AD16C68A36921
:10442000A360A3891A072ED5236963B32369206883
:10443000C01A6369F6B29842374604DB2146284623
:1044400000F028F928BBA368013BA36023685A1C2D
:1044500022601E7063690130984204D0A389DB0793
:1044600019D50A2E17D12146284600F013F990B12C
:104470000FE00B4B9C4201D1AC68D0E7094B9C424A
:1044800008BFEC68CBE72146284600F00DF800286D
:10449000CCD04FF0FF373846F8BD00BF3853000886
:1044A0005853000818530008324B70B51D68064673
:1044B0000C4625B1AB6913B9284600F055F92E4BCF
:1044C0009C420FD16C68B4F90C309AB215072CD409
:1044D000D00611D40922326043F04003A3814FF08B
:1044E000FF3070BD254B9C4201D1AC68EBE7244BFB
:1044F0009C4208BFEC68E6E7510712D5616B41B1F9
:1045000004F14403994202D0304600F01BFA002324
:104510006363A38923F02403A381002363602369D9
:104520002360A38943F00803A38123694BB9A389BE
:1045300003F42073B3F5007F03D02146304600F02A
:10454000C1F9A28912F001030CD00023A3606369B2
:104550005B42A361236953B9B4F90C3013F08000B6
:10456000BAD170BD920758BF6369A360F2E700201B
:10457000F7E700BF24000020385300085853000814
:10458000185300088A892DE9F041054610070C46AA
:104590005AD44B68002B05DC0B6C002B02DC00208E
:1045A000BDE8F081E66A002EF9D0002312F48052B3
:1045B0002F682B6033D0606DA3895A0705D56368D7
:1045C000C01A636B0BB1236CC01A00230246E66A63
:1045D000216A2846B047431CA38906D129681D29B2
:1045E0004BD82B4ACA40D60747D500226260D9046F
:1045F0002269226004D5421C01D12B6803B9606591
:10460000616B2F600029CAD004F14403994202D0A3
:10461000284600F097F900206063BDE8F081216A28
:1046200001232846B047411CC6D12B68002BC3D0BC
:104630001D2B01D0162B01D12F60B0E7A38943F0C9
:104640004003A381BDE8F0810F69002FA7D0930735
:104650000E6808BF4B690F6018BF0023A6EB070860
:104660008B60B8F1000F9ADD43463A46216AA66A8C
:104670002846B047002807DCA38943F04003A38104
:104680004FF0FF30BDE8F0810744A8EB0008E8E7F1
:104690000100402038B50B6905460C46DBB118B166
:1046A00083690BB900F060F80C4B9C4209D16C682F
:1046B000B4F90C307BB121462846BDE83840FFF7FD
:1046C00061BF074B9C4201D1AC68F1E7054B9C42AE
:1046D00008BFEC68ECE7002038BD00BF3853000885
:1046E0005853000818530008014900F0A9B800BF4A
:1046F00095460008002310B50446036043608360BC
:1047000081814366C2810361436183611946082246
:104710005C30FFF7F3FD054B6362054BA362054B6D
:10472000E362054B2462236310BD00BF695000089B
:104730008B500008C3500008E750000870B54A1EAF
:10474000682555430E4605F1740100F049F9044609
:1047500040B1002180E842000C30A06005F1680201
:10476000FFF7CCFD204670BD836910B5044633BB0E
:104770008364C3640365124B124A1B6882629842C9
:1047800004BF0123836100F01FF86060204600F041
:104790001BF8A060204600F017F80022E06004211A
:1047A0006068FFF7A7FF01220921A068FFF7A2FFB9
:1047B00002221221E068FFF79DFF0123A36110BDD3
:1047C00078530008E9460008F8B51C4B1E68B36929
:1047D000074613B93046FFF7C7FF4836B468736819
:1047E000013B03D5336833B13668F7E7B4F90C50B1
:1047F0006DB16834F4E704213846FFF79FFF30605D
:104800000028F1D10C233B6004462046F8BD4FF64A
:10481000FF73E3810123A38165662560A560656060
:1048200025616561A5610822294604F15C00FFF756
:1048300065FD6563A563A564E564E6E77853000854
:104840002DE9F8438046894600F14804002614B952
:104850003046BDE8F883A5686768013F01D5246844
:10486000F5E7AB89012B07D9B5F90E30013303D039
:1048700029464046C84706436835EEE770B50E4600
:10488000B1F90E10002990B014461D4607DA002336
:104890002B60B3891A0610D44FF480630EE001AA8E
:1048A00000F048FC0028F2DB029A02F47042A2F504
:1048B00000535A425A412A60EEE740230020236009
:1048C00010B070BD8B8973B59D0706460C4607D5A1
:1048D00004F14703236023610123636102B070BDCB
:1048E00001AB6A46FFF7CAFF00990546304600F063
:1048F00077F848B9B4F90C309A05EFD423F00303E4
:1049000043F00203A381E3E70D4BB362A389206068
:1049100043F08003A381009B6361019B20615BB135
:10492000B4F90E10304600F017FC28B1A38923F02B
:10493000030343F00103A381A3891D43A581CDE7B0
:10494000E946000838B50546002945D051F8043C31
:104950000C1F002BB8BFE41800F020FC1F4A13689E
:10496000104633B9636014602846BDE8384000F053
:1049700016BCA3420CD921686218934204BF1A687E
:104980005B68636004BF521822600460ECE7134662
:104990005A680AB1A242FAD919685818A0420BD134
:1049A00020680144581882421960DDD110685268AD
:1049B0005A6001441960D7E702D90C232B60D3E772
:1049C000206821188A4204BF11685268626004BFDF
:1049D000091821605C60C7E738BD00BFA80000204F
:1049E00070B5CD1C25F0030508350C2D38BF0C25FE
:1049F000002D064601DBA94203D90C2333600020B9
:104A000070BD00F0CBFB234A1468214691B9224CBB
:104A100023681BB9304600F017FB2060294630465A
:104A200000F012FB431C26D10C233360304600F00B
:104A3000B6FBE4E70B685B1B1AD40B2B0FD90B609A
:104A4000CD50CC18304600F0AAFB04F10B00231D1A
:104A500020F00700C31A1BD05A42E25070BD8C42AE
:104A60000DBF63684B686360136018BF0C46E9E7CD
:104A70000C464968CAE7C41C24F00304A04205D0D0
:104A8000211A304600F0E0FA0130CDD02560D9E798
:104A900070BD00BFA8000020AC0000209368013B5F
:104AA000002B10B4936009DA9469A34202DBCBB205
:104AB0000A2B03D15DF8044BFFF7A4BC1368581C04
:104AC00010601970C8B25DF8044B7047F8B506461F
:104AD0000F461446D518AC4201D1002007E03A46F3
:104AE00014F8011B3046FFF7D9FF431CF3D1F8BD82
:104AF0002DE9F04F9DB00C4617460393064618B1BA
:104B000083690BB9FFF730FE7C4B9C4257D1746828
:104B1000A38918075DD52369002B5AD00023099378
:104B200020238DF8293030238DF82A304FF0010BE7
:104B3000B846454615F8013B002B55D1B8EB070A9E
:104B40000BD053463A4621463046FFF7BFFF0130AF
:104B500000F0C480099B5344099398F80030002B5F
:104B600000F0BC8000234FF0FF32049307930592BE
:104B700006938DF853301A93052229786048FBF785
:104B800027FB05F10108049B002831D1D90644BF59
:104B900020228DF853201A0744BF2B228DF8532072
:104BA0002A782A2A2CD0079A00210A20A846013503
:104BB00098F80030303B092B6DD971B326E0514B8A
:104BC0009C4201D1B468A3E74F4B9C4208BFF468F4
:104BD0009EE721463046FFF767FC00289ED04FF045
:104BE000FF301DB0BDE8F08F252BA7D0A846A0E769
:104BF000434A801A0BFA00F0184304904546BBE77D
:104C0000039A111D12680391002A01DB079204E048
:104C1000524243F002030792049398F800302E2B7F
:104C200010D198F801302A2B08F1010137D1039BEC
:104C30001A1D1B680392002BB8BF4FF0FF3308F119
:104C400002080593314D98F8001003222846FBF71F
:104C5000BFFA40B14023401B03FA00F0049B03431A
:104C6000049308F1010898F8001029488DF82810DD
:104C7000062208F10107FBF7ABFA002834D0254BD8
:104C800003BB039B073323F0070308330393099BFC
:104C90004B4409934CE700FB0232012186E70023D5
:104CA000059318460A258846013198F80020303AC5
:104CB000092A03D9002BC5D00590C3E705FB0020C6
:104CC0000123F0E703AB00932246134B04A93046BF
:104CD000AFF30080B0F1FF3F8146D8D1A3895B06D6
:104CE0003FF57DAF09987CE703AB009322460A4B62
:104CF00004A9304600F088F8ECE700BF38530008FC
:104D00007C530008585300081853000882530008C9
:104D10008653000800000000CD4A00082DE9F04746
:104D200091461F468A680B69DDF820809342B8BF20
:104D30001346C9F8003091F8432006460C4612B1DC
:104D40000133C9F800302368990642BFD9F8003012
:104D50000233C9F80030256815F0060507D104F1C3
:104D6000190AE368D9F800209B1A9D4229DB94F8C0
:104D700043302268003318BF012392062ED404F179
:104D8000430239463046C047013021D02368E568E8
:104D9000D9F8002003F00603042B08BFAD1AA3685E
:104DA00022690CBF25EAE57500259342C4BF9B1A12
:104DB000ED184FF000091A344D451BD10020BDE815
:104DC000F0870123524639463046C047013003D1AF
:104DD0004FF0FF30BDE8F0870135C2E7E1185A1CFB
:104DE000302081F84300224494F8451082F84310A3
:104DF0000233C4E70123224639463046C04701301A
:104E0000E6D009F10109D7E72DE9F04317460A7EFC
:104E100085B06E2A984606460C460C9B01F1430E5F
:104E200000F0BC801AD8632A2ED00AD8002A00F0DD
:104E3000C880582A00F08A8004F1420584F8422094
:104E40002AE0642A01D0692AF6D121681A6811F093
:104E5000800F23D0111D1960136827E0732A00F01A
:104E6000B48008D86F2A2AD0702AE5D10A6842F0A7
:104E700020020A6003E0752A21D0782ADCD178224A
:104E800084F845206E4964E01A6801F14205111D5D
:104E90001960136884F842300123A3E011F0400F39
:104EA00002F104011960D7D0B2F90030002B03DA07
:104EB0002D225B4284F8432062490A2217E02068D1
:104EC000196810F0800F03D0081D18600B6806E009
:104ED00010F0400F01F104001860F7D00B88594919
:104EE0006F2A14BF0A220822002084F84300656854
:104EF000A560002DC0F29C80206820F00400206096
:104F0000002B3FD1002D40F095807546082A0BD12B
:104F10002368DA0708D5236962689A42DEBF302326
:104F200005F8013C05F1FF35AEEB05032361CDF833
:104F300000803B4603AA21463046FFF7EFFE0130D2
:104F400055D14FF0FF3005B0BDE8F08381F8452022
:104F50003C492268186812F0800F00F104051D60BA
:104F600001D0036802E05506FBD50388D00744BF93
:104F700042F0200222601BB9226822F02002226047
:104F80001022B1E77546B3FBF2F002FB1033CB5CA5
:104F900005F8013D03460028F5D1B7E708681A680F
:104FA000496910F0800F04D0101D18601368196053
:104FB00007E010F0400F02F1040018601368F6D00B
:104FC0001980002323617546B1E71A68111D196025
:104FD0001568626800212846FBF7FAF808B1401B03
:104FE000606063682361002384F843309FE723698E
:104FF0002A4639463046C0470130A2D023689B0775
:1050000007D5002504F11909E368039A9B1A9D420C
:1050100005DBE068039B9842B8BF184693E701237D
:105020004A4639463046C04701308AD00135EBE761
:10503000002BA7D10B7884F8423004F1420565E7D4
:105040009E5300088D53000838B5064C00230546D2
:105050000846236000F0DEF8431C02D1236803B148
:105060002B6038BD8C02002010B50C46B1F90E1033
:1050700000F096F80028ABBF636DA3891B1823F4DA
:105080008053ACBF6365A38110BD2DE9F0411F467D
:105090008B89DB0505460C46164605D50223002202
:1050A000B1F90E1000F068F8A389B4F90E1023F4DA
:1050B0008053A38132463B462846BDE8F04100F0CC
:1050C00017B810B50C46B1F90E1000F055F8431C96
:1050D000A38915BF606523F4805343F48053A381F3
:1050E00018BFA38110BDB1F90E1000F013B8000075
:1050F00038B5074C054608461146002222601A467C
:10510000FEF77CFC431C02D1236803B12B6038BD41
:105110008C02002038B5064C002305460846236063
:1051200000F050F8431C02D1236803B12B6038BD56
:105130008C02002038B5074C00230546084611466E
:10514000236000F047F8431C02D1236803B12B60B1
:1051500038BD00BF8C02002038B5064C0023054640
:105160000846236000F03EF8431C02D1236803B1D7
:105170002B6038BD8C02002038B5074C0546084628
:105180001146002222601A4600F034F8431C02D176
:10519000236803B12B6038BD8C0200207047704734
:1051A00038B5074C054608461146002222601A46CB
:1051B00000F028F8431C02D1236803B12B6038BDEE
:1051C0008C020020024B58221A604FF0FF307047CB
:1051D0008C020020024B58221A604FF0FF307047BB
:1051E0008C020020024B58221A600020704700BF3A
:1051F0008C020020024B58221A604FF0FF3070479B
:105200008C020020024B58221A604FF0FF3070478A
:105210008C020020044B1968024609B90349196041
:10522000186802441A607047B00000209002002005
:10523000F8B500BFF8BC08BC9E467047F8B500BF83
:08524000F8BC08BC9E46704753
:1052480001040208001010100410101002101010B1
:10525800082D2D2D2D2D2D2D2D2D2D2D2D2D2D2D9B
:105268002D2D2D2D2D2D2D2D2D2D2D2D2D0D00538D
:10527800454E534F522047617A203A2025640D0A43
:105288000048756D6964697479203A25640D0A00CF
:105298001B5B324A1B5B313B31480053656E736FB1
:1052A80072730D005072657373757265203A256CC0
:1052B800750D0A0054656D706572617475726520AC
:1052C8003A25640D0A0000000000000000000102F9
:1052D8000304060708090000000001020304000097
:1052E800A0860100400D0300801A060000350C005E
:1052F80040420F0080841E0000093D0000127A0021
:105308000024F40000366E010048E801006CDC025D
:105318000000000000000000000000000000000085
:105328000000000000000000000000000000000075
:105338000000000000000000000000000000000065
:105348000000000000000000000000000000000055
:105358000000000000000000000000000000000045
:105368000000000000000000000000000000000035
:1053780028000020232D302B2000686C4C00656627
:10538800674546470030313233343536373839418E
:1053980042434445460030313233343536373839A4
:0853A8006162636465660000A8
:0853B000F0AEFF7F01000000D8
:0453B800B501000833
:0453BC009101000853
:1053C000508301301020113736303B3A3129280BF9
:1053D0002A29281716153D3C35323F3E332B2A002B
:1053E00000093D002800002000000000385300089C
:1053F0005853000818530008000000000000000087
:10540000000000000000000000000000000000009C
:10541000000000000000000000000000000000008C
:10542000000000000000000000000000000000007C
:10543000000000000000000000000000000000006C
:08544000000000000000000064
:04000005080042614C
:00000001FF
