:020000040800F2
:1000000000800220D9250008E5240008E724000824
:10001000E9240008EB240008ED240008000000009B
:10002000000000000000000000000000EF240008B5
:10003000F124000800000000F3240008F524000863
:100040002926000829260008292600082926000854
:100050002926000829260008292600082926000844
:100060002926000829260008292600082926000834
:100070002926000829260008292600082926000824
:100080002926000829260008292600082926000814
:100090002926000829260008292600082926000804
:1000A00029260008292600082926000829260008F4
:1000B000292600082926000800000000292600083B
:1000C00029260008292600082926000829260008D4
:1000D00029260008292600082926000829260008C4
:1000E0002926000829260008000000000000000062
:1000F0000000000000000000000000000000000000
:100100000000000029260008000000002926000841
:100110002926000800000000292600080000000031
:100120002926000829260008292600082926000873
:1001300029260008292600082926000800000000BA
:100140002926000829260008292600082926000853
:100150002926000829260008292600082926000843
:10016000292600082926000829260008000000008A
:100170000000000029260008000000000000000028
:100180002926000829260008292600082926000813
:040190002926000814
:1001940010B5054C237833B9044B13B10448AFF3BD
:1001A40000800123237010BD200000200000000007
:1001B4007426000808B5034B1BB103490348AFF389
:1001C400008008BD00000000240000207426000800
:1001D40053B94AB9002908BF00281CBF4FF0FF31AA
:1001E4004FF0FF3000F07AB9ADF1080C6DE904CEA0
:1001F40000F006F8DDF804E0DDE9022304B07047FE
:100204002DE9F0478C460D460446089E002B51D13B
:100214008A4217466DD9B2FA82FEBEF1000F0BD0A6
:10022400CEF1200C01FA0EF520FA0CFC02FA0EF7BE
:100234004CEA050C00FA0EF44FEA174A250CBCFBF5
:10024400FAF81FFA87F90AFB18CC45EA0C4508FBB3
:1002540009F3AB420AD9ED1908F1FF3280F023818A
:10026400AB4240F22081A8F102083D44ED1AA4B249
:10027400B5FBFAF00AFB105544EA054400FB09F902
:10028400A14509D9E41900F1FF3380F00A81A145A1
:1002940040F2078102383C44A4EB090440EA0840D8
:1002A4000021002E61D024FA0EF400233460736020
:1002B400BDE8F0878B4207D9002E54D0002186E890
:1002C40021000846BDE8F087B3FA83F1002940F025
:1002D4008E80AB4202D3824200F2FA80841A65EB2C
:1002E40003050120AC46002E3FD086E81010BDE87F
:1002F400F08712B90127B7FBF2F7B7FA87FEBEF110
:10030400000F34D1EB1B3A0C1FFA87FC0121B3FB1D
:10031400F2F8250C02FB183345EA03450CFB08F3FD
:10032400AB4207D9ED1908F1FF3002D2AB4200F21B
:10033400D1808046ED1AA3B2B5FBF2F002FB105552
:1003440043EA05440CFB00FCA44507D9E41900F179
:10035400FF3302D2A44500F2B8801846A4EB0C0483
:1003640040EA08409DE731463046BDE8F087CEF1CB
:10037400200405FA0EF307FA0EF720FA04F83A0CF3
:1003840025FA04F448EA0308B4FBF2F14FEA1845ED
:1003940002FB11441FFA87FC45EA044501FB0CF3F8
:1003A400AB4200FA0EF409D9ED1901F1FF3080F0E7
:1003B4008A80AB4240F2878002393D44EB1A1FFA2F
:1003C40088F5B3FBF2F002FB103345EA034500FB6A
:1003D4000CF3AB4207D9ED1900F1FF386FD2AB42F1
:1003E4006DD902383D44EB1A40EA01418FE7C1F16F
:1003F400200722FA07F88B4005FA01F448EA0303C0
:1004040020FA07FE4FEA134CFD404EEA040EB5FBFA
:10041400FCF94FEA1E440CFB19551FFA83F844EA11
:10042400054509FB08F4AC4202FA01F200FA01FAAC
:1004340008D9ED1809F1FF3043D2AC4241D9A9F1F2
:1004440002091D442D1B1FFA8EFEB5FBFCF00CFBAC
:1004540010554EEA054400FB08F8A04507D9E418F6
:1004640000F1FF3529D2A04527D902381C4440EABF
:100474000940A4EB0804A0FB02894C45C6464D463E
:1004840015D312D056B1BAEB0E0364EB050404FA8B
:1004940007F7CB401F43CC40376074600021BDE8B0
:1004A400F0871846F8E69046E0E6C245EAD2B8EB93
:1004B400020E69EB03050138E4E72846D7E7404616
:1004C40091E78146BEE7014678E702383C4445E7B8
:1004D400084608E7A8F102083D442BE7704700BF2F
:1004E40038B50A4B054618684FF47A73B0FBF3F03D
:1004F40000F086F8044638B9024629464FF0FF302A
:1005040000F04AF8204638BD012038BD1C00002008
:10051400094A136843F4807310B50320136000F094
:1005240029F80020FFF7DCFF044618B901F092FF18
:10053400204610BD0124FBE700200240024A136854
:1005440001331360704700BF64000020014B18683A
:10055400704700BF6400002038B50446FFF7F6FF7B
:10056400631C054618BF0134FFF7F0FF401B8442AB
:10057400FAD838BD074AD36823F4E0631B041B0C84
:1005840043F0BF63000243F4003300F4E06003432C
:10059400D360704700ED00E0174B30B5DC68C4F35E
:1005A4000224C4F10703251D042B28BF0423062DB0
:1005B4004FF0010505FA03F303F1FF338CBF033C4D
:1005C40000241940A14005FA04F4013C224000280B
:1005D40042EA01024FEA0212AFBF00F1604000F0AC
:1005E4000F00064BD2B2A5BF00F56140D2B21A5437
:1005F40080F8002330BD00BF00ED00E014ED00E002
:100604000138B0F1807F0AD2064B074A5860F021C6
:1006140082F823100020072298601A607047012096
:10062400704700BF10E000E000ED00E0044B1A68E2
:1006340004280CBF42F0040222F004021A6070473E
:1006440010E000E0704708B5FFF7FCFF08BD0000AC
:100654002DE9F74FD1F80080DFF874915A4A00234E
:1006640038FA03F402D103B0BDE8F08F012404FA90
:1006740003FA18EA0A0500F09C804C6824F0100B79
:10068400BBF1020F14D14FEAD30E00EB8E0E03F030
:10069400070CDEF820604FEA8C0C0F2707FA0CF7E2
:1006A40026EA07070E6906FA0CF63E43CEF82060E8
:1006B4004FEA430C0327066807FA0CF7FF4304F0DC
:1006C400030E3E400EFA0CFE0BF1FF3B4EEA06060B
:1006D400BBF1010F066011D8866806EA070BCE68E5
:1006E40006FA0CFE4EEA0B068660466826EA0A0AFB
:1006F400C4F300169E4046EA0A064660C6683740C0
:100704008E6806FA0CF63743E600C76051D5D9F86F
:10071400606046F00106C9F86060D9F8606023F0B3
:10072400030707F1804706F0010607F580370196B5
:1007340003F0030C019EBE684FEA8C0C4FF00F0EC1
:100744000EFA0CFEB0F1904F26EA0E0E33D01F4E77
:10075400B04232D006F58066B04230D006F58066ED
:10076400B0422ED006F58066B04214BF0726042698
:1007740006FA0CF646EA0E06BE601668EF4314F459
:10078400803F0CBF3E402E431660566814F4003F71
:100794000CBF3E402E435660966814F4801F0CBF75
:1007A4003E402E439660D668A40254BF3E402E437A
:1007B400D660013354E70026DAE70126D8E702269B
:1007C400D6E70326D4E700BF000401400004004834
:1007D400001002400AB1816170478162704703686A
:1007E4009A69910744BF00229A629A69D2075EBF50
:1007F4009A6942F001029A61704730B5039C05681A
:100804002343640D04F4806444F07F7444F4583446
:100814006868C1F3090144F47F74194344F0030484
:1008240041EA024120EA04042143696030BD2DE914
:10083400F041069F0446884616461D462268936981
:1008440038EA03030CBF01230023B34202D0002083
:10085400BDE8F0816B1CF2D0FFF778FEC01B854227
:1008640001D3002DEAD1636C43F020036364202399
:1008740084F84130002384F8423084F84030012069
:10088400BDE8F081036870B50446986910F0100063
:100894000D46164616D170BD691C14D0FFF756FEDE
:1008A400801B854200D36DB9636C43F020036364FD
:1008B400202384F84130002384F8423084F8403007
:1008C400012070BD236899698A06E5D51022202588
:1008D400DA612046DD61FFF782FF2268536823F066
:1008E400FF7323F48B3323F4FF7323F0010353606A
:1008F400636C43F00403636484F84150DBE770B530
:1009040004460D46164623689B699B0701D50020C3
:1009140070BD324629462046FFF7B4FFA0B96A1CD1
:10092400F1D0FFF713FE801B854201D3002DEAD1DD
:10093400636C43F020036364202384F84130002374
:1009440084F8423084F84030012070BD70B504460C
:100954000D46164623689B699B0601D5002070BD91
:10096400324629462046FFF78DFF90B9FFF7EEFD8A
:10097400801B854201D3002DECD1636C43F020032E
:100984006364202384F84130002384F8423084F8DF
:100994004030012070BD70B504460D4616462368EC
:1009A4009B695B070ED4324629462046FFF76AFF4F
:1009B400F0B923689A6991061CD59A69520703D540
:1009C400228D0AB1002070BD2021D9615A6822F01D
:1009D400FF7222F48B3222F4FF7222F001025A6079
:1009E4000023636484F8411084F8423084F8403072
:1009F400012070BDFFF7AAFD801B854201D3002DA5
:100A0400CDD1636C43F020036364202384F8413028
:100A14000023EBE710B5044600284AD090F8413093
:100A240003F0FF021BB980F8402001F0A1FA24234F
:100A340084F841302368E1681A6822F001021A60E0
:100A4400626822F070621A619A68012922F40042F5
:100A54009A60A26824D142F400429A605A6861699B
:100A640042F0007242F400425A60DA6822F4004212
:100A7400DA6022690A43A16942EA0122DA60216A42
:100A8400E2690A431A601A6842F001021A600020FF
:100A94002023606484F84130206384F8420010BD50
:100AA40042F4044202299A6004BF4FF400625A607F
:100AB400D4E7012010BD00002DE9F743984690F8D3
:100AC4004130202B04460E46914640F0848090F835
:100AD4004030012B7FD0012780F84070FFF736FDAE
:100AE4001923054600903A464FF400412046FFF78B
:100AF4009EFE18B1012003B0BDE8F083212384F8E1
:100B04004130102384F842306064A4F82A80638D55
:100B1400C4F824909BB2FF2B6063304B26D9FF228C
:100B2400228500934FF0807331462046FFF765FE1F
:100B3400638D0A999BB22A462046FBB9FFF706FF4C
:100B44000028D7D123682021D9615A6822F0FF7286
:100B540022F48B3222F4FF7222F001025A6084F8EC
:100B6400411084F8400084F84200C4E7628D009389
:100B740092B222854FF00073D2B2D5E7FFF7BFFEE1
:100B84000028B7D1636A226813F8011B916263627B
:100B9400638D228D013B9BB26385638D013A92B2D2
:100BA4009BB22285002BC3D0002AC1D100950A9B99
:100BB40080212046FFF73BFE00289BD1638D9BB22A
:100BC400FF2B03D9FF2222850090ABE7628D0090B2
:100BD40092B22285CEE702208DE700BF002000807C
:100BE4002DE9F743984690F84130202B04460E46F1
:100BF400914640F0868090F84030012B00F08180CF
:100C0400012780F84070FFF7A1FC192305460090E6
:100C14003A464FF400412046FFF709FE18B101207F
:100C240003B0BDE8F083222384F84130102384F814
:100C340042306064A4F82A80638DC4F824909BB287
:100C4400FF2B6063304B26D9FF22228500934FF09F
:100C5400807331462046FFF7D0FD638D0A999BB21D
:100C64002A462046FBB9FFF771FE0028D7D1236836
:100C74002021D9615A6822F0FF7222F48B3222F4C7
:100C8400FF7222F001025A6084F8411084F8400097
:100C940084F84200C4E7628D009392B222854FF03B
:100CA4000073D2B2D5E7FFF776FE0028B7D12268E9
:100CB400636A526A1A70636A228D01336362638DB8
:100CC400013B9BB26385638D013A92B29BB222854C
:100CD400002BC2D0002AC0D100950A9B8021204657
:100CE400FFF7A5FD00289AD1638D9BB2FF2B03D992
:100CF400FF2222850090AAE7628D009092B222859D
:100D0400CDE702208CE700BF0024008090F841204A
:100D1400D2B2202A10B51DD190F84030012B19D041
:100D2400242380F8413003681C6824F001041C600B
:100D34001C6824F480541C601C68214319601968E1
:100D440041F001011960002380F8412080F840300F
:100D5400184610BD022010BD10B590F84140E4B211
:100D6400202C1CD190F84030012B18D0242380F87B
:100D7400413003681A6822F001021A601A6822F4EA
:100D8400706242EA012119601A6842F001021A6095
:100D9400002380F8414080F84030184610BD0220FE
:100DA40010BD0000024B186800F4C060704700BF1B
:100DB40000700040174B1A68B0F5007F02F4C0625F
:100DC4001CD1B2F5007F15D01A6822F4C06242F437
:100DD40000721A60104A116832224A430F49B2FB6A
:100DE400F1F2194601325869400500D522B94B6920
:100DF4005B050DD400207047013AF4E7B2F5806F2B
:100E04001FBF1A6822F4C06242F480621A60F1E7DC
:100E140003207047007000401C00002040420F0077
:100E240037B51E4DAB6DDA00044618D5FFF7BAFF8F
:100E3400B0F5007F23D1802C29D9A02C8CBF0220AF
:100E44000120174A136823F0070303431360136850
:100E540003F00703181A18BF012003B030BDAB6DAF
:100E640043F08053AB65AB6D03F080530193019B5A
:100E7400FFF798FFAB6D23F08053AB65D8E7802C68
:100E840007D808D0A4F1700358425841D9E700208C
:100E9400D7E70320D5E70220D3E700BF00100240C4
:100EA40000200240254B9A68D96812F00C0205D044
:100EB4000C2A15D101F00301012918D11968204821
:100EC400090755BFD3F894101968C1F30321C1F37E
:100ED400031150F8210082B30C2A09D00020704776
:100EE400042A29D0082A174818BF00207047002078
:100EF400D968DA6801F00301C2F30212022902F18F
:100F0400010205D0032912D0D968C1F3062103E0F8
:100F1400D9680D48C1F30621DB68B0FBF2F0C3F3D6
:100F24004163013348435B00B0FBF3F07047D96879
:100F34000448C1F30621EFE703487047001002405C
:100F4400C426000800127A000024F4002DE9F743B7
:100F5400054608B9012046E0A84C0368A668E7687E
:100F6400DB0606F00C0607F0030772D51EB10C2E43
:100F740051D1012F4FD12368980702D5AB69002BBB
:100F8400E8D02368286A190756BFD4F89430236838
:100F94001B0903F0F003834228D2FFF741FF002826
:100FA400D8D1236843F00803236023682A6A23F016
:100FB400F003134323606368EA6923F47F4343EA3D
:100FC40002236360FFF76EFFA3688D4AC3F3031324
:100FD400D35C03F01F03D8408A4B18600020FFF74E
:100FE4007FFA002835D003B0BDE8F083236843F0CE
:100FF40008032360236823F0F0030343236063683A
:10100400EA6923F47F4343EA02236360FFF708FF9E
:101014000028D7D09EE7AB69002B3AD0236843F071
:1010240001032360FFF792FA804623689A0728D5C4
:10103400236843F00803236023682A6A23F0F0033B
:10104400134323606368EA6923F47F4343EA02237A
:1010540063602B68D8072DD42B6899076BD42B6851
:10106400180700F1A0802B68590700F1CD802B6888
:10107400990600F13681AB6A002B40F05C810020B8
:10108400B1E7FFF763FAA0EB08000228CDD90320EB
:10109400A9E7236823F001032360FFF757FA80468A
:1010A40023689B07D5D5FFF751FAA0EB0800022867
:1010B400F6D9ECE7082E03D00C2E08D1032F06D165
:1010C40023689A03C8D56B68002BC5D142E76B68C7
:1010D400B3F5803F10D1236843F480332360FFF7D6
:1010E40035FA804623689B03B6D4FFF72FFAA0EBAA
:1010F40008006428F6D9CAE7B3F5A02F04D1236801
:1011040043F480232360E6E7226822F480322260DD
:10111400226822F480222260002BE0D1FFF716FA25
:1011240080462368980397D5FFF710FAA0EB0800D0
:101134006428F6D9ABE7042E03D00C2E10D1022F6D
:101144000ED12368590503D5EB68002B3FF402AF99
:1011540063682A6923F0FE4343EA026363607EE71F
:10116400EB687BB1236843F480732360FFF7EEF9E7
:10117400074623685A05EBD4FFF7E8F9C01B022899
:10118400F7D984E7236823F480732360FFF7DEF93B
:10119400074623685B057FF562AFFFF7D7F9C01BED
:1011A4000228F6D973E76B699BB1D4F8943043F005
:1011B4000103C4F89430FFF7C9F90746D4F8943012
:1011C4009A073FF550AFFFF7C1F9C01B0228F5D9C4
:1011D4005DE7D4F8943023F00103C4F89430FFF7AA
:1011E400B5F90746D4F894309B077FF53CAFFFF779
:1011F400ADF9C01B0228F5D949E700BF0010024031
:10120400AA2600081C000020A36DD80029D4A36DD1
:1012140043F08053A365A36D03F080530193019BB6
:101224004FF00108714F3B68D9051DD5AB68012B00
:101234002BD1D4F8903043F00103C4F89030FFF779
:1012440085F941F288390746D4F890309B0742D596
:10125400B8F1000F3FF40BAFA36D23F08053A365E7
:1012640005E74FF00008DDE73B6843F480733B601B
:10127400FFF76CF981463B68DA05D7D4FFF766F9C6
:10128400A0EB09000228F6D901E7052B06D1D4F812
:10129400903043F00403C4F89030CAE7D4F89020A7
:1012A40022F00102C4F89020D4F8902022F0040225
:1012B400C4F89020002BC2D1FFF748F941F28839D5
:1012C4000746D4F890309807C2D5FFF73FF9C01B02
:1012D4004845F6D9DBE6FFF739F9C01B4845B3D9D1
:1012E400D5E66B6A9BB1D4F8983043F00103C4F897
:1012F4009830FFF72BF90746D4F898309A073FF552
:10130400BAAEFFF723F9C01B0228F5D9BFE6D4F81B
:10131400983023F00103C4F89830FFF717F9074613
:10132400D4F898309B077FF5A6AEFFF70FF9C01BE2
:101334000228F5D9ABE60C2E3FF40CAE022B236841
:1013440023F08073236036D1FFF700F90646236843
:1013540098012AD4AB6B6A6BDB0643EA0223EA6A80
:1013640013432A6B013A43EA0213EA6B5208013A27
:1013740043EA42532A6C5208013A43EA4263E36067
:10138400236843F080732360E36843F08073E36071
:10139400FFF7DCF80546236899013FF570AEFFF7C7
:1013A400D5F8401B0228F6D971E6FFF7CFF8801B69
:1013B4000228CCD96BE623681A015EBFE36823F0E8
:1013C4000303E360E36823F0887323F48033E3606A
:1013D400FFF7BCF8054623689B017FF550AEFFF785
:1013E400B5F8401B0228F6D951E600BF0070004052
:1013F4002DE9F0410E46044610B90120BDE8F08104
:10140400404A136803F007038B4229D32368D907A2
:1014140031D421688A075BD43A4A136803F007037E
:101424009E425DD311F0040F374D64D10B0706D5EE
:10143400AB68226923F4605343EAC203AB60FFF74D
:1014440031FDAB68314AC3F30313BDE8F041D35C0B
:1014540003F01F03D8402E4B18600020FFF740B85C
:10146400136823F007030B431360136803F00703A7
:101474009942C2D1CAE76268234D032A2B681BD163
:1014840013F0007FB9D0AB6823F003031343AB60C0
:10149400FFF75CF841F288380746AB68626803F0EE
:1014A4000C03B3EB820FB4D0FFF750F8C01B4045D8
:1014B400F3D90320BDE8F081022A02D113F4003FDE
:1014C400E0E712B913F0020FDCE713F4806FD9E7F9
:1014D4000D4AA068936823F0F003034393609BE7ED
:1014E400136823F0070333431360136803F00703FF
:1014F4009E4282D196E7AB68E26823F4E06313432B
:10150400AB6093E70020024000100240AA260008C6
:101514001C000020014B1868704700BF1C0000200D
:10152400054B064A9B68C3F30223D35C044A106844
:1015340003F01F03D840704700100240BA26000889
:101544001C000020054B064A9B68C3F3C223D35CEE
:10155400044A106803F01F03D8407047001002408B
:10156400BA2600081C000020F8B5444BDA6812F0D3
:10157400030F05460E461C46006839D0DA6802F0AF
:10158400030282424BD1002A49D0DB686A68C3F364
:1015940002130133934242D1236823F08063236012
:1015A400FEF7D4FF074623681A0141D4AF68002E22
:1015B40045D0012E4FD12269286922F4C002400887
:1015C40022F4FE42013842EA072242EA40522261F2
:1015D400236843F080632360FEF7B8FF0646236860
:1015E4001B0145D52369AA69134323610020F8BD73
:1015F400022810D0032814D0012810D11B689F079B
:10160400F5D5E3686A6823F07303013A184340EAA6
:101614000210E060C0E71B6813F4806FF1D1012071
:10162400F8BD1A689103ECD41B6813F4802FF5E716
:10163400FEF78CFFC01B0228B5D90320F8BD226930
:10164400E96822F07842C90641EA072322F4FE42FF
:1016540013432361BCE72369686923F0C06340082E
:1016640023F4FE43013843EA072343EA4063F0E7E7
:10167400FEF76CFF801B0228B1D9DEE700100240A0
:101684002DE9F743056815F4006504460ED0C16CD6
:10169400B1F5000F53D0B1F5400F55D000295ED1FC
:1016A4000430FFF761FF054600284DD023689E03F0
:1016B40063D5B84EB36DD80040F160810027DFF8E0
:1016C400D882D8F8003043F48073C8F80030FEF7AD
:1016D4003DFF8146D8F80030D90542D5002D47D1C9
:1016E400D6F8903013F4407314D0626E934211D044
:1016F400D6F89030D6F8902042F48032C6F8902084
:10170400D6F8902023F4407322F48032C6F8902057
:10171400C6F89030DA0709D5FEF718FF41F2883988
:101724008046D6F890309B0740F1FF80D6F8903081
:10173400626E23F440731343C6F8903018E0954A60
:10174400D36843F48033D360924AE16CD2F8883092
:1017540023F440030B43C2F888300025A6E7012593
:10176400A4E7FEF7F3FEA0EB09000228B2D9032593
:101774001FB1B36D23F08053B3652368DF0708D529
:101784008449206AD1F8882022F003020243C1F878
:1017940088209E0708D57F49606AD1F8882022F006
:1017A4000C020243C1F88820580708D57949A06A79
:1017B400D1F8882022F030020243C1F888201907AA
:1017C40008D57449E06AD1F8882022F0C0020243A7
:1017D400C1F888209A0608D56E49206BD1F8882074
:1017E40022F440620243C1F888209F0508D5694964
:1017F400606CD1F8882022F440220243C1F888208A
:101804005E0508D56349A06CD1F8882022F4401203
:101814000243C1F88820580608D55E49606BD1F8A8
:10182400882022F440520243C1F88820190608D5C2
:101834005849A06BD1F8882022F440420243C1F8F1
:101844008820DA0508D55349E06BD1F8882022F4C2
:1018540040320243C1F88820DF0208D54D49206C8C
:10186400D1F89C2022F003020243C1F89C209E047C
:101874000FD5484A216DD2F8883023F040630B43DA
:10188400B1F1006FC2F8883057D1D36843F48013A4
:10189400D360236818030FD53E4A616DD2F88830AF
:1018A40023F040630B43B1F1006FC2F888304FD18D
:1018B400D36843F48013D360236859030FD5354AA2
:1018C400A16DD2F8883023F040630B43B1F1006F6F
:1018D400C2F8883047D1D36843F48013D3602368B7
:1018E4005A0412D52B49E26DD1F8883023F04053C5
:1018F4001343B2F1805FC1F8883006D10221201D64
:10190400FFF732FE002818BF05462368DB0308D51D
:10191400204A216ED2F8883023F000430B43C2F8EA
:101924008830284603B0BDE8F083FEF70FFEA0EB35
:10193400080048457FF6F5AE19E7B1F1806FA8D1EC
:101944000121201DFFF710FE002818BF0546A0E75F
:10195400B1F1806FB0D10121201DFFF705FE0028F1
:1019640018BF0546A8E7B1F1806FB8D10121201D49
:10197400FFF7FAFD002818BF0546B0E7B36D43F042
:101984008053B365B36D03F080530193019B01272A
:1019940095E600BF00100240007000400268C16973
:1019A400F8B5044683680069156803436069034316
:1019B400AF480B432840034313605368E06823F4A3
:1019C400405303435360AB4BA0699A421CBF236A44
:1019D4001843936823F4306303439360A64B9A42FD
:1019E40018D103F55843A54AD3F8883003F003030C
:1019F400B1F5004FD35C40F02381082B77D8DFE8A2
:101A040013F00001B300E20076001C0176007600BA
:101A1400760036009A4B9A4207D103F5E633994A89
:101A2400D3F8883003F00C03E2E7974B9A4223D1B2
:101A340003F5E433D3F8883003F03003102B00F0BF
:101A4400F9800BD8002B00F0D980B1F5004F4FF08E
:101A540001024FF0000300F0DE8091E0202B00F043
:101A6400AF80302BF1D1B1F5004F40F0A180606818
:101A7400430803F58033ACE0844B9A421CD103F550
:101A8400E233D3F8883003F0C003402B00F0AF807A
:101A940006D8002B00F0A080764B9A42D5D126E0E0
:101AA400802B00F08A80C02BF6D1724B9A42DAD197
:101AB4004FF40040082315E06E4B9A42C5D103F55C
:101AC400C833D3F8883003F44063B3F5806F00F073
:101AD4008E80DED9B3F5006F6FD0B3F5406FE3E7C6
:101AE4006B480223626802EB4201814205D901225C
:101AF4000023236663661046F8BDB0EB023FF6D8B8
:101B0400082B2ED8DFE803F0052D1C2D242D2D2DB8
:101B14002700FFF705FD62684FF48071560800271F
:101B2400E1FB0067002330463946FEF751FB0022F3
:101B3400584BA0F540719942D9D82368D860D7E7AB
:101B44005548550800230021401941F10001ECE7F4
:101B5400FFF7A8F9DFE750080021002310F5000083
:101B6400F3E701220020E3E7FFF7ECFC4BE0FFF78B
:101B7400D7FC626800EB5203B3FBF2F39BB2002282
:101B8400A3F110004FF6EF718842B0D82168CB6002
:101B9400AEE7FFF7D7FCECE76068430803F574038E
:101BA40003F51053B3FBF0F3E8E7FFF77BF9E0E745
:101BB4006068430803F50043F4E72E4B9A428FD044
:101BC400B1F5004FE8D16068430803F1F47303F5FD
:101BD4009043B3FBF0F31CE0264B9A420ED1FFF77F
:101BE4009FFC002300287FF47DAF024680E7214B51
:101BF4009A421FD1FFF756F90423F3E7B1F5004FDA
:101C0400B5D1FFF78DFC61684A0802EB4003B3FBD2
:101C1400F1F39BB20022A3F110004FF6EF7188425A
:101C24003FF665AF23F00F012068C3F342030B4373
:101C3400C3605DE7B1F5004FB7D1FFF733F9E2E7D1
:101C4400082B3FF654AF01A252F823F0731B00088F
:101C5400971B00089D1B0008F31A0008AF1B00081F
:101C6400F31A0008F31A0008F31A0008B51B000859
:101C7400F369FFEF00800040003801408C26000823
:101C8400004400409026000800480040004C0040FA
:101C94000024F400FFFC0F00000024F4436ADA0778
:101CA40010B506D50168846A4A6822F400322243DA
:101CB4004A609C0706D50168C46A4A6822F48032E7
:101CC40022434A60590706D50168046B4A6822F426
:101CD400802222434A601A0706D50168446B4A6889
:101CE40022F4004222434A60DC0606D50168846B74
:101CF4008A6822F4805222438A60990606D50168D4
:101D0400C46B8A6822F4005222438A605A060FD5B3
:101D14000168046C4A6822F480122243B4F5801FDF
:101D24004A6005D14A68446C22F4C00222434A60E6
:101D34001B0606D50268816C536823F400230B4309
:101D4400536010BD2DE9F041069D04460F4616462A
:101D540098462168CA6937EA02030CBF01220022AF
:101D6400B24202D00020BDE8F0816B1CF2D09DB9D4
:101D740023681A6822F4D0721A609A6822F0010269
:101D84009A60202384F8713084F87230002384F838
:101D940070300320BDE8F081FEF7D8FBA0EB08000B
:101DA4008542D6D2E4E773B5044600264667FEF7BB
:101DB400CDFB23681B681A07054617D423681B68E4
:101DC4005B070AD56FF07E43009300222B464FF445
:101DD40080012046FFF7B6FFA0B92023002084F835
:101DE400713084F8700084F872300CE06FF07E4338
:101DF4000093324603464FF400112046FFF7A2FF3A
:101E04000028DBD0032002B070BD10B5044660B3D7
:101E140090F8713003F0FF021BB980F8702000F0D5
:101E2400B5FB2268242384F87130136823F001037E
:101E340013602046FFF7B2FD012816D0636A13B180
:101E44002046FFF72BFF23685A6822F490425A6019
:101E54009A6822F02A029A601A6842F00102204627
:101E64001A60BDE81040FFF79EBF012010BD0000BE
:101E7400224B10B5DA6C42F00402DA64DA6C8AB0F0
:101E840002F004020192019ADA6C42F08002DA64F0
:101E9400DA6C02F080020292029ADA6C42F00102D9
:101EA400DA64DA6C02F001020392039ADA6C42F00B
:101EB4000202DA64DB6C03F00203002204932021A3
:101EC4004FF09040049BFEF785FC4FF40053002430
:101ED400059305A90A4B0B4806930794FEF7B8FB34
:101EE4002023059305A901234FF0904006930794FE
:101EF4000894FEF7ADFB0AB010BD00BF001002400D
:101F0400000021100008004808B51548154B164973
:101F1400012280E80A0000238360C26003614361F8
:101F24008361C3610362FEF775FD18B142210F4856
:101F340000F08EFA00210A48FEF7E8FE18B14921A4
:101F44000A4800F085FA00210548FEF705FF28B18C
:101F540050210648BDE8084000F07ABA08BD00BF29
:101F640068000020EC9C9010005400409D2600085E
:101F74007FB502680F4B9A4219D14FF44073019315
:101F840012230293012303930323049304230DEBED
:101F9400030109480593FEF75BFB084B9A6D42F475
:101FA40000129A659B6D03F400130093009B07B025
:101FB4005DF804FB00540040000400480010024097
:101FC40010B5B0B04FF48072089210220992012229
:101FD40011920A220223129205A8072205930F9355
:101FE4001093139214931593FEF7B0FF00B1FEE71C
:101FF4000F220323029003900490042168468DE885
:102004000C00FFF7F5F900B1FEE742231F9023907F
:1020140016A81693FFF734FB00B1FEE74FF40070E7
:10202400FEF7C8FE044600B1FEE7FFF773FA4FF46B
:102034007A73B0FBF3F0FEF7E3FA0420FEF7F6FA46
:10204400224621464FF0FF30FEF7A6FA30B010BD0D
:102054002DE9F341104D04460F4616464FF0030890
:102064002178CDF8008001233A462846FEF724FD66
:102074000028F5D1084D0327217800970123324623
:102084002846FEF7ADFD0028F6D1642002B0BDE875
:10209400F041FEF761BA00BF680000202DE9F04767
:1020A4003F4C404E404D414F4149DFF84C91DFF8E1
:1020B4004CA1DFF84C8132462046FFF7C9FF2A467F
:1020C4003C492046FFF7C4FF3A463B492046FFF708
:1020D400BFFF3B78394F1A0202F440713278384E10
:1020E4000A4438499B010A8003F440712B78364D29
:1020F4000B443649D2100B802A80DB103246344917
:102104003B802046FFF7A4FF4A4632492046FFF7AA
:102114009FFF99F800203378DFF8E8902E492F4E7E
:1021240003EB022320464A46A8F80030FFF790FF4D
:1021340052462B492046FFF78BFF9AF8002099F866
:102144000030DFF8C490DFF8C4A0264903EB022373
:1021540020464A463380FFF77BFF524622492046F9
:10216400FFF776FF9AF8003099F80020B5F90010CF
:10217400B8F9000002EB03221C4B12B21A80B7F923
:102184000030121A5B1A5343194A1360B6F900203F
:10219400121A93FBF2F3174A0B441380BDE8F0873D
:1021A40017000020520000205C00002044000020A2
:1021B4001100002014000020080000205600002018
:1021C40051000020540000204C0000205E0000203C
:1021D400100000200F0000201300002058000020F1
:1021E40012000020160000201500002060000020CE
:1021F400C4000020C0000020500000205A0000202D
:102204004E0000205B0000206300002062000020DC
:102214002DE9F047364C374E374D3849DFF81881F1
:10222400DFF81891DFF818A1354F32462046FFF742
:102234000FFF2A4633492046FFF70AFF3378324E10
:1022440032499B08A8F800302B78314D9B082A4668
:1022540020463380FFF7FCFE4A462E492046FFF70E
:10226400F7FE99F800202B78DFF8D8902A492B4DF7
:1022740003EB022320464A463B80FFF7E9FE524621
:1022840027492046FFF7E4FE9AF8002099F8003029
:10229400DFF8B490DFF8B4A0224903EB0223204610
:1022A4004A462B80FFF7D4FE52461F492046FFF7CB
:1022B400CFFE9AF8003099F80020B8F90010B7F969
:1022C400000002EB0322194B12B21A80B6F9003057
:1022D400121A5B1A5343164A1360B5F90020121AF6
:1022E40093FBF2F3134A0B441380BDE8F08700BF5D
:1022F400170000203E0000204100002002000020C2
:10230400D400002005000020B800002001000020B7
:102314003D0000200000002004000020CE0000202A
:10232400030000200700002006000020CC0000204D
:10233400B4000020BE000020BC0000203C000020AF
:102344003F00002040000020430000204200002005
:102354002DE9F041244DDFF8CC80244F244E25494B
:10236400254C42462846FFF773FE3A462349284641
:10237400FFF76EFE324622492846FFF769FE98F8B9
:102384000030DFF8A4801F4903F110023B781E4F90
:102394001B0203EB024332781C4E13442846424688
:1023A4002360FFF755FE3A4619492846FFF750FEC9
:1023B400324618492846FFF74BFE3B7898F8002030
:1023C4001B0203EB024332781344134A136022685E
:1023D4001344124A13604FF4805293FBF2F3104AF1
:1023E4001380BDE8F08100BF1800002049000020E0
:1023F4004A0000200C000020C80000200D0000202E
:102404000E000020090000204600002047000020A4
:102414000A0000200B000020D0000020D80000207B
:10242400C2000020480000204500002008B5FEF747
:102434006FF8FFF7C5FDFFF71BFD00F085F8FFF708
:1024440063FDFFF72BFEFFF7E3FEFFF781FFF8E7DD
:10245400FEE70000214B07B51A6E42F001021A662E
:102464001A6E02F001020092009A9A6D42F08052B4
:102474009A659B6D03F0805301930320019BFEF743
:1024840079F8002211466FF00B00FEF785F8002260
:1024940011466FF00A00FEF77FF8002211466FF034
:1024A4000900FEF779F8002211466FF00400FEF7E8
:1024B40073F8002211466FF00300FEF76DF8002256
:1024C40011466FF00100FEF767F8002211464FF045
:1024D400FF30FEF761F803B05DF804FB0010024022
:1024E4007047FEE7FEE7FEE7FEE770477047704778
:1024F40008B5FEF723F8BDE80840FEF7A4B80000CD
:102504000F49D1F8883043F47003C1F888300D4B7B
:102514001A68002042F001021A6098601A6822F0DA
:10252400A85222F410221A604FF48052DA601A681A
:1025340022F480221A6098614FF000638B60704728
:1025440000ED00E00010024008B50D480D4B4FF4BB
:10255400E13E80E808400C2200238360C3600361ED
:1025640042618361C36103624362FFF74EFC28B199
:1025740044210548BDE80840FFF76ABF08BD00BF15
:10258400DC00002000440040F42600087FB5026807
:102594000F4B9A4219D103F5E63301A99A6D42F41F
:1025A40000329A659B6D03F400330093009B0C2367
:1025B40001930223029300230393032304934FF014
:1025C400904007230593FEF743F807B05DF804FB3A
:1025D40000440040DFF834D0002103E00C4B5B588A
:1025E400435004310B480C4B42189A42F6D30B4A21
:1025F40002E0002342F8043B094B9A42F9D3FFF767
:102604007FFF00F011F8FFF711FFFEE700800220C2
:1026140014270008000000202000002020000020D3
:1026240054010020FEE7000070B50D4E0D4CA41BB4
:10263400A4100025A54209D10B4E0C4C00F018F84B
:10264400A41BA4100025A54205D170BD56F8253061
:1026540098470135EEE756F8253098470135F2E7FB
:102664000C2700080C2700080C2700081027000876
:10267400F8B500BFF8BC08BC9E467047F8B500BF6B
:08268400F8BC08BC9E4670473B
:10268C000104020800101010041010100210101099
:10269C00082E2E5C5372635C6932632E630000005B
:1026AC0000000000000001020304060708090000F6
:1026BC000000010203040000A0860100400D03008D
:1026CC00801A060000350C0040420F0080841E006A
:1026DC0000093D0000127A000024F40000366E015F
:1026EC000048E801006CDC022E2E5C5372635C75B2
:0826FC00736172742E6300008B
:0827040000DBFF7F0100000073
:04270C00B901000807
:042710009501000827
:102714003736303B3A312928352A29281716153DF2
:102724003C323F3E332B2ABEBA00000000093D0074
:04000005080025D9F1
:00000001FF
