:020000040800F2
:1000000000800120295E00088D5B00088F5B0008DE
:10001000915B0008935B0008955B000800000000FE
:10002000000000000000000000000000975B0008D6
:10003000995B0008000000009B5B00089D5B0008C6
:10004000795E0008795E0008795E0008795E000834
:10005000795E0008795E0008795E0008795E000824
:10006000795E0008795E0008795E0008A15B0008EF
:10007000795E0008795E0008795E0008795E000804
:10008000795E0008795E0008795E0008795E0008F4
:10009000795E0008795E0008795E0008795E0008E4
:1000A000795E0008795E0008795E0008795E0008D4
:1000B000795E0008795E0008795E0008795E0008C4
:1000C000795E0008795E0008795E0008795E0008B4
:1000D000795E0008795E0008795E0008795E0008A4
:1000E000795E0008AD5B0008795E0008795E000863
:1000F000795E0008795E0008795E0008795E000884
:10010000795E0008795E0008795E0008795E000873
:10011000795E0008795E0008795E0008795E000863
:10012000795E0008795E0008795E0008795E000853
:10013000795E0008795E0008795E0008795E000843
:10014000795E0008795E0008795E0008795E000833
:10015000795E0008795E0008795E0008795E000823
:10016000795E0008795E0008795E0008795E000813
:10017000795E0008795E0008795E000800000000E2
:08018000795E0008795E0008B9
:1001900010B5054C237833B9044B13B10448AFF3C1
:1001A00000800123237010BD280200200000000001
:1001B000B469000808B5034B1BB103490348AFF30A
:1001C000008008BD000000002C020020B469000877
:1001D000034613F8012B002AFBD1181A0138704787
:1001E00001F0FF01102A2BDB10F0070F08D010F8E8
:1001F000013B013A8B422DD010F0070F42B3F6D1EC
:10020000F0B441EA012141EA014122F007047FF004
:1002100000070023F0E80256083C85EA010586EA5B
:10022000010685FA47F5A3FA87F586FA47F6A5FA97
:1002300087F68EB9EED1F0BC01F0FF0102F00702A3
:1002400032B110F8013B013A83EA010313B1F8D14E
:100250000020704701387047002D06BF354603382F
:10026000073815F0010F07D1013015F4807F02BF68
:10027000013015F4C03F0130F0BC0138704700BFB9
:1002800053B94AB9002908BF00281CBF4FF0FF31FD
:100290004FF0FF3000F07AB9ADF1080C6DE904CEF3
:1002A00000F006F8DDF804E0DDE9022304B0704751
:1002B0002DE9F0478C460D460446089E002B51D18F
:1002C0008A4217466DD9B2FA82FEBEF1000F0BD0FA
:1002D000CEF1200C01FA0EF520FA0CFC02FA0EF712
:1002E0004CEA050C00FA0EF44FEA174A250CBCFB49
:1002F000FAF81FFA87F90AFB18CC45EA0C4508FB07
:1003000009F3AB420AD9ED1908F1FF3280F02381DD
:10031000AB4240F22081A8F102083D44ED1AA4B29C
:10032000B5FBFAF00AFB105544EA054400FB09F955
:10033000A14509D9E41900F1FF3380F00A81A145F4
:1003400040F2078102383C44A4EB090440EA08402B
:100350000021002E61D024FA0EF400233460736073
:10036000BDE8F0878B4207D9002E54D0002186E8E3
:1003700021000846BDE8F087B3FA83F1002940F078
:100380008E80AB4202D3824200F2FA80841A65EB7F
:1003900003050120AC46002E3FD086E81010BDE8D2
:1003A000F08712B90127B7FBF2F7B7FA87FEBEF163
:1003B000000F34D1EB1B3A0C1FFA87FC0121B3FB71
:1003C000F2F8250C02FB183345EA03450CFB08F351
:1003D000AB4207D9ED1908F1FF3002D2AB4200F26F
:1003E000D1808046ED1AA3B2B5FBF2F002FB1055A6
:1003F00043EA05440CFB00FCA44507D9E41900F1CD
:10040000FF3302D2A44500F2B8801846A4EB0C04D6
:1004100040EA08409DE731463046BDE8F087CEF11E
:10042000200405FA0EF307FA0EF720FA04F83A0C46
:1004300025FA04F448EA0308B4FBF2F14FEA184540
:1004400002FB11441FFA87FC45EA044501FB0CF34B
:10045000AB4200FA0EF409D9ED1901F1FF3080F03A
:100460008A80AB4240F2878002393D44EB1A1FFA82
:1004700088F5B3FBF2F002FB103345EA034500FBBD
:100480000CF3AB4207D9ED1900F1FF386FD2AB4244
:100490006DD902383D44EB1A40EA01418FE7C1F1C2
:1004A000200722FA07F88B4005FA01F448EA030313
:1004B00020FA07FE4FEA134CFD404EEA040EB5FB4E
:1004C000FCF94FEA1E440CFB19551FFA83F844EA65
:1004D000054509FB08F4AC4202FA01F200FA01FA00
:1004E00008D9ED1809F1FF3043D2AC4241D9A9F146
:1004F00002091D442D1B1FFA8EFEB5FBFCF00CFB00
:1005000010554EEA054400FB08F8A04507D9E41849
:1005100000F1FF3529D2A04527D902381C4440EA12
:100520000940A4EB0804A0FB02894C45C6464D4691
:1005300015D312D056B1BAEB0E0364EB050404FADE
:1005400007F7CB401F43CC40376074600021BDE803
:10055000F0871846F8E69046E0E6C245EAD2B8EBE6
:10056000020E69EB03050138E4E72846D7E7404669
:1005700091E78146BEE7014678E702383C4445E70B
:10058000084608E7A8F102083D442BE7704700BF82
:1005900038B50A4B054618684FF47A73B0FBF3F090
:1005A00000F098FC044638B9024629464FF0FF3067
:1005B00000F050FC204638BD012038BD500000201E
:1005C000094A136843F4807310B50320136000F0E8
:1005D0002FFC0020FFF7DCFF044618B905F0BEFA37
:1005E000204610BD0124FBE700200240024A1368A8
:1005F00001331360704700BFC4020020014B18682C
:10060000704700BFC402002038B50446FFF7F6FF6C
:10061000631C054618BF0134FFF7F0FF401B8442FE
:10062000FAD838BD30B5CC0D04F004041430C1F351
:100630000451072303FA01F5235802FA01F123EAD2
:1006400005031943215030BD806800F00100704758
:100650008068C0F38000704737B5002301930446DB
:10066000002800F08580456D25B903F089FFA56558
:1006700084F85050206883689B007BD48368DD0039
:100680007FD58368D90040F18A800021FFF7E0FF21
:10069000636D13F0100F636D67D1002865D123F4EB
:1006A000817343F0020363652068FFF7CDFF98B9BB
:1006B0005248FFF7C9FF03465148FFF7C5FF034300
:1006C0005048FFF7C1FF034306D14F4A6068936863
:1006D00023F47C1303439360E068636B94F8202059
:1006E0000343A0680343607E012A43EA403343EAA0
:1006F000024302BF626A02F1FF3243EA4243A26A46
:1007000022B1E06A02F470720243134320683F4A48
:10071000C5682A401343C360FFF79AFF23689A68AD
:10072000120746D52269012A05BF186BE2691A6BC8
:1007300002F1FF3206BF20F00F00024322F00F0249
:100740001A63636D23F0030343F0010363650846F6
:1007500003B030BD019B013B0193019B002BF9D1FC
:100760008FE71A6922F0010245E043F01003636548
:100770000121ECE7836823F0204323F03F038360EB
:100780007CE78368224A23F0104323F03F0343F0C1
:10079000805383601F4B1B68B3FBF2F3DCE7636D90
:1007A00043F010036365A36D43F00103A3650121CA
:1007B0006CE70028B6D1D86894F83020257E520026
:1007C00020F4804042EA853220F002000243DA60E1
:1007D00094F83820012AC4D1256CE26B18692A43A9
:1007E000656C42F001022A43A56C20F4FF602A43A5
:1007F00020F0040002431A6194E700BF0000045097
:1008000000010450000204500003045007C0F0FF30
:10081000400D030050000020F7B50023019390F82D
:100820005030012B05460C4600F08781012380F8EB
:1008300050300068FFF70CFF002840F078814B68CB
:10084000052B08D8023B032B65D8DFE803F0025DD7
:100850005F610C236360616828688E0900F13007CE
:1008600006F00C0601F01F011F2303FA01F2F359F1
:1008700023EA02032268C2F384628A401343F351DD
:10088000FFF7E6FE2B689A68110740F15881286847
:10089000FFF7DAFE002840F0D780E6682868236872
:1008A000C34AD0F8B01006F0180EC3F3120722FAAC
:1008B0000EF21A4021EA07010A43C0F8B020BD4AEF
:1008C000964240F0C180002F40F093809E0E01368A
:1008D00006F01F02092A4FF001014FEA866640F236
:1008E000A28006F0F846914041EA0602002F40F04F
:1008F000CB809B0E013303F01F0303EB43011E3932
:10090000090541F000719BE01223A3E71823A1E73A
:100910004FF480739EE706239CE7DEF86010C3F374
:100920001200C1F384670EF1640600283AD1C3F3C4
:100930008460874240F0288121F00041CEF86010A9
:100940002368DEF86410C3F31207C1F384609FBB11
:10095000C3F38463834240F01C8121F00041316085
:1009600023689168C3F3120702F10806C1F384609B
:1009700077BBC3F38463834240F0128121F00041CE
:100980003160236802F10C00D268C3F31206C2F38F
:1009900084614EBBC3F384638B4204BF22F00042E8
:1009A000026074E793FAA3F0B0FA80F08742C3D0F4
:1009B000DEF86410C1F3846093FAA3F3B3FA83F30F
:1009C0008342CAD09168236802F10806C1F38460AB
:1009D00093FAA3F3B3FA83F38342CFD002F10C006E
:1009E000D2682368C2F3846193FAA3F3B3FA83F362
:1009F000D2E793FAA3F2B2FA82F2013202F01F02B6
:100A0000092A30D893FAA3F6B6FA86F60136B60666
:100A100006F0F84693FAA3F1B1FA81F1013101F041
:100A20001F02012101E006F0F846914041EA06026A
:100A3000A7B9990E013101F01F0101EB4101090530
:100A40001143A268FFF7EEFD22685B4B1A4220D1EA
:100A50000020002385F8503003B0F0BD93FAA3F1D5
:100A6000B1FA81F1E6E793FAA3F2B2FA82F2013227
:100A7000920602F0F84693FAA3F1B1FA81F101313E
:100A800001F01F0201212EE793FAA3F3B3FA83F3D7
:100A900030E74A494A4B88689A4200F0E0760C46B3
:100AA0001ED10202D4D42B68464A934203D002F5E9
:100AB00000729342CCD1A368434A23F0E0733343DE
:100AC00043F40003A360414B1B68B3FBF2F20C2319
:100AD00053430193019B002BBAD0019B013BF8E7E4
:100AE0003B4B9A4211D1C301B2D42B68354A934291
:100AF00003D002F500729342AAD1A36823F0E073F9
:100B0000334343F08073A360A2E7324B9A429FD1F4
:100B100010F480009CD12A682A4B9A4298D18B68A5
:100B200023F0E073334343F480038B6091E76A6DF5
:100B300042F020026A6518468BE702208CE7002805
:100B40007FF4A5AEA26821681846FFF76BFD266901
:100B5000D5F800E02368DEF80C10042E0EF16002D8
:100B60003FF4DBAEC1F3C1014800616903F0F84313
:100B7000814043F00043194352F82600164B0340CE
:100B8000194342F8261082E6DEF86410C1F384604F
:100B9000DEE69168236802F10806C1F38460E8E6A6
:100BA00002F10C00D2682368C2F38461F2E600BF50
:100BB000FFFF070000007F40000008800003045092
:100BC000000052C700000450400D030050000020F8
:100BD000000084CB0100008000F0FF0370B50446E4
:100BE0000068FFF731FD08B1002070BD2268154B89
:100BF0009168194209D0636D43F010036365A36DDA
:100C000043F00103A365012070BD93680E4D2B4096
:100C100043F001039360FFF7F1FC06462068036888
:100C2000DB07E1D4FFF710FD28B9226893682B4059
:100C300043F001039360FFF7E1FC801B0228EDD92C
:100C4000D9E700BF3F000080C0FFFF7F354B70B584
:100C5000044600689E68FFF7FBFC054600285AD151
:100C600094F85030012B56D0012384F850302046A0
:100C7000FFF7B4FF00284BD1636D2B4A23F4706358
:100C800023F0010343F4807363652368934206F005
:100C90001F0642D01D46626D22F480126265626DAD
:100CA00012F480521CBFA26D22F00602A2651C2223
:100CB0001A60AB424FF0000284F8502008D0092E91
:100CC0009DBF40F22122F240D2430122D10711D42C
:100CD000DA68920141BF626D22F4405242F48052C0
:100CE00062659A6822F0004222F03F0242F004025C
:100CF0009A6070BD636D43F480136365EB689B017C
:100D00000FD5636D23F4405343F48053636570BD86
:100D100084F8505070BD022070BD044D002EBAD032
:100D2000BDE770BD000304500001045000000450F2
:100D3000806800F0010070478068C0F38000704751
:100D400030B590F85030012B9BB0024666D001239D
:100D500080F85030324B006898420CBF03F5807326
:100D600000230193019840B9536D82F8500043F07D
:100D70002003536501201BB030BDFFF7DDFF0346A4
:100D80001068FFF7D9FF002842D1002B40D10B6833
:100D9000244C33B3A368486823F46043034392F8B8
:100DA000300043EA4033A3601D48FFF7C1FF03460C
:100DB0001D48FFF7BDFF03431C48FFF7B9FF184369
:100DC00004D00020002382F85030D4E70B68A568D7
:100DD00089680B4325F4716121F00F010B43A36077
:100DE000F0E7A3680E4823F46043A360FFF7A0FF79
:100DF00003460D48FFF79CFF03430C48FFF798FF9D
:100E00001843DED1A36823F4716323F00F03E6E7F0
:100E1000536D43F0200353650120D3E70220AAE776
:100E2000000004500003045000010450000204506C
:100E3000074AD36823F4E0631B041B0C43F0BF6331
:100E4000000243F4003300F4E0600343D3607047D2
:100E500000ED00E0174B30B5DC68C4F30224C4F1A8
:100E60000703251D042B28BF0423062D4FF0010581
:100E700005FA03F303F1FF338CBF033C0024194050
:100E8000A14005FA04F4013C2240002842EA010294
:100E90004FEA0212AFBF00F1604000F00F00064BB6
:100EA000D2B2A5BF00F56140D2B21A5480F8002337
:100EB00030BD00BF00ED00E014ED00E04209012369
:100EC00000F01F0003FA00F0014B43F822007047C6
:100ED00000E100E00138B0F1807F0AD2064B074AFA
:100EE0005860F02182F823100020072298601A60D1
:100EF00070470120704700BF10E000E000ED00E007
:100F000030B500284ED00168274B99424FF01404A9
:100F100040D8264A0A44B2FBF4F292004264A3F29B
:100F200007430364022380F825308468C368056999
:100F30000A6823432B4345692B4385692B43C569C5
:100F40002B43056A22F4FF4222F070022B43134325
:100F5000B4F5804F0B6014D0026C154B9A420CBF55
:100F600014491549436C0A6803F01C030F249C4084
:100F700022EA04020A6042680C6802FA03F323437F
:100F80000B6000230122C36380F8243080F8252001
:100F9000184630BD094B0B44B3FBF4F39B0043648C
:100FA000074BBEE7012030BD07040240F8FFFDBF3C
:100FB00000000240A8000240A8040240F8FBFDBF68
:100FC00000040240016C426C036870B402F01C0221
:100FD0000E681D680424944026420ED015F0040FBC
:100FE0000BD01A6892065EBF1A6822F004021A60DB
:100FF000036B4C6073B370BC1847022494402642C4
:1010000012D015F0020F0FD01A68950606D41A6890
:1010100022F00A021A60012380F8253000234C6078
:1010200080F82430C36AE5E708249440344211D0A4
:101030002C070FD51C6824F00E041C60012303FA52
:1010400002F24A60C36380F82530002380F8243020
:10105000436BCFE770BC7047074A536943F4802362
:10106000536172B601F58073401A0A680A50043160
:101070009942FAD162B6704700200240064B5A6985
:10108000002ABFBF054A9A6002F188329A60BABF4F
:101090005869C00F002070470020024023016745B7
:1010A000034A536943F0004353610020704700BF77
:1010B0000020024070B50546FFF7A0FA194C06461D
:1010C0002369DB031CD42369A06923F4705323F044
:1010D00005031B041B0C00F00040184319D0124AF2
:1010E00053680343536010F040431EBFA26913438B
:1010F000A36130F0404001D00A4B1861012070BD5F
:101100006A1CDDD0FFF77AFA801B8542D8D803200D
:1011100070BD236913F0010302D00123236170BD68
:10112000184670BD00200240000000202DE9F04765
:10113000244C9A462378012B0746884691463FD097
:1011400001234CF250302370FFF7B4FF064620BB5A
:1011500060601D48056815F4806517BF0368257732
:1011600023F4806303601CBF02232377D7B945694A
:1011700045F001054561C8F800900125C8F804A0B4
:101180004CF25030FFF796FF064625B10E4A5369E0
:1011900023EA0505556100F04DF800232370304621
:1011A000BDE8F0877B1E012B01D90025E8E7494601
:1011B0004046FFF751FF022FF7D14FF48025DFE7BC
:1011C0000226ECE70000002000200240094B10F04E
:1011D000010F1EBF5A6942F004025A61820742BFE2
:1011E0005A6942F400425A615A6942F480325A61A3
:1011F000704700BF002002400D4B5A6911F0010FEB
:1012000014BF22F4006242F400625A615A69C000BD
:1012100022F4FF6200F4FF60104358615A6942F003
:1012200002025A615A6942F480325A61704700BF23
:101230000020024013490B7FDBB203F0FD02012ABC
:101240000CD1114A106840F400601060106820F45E
:1012500000601060106840F400701060023B012BC9
:101260000CD8094B1A6842F480521A601A6822F4AA
:1012700080521A601A6842F480621A6000230B7769
:10128000704700BF00000020002002402DE9F04719
:10129000354C2378012B0646884662D001274CF254
:1012A00050302770FFF706FF054640BB2F4B6060AC
:1012B0001A6812F4007F1A6826D022F400721A60AD
:1012C0001A68510506D51A6822F480621A60032351
:1012D000237700E027773368012B1FD17068FFF771
:1012E00075FF4CF25030FFF7E5FE204A536923F4B6
:1012F000004323F0040305465361FFF79BFF0023DF
:1013000023702846BDE8F087520505D51A6822F4F7
:1013100080621A600223DBE72077DCE74FF0FF33BF
:10132000C8F80030B768DFF84490DFF844A0B3682D
:10133000F26813449F42E0D271683846FFF75CFFC1
:101340004CF25030FFF7B6FED9F8143003EA0A0326
:10135000C9F8143018B1C8F800700546CDE7013758
:10136000E5E70225CDE700BF000000200020024095
:1013700005F8FFFF2DE9F04F85B00B68DFF8A88175
:10138000674C01930023019ADA4002D105B0BDE811
:10139000F08F0126019A9E4012EA060E00F0B180FD
:1013A0004A6822F01007022F16D14FEAD30900EB4A
:1013B000890903F0070AD9F820504FEA8A0A4FF04A
:1013C0000F0C0CFA0AFC25EA0C0C0D6905FA0AF55B
:1013D00045EA0C05C9F820504FEA430C0325D0F824
:1013E00000B005FA0CF5ED4302F0030A0BEA050B19
:1013F0000AFA0CF9013F49EA0B09012FC0F80090E5
:1014000011D8876805EA0709CF6807FA0CF747EA99
:1014100009078760476827EA0609C2F300179F405B
:1014200047EA09074760BAF1030F07D1C76A27EAFD
:101430000606C2F3C0079F403E43C662C6683540F9
:101440008E6806FA0CF63543C560D50059D5D8F834
:10145000605045F00105C8F86050D8F8605023F09E
:10146000030606F1804605F0010506F58036039572
:1014700003F0030C039DB5684FEA8C0C0F2707FAA5
:101480000CF7B0F1904F25EA07073CD0254DA84254
:101490003BD005F58065A84239D005F58065A842A6
:1014A00037D005F58065A84235D005F58065A8429E
:1014B00033D005F58065A84214BF0725062505FA37
:1014C0000CF53D43B56025686FEA0E06D70354BF9F
:1014D00035404EEA050525606568970354BF3540E1
:1014E0004EEA05056560A568D70254BF35404EEA4F
:1014F0000505A560E568920254BF35404EEA050532
:10150000E56001333FE70025D9E70125D7E702254C
:10151000D5E70325D3E70425D1E70525CFE700BFAD
:101520000004014000040048001002402DE9F74F7C
:10153000474CDFF824A1DFF824B100234FF0010865
:101540004FF0030931FA03F202D103B0BDE8F08F86
:1015500008FA03F611EA060201926AD007685A00F7
:1015600009FA02F24FEAD30C174300EB8C0C076028
:10157000DCF8207003F0070E3D464FEA8E0E0F2771
:1015800007FA0EFE25EA0E0ECCF820E0D0F808E0AF
:10159000D2430EEA020EC0F808E0D0F804E0F643A9
:1015A0000EEA060EC0F804E0D0F80CE002EA0E02E3
:1015B000C260C26A1640C66223F0030606F1804686
:1015C00006F5803603F0030EB2684FEA8E0E07FA76
:1015D0000EF7B0F1904F02EA070C2CD01D4A904252
:1015E0002BD002F58062904229D002F580629042B1
:1015F00027D002F58062904225D0504525D058452D
:101600000CBF0622072202FA0EF2944511D1B268ED
:10161000019D22EA0707B7602268ED432A40226055
:1016200062682A406260A2682A40A260E2681540AF
:10163000E560013386E70022E5E70122E3E70222C5
:10164000E1E70322DFE70422DDE70522DBE700BF55
:10165000000401400004004800140048001800483D
:101660000AB1816170478162704703689A69910786
:1016700044BF00229A629A69D2075EBF9A6942F01B
:1016800001029A61704730B5039C05682343640DDD
:1016900004F4806444F07F7444F458346868C1F3FF
:1016A000090144F47F74194344F0030441EA024100
:1016B00020EA04042143696030BD2DE9F041069F12
:1016C0000446884616461D462268936938EA030395
:1016D0000CBF01230023B34202D00020BDE8F081FB
:1016E0006B1CF2D0FEF78AFFC01B854201D3002D90
:1016F000EAD1636C43F020036364202384F8413013
:10170000002384F8423084F840300120BDE8F081A5
:10171000036870B50446986910F010000D4616462F
:1017200016D170BD691C14D0FEF768FF801B85427E
:1017300000D36DB9636C43F020036364202384F805
:101740004130002384F8423084F84030012070BDDD
:10175000236899698A06E5D510222025DA6120469A
:10176000DD61FFF782FF2268536823F0FF7323F4E3
:101770008B3323F4FF7323F001035360636C43F056
:101780000403636484F84150DBE770B504460D46FA
:10179000164623689B699B0701D5002070BD324621
:1017A00029462046FFF7B4FFA0B96A1CF1D0FEF726
:1017B00025FF801B854201D3002DEAD1636C43F0E5
:1017C00020036364202384F84130002384F84230EE
:1017D00084F84030012070BDF7B5099E1F46164BB6
:1017E0000093054614464FF08073FAB2FFF74BFFA3
:1017F000324608992846FFF7C8FF10B1012003B010
:10180000F0BD012F2B680CD1E4B29C62089B0096BE
:10181000002280212846FFF750FF003018BF01202A
:10182000EDE7220A9A62089932462846FFF7ADFF93
:101830000028E3D12B68E7E700200080F7B5099E78
:101840001F46164B0093054614460023FAB2FFF7D5
:101850001AFF324608992846FFF797FF10B101207A
:1018600003B0F0BD012F2B680CD1E4B29C62089B41
:101870000096002240212846FFF71FFF003018BFC6
:101880000120EDE7220A9A62089932462846FFF7BE
:101890007CFF0028E3D12B68E7E700BF0020008031
:1018A00070B504460D46164623689B699B0601D514
:1018B000002070BD324629462046FFF729FF90B927
:1018C000FEF79CFE801B854201D3002DECD1636C9A
:1018D00043F020036364202384F84130002384F81C
:1018E000423084F84030012070BD10B50446002815
:1018F0004AD090F8413003F0FF021BB980F8402035
:1019000003F018F8242384F841302368E1681A684A
:1019100022F001021A60626822F070621A619A680D
:10192000012922F400429A60A26824D142F40042C4
:101930009A605A68616942F0007242F400425A604B
:10194000DA6822F40042DA6022690A43A16942EAB5
:101950000122DA60216AE2690A431A601A6842F0D9
:1019600001021A6000202023606484F84130206363
:1019700084F8420010BD42F4044202299A6004BF78
:101980004FF400625A60D4E7012010BD2DE9F04FFA
:101990009B4690F8413085B0202B04460F460392B9
:1019A000BDF83CA0DDF8408040F0A5800E9B13B14F
:1019B000BAF1000F06D14FF400736364012005B043
:1019C000BDE8F08F90F84030012B00F094800125A5
:1019D00080F84050FEF712FE1923009006462A4672
:1019E0004FF400412046FFF768FE81460028E5D10C
:1019F000212384F84130402384F842300E9B6064F8
:101A000063626063A4F82AA00196CDF800805B466B
:101A1000039A39462046FFF7DFFE10B184F8409064
:101A2000CCE7638D9BB2FF2B55D9FF222285009016
:101A30004FF0807339462046FFF725FE3246414677
:101A40002046FFF7A2FE0028B8D1636A226813F887
:101A5000011B91626362638D228D013B9BB26385A2
:101A6000638D013A92B29BB22285ABB1A2B90096C6
:101A7000434680212046FFF720FE00289ED1638D3B
:101A80009BB2FF2B2FD9FF22228500904FF080734D
:101A900039462046FFF7F7FD638D9BB2002BCDD171
:101AA000324641462046FFF7FBFE002886D12368D8
:101AB0002021D9615A6822F0FF7222F48B3222F47D
:101AC000FF7222F001025A6084F8411084F840004D
:101AD00084F8420073E7628D009092B222854FF045
:101AE0000073D2B2A6E7628D009092B222854FF0C9
:101AF0000073D2B2CCE7022061E700002DE9F04F7D
:101B00009B4690F8413085B0202B04460F46039247
:101B1000BDF83CA0DDF8408040F0A9800E9B13B1D9
:101B2000BAF1000F06D14FF400736364012005B0D1
:101B3000BDE8F08F90F84030012B00F0988001252F
:101B400080F84050FEF75AFD1923009006462A46B9
:101B50004FF400412046FFF7B0FD81460028E5D153
:101B6000222384F84130402384F842300E9B606485
:101B700063626063A4F82AA00196CDF800805B46FA
:101B8000039A39462046FFF759FE10B184F8409079
:101B9000CCE7638D9BB2FF2B364B58D9FF220093C5
:101BA00022854FF0807339462046FFF76CFD009682
:101BB0004346002204212046FFF77FFD0028B5D1CF
:101BC0002268636A526A1A70636A228D0133636203
:101BD000638D013B9BB26385638D013A92B29BB2E8
:101BE0002285ABB1A2B90096434680212046FFF77B
:101BF00064FD00289AD1638D9BB2FF2B2FD9FF2261
:101C0000228500904FF0807339462046FFF73BFD58
:101C1000638D9BB2002BCAD1324641462046FFF766
:101C20003FFE002882D123682021D9615A6822F022
:101C3000FF7222F48B3222F4FF7222F001025A600A
:101C400084F8411084F8400084F842006FE7628D08
:101C5000009392B222854FF00073D2B2A3E7628D57
:101C6000009092B222854FF00073D2B2CCE70220EE
:101C70005DE700BF0024008090F84120D2B2202A06
:101C800010B51DD190F84030012B19D0242380F8D5
:101C9000413003681C6824F001041C601C6824F4B3
:101CA00080541C601C6821431960196841F00101CF
:101CB0001960002380F8412080F84030184610BD9C
:101CC000022010BD10B590F84140E4B2202C1CD188
:101CD00090F84030012B18D0242380F8413003685D
:101CE0001A6822F001021A601A6822F4706242EA4D
:101CF000012119601A6842F001021A60002380F87D
:101D0000414080F84030184610BD022010BD000050
:101D1000024A136843F480731360704700700040F8
:101D2000064A136823F0070343F003031360044AD1
:101D3000136943F00403136130BF70470070004023
:101D400000ED00E0024B186800F4C060704700BF6F
:101D500000700040174B1A68B0F5007F02F4C062B3
:101D60001CD1B2F5007F15D01A6822F4C06242F48B
:101D700000721A60104A116832224A430F49B2FBBE
:101D8000F1F2194601325869400500D522B94B6974
:101D90005B050DD400207047013AF4E7B2F5806F7F
:101DA0001FBF1A6822F4C06242F480621A60F1E731
:101DB00003207047007000405000002040420F0098
:101DC00037B51E4DAB6DDA00044618D5FFF7BAFFE4
:101DD000B0F5007F23D1802C29D9A02C8CBF022004
:101DE0000120174A136823F00703034313601368A5
:101DF00003F00703181A18BF012003B030BDAB6D04
:101E000043F08053AB65AB6D03F080530193019BAE
:101E1000FFF798FFAB6D23F08053AB65D8E7802CBC
:101E200007D808D0A4F1700358425841D9E70020E0
:101E3000D7E70320D5E70220D3E700BF0010024018
:101E400000200240254B9A68D96812F00C0205D098
:101E50000C2A15D101F00301012918D11968204875
:101E6000090755BFD3F894101968C1F30321C1F3D2
:101E7000031150F8210082B30C2A09D000207047CA
:101E8000042A29D0082A174818BF002070470020CC
:101E9000D968DA6801F00301C2F30212022902F1E3
:101EA000010205D0032912D0D968C1F3062103E04D
:101EB000D9680D48C1F30621DB68B0FBF2F0C3F32B
:101EC0004163013348435B00B0FBF3F07047D968CE
:101ED0000448C1F30621EFE70348704700100240B1
:101EE000F06A000800127A000024F4002DE9F7439C
:101EF000054618B9012003B0BDE8F083A54C03687E
:101F0000A668E768DB0606F00C0607F003073CD579
:101F10001EB10C2E63D1012F61D12368980702D521
:101F2000AB69002BE6D02368286A190756BFD4F89E
:101F3000943023681B0903F0F00383423AD2FFF781
:101F40003FFF0028D6D1236843F0080323602368AD
:101F50002A6A23F0F003134323606368EA6923F4D9
:101F60007F4343EA02236360FFF76CFFA3688A4A5A
:101F7000C3F30313D35C03F01F03D840874B1860EF
:101F80000020FEF705FB0028B5D12B68D8075DD4EB
:101F90002B68990700F19C802B68180700F1D0800E
:101FA0002B68590700F1FC80AB6A002B40F065817B
:101FB0000020A0E7236843F008032360236823F090
:101FC000F003034323606368EA6923F47F4343EA31
:101FD00002236360FFF7F4FE0028C5D08AE7AB69EF
:101FE0001BB3236843F001032360FEF707FB804621
:101FF00023689A0711D5236843F0080323602368F8
:102000002A6A23F0F003134323606368EA6923F428
:102010007F4343EA02236360B7E7FEF7EFFAA0EBE2
:1020200008000228E4D9032065E7236823F00103B0
:102030002360FEF7E3FA804623689B07A5D5FEF7E9
:10204000DDFAA0EB08000228F6D9ECE7082E03D051
:102050000C2E08D1032F06D123689A0398D56B68FC
:10206000002B95D146E76B68B3F5803F10D123680C
:1020700043F480332360FEF7C1FA804623689B0354
:1020800086D4FEF7BBFAA0EB08006428F6D9CAE7AD
:10209000B3F5A02F04D1236843F480232360E6E73F
:1020A000226822F480322260226822F48022226098
:1020B000002BE0D1FEF7A2FA8046236898037FF553
:1020C00067AFFEF79BFAA0EB08006428F5D9AAE7F2
:1020D000042E03D00C2E10D1022F0ED123685905E7
:1020E00003D5EB68002B3FF405AF63682A6923F042
:1020F000F85343EA026363604EE7EB687BB1236801
:1021000043F480732360FEF779FA074623685A0583
:10211000EBD4FEF773FAC01B0228F7D983E72368D4
:1021200023F480732360FEF769FA074623685B0592
:102130007FF532AFFEF762FAC01B0228F6D972E7CC
:102140006B699BB1D4F8943043F00103C4F8943028
:10215000FEF754FA0746D4F894309A073FF520AFBB
:10216000FEF74CFAC01B0228F5D95CE7D4F894308E
:1021700023F00103C4F89430FEF740FA0746D4F880
:1021800094309B077FF50CAFFEF738FAC01B02288E
:10219000F5D948E700100240D86A00085000002036
:1021A000A36DD80029D4A36D43F08053A365A36D1C
:1021B00003F080530193019B4FF001085D4F3B6892
:1021C000D9051DD5AB68012B2BD1D4F8903043F045
:1021D0000103C4F89030FEF711FA41F2883907463E
:1021E000D4F890309B0742D5B8F1000F3FF4DCAE35
:1021F000A36D23F08053A365D6E64FF00008DDE71A
:102200003B6843F480733B60FEF7F8F981463B6816
:10221000DA05D7D4FEF7F2F9A0EB09000228F6D9C7
:1022200001E7052B06D1D4F8903043F00403C4F83D
:102230009030CAE7D4F8902022F00102C4F8902030
:10224000D4F8902022F00402C4F89020002BC2D1D0
:10225000FEF7D4F941F288390746D4F89030980750
:10226000C2D5FEF7CBF9C01B4845F6D9DBE6FEF731
:10227000C5F9C01B4845B3D9D5E60C2E3FF43AAE9C
:10228000022B236823F08073236037D1FEF7B6F961
:102290000646236899012BD46A6BEB6A43EA022352
:1022A0002A6B013A43EA0213AA6B120943EA42433A
:1022B000EA6B5208013A43EA42532A6C5208013A47
:1022C00043EA4263E360236843F080732360E3687A
:1022D00043F08073E360FEF791F9054623689A01A5
:1022E0003FF566AEFEF78AF9401B0228F6D99AE65A
:1022F000FEF784F9801B0228CBD994E6236813F0FB
:10230000205F02BFE36823F00303E360E36823F088
:10231000887323F48033E360FEF770F90546236881
:102320009B017FF545AEFEF769F9401B0228F6D9FF
:1023300079E600BF007000402DE9F0410E460446EA
:1023400010B90120BDE8F081404A136803F007038B
:102350008B4229D32368D90731D421688A075BD4FB
:102360003A4A136803F007039E425DD311F0040F4D
:10237000374D64D10B0706D5AB68226923F460534F
:1023800043EAC203AB60FFF75DFDAB68314AC3F3BC
:102390000313BDE8F041D35C03F01F03D8402E4B7C
:1023A00018600020FEF7F4B8136823F007030B430E
:1023B0001360136803F007039942C2D1CAE7626849
:1023C000234D032A2B681BD113F0007FB9D0AB68D3
:1023D00023F003031343AB60FEF710F941F2883892
:1023E0000746AB68626803F00C03B3EB820FB4D00E
:1023F000FEF704F9C01B4045F3D90320BDE8F08186
:10240000022A02D113F4003FE0E712B913F0020FE1
:10241000DCE713F4806FD9E70D4AA068936823F0D6
:10242000F003034393609BE7136823F007033343F0
:102430001360136803F007039E4282D196E7AB68EE
:10244000E26823F4E0631343AB6093E700200240AB
:1024500000100240D86A000850000020054B064AD0
:102460009B68C3F30223D35C044A106803F01F0384
:10247000D840704700100240E86A00085000002071
:10248000054B064A9B68C3F3C223D35C044A106819
:1024900003F01F03D840704700100240E86A0008AC
:1024A00050000020F8B5454BDA6812F0030F0546DE
:1024B0000E461C4600682AD0DA6802F00302824207
:1024C0003CD1002A3AD0DB686A68C3F302130133B7
:1024D000934233D1236823F080632360FEF78EF8A4
:1024E000074623681A0132D4AF68002E36D0012E79
:1024F00050D12269286922F4C002400822F4FE4229
:10250000013842EA072242EA4052226132E00228C0
:1025100010D0032814D0012810D11B689F0738D58C
:10252000E3686A6823F07303013A184340EA021033
:10253000E060CFE71B6813F4806FF1D10120F8BD94
:102540001A689103ECD41B6813F4802FF5E7FEF7AB
:1025500055F8C01B0228C4D90320F8BD2169EB68D7
:1025600021F41F3121F4407141EA07211B0941EA9E
:1025700043412161236843F080632360FEF73EF806
:10258000064623681B0113D52369AA6913432361F7
:102590000020F8BD2369686923F0C063400823F474
:1025A000FE43013843EA072343EA40632361E1E73E
:1025B000FEF724F8801B0228E3D9CDE70010024083
:1025C000F8B53D4BDA6812F0030F05460E461C467F
:1025D000006828D0DA6802F0030282423AD1002A69
:1025E00038D0DB686A68C3F302130133934231D1F8
:1025F000236823F080532360FEF700F80746236822
:102600009A0030D4A868002E34D06369296923F079
:10261000C063490823F4FE43013943EA002343EA37
:102620004163636132E0022810D0032814D00128EE
:1026300010D11B689F0738D5E3686A6823F07303DD
:10264000013A184340EA0210E060D1E71B6813F436
:10265000806FF1D10120F8BD1A689103ECD41B689A
:1026600013F4802FF5E7FDF7C9FFC01B0228C6D978
:102670000320F8BD6269EB6822F41F3222F4407235
:1026800042EA00221B0942EA43426261236843F0A6
:1026900080532360FDF7B2FF064623689B0005D5F3
:1026A00063696A69134363610020F8BDFDF7A6FF03
:1026B000801B0228F1D9DBE7001002402DE9F34727
:1026C000066816F40066044624D0416EB1F5800F0A
:1026D0002CD002D8C1B101261CE0B1F5000F0DD0FD
:1026E000B1F5400FF7D14D4A616ED2F8883023F42E
:1026F00040030B43C2F8883000260BE0474AD368FA
:1027000043F48033D360EEE70430FFF7CBFE064698
:102710000028E8D02368D80406D5A16EB1F1807FE7
:1027200074D008D8A9B10126354621E00021203017
:10273000FFF746FFEBE7B1F1007F04D0B1F1407F36
:10274000F1D1354609E0354AD36843F48033D3608C
:10275000F7E7201DFFF7A6FE0546002D5CD12F4AA6
:10276000A16ED2F8883023F040730B43C2F8883052
:102770002368990340F14F81284FBB6DDA0040F187
:1027800076814FF00008DFF89890D9F8003043F4D4
:102790008073C9F80030FDF731FF8246D9F8003068
:1027A000DB053FD5002D44D1D7F8903013F44073AA
:1027B00015D0D4F88420934211D0D7F89030D7F8B0
:1027C000902042F48032C7F89020D7F8902023F46C
:1027D000407322F48032C7F89020C7F89030D807B1
:1027E00009D5FDF70BFF41F288390546D7F890303F
:1027F000990740F10981D7F89030D4F8842023F468
:1028000040731343C7F89030354612E0002104F1BD
:102810002000FFF7D5FE9FE72E46A9E700100240F3
:1028200000700040FDF7EAFEA0EB0A000228B5D9CF
:102830000325B8F1000F03D0BB6D23F08053BB65B7
:102840002368DA0708D59049A06BD1F8882022F0D8
:1028500003020243C1F888209F0708D58A49E06B2C
:10286000D1F8882022F00C020243C1F888205E07CC
:1028700008D58549206CD1F8882022F03002024327
:10288000C1F88820180708D57F49606CD1F88820E6
:1028900022F0C0020243C1F88820D90608D57A493F
:1028A000A06CD1F8882022F440720243C1F888203D
:1028B0009A0608D57449E06CD1F8882022F4406269
:1028C0000243C1F888209F0508D56F49E06DD1F813
:1028D000882022F440220243C1F888205E0508D5F2
:1028E0006949206ED1F8882022F440120243C1F8D1
:1028F0008820580608D56449206DD1F8882022F434
:1029000040520243C1F88820190608D55E49606D1F
:10291000D1F8882022F440420243C1F88820DA0529
:1029200008D55949A06DD1F8882022F440320243DD
:10293000C1F888209B040FD5534AE16ED2F8883045
:1029400023F040630B43B1F1006FC2F8883064D1CB
:10295000D36843F48013D36023681F030FD54A4A1A
:10296000216FD2F8883023F040630B43B1F1006F40
:10297000C2F888305CD1D36843F48013D3602368F5
:102980005E030FD5404A616FD2F8883023F0406370
:102990000B43B1F1006FC2F8883054D1D36843F4CF
:1029A0008013D3602368580412D53749A26FD1F839
:1029B000883023F040531343B2F1805FC1F8883070
:1029C0004CD10221201DFFF76DFD002818BF0546E0
:1029D0002268110408D52C49E06FD1F8883023F023
:1029E00080430343C1F88830D30309D5264AD4F87D
:1029F0008010D2F8883023F000430B43C2F88830AF
:102A0000284602B0BDE8F087FDF7F8FD401B4845B9
:102A10007FF6ECAE0CE7354612E7B1F1806F9BD143
:102A20000121201DFFF73EFD002818BF054693E752
:102A3000B1F1806FA3D10121201DFFF733FD0028E4
:102A400018BF05469BE7B1F1806FABD10121201D76
:102A5000FFF728FD002818BF0546A3E7B2F1005F85
:102A6000B6D1022104F12000FFF7AAFDADE7BB6D4E
:102A700043F08053BB65BB6D03F080530193019B12
:102A80004FF001087FE600BF00100240134B4FF4E7
:102A9000802210B55A6102689368D904044609D5AA
:102AA000D368DB0506D5D368DBB263F4C073D360AB
:102AB00002F0EAFE2268936899040AD5D3689B0560
:102AC00007D5D368DBB263F42073D360204600F0EF
:102AD000AAFA012384F8213010BD00BF0004014090
:102AE000026838B5D36823F0A003D3600446FDF72D
:102AF00085FD05462368DB689B0601D5002038BDAF
:102B0000FDF77CFD401BB0F57A7FF3D9032038BD7B
:102B100038B50368DA685206044601D5002038BD8E
:102B20004FF0FF32DA60FDF769FD05462368DB6888
:102B30005B06F3D4FDF762FD401BB0F57A7FF5D953
:102B4000032038BD38B50446D8B190F8213003F0E1
:102B5000FF021BB980F8202002F008FF022384F84E
:102B600021302368CA225A6253225A622046FFF754
:102B7000CFFF2368054638B1FF225A62042384F848
:102B800021300125284638BD9A68206922F4E002E8
:102B900022F040029A60626899680243A069024389
:102BA0000A439A60E2681A611A69A16842EA01421E
:102BB0001A61DA6822F08002DA609B689B0605D40D
:102BC0002046FFF78DFF08B12368D5E723686069C9
:102BD000DA6C22F00302DA64E269D96C02430A4338
:102BE000DA64FF225A62012384F82130CAE7002305
:102BF000092803D840EA0310C0B270470A380133ED
:102C0000C0B2F5E7F8B590F82030012B05464FF03B
:102C1000020634D0012380F8203080F821604B7800
:102C2000C8788E780C78002A4ED1DA0603D523F0C6
:102C300010030A334B70FFF7DAFF07464878FFF7B7
:102C4000D6FF02463046FFF7D2FF40EA443040EA62
:102C5000074040EA02242B68CA225A6253225A6271
:102C60002846FFF755FF2B68064650B1FF225A62EF
:102C7000042385F82130002385F8203001263046D2
:102C8000F8BD24F07F4424F0C0045C60DA6822F0D0
:102C90008002DA609B689B060CD42846FFF720FF71
:102CA00040B12B68FF225A62042385F8213085F851
:102CB0002060E3E72B68FF225A62012385F8213068
:102CC000002385F82030DAE71B0243EA0040304356
:102CD00040EA4434BFE790F82030012B2DE9F04161
:102CE00005460E4690464FF0020717D0036880F85D
:102CF0002170CA22012480F820405A6253225A626D
:102D0000FFF706FF2B68074658B1FF225A620423DB
:102D100085F82130002385F8203001273846BDE8AA
:102D2000F08130787478B1789B68B8F1000F38D1B1
:102D30005A0658BFF770FFF75AFF02462046FFF7C2
:102D400056FF04460846FFF752FFF37840EA8350E7
:102D500040EA024040EA04202B6800F07F3020F077
:102D6000FE4018609A68306922F480229A60F26806
:102D7000996802430A439A60DA6822F08002DA60B6
:102D80009C6814F0200418D12846FFF7A9FEA0B1D2
:102D90002B68FF225A62042385F8213085F82040F1
:102DA000BBE75B064FEA042458BFF77044EA0040D3
:102DB000F478084340EA8450CEE72B68FF225A6239
:102DC000012385F82130002385F82030A6E7000094
:102DD00090F82030012B2DE9F04704464FF0020017
:102DE00067D0012384F82030236884F82100087814
:102DF00091F801908D7891F82080CE694F699B6899
:102E0000002A58D113F0400308BFCB70FFF7EFFE44
:102E100082464846FFF7EBFE02462846FFF7E7FEEC
:102E200081464046FFF7E3FECD783E4346EA8555AE
:102E300045EA090545EA0A4545EA022545EA0065ED
:102E40008B694E681E432368CA225A6253225A6213
:102E50004A6AB2F5807F9A684FD122F480729A60F4
:102E6000DA68D2B262F4C072DA60FDF7C7FB80465E
:102E70002368DF6817F001072ED0DD615E649A6871
:102E800042F480729A609A6842F480529A602C4BA5
:102E90001A6842F480221A609A6842F480229A608A
:102EA0002368FF225A620020012384F8213084F82D
:102EB0002000BDE8F08713F0400346EA070608BF8C
:102EC000CB70354345EA0045C87845EA092545EA0F
:102ED000805545EA0865B3E7FDF790FBA0EB0800D5
:102EE000B0F57A7FC4D92368FF2203205A6284F8A0
:102EF000210084F82070BDE8F08722F400729A6007
:102F0000DA68D2B262F42072DA60FDF777FB8046AD
:102F10002368DF6817F0020709D01D629E649A6873
:102F200042F400729A609A6842F40052AEE7FDF7EC
:102F300065FBA0EB0800B0F57A7FE9D9D3E700BFC5
:102F400000040140030903EB830300F00F0000EBD2
:102F50004300C0B2704738B50368986A4860186982
:102F60001C6804F07F3323F0FE43C0F30E00C3F36C
:102F70000625886004F07F04C3F305409B0D0870AC
:102F80004D708C70CB7052B9FFF7DCFF087028468B
:102F9000FFF7D8FF48702046FFF7D4FF8870002065
:102FA00038BD38B503685C6824F07F4323F0C00364
:102FB000180CC3F3042504F03F04C3F34233C87074
:102FC0004D708C700B7052B9FFF7BCFFC87028466B
:102FD000FFF7B8FF48702046FFF7B4FF8870002065
:102FE00038BD90F82030012B4FF0020319D080F843
:102FF00021300368CA225A6253225A629A6822F424
:1030000000229A609A68114399609A6842F400021B
:103010009A60FF225A62012380F82130002380F851
:1030200020301846704770472DE9F04F87B00446AE
:103030000D4690469946109FFDF7E0FA06462DB9D9
:10304000A36B43F00063A363012010E094F8340005
:10305000C0B2012840F0E980E26D08EB09030021CD
:103060009342A16306D9A36B43F00073A36307B037
:10307000BDE8F08F032384F834302068636CC162AC
:10308000012B4FF4007118BF4FEA482801F025F8D2
:1030900048B12368674A9A63A36B1843A063012071
:1030A00084F83400E3E74FF0FF3300934FEA4923FD
:1030B0000193049090234FF0010A4FF0020B6946F0
:1030C00020680293CDF80CB0CDF814A000F0F3FF07
:1030D000D14513D9C4F830B04146206801F02DF82D
:1030E00000283ED02368534A9A63A36B1843A06319
:1030F0000120002384F834002363B8E7C4F830A02B
:103100004146206801F001F8EAE71A0416D505F1F6
:10311000040805F1240A206800F0A8FF030A08F853
:10312000040C08F8033C030C000E08F8023C08F8F5
:10313000010C08F10408D045EDD12035FDF75EFA09
:10314000801BB8420DD323683A4A9A63A36B43F0BD
:103150000043A363012384F8343000232363032056
:1031600085E72068436B13F4957F436BCDD0DB0577
:1031700009D5B9F1010F06D9636C032B03D001F017
:1031800025F80028AED12368596B11F0080106D04C
:10319000284A9A63A36B43F00803A363A8E75A6B1A
:1031A00012F002020AD0234A9A63A36B012043F073
:1031B0000203A36384F83400216358E7596B89063E
:1031C00025D51C499963A36B012043F02003A36319
:1031D00084F8340022634AE700F048FF030A05F848
:1031E000040C05F8033C030C000E05F8023C05F83E
:1031F000010CFDF703FA801B874205F1040507D88F
:1032000023680C4A9A63A36B43F00043C5E7043577
:103210002068436B13F40013DED140F23A5282630C
:10322000012284F83420184621E7A36B43F00053B1
:1032300009E700BFFF0540002DE9F04389B00446CF
:103240000E4691461F46109DFDF7D8F980462EB9CF
:10325000A36B43F00063A363012010E094F83400F3
:10326000C0B2012840F0B480E26D09EB07030021F1
:103270009342A16306D9A36B43F00073A36309B023
:10328000BDE8F083032384F834302068636CC162A6
:10329000012B4FF4007118BF4FEA492900F01DFFC0
:1032A00048B123684C4A9A63A36B1843A06301207A
:1032B00084F83400E3E74FF0FF3302937B0203937B
:1032C0009023049305900690012302A92068079398
:1032D00000F0F1FE012F13D9202323634946206813
:1032E00000F05BFF002831D023683B4A9A63A36B50
:1032F0001843A0630120002384F834002363BEE751
:10330000102323634946206800F02FFFEAE75A04A0
:103310000AD506F1200956F8043B2068019301A95B
:1033200000F0A7FEB145F6D1FDF768F9A0EB080063
:10333000A8420BD32368284A9A63A36BA363012393
:1033400084F8343000232363032098E72068436B1C
:1033500013F48D7F436BDAD0DB0508D5012F06D936
:10336000636C032B03D000F031FF0028BCD123682D
:10337000596B11F0080106D0174A9A63A36B43F00A
:103380000803A363B6E75A6B12F002020AD0124A8E
:103390009A63A36B012043F00203A36384F8340013
:1033A00021636CE7586B10F010000AD00A4999634A
:1033B000A36B012043F01003A36384F8340022635D
:1033C0005DE740F23A529A63012384F8343056E7BD
:1033D000A36B43F000533EE7FF054000436E9A0F96
:1033E0000A70C3F383624A70C3F301628A70C3F345
:1033F0000742CA70C3F30722DBB20A714B71836EB6
:103400001A0DCA80C3F303420A72C3F3C0324A7270
:10341000C3F380328A72C3F34032CA72C3F30032FC
:103420000A7300224A73426C10B5002A6BD1C26E37
:1034300040F6FC7404EA830343EA92730B61C2F31F
:10344000C2630B75C2F302634B75C2F342538B75B3
:10345000C2F38243C2F3C232CB750A760B690A7E8D
:1034600002F0070202320133934043650A7A02F008
:103470000F040122A2408265520A5343C3654FF4F0
:1034800000730366C36EC3F380324A76C3F3C61279
:1034900003F07F038A76CB76036FDA0F0A77C3F3E4
:1034A00041724A77C3F382628A77C3F38352CA7741
:1034B000C3F3405281F820200020C3F3004281F87A
:1034C000210081F82220C3F3C03281F82320C3F306
:1034D000803281F82420C3F3403281F82520C3F3E1
:1034E000003281F82620C3F3812281F82720C3F31C
:1034F0000122C3F3460381F8282081F829300123F3
:1035000081F82A3010BD012A0FD1B0F86E201B04BB
:1035100003F47C1313430B610B6901339B02436576
:10352000C3654FF400738365ABE70368054A9A638C
:10353000836B43F080538363012380F83430184653
:1035400010BD00BFFF05400070B598B00023079381
:10355000089309930A930B9376230C930AAB0446C2
:1035600093E807008DE8070007AB0ECB206800F05A
:1035700061FD18B10125284618B070BD2068436868
:1035800023F48073436000F079FD05460028F1D1F3
:103590002268536843F4807353600220FDF734F8C7
:1035A0002068069500F044FE064670B9206800F0D9
:1035B00067FE002873D0A6644FF6FF75069B5A1C61
:1035C000AB42069208D14FF08076012584F8345042
:1035D000A16B0E43A663CEE70021206800F08CFEAD
:1035E000014610B14FF08056EFE7206800F09CFED6
:1035F00001460028F6D1206800F05AFD0028DDDAE7
:103600000023636420680123ADF8163000F03AFD12
:10361000002800F09580636C032B19D0206800F01F
:103620009CFE002864D10146206800F041FD042181
:103630006067206800F03CFD0821A067206800F06A
:1036400037FD0C21E067206800F032FDC4F88000EF
:10365000636C032B45D1636C032B50D1042120688C
:1036600000F026FD000DE0640DA92046FFF7B6FE30
:103670000546002861D1226D03461204206800F03F
:10368000BFFD002834D104F1100393E807008DE852
:103690000700231D0ECB206800F0CCFC6BE7012354
:1036A000A3644FF6FF75069B5A1CAB4206928AD064
:1036B0000021206800F020FE0646002885D14FF04A
:1036C0008041206800F030FE064600287FF47DAF80
:1036D0000146206800F0ECFCC30FE4D042008FD517
:1036E0008FE70DF11601206800F062FE0028B2D0CD
:1036F000012584F83450A16B0843A0633BE7BDF873
:10370000161021652068090400F03CFE0028EFD166
:103710000146206800F0CCFC04216066206800F0BF
:10372000C7FC0821A066206800F0C2FC0C21E066FE
:10373000206800F0BDFC206790E74FF08050D7E78D
:103740004FF08060D4E710B5044608B9012010BDE1
:1037500090F8343003F0FF0213B9027702F0B2F9A7
:10376000032384F834302046FFF7EEFE0028EDD125
:103770000123A063206384F8343010BD436C0B60D8
:10378000836C4B60C36C8B60036DCB60436D0B61CE
:10379000836D4B61C36D8B61036ECB6100207047FD
:1037A000016D10B509040446006800F04FFE0146A3
:1037B00028B9206800F07CFCC0F3432010BDA36B47
:1037C0001943A1630020F7E738B50546B0B12423BB
:1037D00080F8713003681A68002422F001021A6030
:1037E0001C605C609C6002F0EFFA6C6785F87040CA
:1037F00085F87140204685F8724038BD012038BDFB
:103800000268C169F8B50446836800691568034316
:1038100060690343BA480B4328400343136053686D
:10382000E06823F4405303435360B64BA0699A42C7
:103830001CBF236A1843936823F4306303439360E7
:10384000B14B9A4219D103F55843B04AD3F88830A6
:1038500003F00303B1F5004FD35C40F03881082B2F
:1038600000F28F80DFE813F01A01CA00F9008D0022
:1038700014018D008D008D003600A54B9A4207D1B2
:1038800003F5E633A34AD3F8883003F00C03E1E7ED
:10389000A14B9A4223D103F5E433D3F8883003F0E7
:1038A0003003102B00F0F1800BD8002B00F0F380D8
:1038B000B1F5004F4FF001024FF0000300F0F88027
:1038C000A8E0202B00F0C680302BF1D1B1F5004FDD
:1038D00040F0B8806068430803F58033C3E08F4B45
:1038E0009A421ED103F5E233D3F8883003F0C003C7
:1038F000402B00F0BB800AD87BB9824B9A4240F043
:10390000CA80FEF7ABFD0023B0BB02463AE0802B35
:1039100000F09D80C02B00F0B0807A4B9A42C7D156
:103920002FE07F4B9A4211D103F5E033D3F8883072
:1039300003F44073B3F5807F00F09880DCD9B3F5D1
:10394000007F00F08480B3F5407FE4E76D4B9A423E
:10395000AED103F5C833D3F8883003F44063B3F530
:10396000806F00F08380C7D9B3F5006F6FD0B3F5D7
:10397000406FD0E76B480223626802EB420181424C
:1039800005D901220023236663661046F8BDB0EB1B
:10399000023FF6D8082B2ED8DFE803F0052D1C2DAA
:1039A000242D2D2D2700FEF759FD62684FF48071FC
:1039B00056080027E1FB0067002330463946FCF734
:1039C0005FFC0022584BA0F540719942D9D823687A
:1039D000D860D7E75548550800230021401941F128
:1039E0000001ECE7FEF72EFADFE750080021002384
:1039F00010F50000F3E701220020E3E7FEF740FDA9
:103A00004EE0FEF72BFD626800EB5203B3FBF2F3CE
:103A10009BB20022A3F110004FF6EF718842B0D89C
:103A20002168CB60AEE7FEF72BFDECE7606843084A
:103A300003F5740303F51053B3FBF0F3E8E7FEF767
:103A400001FAE0E76068430803F50043F4E72D4B13
:103A50009A428FD0B1F5004FE8D16068430803F176
:103A6000F47303F59043B3FBF0F31FE0254B9A4248
:103A70000BD1FEF7E7F9042346E7224B9A427FF485
:103A800025AF4FF40040082376E7B1F5004FD6D1BB
:103A9000FEF7D8F904E0B1F5004FB2D1FEF7DEFC35
:103AA00061684A0802EB4003B3FBF1F39BB20022CA
:103AB000A3F110004FF6EF7188423FF662AF23F09A
:103AC0000F012068C3F342030B43C3605AE7082B7E
:103AD0003FF657AF01A252F823F000BF033A0008A7
:103AE000273A00082D3A0008833900083F3A0008B9
:103AF000833900088339000883390008453A0008F3
:103B0000F369FFEF0080004000380140E0690008E1
:103B100000440040E469000800480040004C0040B8
:103B2000005000400024F400FFFC0F00000024F4CB
:103B3000436ADA0710B506D50168846A4A6822F438
:103B4000003222434A609C0706D50168C46A4A686D
:103B500022F4803222434A60590706D50168046B7B
:103B60004A6822F4802222434A601A0706D5016877
:103B7000446B4A6822F4004222434A60DC0606D5C0
:103B80000168846B8A6822F4805222438A60990615
:103B900006D50168C46B8A6822F4005222438A6009
:103BA0005A060FD50168046C4A6822F48012224339
:103BB000B4F5801F4A6005D14A68446C22F4C00203
:103BC00022434A601B0606D50268816C536823F4C1
:103BD00000230B43536010BD2DE9F041069D0446C0
:103BE0000F46164698462168CA6937EA02030CBF99
:103BF00001220022B24202D00020BDE8F0816B1CFD
:103C0000F2D09DB923681A6822F4D0721A609A68BB
:103C100022F001029A60202384F8713084F8723017
:103C2000002384F870300320BDE8F081FCF7E6FC47
:103C3000A0EB08008542D6D2E4E72DE9F3411F4608
:103C400090F87130202B04460D4690464AD1002949
:103C500046D0002A44D090F87030012B42D0012386
:103C600080F8703000234367212380F87130FCF71F
:103C7000C5FCA4F850800646A4F85280B4F852203F
:103C8000009792B2334652B940212046FFF7A4FF75
:103C900058B9202384F8713084F8700006E00022BF
:103CA00080212046FFF798FF18B1032002B0BDE83D
:103CB000F081A3682268B3F5805F0DD123695BB9F9
:103CC00035F8023BC3F308031385B4F85230013BC7
:103CD0009BB2A4F85230D1E72B7813850135F4E775
:103CE0000120E3E70220E1E72DE9F341984690F84F
:103CF0007230202B04460D46164660D100295CD058
:103D0000002A5AD090F87030012B58D0012380F847
:103D1000703000234367222380F87230FCF76EFC7A
:103D2000A368A4F85860B3F5805F0746A4F85A600A
:103D300015D123698BB940F2FF13A4F85C30B4F8B5
:103D40005C60B4F85A0080B2B8B9202384F87230AD
:103D500084F8700002B0BDE8F081FF23EDE723B9DD
:103D60002369002BF9D07F23E7E7B3F1805FE6D129
:103D70002369002BF7D03F23DFE7CDF800803B46D7
:103D8000002220212046FFF727FFD0B9A368B3F512
:103D9000805F23680CD1226952B99B8C334025F88F
:103DA000023BB4F85A30013B9BB2A4F85A30C8E742
:103DB0009B8C33402B700135F3E70120CAE70220CA
:103DC000C8E70320C6E773B5044600264667FCF73C
:103DD00015FC23681B681A07054617D423681B685F
:103DE0005B070AD56FF07E43009300222B464FF409
:103DF00080012046FFF7F0FEA0B92023002084F8C0
:103E0000713084F8700084F872300CE06FF07E43FB
:103E10000093324603464FF400112046FFF7DCFEC4
:103E20000028DBD0032002B070BD10B5044660B39B
:103E300090F8713003F0FF021BB980F8702001F098
:103E400051FF2268242384F87130136823F00103A2
:103E500013602046FFF7D4FC012816D0636A13B123
:103E60002046FFF765FE23685A6822F490425A60A4
:103E70009A6822F02A029A601A6842F001022046EB
:103E80001A60BDE81040FFF79EBF012010BD000082
:103E9000114B4FF4FA521B68B3FBF2F241F2883334
:103EA000534313F1FF3313D3426B12F0450FF8D095
:103EB000436B5B0703D50423836318467047436B4A
:103EC00013F0010301D00123F6E7C5228263F4E772
:103ED0004FF00043F1E700BF500000200E4B4FF4BD
:103EE000FA521B68B3FBF2F241F28833534313F1E9
:103EF000FF330DD3426B12F0450FF8D0436B13F034
:103F0000040315BF0423C5228363826318467047E8
:103F10004FF00040704700BF50000020434B10B5E9
:103F20001B684FF4FA54B3FBF4F35A43002A48D009
:103F3000436B13F0450F02F1FF32F7D0436B5B0781
:103F400003D504238363184610BD436BDC0703D5F8
:103F500001238363012010BD0369DBB29942F9D1CB
:103F6000C523836343693248184000285CD0002B86
:103F70002ADB5A002BD49C002BD4D9002BD41A0155
:103F80002CD45C012DD4D9012ED41A022FD45C027A
:103F900030D4990231D4DA0232D45C0333D4990399
:103FA00034D4DA0335D41C0436D4590437D49A04F3
:103FB00038D413F0080F14BF4FF400004FF48030D2
:103FC00010BD4FF0004010BD4FF0007010BD4020FC
:103FD00010BD802010BD4FF4807010BD4FF40070F4
:103FE00010BD4FF4806010BD4FF4006010BD4FF461
:103FF000805010BD4FF4005010BD4FF4804010BDF4
:104000004FF4004010BD4FF4003010BD4FF480203D
:1040100010BD4FF4002010BD4FF4801010BD4FF4C0
:10402000001010BD4FF4800010BD00BF50000020F4
:1040300008E0FFFD84B010B503AC84E80E000499DD
:10404000039B42680B4305990B4306990B43079961
:104050000B430899BDE8104022F4FD420B4322F0C7
:104060007F021343436004B000207047D0F8800003
:1040700070470B68C0F8803000207047032303604E
:1040800000207047006800F0030070470B688360F1
:10409000C3684A6823F47F6323F00F0313438A68DD
:1040A0001343CA6813430A691343C360002070476F
:1040B0001430405870470B6843624B688362C36A90
:1040C0008A6823F0F7031343CA6813430A6913434A
:1040D0004A691343C3620020704730B587B040235C
:1040E00003930023054601911024049301A94FF482
:1040F000806305930294FFF7C9FF41F2883221469D
:104100002846FFF70BFF07B030BD30B587B040231E
:1041100003930023054601911124049301A94FF450
:10412000806305930294FFF7B1FF41F28832214684
:104130002846FFF7F3FE07B030BD30B587B0402307
:1041400003930023054601911224049301A94FF41F
:10415000806305930294FFF799FF41F2883221466C
:104160002846FFF7DBFE07B030BD30B587B04023EF
:1041700003930023054601911824049301A94FF4E9
:10418000806305930294FFF781FF41F28832214654
:104190002846FFF7C3FE07B030BD30B587B04023D7
:1041A00003930023054601911924049301A94FF4B8
:1041B000806305930294FFF769FF41F2883221463C
:1041C0002846FFF7ABFE07B030BD000030B587B022
:1041D0000023054601930C244022049301A94FF4C7
:1041E0008063039205930294FFF750FF034A214630
:1041F0002846FFF793FE07B030BD00BF00E1F5058C
:1042000030B587B040230393002305460724049369
:1042100001A94FF48063019205930294FFF736FFE2
:1042200041F2883221462846FFF778FE07B030BDBC
:1042300010B586B00023019302930393049301A960
:104240004FF4806305930446FFF720FF0B4B4FF4B8
:10425000FA521B68B3FBF2F241F28833534313F175
:10426000FF3307D3626B1206F9D5C523A363002081
:1042700006B010BD4FF00040FAE700BF500000202C
:1042800010B586B04FF4D5730193082302934023F1
:1042900003930023049301A94FF48063059304461C
:1042A000FFF7F4FE134B4FF4FA521B68B3FBF2F224
:1042B00041F28833534313F1FF3318D3626B12F08A
:1042C000450FF8D0636B5B0703D50420A06306B0ED
:1042D00010BD626B12F0010201D00120F6E7606BA5
:1042E00010F04000F3D04023A3631046EFE74FF0F7
:1042F0000040ECE75000002030B587B04023039326
:104300000023054601913724049301A94FF48063EB
:1043100005930294FFF7BAFE41F2883221462846FF
:10432000FFF7FCFD07B030BD10B586B0292302931E
:1043300041F000414023039341F4801100230446DF
:104340000191049301A94FF480630593FFF79EFE4A
:104350002046FFF7C3FD06B010BD10B586B00023A0
:1043600002220446019302920493C0224FF4806318
:1043700001A903920593FFF789FE2046FFF788FD08
:1043800006B010BD10B586B009230293C023039375
:10439000002304460191049301A94FF4806305931F
:1043A000FFF774FE2046FFF773FD06B010BD000056
:1043B00030B587B000230322019302920493402278
:1043C0004FF480630D4601A9039205930446FFF75D
:1043D0005DFE1D4B4FF4FA521B68B3FBF2F241F243
:1043E0008833534313F1FF3326D3626B12F0450F2A
:1043F000F8D0636B580703D50420A06307B030BD25
:10440000636BD90701D50120F7E72369DBB2032BE2
:1044100015D1C523A363636913F4604002D11B0C5B
:104420002B80EBE75A040CD413F4004F14BF4FF465
:1044300080504FF48030E1E74FF00040DEE701208C
:10444000DCE74FF40050D9E75000002030B587B0CA
:10445000402303930023054601910D24049301A9F1
:104460004FF4806305930294FFF710FE41F2883207
:1044700021462846FFF752FD07B030BD30B50F4B3F
:104480005D7A05F0FF04B5B95D7A5C555D7A03EBA2
:1044900085056860587A184402725A7AD2B2501C64
:1044A000C0B258723A2330324B702F230A708B708F
:1044B000CC70204630BD012030BD00BF440200203A
:1044C0000022FFF7DBBF000010B500248AB01822DD
:1044D000214604A801940294039401F017FD244896
:1044E000244B8460042280E81800426101230222E8
:1044F000C460036104764476C26180F82030436270
:104500008462C46280F83030446380F83830C46319
:10451000046444648364FCF79FF808B101F0BAF9BD
:1045200001A913480194FCF70BFC08B101F0B2F9A2
:10453000114B04937F220623059307920023042244
:1045400004A90B48069308920993FCF765F908B192
:1045500001F0A0F9094B049304A90C230448059326
:10456000FCF75AF908B101F095F90AB010BD00BF87
:10457000C8020020000004502000F0140008302E73
:1045800030B5054689B01422002103A801F0BEFC15
:104590002A681F4B9A4238D103F17043A3F5F833D0
:1045A0001C4CDA6C42F40052DA64DA6C02F4005209
:1045B0000192019ADA6C42F00102DA64DB6C03F0DA
:1045C00001030293029B412303934FF090400B237E
:1045D00003A90493FCF7CEFE802222614FF480727F
:1045E0000D4B62614FF480622360A26100232022A0
:1045F00020466360A360E360E2612362FCF780FC15
:1046000008B101F047F9EC64A56209B030BD00BF04
:10461000000004502C0300200800024007B50123CD
:104620008DF807309DF80730012B05D10348FFF7BF
:104630008AF803B05DF804FB0220FAE798450020F1
:1046400007B5009313460A4601460448FEF7ECFC02
:10465000003018BF012003B05DF804FB984500202E
:1046600007B5009313460A4601460448FEF7E4FDE9
:10467000003018BF012003B05DF804FB984500200E
:1046800008B50348FFF78CF8043818BF012008BDAF
:104690009845002001460148FFF770B89845002072
:1046A0000A4B07B59A6C42F001029A649B6C002297
:1046B00003F00103019311460B20019BFCF7CAFB99
:1046C0000B20FCF7FBFB03B05DF804FB001002407D
:1046D00008B503490348FFF7F3FE034B187008BD04
:1046E00075030020C46A000874030020094B1A688F
:1046F0004FF6FF739A4217BF074B084B03EA42235A
:1047000003F1006383428CBF00F17840C01AC00AF5
:10471000704700BFE075FF1F00FE1F000000080883
:1047200038B51E4B4FF400421A610446FFF7DEFF16
:104730001B4B054618600846FFF7D8FF194B0130A0
:10474000421B1A60184B1B6813F4807F174B4FF6FF
:10475000FF711B6814D18B4217BF1548154800EA3A
:10476000432000F1006084422CBF02200120124B44
:104770001860124B0021196058609D60DA6038BDE6
:104780008B4217BF0A480B4800EA432000F1006043
:1047900084422CBF01200220E9E700BF0020024034
:1047A000640200206802002000000140E075FF1F45
:1047B00000FE1F00000008085002002054020020E4
:1047C00010B5FFF7ADFFFCF759FC06490648FCF7AA
:1047D0005DFD0446FCF764FC201C18BF012000218D
:1047E00010BD00BF6C020020540200202DE9704370
:1047F000069E3146044690469946FFF791FFFCF726
:104800003DFC0025B44204D3FCF74AFC2846BDE831
:10481000708342464B4621460020FCF787FC08B9CE
:104820000834EFE70135EDE710B514228AB00DEB3F
:104830000200002101F06AFB254BDA6C42F0040211
:10484000DA64DA6C02F004020092009ADA6C42F048
:104850008002DA64DA6C02F080020192019ADA6C6A
:1048600042F00102DA64DA6C02F001020292029A6A
:10487000DA6C42F00202DA64DA6C02F002020392AD
:10488000039ADA6C42F00802DA64DB6C03F0080386
:104890000022049320214FF09040049BFCF7E0FE9F
:1048A0004FF400530024059305A90A4B0A480693C8
:1048B0000794FCF75FFD2023059305A901234FF022
:1048C0009040069307940894FCF754FD0AB010BD7D
:1048D00000100240000021100008004808B51248EE
:1048E000124B1349012280E80A0000238360C26052
:1048F000036143618361C3610362FCF7F6FF08B1A2
:1049000000F0C8FF00210848FDF7B6F908B100F033
:10491000C1FF00210448FDF7D5F918B1BDE80840F2
:1049200000F0B8BF08BD00BFE0230020EC9C901051
:104930000054004010B5044688B01422002103A89A
:1049400001F0E4FA2268134B9A4221D1124C134829
:10495000E36C43F00203E364E36C03F002030193AE
:10496000019B4FF440730393122304930123059397
:104970000323069303A904230793FCF7FBFCA36D11
:1049800043F40013A365A36D03F400130293029B89
:1049900008B010BD00540040001002400004004860
:1049A0001FB5084B08491A78084800914FF47A73EC
:1049B000029301230193BE21FCF7E8FF05B05DF8E7
:1049C00004FB00BF2500002021000020E023002080
:1049D0007FB5154B154D1A78154B009301244FF4F4
:1049E0007A76234602960194BA212846FCF7CEFF38
:1049F000104B1A78104B0093029623460194BA216B
:104A00002846FCF7C3FF0D4B1A780D4B0093029616
:104A100001942346BA212846FCF7B8FF0A2004B0C7
:104A2000BDE87040FBF7F0BD24000020E02300202B
:104A30002000002026000020220000202F0000205F
:104A4000230000202DE9F04F6B4B6C4D1A786C4B16
:104A5000DFF80C826B4FDFF80CB2DFF80CA2DFF846
:104A60000C9285B001244FF47A760296019400935B
:104A7000BF2123462846FDF741F8634B1A78634B64
:104A8000029601940093BF2123462846FDF736F88D
:104A90005F4B1A785F4B029601940093BF21234627
:104AA0002846FDF72BF898F800200296019423463B
:104AB0000097BF212846FDF721F898F800200296BC
:104AC000019423460097BF212846FDF717F8524B63
:104AD000DFF89C811A78029601942346CDF800B045
:104AE000BF212846FDF70AF84C4BBF211A780296E1
:104AF00001942346CDF800A02846FCF7FFFF484B61
:104B0000BF211A78029601942346CDF800902846DA
:104B1000FCF7F4FF434BBF211A7802960194234619
:104B2000CDF800802846FCF7E9FF3F4B1A78029643
:104B30003E4E019400962346BF212846FCF7DEFF37
:104B40003B789BF8001099F800403078384D01EB25
:104B50000321384B89B219809AF8003004EB032402
:104B6000354BA4B21C8098F8003000EB0320334B87
:104B700080B21880274B1A7802F00303C2F3810633
:104B80002F4A2B7016701E4A157805EB03252D4B06
:104B90001D801E4B1A782C4B02EB06221A802B4BE1
:104BA000C5F3CF051D80401A294BC2F3CF0200B2D6
:104BB0001A8000EB8000521B400013B2611A05EB13
:104BC0008505434309B293FBF1F303EB45039BB225
:104BD00020491AB20A800A2192FBF1F21E4992B2D0
:104BE0000A80C2EB4231C2EB810203EB42031B4A53
:104BF000138005B0BDE8F08F3F000020E0230020C7
:104C0000D9440020DE44002042000020D844002087
:104C10003E000020FA4400203D000020400000201B
:104C200041000020430000204400002036240020E2
:104C3000FE440020F64400200A450020484500209C
:104C400030240020C2440020E044002040450020E1
:104C500040240020FC4400202C2400202845002073
:104C60003C000020322400203A240020C0440020D0
:104C7000084500202DE9F04F4A4B4B4DDFF870817D
:104C80001A784A4FDFF86CB1DFF86CA1DFF86C914D
:104C900085B001244FF47A76029601942346CDF82C
:104CA0000080BF212846FCF729FF414B1A78414B71
:104CB000029601940093BF2123462846FCF71EFF6D
:104CC0003D4BBF211A78029601942346009728464F
:104CD000FCF714FF394BBF211A7802960194234642
:104CE00000972846FCF70AFF354BBF211A78029639
:104CF00001942346CDF800B02846FCF7FFFE314B67
:104D0000BF211A78029601942346CDF800A02846C8
:104D1000FCF7F4FE2C4BBF211A780296019423462F
:104D2000CDF800902846FCF7E9FE284B1A78029649
:104D3000274E019423460096BF212846FCF7DEFE4D
:104D40003878244B244A99F8001098F80050E04035
:104D50001880224B1B78E34013809BF800409AF8A0
:104D6000002002EB042294B21D4A1480327802EB38
:104D700001221C4992B20A800E49097801EB0521F3
:104D8000194D89B229801B1A091B121B13FB01F351
:104D900012B293FBF2F3154A0344138005B0BDE849
:104DA000F08F00BF2D000020E023002046450020AA
:104DB0002E00002069450020290000202C00002042
:104DC00027000020280000202A0000202B000020BF
:104DD00031240020A8440020342400200C45002069
:104DE000044500206C4500203C2400204A4500205A
:104DF0000D4500203E4500203E2400203B2400209D
:104E00002DE9F04F374BDFF80C91374D1A78374EBC
:104E1000374FDFF80481DFF804B185B001244FF487
:104E20007A7ACDF808A0234601940095BB21484624
:104E3000FCF764FE2F4BBB211A78CDF808A023465F
:104E4000019400964846FCF759FE2B4BBB211A787B
:104E5000CDF808A02346019400974846FCF74EFE83
:104E6000264BBB211A78CDF808A023460194CDF833
:104E700000804846FCF742FE214BBB211A78CDF852
:104E800008A023460194CDF800B04846FCF736FE52
:104E90001C4B1A78CDF808A0DFF884A001942346B3
:104EA000CDF800A0BB214846FCF728FE9BF8003057
:104EB0009AF800201B0203EB024398F800201344E9
:104EC000114A136033783A781B0203EB02432A78C5
:104ED00013440E4A13600E4A1B0B136005B0BDE865
:104EE000F08F00BF3B000020AA440020DF440020D8
:104EF000BC4400203A000020390000203800002087
:104F000037000020360000200045002064450020C6
:104F1000B8440020E02300206A450020DA44002045
:104F2000474500202DE9FF473F4BDFF834911A78C1
:104F30003E48CDF8009001244FF47A75234602953F
:104F400001943D21FCF7DAFD394BDFF818A11A78FE
:104F50003648029523460194CDF800A03D21FCF788
:104F6000CDFD344B344F1A783048029523460194D6
:104F700000973D21FCF7C2FD304BDFF8EC801A783A
:104F80002A48029523460194CDF800803D21FCF784
:104F9000B5FD2B4B2B4E1A782448029523460194DD
:104FA00000963D21FCF7AAFD274B20481A78029570
:104FB000264D0194234600953D21FCF79FFD9AF86C
:104FC000002099F800303978287803EB022398F80C
:104FD00000209BB201EB022132781D0489B248BF48
:104FE0005B4202EB00221A4848BF9BB20C040380CC
:104FF00048BF4942174892B248BF89B201801004A5
:1050000048BF5242144848BF92B283F0020381F075
:10501000020119440280114B82F002020A441A80F4
:1050200004B0BDE8F08700BF31000020E02300207D
:1050300030000020330000204F45002032000020C7
:10504000350000206E450020340000200945002076
:10505000BE44002006450020382400202E240020D5
:10506000AB440020DB4400206845002008B5074819
:10507000FBF7ECFD0120FBF7C7FA054B054A198841
:1050800011805A88044B1A8008BD00BFC802002056
:1050900042450020F8440020AC4400202DE9F04FA8
:1050A000914DADF2E44D074600266423C8220CA9B9
:1050B0002846FEF719FE6423C8223EA92846FEF7BB
:1050C00013FE6423C82270A92846FEF70DFE642350
:1050D000C822A2A92846FEF707FE6423C822D4A945
:1050E0002846FEF701FE6423C8220DF58361284699
:1050F000FEF7FAFD7D490CA800F051FF0446E8B91F
:105100007A493EA800F04BFF0446B8B9774970A829
:1051100000F045FF044688B97449A2A800F03FFF9B
:10512000044658B97149D4A800F039FF044628B99B
:105130006E490DF5836000F032FF044600F096FDE5
:105140006B49204600F02BFFA04206F1010604D077
:1051500018B1001B323832280CD942F210739E422B
:10516000A3D100233B607B60BB6038460DF2E44D69
:10517000BDE8F08F42F2107A5645F2D00A20FBF7D4
:1051800043FA2C21204600F0FCFE2C21013000F0D7
:10519000F8FE43788DF8083083788DF80930C378AD
:1051A0008DF80C3003798DF80D3083798DF8183037
:1051B000C3798DF819300024037A8DF81A3000F184
:1051C000090602A88DF80A408DF80E408DF81B40A4
:1051D00000F053FE804603A800F04FFE054606A8E7
:1051E00000F04BFE48F6A04B0AFB05F30AFB00F06B
:1051F0003C25B0FBFBF0B3FBF5F303440AFB08339B
:105200000A200193FBF700FA2C21304600F0B9FE8A
:105210002C21013000F0B5FE83788DF81030C37872
:105220008DF8113003798DF8143043798DF81530ED
:10523000C3798DF81C30037A8DF81D3000F10A0611
:10524000437A8DF81E3004A88DF812408DF8164070
:105250008DF81F4000F011FE804605A800F00DFEFD
:10526000814607A800F009FE0AFB09F9B9FBF5F928
:105270000AFB00F50A20FBF7C7F9B5FBFBF52C216B
:10528000304600F07EFE2C21013000F07AFE2C2109
:10529000013000F076FE2C21013000F072FE2C214E
:1052A000013000F06EFEA9440AFB0895013008AEFB
:1052B00002782E2AE3B20ED100220A20F254FBF724
:1052C000A3F9019B304687E8280000F0D6FD64234F
:1052D0005843B86049E72D2A08BF0130013410F85F
:1052E000012BF254E4E700BF94460020F169000866
:1052F0001D6A000830B58024C1B005462246002151
:10530000684600F003FE22460DEB0400002100F089
:10531000FDFD2A460E490F4C684600F0FFFD684629
:10532000FAF756FF694682B24FF47A732046FEF7C9
:1053300084FC4FF47A73042220A92046FEF7D4FCA3
:105340009DF88000A0F14F035842584141B030BD54
:10535000256A00081C46002010B588B004462022AB
:105360000021684600F0D2FD221C18BF01220C4922
:105370000C4C684600F0D2FD6846FAF729FF6946F2
:1053800082B24FF47A732046FEF757FC41F27073F5
:10539000142269462046FEF7A7FC012008B010BD84
:1053A000F86900081C4600202DE9F04FD1B0834673
:1053B0008A4691460021802210A81E4600F0A6FDD4
:1053C0000021802230A800F0A1FD614B18681B79F4
:1053D0008DF81C305F4B06900DF130080EAF1A8827
:1053E000ADF8282000235846CDF82A30ADF82E30ED
:1053F000A8F80020CDF83230ADF836303A80CDF83C
:105400003A30ADF83E30ADF814208DF81630ADF8D6
:105410002020ADF822308DF824300393FAF7D8FE1F
:1054200002905046FAF7D4FE05464846FAF7D0FEF9
:10543000029A039BD2B20446C2F10602D9B291424B
:1054400003F101036EDB59460AA800F08BFDEDB2B3
:10545000414A4FF0000BC5F106055FFA8BF3AB42F2
:105460000BF1010B67DB51460CA800F07BFDE4B2A9
:10547000DFF8E4A00025C4F10604EBB2A34205F175
:1054800001055FDB4946384600F06CFD3046FAF70F
:105490009FFE012803D1314908A800F063FD304682
:1054A000FAF796FE022803D12D4908A800F05AFD0C
:1054B0003046FAF78DFE032803D1274908A800F0EB
:1054C00051FD314608A800F04DFD5A98FAF780FECC
:1054D000012803D1204905A800F044FD5A9905A8E8
:1054E00000F040FD0AAB06AA1E490197CDF80080E6
:1054F00010A800F013FD10A8FAF76AFE10A982B2F6
:105500004FF47A731848FEF798FB41F2883308226B
:1055100030A91548FEF7E8FB6420FBF775F851B099
:10552000BDE8F08F0C4903920AA8029300F01AFD1F
:10553000039A029B82E711460CA8029200F012FD2A
:10554000029A8AE751460EA800F00CFD95E700BFCD
:10555000206A0008D8690008076A0008056A000880
:10556000066A0008096A00081C4600202DE9F0417F
:10557000B8B04422002105A800F0C8FC1422002184
:10558000684600F0C3FC0021882216A800F0BEFC8B
:10559000FCF7BEFB254AD2F8903023F01803C2F87E
:1055A0009030062305931023022501264FF48078BE
:1055B000099307270A2305A8002412930796CDF81C
:1055C00020800F9510951196139714951595FCF75B
:1055D0008DFC0F220421032368468DE81C000394F0
:1055E0000494FCF7A9FE124B16934FF080533493AA
:1055F0004FF0806332930823199304231B9316A85A
:105600004FF088731D932494259429942A94CDF8FF
:10561000DC80179518961A971C95FDF74FF84FF4F4
:105620000070FCF797FB38B0BDE8F0810010024035
:1056300063400A00000000002DE9F04FA5B0FAF722
:10564000BFFFFFF793FFFFF7EFF8FFF729F800F030
:105650002BFBFEF739FFFFF741F900F007FB00F0E5
:1056600021FAFFF735F800F0E5FA00F015F9FFF739
:1056700097F9FFF7ADF90A20FAF7C6FF6C48DFF893
:1056800004A2FFF737FE6B48FEF79EF86948FEF765
:10569000CCFB6948FFF72EFE6648FEF795F8654893
:1056A000FEF7C3FB6548FFF725FE6248FEF78CF85E
:1056B0006048FEF7BAFB6248FFF71CFE5D48FEF744
:1056C00083F85C48FEF7B1FB5E48FFF713FE5948CC
:1056D000FEF77AF85748FEF7A8FB5B48FFF70AFE8B
:1056E0005448FEF771F85348FEF79FFB0020FFF780
:1056F00033FE5048FEF768F84E48FEF796FB4D48DB
:10570000FEF762F84B48FEF790FB0FF21C19D9E93F
:1057100000894E4D4E4C4F4E00221FA92846FDF7E2
:105720001AFC002202A92846FDF73BFC9DF87E10DA
:105730009DF87D309DF87C2000912046464900F080
:10574000EDFB6423322221464448FEF776FA337893
:10575000012BE0D1FFF776F9FFF78CFAFFF750FB4A
:10576000FFF7E0FBFFF782FC03A8FFF797FC3C4B39
:105770003C4F1B681C680025013445F10005394683
:105780005046FFF71DF82B46224600975046FFF77C
:105790002DF8102206A9039800F0B6FB10220BA9E1
:1057A000049800F0B1FB102210A9059800F0ACFBA2
:1057B0002D4B102215A9188800F0A6FB2B4B0DF1DC
:1057C000680B10225946188800F09EFB15AB10AAF2
:1057D0000BA906A8CDF800B0FFF7E6FD05220023CF
:1057E00020462946FAF74CFD134313D12049384689
:1057F000FEF7E6FF1F4BC3E900011F4B0093424633
:105800004B463846FEF7F2FF1C4B1D4A18601368E2
:10581000013313600023337000F03EF8FCF780FA88
:1058200077E700BFAFF30080A5555AAAA5555AAA3D
:105830002A6A00081C460020316A00084C6A0008E9
:10584000746A00089C6A0008AD6A0008744500206C
:1058500070020020B4020020B56A00080C47002046
:105860004800002000A00008FC4400204A45002019
:1058700000F80708A8020020FFFF0708B002002078
:10588000A402002000980008014B01221A70704702
:10589000B40200207047000010B590B0002414221C
:1058A000002101A800F032FB2822214606A800941E
:1058B00000F02CFB2B482C4B046180E818007F2360
:1058C0008360FF23C360022343618461C461FDF7E9
:1058D00039F908B1FFF7DEFF012201A921488DF84F
:1058E00004408DF805408DF8064004940594FDF7BA
:1058F000F2F908B1FFF7CEFF0122002469461948EA
:105900008DF800208DF801208DF802208DF80340DD
:10591000FDF778F908B1FFF7BDFF03238DF81A30C2
:1059200001224FF4807306A90E488DF818408DF8B7
:105930001940079409940A940B940C940D948DF8D3
:1059400038200F93FDF744FA08B1FFF7A3FF4FF497
:1059500000210448FDF745FB08B1FFF79BFF10B09D
:1059600010BD00BF744500200028004010B504465B
:1059700086B01422002101A800F0C8FA2268134B57
:105980009A4220D103F5F43301A9D3F890201048AE
:1059900042F40042C3F89020DA6C42F00202DA646A
:1059A000DB6C03F002030093009B042301930223AA
:1059B0000293FBF7DFFC002229201146FBF74AFA8D
:1059C0002920FBF77BFA06B010BD00BF002800407D
:1059D0000004004810B5064C01232370FEF750FE6A
:1059E000234618B9227802F0FE022270187810BD02
:1059F0004C00002010B5054C01232370FEF70EFE6D
:105A000010B9FFF7E7FF2070207810BD4C00002090
:105A1000FFF7E0BF08B5084611461A464FF0FF33BE
:105A2000FEF70EFE20B9FEF72BFE0028FBD108BDC5
:105A3000012008BD10B5124B1B78DB0788B0144657
:105A40001BD4032903D8DFE801F010050B12042052
:105A500008B010BD6846FEF71DFE069B236004E0FB
:105A60006846FEF717FE079B23800020F0E7684694
:105A7000FEF710FE079B5B0AF0E70320E8E700BF94
:105A80004C00002008B5084611461A464FF0FF3377
:105A9000FEF7E6FD20B9FEF7F3FD0028FBD108BDB7
:105AA000012008BD054B064A1A6000225A609A6020
:105AB000DA601A615A619A61704700BF9845002008
:105AC0000028014070B5044688B01422002103A8C4
:105AD00000F01CFA22681E4B9A4236D103F5684347
