:020000040800F2
:1000000000800120BD7700082175000823750008D5
:1000100025750008277500082975000800000000F4
:100020000000000000000000000000002B75000828
:100030002D750008000000002F75000831750008BC
:100040000D7800080D7800080D7800080D7800087C
:100050000D7800080D7800080D7800080D7800086C
:100060000D7800080D7800080D7800083575000837
:100070000D7800080D7800080D7800080D7800084C
:100080000D7800080D7800080D7800080D7800083C
:100090000D7800080D7800080D7800080D7800082C
:1000A0000D7800080D7800080D7800080D7800081C
:1000B0000D7800080D7800080D7800080D7800080C
:1000C0000D7800080D7800080D7800080D780008FC
:1000D0000D7800080D7800080D7800080D780008EC
:1000E0000D780008417500080D7800080D780008AB
:1000F0000D7800080D7800080D7800080D780008CC
:100100000D7800080D7800080D7800080D780008BB
:100110000D7800080D7800080D7800080D780008AB
:100120000D7800080D7800080D7800080D7800089B
:100130000D7800080D7800080D7800080D7800088B
:100140000D7800080D7800080D7800080D7800087B
:100150000D7800080D7800080D7800080D7800086B
:100160000D7800080D7800080D7800080D7800085B
:100170000D7800080D7800080D78000800000000D8
:080180000D7800080D7800085D
:1001900010B5054C237833B9044B13B10448AFF3C1
:1001A00000800123237010BD280200200000000001
:1001B0004883000808B5034B1BB103490348AFF35C
:1001C000008008BD000000002C02002048830008C9
:1001D000034613F8012B002AFBD1181A0138704787
:1001E00001F0FF01102A2BDB10F0070F08D010F8E8
:1001F000013B013A8B422DD010F0070F42B3F6D1EC
:10020000F0B441EA012141EA014122F007047FF004
:1002100000070023F0E80256083C85EA010586EA5B
:10022000010685FA47F5A3FA87F586FA47F6A5FA97
:1002300087F68EB9EED1F0BC01F0FF0102F00702A3
:1002400032B110F8013B013A83EA010313B1F8D14E
:100250000020704701387047002D06BF354603382F
:10026000073815F0010F07D1013015F4807F02BF68
:10027000013015F4C03F0130F0BC0138704700BFB9
:1002800053B94AB9002908BF00281CBF4FF0FF31FD
:100290004FF0FF3000F07AB9ADF1080C6DE904CEF3
:1002A00000F006F8DDF804E0DDE9022304B0704751
:1002B0002DE9F0478C460D460446089E002B51D18F
:1002C0008A4217466DD9B2FA82FEBEF1000F0BD0FA
:1002D000CEF1200C01FA0EF520FA0CFC02FA0EF712
:1002E0004CEA050C00FA0EF44FEA174A250CBCFB49
:1002F000FAF81FFA87F90AFB18CC45EA0C4508FB07
:1003000009F3AB420AD9ED1908F1FF3280F02381DD
:10031000AB4240F22081A8F102083D44ED1AA4B29C
:10032000B5FBFAF00AFB105544EA054400FB09F955
:10033000A14509D9E41900F1FF3380F00A81A145F4
:1003400040F2078102383C44A4EB090440EA08402B
:100350000021002E61D024FA0EF400233460736073
:10036000BDE8F0878B4207D9002E54D0002186E8E3
:1003700021000846BDE8F087B3FA83F1002940F078
:100380008E80AB4202D3824200F2FA80841A65EB7F
:1003900003050120AC46002E3FD086E81010BDE8D2
:1003A000F08712B90127B7FBF2F7B7FA87FEBEF163
:1003B000000F34D1EB1B3A0C1FFA87FC0121B3FB71
:1003C000F2F8250C02FB183345EA03450CFB08F351
:1003D000AB4207D9ED1908F1FF3002D2AB4200F26F
:1003E000D1808046ED1AA3B2B5FBF2F002FB1055A6
:1003F00043EA05440CFB00FCA44507D9E41900F1CD
:10040000FF3302D2A44500F2B8801846A4EB0C04D6
:1004100040EA08409DE731463046BDE8F087CEF11E
:10042000200405FA0EF307FA0EF720FA04F83A0C46
:1004300025FA04F448EA0308B4FBF2F14FEA184540
:1004400002FB11441FFA87FC45EA044501FB0CF34B
:10045000AB4200FA0EF409D9ED1901F1FF3080F03A
:100460008A80AB4240F2878002393D44EB1A1FFA82
:1004700088F5B3FBF2F002FB103345EA034500FBBD
:100480000CF3AB4207D9ED1900F1FF386FD2AB4244
:100490006DD902383D44EB1A40EA01418FE7C1F1C2
:1004A000200722FA07F88B4005FA01F448EA030313
:1004B00020FA07FE4FEA134CFD404EEA040EB5FB4E
:1004C000FCF94FEA1E440CFB19551FFA83F844EA65
:1004D000054509FB08F4AC4202FA01F200FA01FA00
:1004E00008D9ED1809F1FF3043D2AC4241D9A9F146
:1004F00002091D442D1B1FFA8EFEB5FBFCF00CFB00
:1005000010554EEA054400FB08F8A04507D9E41849
:1005100000F1FF3529D2A04527D902381C4440EA12
:100520000940A4EB0804A0FB02894C45C6464D4691
:1005300015D312D056B1BAEB0E0364EB050404FADE
:1005400007F7CB401F43CC40376074600021BDE803
:10055000F0871846F8E69046E0E6C245EAD2B8EBE6
:10056000020E69EB03050138E4E72846D7E7404669
:1005700091E78146BEE7014678E702383C4445E70B
:10058000084608E7A8F102083D442BE7704700BF82
:1005900038B50A4B054618684FF47A73B0FBF3F090
:1005A00000F060FD044638B9024629464FF0FF309E
:1005B00000F018FD204638BD012038BD5400002051
:1005C000094A136843F4807310B50320136000F0E8
:1005D000F7FC0020FFF7DCFF044618B906F088FF9F
:1005E000204610BD0124FBE700200240024A1368A8
:1005F00001331360704700BFF4020020014B1868FC
:10060000704700BFF402002038B50446FFF7F6FF3C
:10061000631C054618BF0134FFF7F0FF401B8442FE
:10062000FAD838BD30B5CC0D04F004041430C1F351
:100630000451072303FA01F5235802FA01F123EAD2
:1006400005031943215030BD806800F00100704758
:100650008068C0F38000704737B5002301930446DB
:10066000002800F08580456D25B905F0EBF9A565FA
:1006700084F85050206883689B007BD48368DD0039
:100680007FD58368D90040F18A800021FFF7E0FF21
:10069000636D13F0100F636D67D1002865D123F4EB
:1006A000817343F0020363652068FFF7CDFF98B9BB
:1006B0005248FFF7C9FF03465148FFF7C5FF034300
:1006C0005048FFF7C1FF034306D14F4A6068936863
:1006D00023F47C1303439360E068636B94F8202059
:1006E0000343A0680343607E012A43EA403343EAA0
:1006F000024302BF626A02F1FF3243EA4243A26A46
:1007000022B1E06A02F470720243134320683F4A48
:10071000C5682A401343C360FFF79AFF23689A68AD
:10072000120746D52269012A05BF186BE2691A6BC8
:1007300002F1FF3206BF20F00F00024322F00F0249
:100740001A63636D23F0030343F0010363650846F6
:1007500003B030BD019B013B0193019B002BF9D1FC
:100760008FE71A6922F0010245E043F01003636548
:100770000121ECE7836823F0204323F03F038360EB
:100780007CE78368224A23F0104323F03F0343F0C1
:10079000805383601F4B1B68B3FBF2F3DCE7636D90
:1007A00043F010036365A36D43F00103A3650121CA
:1007B0006CE70028B6D1D86894F83020257E520026
:1007C00020F4804042EA853220F002000243DA60E1
:1007D00094F83820012AC4D1256CE26B18692A43A9
:1007E000656C42F001022A43A56C20F4FF602A43A5
:1007F00020F0040002431A6194E700BF0000045097
:1008000000010450000204500003045007C0F0FF30
:10081000400D0300540000207047704708B5806AFF
:10082000FFF7FBFF08BD7047836A5A6D12F0500F47
:1008300010B55A6D21D142F400725A651A681168D8
:10084000080707D5D16811F4406F12D1D26812F4AD
:10085000005F02E0D26812F0020F0AD15A6D22F452
:1008600080725A655A6DD1045EBF5A6D42F0010222
:100870005A651846FFF7D0FF10BDD20603D51846BB
:10088000FFF7D1FF10BDDB6CBDE810405B6B184774
:10089000806A08B5436D43F040034365836D43F0C0
:1008A00004038365FFF7BFFF08BD0000F7B5002311
:1008B000019390F85030012B05460C4600F08781DB
:1008C000012380F850300068FFF7C2FE002840F096
:1008D00078814B68052B08D8023B032B65D8DFE8ED
:1008E00003F0025D5F610C236360616828688E0914
:1008F00000F1300706F00C0601F01F011F2303FA78
:1009000001F2F35923EA02032268C2F384628A40A7
:100910001343F351FFF79CFE2B689A68110740F1CF
:1009200058812868FFF790FE002840F0D780E668DD
:1009300028682368C34AD0F8B01006F0180EC3F335
:10094000120722FA0EF21A4021EA07010A43C0F800
:10095000B020BD4A964240F0C180002F40F0938005
:100960009E0E013606F01F02092A4FF001014FEAE0
:10097000866640F2A28006F0F846914041EA0602FF
:10098000002F40F0CB809B0E013303F01F0303EBDD
:1009900043011E39090541F000719BE01223A3E7D2
:1009A0001823A1E74FF480739EE706239CE7DEF847
:1009B0006010C3F31200C1F384670EF164060028CF
:1009C0003AD1C3F38460874240F0288121F000418E
:1009D000CEF860102368DEF86410C3F31207C1F389
:1009E00084609FBBC3F38463834240F01C8121F089
:1009F0000041316023689168C3F3120702F10806D1
:100A0000C1F3846077BBC3F38463834240F01281F7
:100A100021F000413160236802F10C00D268C3F379
:100A20001206C2F384614EBBC3F384638B4204BFDE
:100A300022F00042026074E793FAA3F0B0FA80F06B
:100A40008742C3D0DEF86410C1F3846093FAA3F345
:100A5000B3FA83F38342CAD09168236802F108068F
:100A6000C1F3846093FAA3F3B3FA83F38342CFD044
:100A700002F10C00D2682368C2F3846193FAA3F3F5
:100A8000B3FA83F3D2E793FAA3F2B2FA82F2013215
:100A900002F01F02092A30D893FAA3F6B6FA86F6B6
:100AA0000136B60606F0F84693FAA3F1B1FA81F1E1
:100AB000013101F01F02012101E006F0F8469140EA
:100AC00041EA0602A7B9990E013101F01F0101EBBD
:100AD000410109051143A268FFF7A4FD22685B4BA1
:100AE0001A4220D10020002385F8503003B0F0BD19
:100AF00093FAA3F1B1FA81F1E6E793FAA3F2B2FA1D
:100B000082F20132920602F0F84693FAA3F1B1FAAA
:100B100081F1013101F01F0201212EE793FAA3F3C5
:100B2000B3FA83F330E74A494A4B88689A4200F0A7
:100B3000E0760C461ED10202D4D42B68464A93427A
:100B400003D002F500729342CCD1A368434A23F04C
:100B5000E073334343F40003A360414B1B68B3FBD2
:100B6000F2F20C2353430193019B002BBAD0019B5B
:100B7000013BF8E73B4B9A4211D1C301B2D42B6839
:100B8000354A934203D002F500729342AAD1A3687A
:100B900023F0E073334343F08073A360A2E7324B4A
:100BA0009A429FD110F480009CD12A682A4B9A4225
:100BB00098D18B6823F0E073334343F480038B6058
:100BC00091E76A6D42F020026A6518468BE70220C1
:100BD0008CE700287FF4A5AEA26821681846FFF7CD
:100BE00021FD2669D5F800E02368DEF80C10042EFC
:100BF0000EF160023FF4DBAEC1F3C1014800616950
:100C000003F0F843814043F00043194352F82600B3
:100C1000164B0340194342F8261082E6DEF86410B2
:100C2000C1F38460DEE69168236802F10806C1F32F
:100C30008460E8E602F10C00D2682368C2F38461A4
:100C4000F2E600BFFFFF070000007F4000000880C1
:100C500000030450000052C700000450400D030080
:100C600054000020000084CB0100008000F0FF034E
:100C700070B504460068FFF7E7FC08B1002070BDBE
:100C80002268154B9168194209D0636D43F0100337
:100C90006365A36D43F00103A365012070BD9368F4
:100CA0000E4D2B4043F001039360FFF7A7FC06466F
:100CB00020680368DB07E1D4FFF7C6FC28B9226887
:100CC00093682B4043F001039360FFF797FC801B70
:100CD0000228EDD9D9E700BF3F000080C0FFFF7FA9
:100CE000354B70B5044600689E68FFF7B1FC0546B9
:100CF00000285AD194F85030012B56D0012384F8A3
:100D000050302046FFF7B4FF00284BD1636D2B4ACB
:100D100023F4706323F0010343F480736365236855
:100D2000934206F01F0642D01D46626D22F48012E7
:100D30006265626D12F480521CBFA26D22F0060241
:100D4000A2651C221A60AB424FF0000284F85020CA
:100D500008D0092E9DBF40F22122F240D243012249
:100D6000D10711D4DA68920141BF626D22F440527A
:100D700042F4805262659A6822F0004222F03F02FB
:100D800042F004029A6070BD636D43F480136365A2
:100D9000EB689B010FD5636D23F4405343F48053FC
:100DA000636570BD84F8505070BD022070BD044D65
:100DB000002EBAD0BDE770BD0003045000010450FE
:100DC00000000450394B2DE9F041044600689B684F
:100DD0000E461746FFF73CFC00285FD194F85020E0
:100DE000012A5BD003F01F08B8F1090F4FF001038F
:100DF00084F850309EBF40F2212323FA08F3DB43EE
:100E000013F0010544D12046FFF732FF00283BD103
:100E1000636D216823F4706323F0010343F480734E
:100E20006365234B99423CD0636D23F48013636563
:100E3000636DE06C13F480531CBFA36D23F00603B5
:100E4000A3651C4BC3621C4B03631C4B43631C23F5
:100E50000B60002384F850304B6843F010034B6064
:100E6000CB6843F00103CB6032463B46403100F093
:100E700071F92268936823F0004323F03F0343F0A5
:100E800004039360BDE8F08184F85050BDE8F08120
:100E9000002384F850300120BDE8F0810220BDE835
:100EA000F081B8F1000FBFD0C2E700BF00030450CB
:100EB00000010450290800081D08000891080008D6
:100EC000806800F0010070478068C0F380007047C0
:100ED00030B590F85030012B9BB0024666D001230C
:100EE00080F85030324B006898420CBF03F5807395
:100EF00000230193019840B9536D82F8500043F0EC
:100F00002003536501201BB030BDFFF7DDFF034612
:100F10001068FFF7D9FF002842D1002B40D10B68A1
:100F2000244C33B3A368486823F46043034392F826
:100F3000300043EA4033A3601D48FFF7C1FF03467A
:100F40001D48FFF7BDFF03431C48FFF7B9FF1843D7
:100F500004D00020002382F85030D4E70B68A56845
:100F600089680B4325F4716121F00F010B43A360E5
:100F7000F0E7A3680E4823F46043A360FFF7A0FFE7
:100F800003460D48FFF79CFF03430C48FFF798FF0B
:100F90001843DED1A36823F4716323F00F03E6E75F
:100FA000536D43F0200353650120D3E70220AAE7E5
:100FB00000000450000304500001045000020450DB
:100FC000074AD36823F4E0631B041B0C43F0BF63A0
:100FD000000243F4003300F4E0600343D360704741
:100FE00000ED00E0174B30B5DC68C4F30224C4F117
:100FF0000703251D042B28BF0423062D4FF00105F0
:1010000005FA03F303F1FF338CBF033C00241940BE
:10101000A14005FA04F4013C2240002842EA010202
:101020004FEA0212AFBF00F1604000F00F00064B24
:10103000D2B2A5BF00F56140D2B21A5480F80023A5
:1010400030BD00BF00ED00E014ED00E042090123D7
:1010500000F01F0003FA00F0014B43F82200704734
:1010600000E100E00138B0F1807F0AD2064B074A68
:101070005860F02182F823100020072298601A603F
:1010800070470120704700BF10E000E000ED00E075
:1010900030B500284ED00168274B99424FF0140418
:1010A00040D8264A0A44B2FBF4F292004264A3F20A
:1010B00007430364022380F825308468C368056908
:1010C0000A6823432B4345692B4385692B43C56934
:1010D0002B43056A22F4FF4222F070022B43134394
:1010E000B4F5804F0B6014D0026C154B9A420CBFC4
:1010F00014491549436C0A6803F01C030F249C40F3
:1011000022EA04020A6042680C6802FA03F32343ED
:101110000B6000230122C36380F8243080F825206F
:10112000184630BD094B0B44B3FBF4F39B004364FA
:10113000074BBEE7012030BD07040240F8FFFDBFAA
:1011400000000240A8000240A8040240F8FBFDBFD6
:1011500000040240F0B590F82440012C38D090F8FB
:1011600025500124EDB2A54280F824404FF000063E
:101170004FF002042AD180F825400468C66326682F
:10118000076C26F001062660466C06F01C06B5408A
:101190007D60636083680568102B036B0BBFA260E2
:1011A000A160E160E2604BB1236843F00E0323606D
:1011B0002B6843F001032B600020F0BD236823F06F
:1011C00004032360236843F00A03F0E780F82460F7
:1011D0000220F0BD016C426C036870B402F01C0286
:1011E0000E681D680424944026420ED015F0040FAA
:1011F0000BD01A6892065EBF1A6822F004021A60C9
:10120000036B4C6073B370BC1847022494402642B1
:1012100012D015F0020F0FD01A68950606D41A687E
:1012200022F00A021A60012380F8253000234C6066
:1012300080F82430C36AE5E708249440344211D092
:101240002C070FD51C6824F00E041C60012303FA40
:1012500002F24A60C36380F82530002380F824300E
:10126000436BCFE770BC7047074A536943F4802350
:10127000536172B601F58073401A0A680A5004314E
:101280009942FAD162B6704700200240064B5A6973
:10129000002ABFBF054A9A6002F188329A60BABF3D
:1012A0005869C00F002070470020024023016745A5
:1012B000034A536943F0004353610020704700BF65
:1012C0000020024070B50546FFF798F9194C064614
:1012D0002369DB031CD42369A06923F4705323F032
:1012E00005031B041B0C00F00040184319D0124AE0
:1012F00053680343536010F040431EBFA269134379
:10130000A36130F0404001D00A4B1861012070BD4C
:101310006A1CDDD0FFF772F9801B8542D8D8032004
:1013200070BD236913F0010302D00123236170BD56
:10133000184670BD00200240000000202DE9F04753
:10134000244C9A462378012B0746884691463FD085
:1013500001234CF250302370FFF7B4FF064620BB48
:1013600060601D48056815F4806517BF0368257720
:1013700023F4806303601CBF02232377D7B9456938
:1013800045F001054561C8F800900125C8F804A0A2
:101390004CF25030FFF796FF064625B10E4A5369CE
:1013A00023EA0505556100F04DF80023237030460F
:1013B000BDE8F0877B1E012B01D90025E8E74946EF
:1013C0004046FFF751FF022FF7D14FF48025DFE7AA
:1013D0000226ECE70000002000200240094B10F03C
:1013E000010F1EBF5A6942F004025A61820742BFD0
:1013F0005A6942F400425A615A6942F480325A6191
:10140000704700BF002002400D4B5A6911F0010FD8
:1014100014BF22F4006242F400625A615A69C000AB
:1014200022F4FF6200F4FF60104358615A6942F0F1
:1014300002025A615A6942F480325A61704700BF11
:101440000020024013490B7FDBB203F0FD02012AAA
:101450000CD1114A106840F400601060106820F44C
:1014600000601060106840F400701060023B012BB7
:101470000CD8094B1A6842F480521A601A6822F498
:1014800080521A601A6842F480621A6000230B7757
:10149000704700BF00000020002002402DE9F04707
:1014A000354C2378012B0646884662D001274CF242
:1014B00050302770FFF706FF054640BB2F4B60609A
:1014C0001A6812F4007F1A6826D022F400721A609B
:1014D0001A68510506D51A6822F480621A6003233F
:1014E000237700E027773368012B1FD17068FFF75F
:1014F00075FF4CF25030FFF7E5FE204A536923F4A4
:10150000004323F0040305465361FFF79BFF0023CC
:1015100023702846BDE8F087520505D51A6822F4E5
:1015200080621A600223DBE72077DCE74FF0FF33AD
:10153000C8F80030B768DFF84490DFF844A0B3681B
:10154000F26813449F42E0D271683846FFF75CFFAF
:101550004CF25030FFF7B6FED9F8143003EA0A0314
:10156000C9F8143018B1C8F800700546CDE7013746
:10157000E5E70225CDE700BF000000200020024083
:1015800005F8FFFF2DE9F04F85B00B68DFF8A88163
:10159000674C01930023019ADA4002D105B0BDE8FF
:1015A000F08F0126019A9E4012EA060E00F0B180EB
:1015B0004A6822F01007022F16D14FEAD30900EB38
:1015C000890903F0070AD9F820504FEA8A0A4FF038
:1015D0000F0C0CFA0AFC25EA0C0C0D6905FA0AF549
:1015E00045EA0C05C9F820504FEA430C0325D0F812
:1015F00000B005FA0CF5ED4302F0030A0BEA050B07
:101600000AFA0CF9013F49EA0B09012FC0F80090D2
:1016100011D8876805EA0709CF6807FA0CF747EA87
:1016200009078760476827EA0609C2F300179F4049
:1016300047EA09074760BAF1030F07D1C76A27EAEB
:101640000606C2F3C0079F403E43C662C6683540E7
:101650008E6806FA0CF63543C560D50059D5D8F822
:10166000605045F00105C8F86050D8F8605023F08C
:10167000030606F1804605F0010506F58036039560
:1016800003F0030C039DB5684FEA8C0C0F2707FA93
:101690000CF7B0F1904F25EA07073CD0254DA84242
:1016A0003BD005F58065A84239D005F58065A84294
:1016B00037D005F58065A84235D005F58065A8428C
:1016C00033D005F58065A84214BF0725062505FA25
:1016D0000CF53D43B56025686FEA0E06D70354BF8D
:1016E00035404EEA050525606568970354BF3540CF
:1016F0004EEA05056560A568D70254BF35404EEA3D
:101700000505A560E568920254BF35404EEA05051F
:10171000E56001333FE70025D9E70125D7E702253A
:10172000D5E70325D3E70425D1E70525CFE700BF9B
:101730000004014000040048001002402DE9F74F6A
:10174000474CDFF824A1DFF824B100234FF0010853
:101750004FF0030931FA03F202D103B0BDE8F08F74
:1017600008FA03F611EA060201926AD007685A00E5
:1017700009FA02F24FEAD30C174300EB8C0C076016
:10178000DCF8207003F0070E3D464FEA8E0E0F275F
:1017900007FA0EFE25EA0E0ECCF820E0D0F808E09D
:1017A000D2430EEA020EC0F808E0D0F804E0F64397
:1017B0000EEA060EC0F804E0D0F80CE002EA0E02D1
:1017C000C260C26A1640C66223F0030606F1804674
:1017D00006F5803603F0030EB2684FEA8E0E07FA64
:1017E0000EF7B0F1904F02EA070C2CD01D4A904240
:1017F0002BD002F58062904229D002F5806290429F
:1018000027D002F58062904225D0504525D058451A
:101810000CBF0622072202FA0EF2944511D1B268DB
:10182000019D22EA0707B7602268ED432A40226043
:1018300062682A406260A2682A40A260E26815409D
:10184000E560013386E70022E5E70122E3E70222B3
:10185000E1E70322DFE70422DDE70522DBE700BF43
:10186000000401400004004800140048001800482B
:101870000AB1816170478162704743695940416193
:10188000704703689A69910744BF00229A629A6977
:10189000D2075EBF9A6942F001029A61704730B583
:1018A000039C05682343640D04F4806444F07F7452
:1018B00044F458346868C1F3090144F47F7419434F
:1018C00044F0030441EA024120EA04042143696030
:1018D00030BD2DE9F041069F0446884616461D4658
:1018E0002268936938EA03030CBF01230023B34243
:1018F00002D00020BDE8F0816B1CF2D0FEF77EFE26
:10190000C01B854201D3002DEAD1636C43F0200354
:101910006364202384F84130002384F8423084F843
:1019200040300120BDE8F081036870B50446986935
:1019300010F010000D46164616D170BD691C14D06B
:10194000FEF75CFE801B854200D36DB9636C43F0EB
:1019500020036364202384F84130002384F842305C
:1019600084F84030012070BD236899698A06E5D566
:1019700010222025DA612046DD61FFF782FF226810
:10198000536823F0FF7323F48B3323F4FF7323F0A6
:1019900001035360636C43F00403636484F84150B3
:1019A000DBE770B504460D46164623689B699B0726
:1019B00001D5002070BD324629462046FFF7B4FF0E
:1019C000A0B96A1CF1D0FEF719FE801B854201D335
:1019D000002DEAD1636C43F020036364202384F874
:1019E0004130002384F8423084F84030012070BD3B
:1019F000F7B5099E1F46164B0093054614464FF057
:101A00008073FAB2FFF74BFF324608992846FFF77A
:101A1000C8FF10B1012003B0F0BD012F2B680CD11D
:101A2000E4B29C62089B0096002280212846FFF7C2
:101A300050FF003018BF0120EDE7220A9A62089992
:101A400032462846FFF7ADFF0028E3D12B68E7E7D1
:101A500000200080F7B5099E1F46164B00930546EF
:101A600014460023FAB2FFF71AFF324608992846B7
:101A7000FFF797FF10B1012003B0F0BD012F2B68D5
:101A80000CD1E4B29C62089B0096002240212846BB
:101A9000FFF71FFF003018BF0120EDE7220A9A620E
:101AA000089932462846FFF77CFF0028E3D12B68CF
:101AB000E7E700BF0020008070B504460D461646DB
:101AC00023689B699B0601D5002070BD32462946DC
:101AD0002046FFF729FF90B9FEF790FD801B854255
:101AE00001D3002DECD1636C43F020036364202309
:101AF00084F84130002384F8423084F840300120DB
:101B000070BD10B5044600284AD090F8413003F06B
:101B1000FF021BB980F8402004F092F9242384F8D6
:101B200041302368E1681A6822F001021A60626895
:101B300022F070621A619A68012922F400429A60C8
:101B4000A26824D142F400429A605A68616942F066
:101B5000007242F400425A60DA6822F40042DA600D
:101B600022690A43A16942EA0122DA60216AE26934
:101B70000A431A601A6842F001021A60002020230A
:101B8000606484F84130206384F8420010BD42F460
:101B9000044202299A6004BF4FF400625A60D4E7FD
:101BA000012010BD2DE9F04F9B4690F8413085B0E3
:101BB000202B04460F460392BDF83CA0DDF8408080
:101BC00040F0A5800E9B13B1BAF1000F06D14FF47F
:101BD00000736364012005B0BDE8F08F90F84030D9
:101BE000012B00F09480012580F84050FEF706FD9F
:101BF0001923009006462A464FF400412046FFF77D
:101C000068FE81460028E5D1212384F84130402335
:101C100084F842300E9B606463626063A4F82AA07B
:101C20000196CDF800805B46039A39462046FFF7BF
:101C3000DFFE10B184F84090CCE7638D9BB2FF2BA0
:101C400055D9FF22228500904FF0807339462046F7
:101C5000FFF725FE324641462046FFF7A2FE002848
:101C6000B8D1636A226813F8011B91626362638DC5
:101C7000228D013B9BB26385638D013A92B29BB288
:101C80002285ABB1A2B90096434680212046FFF7DA
:101C900020FE00289ED1638D9BB2FF2B2FD9FF22FF
:101CA000228500904FF0807339462046FFF7F7FDFC
:101CB000638D9BB2002BCDD1324641462046FFF7C3
:101CC000FBFE002886D123682021D9615A6822F0C2
:101CD000FF7222F48B3222F4FF7222F001025A606A
:101CE00084F8411084F8400084F8420073E7628D64
:101CF000009092B222854FF00073D2B2A6E7628DB7
:101D0000009092B222854FF00073D2B2CCE702204D
:101D100061E700002DE9F04F9B4690F8413085B017
:101D2000202B04460F460392BDF83CA0DDF840800E
:101D300040F0A9800E9B13B1BAF1000F06D14FF409
:101D400000736364012005B0BDE8F08F90F8403067
:101D5000012B00F09880012580F84050FEF74EFCE2
:101D60001923009006462A464FF400412046FFF70B
:101D7000B0FD81460028E5D1222384F8413040237C
:101D800084F842300E9B606463626063A4F82AA00A
:101D90000196CDF800805B46039A39462046FFF74E
:101DA00059FE10B184F84090CCE7638D9BB2FF2BB5
:101DB000364B58D9FF22009322854FF08073394665
:101DC0002046FFF76CFD0096434600220421204682
:101DD000FFF77FFD0028B5D12268636A526A1A7046
:101DE000636A228D01336362638D013B9BB263851D
:101DF000638D013A92B29BB22285ABB1A2B9009633
:101E0000434680212046FFF764FD00289AD1638D68
:101E10009BB2FF2B2FD9FF22228500904FF08073B9
:101E200039462046FFF73BFD638D9BB2002BCAD19C
:101E3000324641462046FFF73FFE002882D1236804
:101E40002021D9615A6822F0FF7222F48B3222F4E9
:101E5000FF7222F001025A6084F8411084F84000B9
:101E600084F842006FE7628D009392B222854FF0B2
:101E70000073D2B2A3E7628D009092B222854FF038
:101E80000073D2B2CCE702205DE700BF00240080DF
:101E900090F84120D2B2202A10B51DD190F84030E0
:101EA000012B19D0242380F8413003681C6824F0EA
:101EB00001041C601C6824F480541C601C682143CD
:101EC0001960196841F001011960002380F8412070
:101ED00080F84030184610BD022010BD10B590F8B3
:101EE0004140E4B2202C1CD190F84030012B18D096
:101EF000242380F8413003681A6822F001021A6036
:101F00001A6822F4706242EA012119601A6842F0EC
:101F100001021A60002380F8414080F840301846E2
:101F200010BD022010BD0000024A136843F4807304
:101F30001360704700700040064A136823F00703DF
:101F400043F003031360044A136943F0040313616D
:101F500030BF70470070004000ED00E0024B186891
:101F600000F4C060704700BF00700040174B1A6853
:101F7000B0F5007F02F4C0621CD1B2F5007F15D02D
:101F80001A6822F4C06242F400721A60104A1168A2
:101F900032224A430F49B2FBF1F219460132586925
:101FA000400500D522B94B695B050DD40020704770
:101FB000013AF4E7B2F5806F1FBF1A6822F4C062DD
:101FC00042F480621A60F1E703207047007000401D
:101FD0005400002040420F0037B51E4DAB6DDA00B3
:101FE000044618D5FFF7BAFFB0F5007F23D1802C47
:101FF00029D9A02C8CBF02200120174A136823F096
:10200000070303431360136803F00703181A18BF8C
:10201000012003B030BDAB6D43F08053AB65AB6DB9
:1020200003F080530193019BFFF798FFAB6D23F002
:102030008053AB65D8E7802C07D808D0A4F1700393
:1020400058425841D9E70020D7E70320D5E70220BE
:10205000D3E700BF0010024000200240254B9A68E1
:10206000D96812F00C0205D00C2A15D101F0030139
:10207000012918D119682048090755BFD3F89410D1
:102080001968C1F30321C1F3031150F8210082B391
:102090000C2A09D000207047042A29D0082A1748A2
:1020A00018BF002070470020D968DA6801F00301EA
:1020B000C2F30212022902F1010205D0032912D053
:1020C000D968C1F3062103E0D9680D48C1F30621A0
:1020D000DB68B0FBF2F0C3F34163013348435B00BC
:1020E000B0FBF3F07047D9680448C1F30621EFE76D
:1020F00003487047001002408485000800127A00EF
:102100000024F4002DE9F743054618B9012003B077
:10211000BDE8F083A54C0368A668E768DB0606F017
:102120000C0607F003073CD51EB10C2E63D1012F1E
:1021300061D12368980702D5AB69002BE6D02368EC
:10214000286A190756BFD4F8943023681B0903F096
:10215000F00383423AD2FFF73FFF0028D6D123682D
:1021600043F00803236023682A6A23F0F003134333
:1021700023606368EA6923F47F4343EA02236360D0
:10218000FFF76CFFA3688A4AC3F30313D35C03F021
:102190001F03D840874B18600020FEF7F9F900288C
:1021A000B5D12B68D8075DD42B68990700F19C80C6
:1021B0002B68180700F1D0802B68590700F1FC80CC
:1021C000AB6A002B40F065810020A0E7236843F054
:1021D00008032360236823F0F0030343236063684C
:1021E000EA6923F47F4343EA02236360FFF7F4FEC6
:1021F0000028C5D08AE7AB691BB3236843F001030D
:102200002360FEF7FBF9804623689A0711D52368FF
:1022100043F00803236023682A6A23F0F003134382
:1022200023606368EA6923F47F4343EA022363601F
:10223000B7E7FEF7E3F9A0EB08000228E4D9032092
:1022400065E7236823F001032360FEF7D7F9804692
:1022500023689B07A5D5FEF7D1F9A0EB080002285B
:10226000F6D9ECE7082E03D00C2E08D1032F06D1A7
:1022700023689A0398D56B68002B95D146E76B6865
:10228000B3F5803F10D1236843F480332360FEF719
:10229000B5F9804623689B0386D4FEF7AFF9A0EB1F
:1022A00008006428F6D9CAE7B3F5A02F04D1236843
:1022B00043F480232360E6E7226822F48032226020
:1022C000226822F480222260002BE0D1FEF796F9EA
:1022D0008046236898037FF567AFFEF78FF9A0EB80
:1022E00008006428F5D9AAE7042E03D00C2E10D1DB
:1022F000022F0ED12368590503D5EB68002B3FF45C
:1023000005AF63682A6923F0F85343EA0263636008
:102310004EE7EB687BB1236843F480732360FEF7DC
:102320006DF9074623685A05EBD4FEF767F9C01B21
:102330000228F7D983E7236823F480732360FEF72C
:102340005DF9074623685B057FF532AFFEF756F966
:10235000C01B0228F6D972E76B699BB1D4F89430A0
:1023600043F00103C4F89430FEF748F90746D4F867
:1023700094309A073FF520AFFEF740F9C01B0228C2
:10238000F5D95CE7D4F8943023F00103C4F8943015
:10239000FEF734F90746D4F894309B077FF50CAF6D
:1023A000FEF72CF9C01B0228F5D948E700100240BF
:1023B0006C85000854000020A36DD80029D4A36DBB
:1023C00043F08053A365A36D03F080530193019BF9
:1023D0004FF001085D4F3B68D9051DD5AB68012B57
:1023E0002BD1D4F8903043F00103C4F89030FEF7BD
:1023F00005F941F288390746D4F890309B0742D559
:10240000B8F1000F3FF4DCAEA36D23F08053A36559
:10241000D6E64FF00008DDE73B6843F480733B608D
:10242000FEF7ECF881463B68DA05D7D4FEF7E6F80C
:10243000A0EB09000228F6D901E7052B06D1D4F854
:10244000903043F00403C4F89030CAE7D4F89020E9
:1024500022F00102C4F89020D4F8902022F0040267
:10246000C4F89020002BC2D1FEF7C8F841F2883999
:102470000746D4F890309807C2D5FEF7BFF8C01BC6
:102480004845F6D9DBE6FEF7B9F8C01B4845B3D995
:10249000D5E60C2E3FF43AAE022B236823F080736E
:1024A000236037D1FEF7AAF80646236899012BD49A
:1024B0006A6BEB6A43EA02232A6B013A43EA02138E
:1024C000AA6B120943EA4243EA6B5208013A43EA13
:1024D00042532A6C5208013A43EA4263E36023689C
:1024E00043F080732360E36843F08073E360FEF79A
:1024F00085F8054623689A013FF566AEFEF77EF83B
:10250000401B0228F6D99AE6FEF778F8801B0228CD
:10251000CBD994E6236813F0205F02BFE36823F071
:102520000303E360E36823F0887323F48033E360FC
:10253000FEF764F8054623689B017FF545AEFEF77C
:102540005DF8401B0228F6D979E600BF0070004014
:102550002DE9F0410E46044610B90120BDE8F08196
:10256000404A136803F007038B4229D32368D90735
:1025700031D421688A075BD43A4A136803F0070311
:102580009E425DD311F0040F374D64D10B0706D581
:10259000AB68226923F4605343EAC203AB60FFF7E0
:1025A0005DFDAB68314AC3F30313BDE8F041D35C72
:1025B00003F01F03D8402E4B18600020FDF7E8BF42
:1025C000136823F007030B431360136803F007033A
:1025D0009942C2D1CAE76268234D032A2B681BD1F6
:1025E00013F0007FB9D0AB6823F003031343AB6053
:1025F000FEF704F841F288380746AB68626803F0DA
:102600000C03B3EB820FB4D0FDF7F8FFC01B4045BD
:10261000F3D90320BDE8F081022A02D113F4003F70
:10262000E0E712B913F0020FDCE713F4806FD9E78B
:102630000D4AA068936823F0F003034393609BE77F
:10264000136823F0070333431360136803F0070391
:102650009E4282D196E7AB68E26823F4E0631343BD
:10266000AB6093E700200240001002406C85000838
:1026700054000020054B064A9B68C3F30223D35C39
:10268000044A106803F01F03D8407047001002404E
:102690007C85000854000020054B064A9B68C3F364
:1026A000C223D35C044A106803F01F03D84070476C
:1026B000001002407C85000854000020F8B5454B0E
:1026C000DA6812F0030F05460E461C4600682AD051
:1026D000DA6802F0030282423CD1002A3AD0DB6879
:1026E0006A68C3F302130133934233D1236823F0A2
:1026F00080632360FDF782FF074623681A0132D406
:10270000AF68002E36D0012E50D12269286922F4FC
:10271000C002400822F4FE42013842EA072242EA9F
:102720004052226132E0022810D0032814D0012840
:1027300010D11B689F0738D5E3686A6823F07303DC
:10274000013A184340EA0210E060CFE71B6813F437
:10275000806FF1D10120F8BD1A689103ECD41B6899
:1027600013F4802FF5E7FDF749FFC01B0228C4D9F9
:102770000320F8BD2169EB6821F41F3121F4407179
:1027800041EA07211B0941EA43412161236843F0E3
:1027900080632360FDF732FF064623681B0113D5D3
:1027A0002369AA69134323610020F8BD236968697E
:1027B00023F0C063400823F4FE43013843EA0723B3
:1027C00043EA40632361E1E7FDF718FF801B02281D
:1027D000E3D9CDE700100240F8B53D4BDA6812F0BE
:1027E000030F05460E461C46006828D0DA6802F042
:1027F000030282423AD1002A38D0DB686A68C3F308
:1028000002130133934231D1236823F080532360B4
:10281000FDF7F4FE074623689A0030D4A868002E1E
:1028200034D06369296923F0C063490823F4FE4367
:10283000013943EA002343EA4163636132E002283D
:1028400010D0032814D0012810D11B689F0738D559
:10285000E3686A6823F07303013A184340EA021000
:10286000E060D1E71B6813F4806FF1D10120F8BD5F
:102870001A689103ECD41B6813F4802FF5E7FDF779
:10288000BDFEC01B0228C6D90320F8BD6269EB68F3
:1028900022F41F3222F4407242EA00221B0942EA6B
:1028A00043426261236843F080532360FDF7A6FE34
:1028B000064623689B0005D563696A691343636113
:1028C0000020F8BDFDF79AFE801B0228F1D9DBE756
:1028D000001002402DE9F347066816F4006604462E
:1028E00024D0416EB1F5800F2CD002D8C1B10126A1
:1028F0001CE0B1F5000F0DD0B1F5400FF7D14D4AF6
:10290000616ED2F8883023F440030B43C2F888305C
:1029100000260BE0474AD36843F48033D360EEE7E8
:102920000430FFF7CBFE06460028E8D02368D80421
:1029300006D5A16EB1F1807F74D008D8A9B1012667
:10294000354621E000212030FFF746FFEBE7B1F1EB
:10295000007F04D0B1F1407FF1D1354609E0354A1E
:10296000D36843F48033D360F7E7201DFFF7A6FE5A
:102970000546002D5CD12F4AA16ED2F8883023F095
:1029800040730B43C2F888302368990340F14F81AC
:10299000284FBB6DDA0040F176814FF00008DFF878
:1029A0009890D9F8003043F48073C9F80030FDF7EF
:1029B00025FE8246D9F80030DB053FD5002D44D1F5
:1029C000D7F8903013F4407315D0D4F88420934294
:1029D00011D0D7F89030D7F8902042F48032C7F861
:1029E0009020D7F8902023F4407322F48032C7F867
:1029F0009020C7F89030D80709D5FDF7FFFD41F2C8
:102A000088390546D7F89030990740F10981D7F801
:102A10009030D4F8842023F440731343C7F89030E7
:102A2000354612E0002104F12000FFF7D5FE9FE7B4
:102A30002E46A9E70010024000700040FDF7DEFDC1
:102A4000A0EB0A000228B5D90325B8F1000F03D086
:102A5000BB6D23F08053BB652368DA0708D5904926
:102A6000A06BD1F8882022F003020243C1F888202D
:102A70009F0708D58A49E06BD1F8882022F00C0224
:102A80000243C1F888205E0708D58549206CD1F83B
:102A9000882022F030020243C1F88820180708D5A8
:102AA0007F49606CD1F8882022F0C0020243C1F84F
:102AB0008820D90608D57A49A06CD1F8882022F45C
:102AC00040720243C1F888209A0608D57449E06C28
:102AD000D1F8882022F440620243C1F888209F0583
:102AE00008D56F49E06DD1F8882022F440220243D6
:102AF000C1F888205E0508D56949206ED1F8882084
:102B000022F440120243C1F88820580608D56449CF
:102B1000206DD1F8882022F440520243C1F8882069
:102B2000190608D55E49606DD1F8882022F440422C
:102B30000243C1F88820DA0508D55949A06DD1F8BB
:102B4000882022F440320243C1F888209B040FD52C
:102B5000534AE16ED2F8883023F040630B43B1F161
:102B6000006FC2F8883064D1D36843F48013D36017
:102B700023681F030FD54A4A216FD2F8883023F00B
:102B800040630B43B1F1006FC2F888305CD1D36869
:102B900043F48013D36023685E030FD5404A616F0E
:102BA000D2F8883023F040630B43B1F1006FC2F8D4
:102BB000883054D1D36843F48013D3602368580419
:102BC00012D53749A26FD1F8883023F04053134310
:102BD000B2F1805FC1F888304CD10221201DFFF78F
:102BE0006DFD002818BF05462268110408D52C4940
:102BF000E06FD1F8883023F080430343C1F8883078
:102C0000D30309D5264AD4F88010D2F8883023F0AF
:102C100000430B43C2F88830284602B0BDE8F08775
:102C2000FDF7ECFC401B48457FF6ECAE0CE7354663
:102C300012E7B1F1806F9BD10121201DFFF73EFD0E
:102C4000002818BF054693E7B1F1806FA3D1012199
:102C5000201DFFF733FD002818BF05469BE7B1F1A3
:102C6000806FABD10121201DFFF728FD002818BF80
:102C70000546A3E7B2F1005FB6D1022104F12000BE
:102C8000FFF7AAFDADE7BB6D43F08053BB65BB6D9D
:102C900003F080530193019B4FF001087FE600BFD2
:102CA00000100240134B4FF4802210B55A610268A5
:102CB0009368D904044609D5D368DB0506D5D368E3
:102CC000DBB263F4C073D36004F0A8FA226893689F
:102CD00099040AD5D3689B0507D5D368DBB263F4A2
:102CE0002073D360204600F0AAFA012384F8213033
:102CF00010BD00BF00040140026838B5D36823F05E
:102D0000A003D3600446FDF779FC05462368DB6821
:102D10009B0601D5002038BDFDF770FC401BB0F5C7
:102D20007A7FF3D9032038BD38B50368DA685206D4
:102D3000044601D5002038BD4FF0FF32DA60FDF7C0
:102D40005DFC05462368DB685B06F3D4FDF756FCA3
:102D5000401BB0F57A7FF5D9032038BD38B504465D
:102D6000D8B190F8213003F0FF021BB980F8202081
:102D700004F0C6FA022384F821302368CA225A627A
:102D800053225A622046FFF7CFFF2368054638B129
:102D9000FF225A62042384F821300125284638BDD9
:102DA0009A68206922F4E00222F040029A60626888
:102DB00099680243A06902430A439A60E2681A6173
:102DC0001A69A16842EA01421A61DA6822F08002B7
:102DD000DA609B689B0605D42046FFF78DFF08B19B
:102DE0002368D5E723686069DA6C22F00302DA64AD
:102DF000E269D96C02430A43DA64FF225A62012372
:102E000084F82130CAE70023092803D840EA0310D8
:102E1000C0B270470A380133C0B2F5E7F8B590F890
:102E20002030012B05464FF0020634D0012380F8F4
:102E3000203080F821604B78C8788E780C78002A92
:102E40004ED1DA0603D523F010030A334B70FFF797
:102E5000DAFF07464878FFF7D6FF02463046FFF70D
:102E6000D2FF40EA443040EA074040EA02242B689F
:102E7000CA225A6253225A622846FFF755FF2B682E
:102E8000064650B1FF225A62042385F82130002300
:102E900085F8203001263046F8BD24F07F4424F028
:102EA000C0045C60DA6822F08002DA609B689B06EE
:102EB0000CD42846FFF720FF40B12B68FF225A624E
:102EC000042385F8213085F82060E3E72B68FF2292
:102ED0005A62012385F82130002385F82030DAE793
:102EE0001B0243EA0040304340EA4434BFE790F815
:102EF0002030012B2DE9F04105460E4690464FF05B
:102F0000020717D0036880F82170CA22012480F8D4
:102F100020405A6253225A62FFF706FF2B68074689
:102F200058B1FF225A62042385F82130002385F826
:102F3000203001273846BDE8F08130787478B178C8
:102F40009B68B8F1000F38D15A0658BFF770FFF7E9
:102F50005AFF02462046FFF756FF04460846FFF791
:102F600052FFF37840EA835040EA024040EA0420EE
:102F70002B6800F07F3020F0FE4018609A683069BE
:102F800022F480229A60F268996802430A439A60A8
:102F9000DA6822F08002DA609C6814F0200418D10C
:102FA0002846FFF7A9FEA0B12B68FF225A6204232E
:102FB00085F8213085F82040BBE75B064FEA042402
:102FC00058BFF77044EA0040F478084340EA845060
:102FD000CEE72B68FF225A62012385F821300023B7
:102FE00085F82030A6E7000090F82030012B2DE96D
:102FF000F04704464FF0020067D0012384F82030E8
:10300000236884F82100087891F801908D7891F870
:103010002080CE694F699B68002A58D113F0400385
:1030200008BFCB70FFF7EFFE82464846FFF7EBFE86
:1030300002462846FFF7E7FE81464046FFF7E3FEDB
:10304000CD783E4346EA855545EA090545EA0A45F5
:1030500045EA022545EA00658B694E681E432368F0
:10306000CA225A6253225A624A6AB2F5807F9A682B
:103070004FD122F480729A60DA68D2B262F4C072E0
:10308000DA60FDF7BBFA80462368DF6817F00107B6
:103090002ED0DD615E649A6842F480729A609A680C
:1030A00042F480529A602C4B1A6842F480221A60D3
:1030B0009A6842F480229A602368FF225A620020B4
:1030C000012384F8213084F82000BDE8F08713F054
:1030D000400346EA070608BFCB70354345EA004582
:1030E000C87845EA092545EA805545EA0865B3E709
:1030F000FDF784FAA0EB0800B0F57A7FC4D9236805
:10310000FF2203205A6284F8210084F82070BDE871
:10311000F08722F400729A60DA68D2B262F4207208
:10312000DA60FDF76BFA80462368DF6817F0020764
:1031300009D01D629E649A6842F400729A609A688F
:1031400042F40052AEE7FDF759FAA0EB0800B0F5E3
:103150007A7FE9D9D3E700BF00040140030903EBFC
:10316000830300F00F0000EB4300C0B2704738B596
:103170000368986A486018691C6804F07F3323F07C
:10318000FE43C0F30E00C3F30625886004F07F04FD
:10319000C3F305409B0D08704D708C70CB7052B915
:1031A000FFF7DCFF08702846FFF7D8FF487020467D
:1031B000FFF7D4FF8870002038BD38B503685C681D
:1031C00024F07F4323F0C003180CC3F3042504F05C
:1031D0003F04C3F34233C8704D708C700B7052B90A
:1031E000FFF7BCFFC8702846FFF7B8FF48702046BD
:1031F000FFF7B4FF8870002038BD90F82030012B15
:103200004FF0020319D080F821300368CA225A62B5
:1032100053225A629A6822F400229A609A681143F3
:1032200099609A6842F400029A60FF225A62012370
:1032300080F82130002380F820301846704770470E
:103240002DE9F04F87B004460D4690469946109FF1
:10325000FDF7D4F906462DB9A36B43F00063A363D1
:10326000012010E094F83400C0B2012840F0E98059
:10327000E26D08EB090300219342A16306D9A36B19
:1032800043F00073A36307B0BDE8F08F032384F815
:1032900034302068636CC162012B4FF4007118BF99
:1032A0004FEA482801F025F848B12368674A9A6335
:1032B000A36B1843A063012084F83400E3E74FF0C8
:1032C000FF3300934FEA49230193049090234FF07A
:1032D000010A4FF0020B694620680293CDF80CB04A
:1032E000CDF814A000F0F3FFD14513D9C4F830B0E5
:1032F0004146206801F02DF800283ED02368534A4B
:103300009A63A36B1843A0630120002384F8340060
:103310002363B8E7C4F830A04146206801F001F803
:10332000EAE71A0416D505F1040805F1240A206815
:1033300000F0A8FF030A08F8040C08F8033C030C8B
:10334000000E08F8023C08F8010C08F10408D0450A
:10335000EDD12035FDF752F9801BB8420DD323681B
:103360003A4A9A63A36B43F00043A363012384F8B2
:10337000343000232363032085E72068436B13F474
:10338000957F436BCDD0DB0509D5B9F1010F06D987
:10339000636C032B03D001F025F80028AED123681D
:1033A000596B11F0080106D0284A9A63A36B43F0C9
:1033B0000803A363A8E75A6B12F002020AD0234A5B
:1033C0009A63A36B012043F00203A36384F83400E3
:1033D000216358E7596B890625D51C499963A36B6E
:1033E000012043F02003A36384F8340022634AE7FA
:1033F00000F048FF030A05F8040C05F8033C030C31
:10340000000E05F8023C05F8010CFDF7F7F8801BEB
:10341000874205F1040507D823680C4A9A63A36B19
:1034200043F00043C5E704352068436B13F40013F1
:10343000DED140F23A528263012284F834201846E9
:1034400021E7A36B43F0005309E700BFFF054000ED
:103450002DE9F04389B004460E4691461F46109D63
:10346000FDF7CCF880462EB9A36B43F00063A3634D
:10347000012010E094F83400C0B2012840F0B4807C
:10348000E26D09EB070300219342A16306D9A36B08
:1034900043F00073A36309B0BDE8F083032384F80D
:1034A00034302068636CC162012B4FF4007118BF87
:1034B0004FEA492900F01DFF48B123684C4A9A633E
:1034C000A36B1843A063012084F83400E3E74FF0B6
:1034D000FF3302937B02039390230493059006909D
:1034E000012302A92068079300F0F1FE012F13D9F0
:1034F000202323634946206800F05BFF002831D079
:1035000023683B4A9A63A36B1843A06301200023FE
:1035100084F834002363BEE7102323634946206800
:1035200000F02FFFEAE75A040AD506F1200956F801
:10353000043B2068019301A900F0A7FEB145F6D134
:10354000FDF75CF8A0EB0800A8420BD32368284ADB
:103550009A63A36BA363012384F8343000232363AD
:10356000032098E72068436B13F48D7F436BDAD018
:10357000DB0508D5012F06D9636C032B03D000F0BF
:1035800031FF0028BCD12368596B11F0080106D027
:10359000174A9A63A36B43F00803A363B6E75A6B19
:1035A00012F002020AD0124A9A63A36B012043F080
:1035B0000203A36384F8340021636CE7586B10F0B6
:1035C00010000AD00A499963A36B012043F010034D
:1035D000A36384F8340022635DE740F23A529A63B1
:1035E000012384F8343056E7A36B43F000533EE7E1
:1035F000FF054000436E9A0F0A70C3F383624A705E
:10360000C3F301628A70C3F30742CA70C3F307228F
:10361000DBB20A714B71836E1A0DCA80C3F3034289
:103620000A72C3F3C0324A72C3F380328A72C3F3A0
:103630004032CA72C3F300320A7300224A73426CEA
:1036400010B5002A6BD1C26E40F6FC7404EA830305
:1036500043EA92730B61C2F3C2630B75C2F3026358
:103660004B75C2F342538B75C2F38243C2F3C2322D
:10367000CB750A760B690A7E02F00702023201332B
:10368000934043650A7A02F00F040122A24082654A
:10369000520A5343C3654FF400730366C36EC3F30A
:1036A00080324A76C3F3C61203F07F038A76CB7664
:1036B000036FDA0F0A77C3F341724A77C3F382626A
:1036C0008A77C3F38352CA77C3F3405281F820202C
:1036D0000020C3F3004281F8210081F82220C3F3C7
:1036E000C03281F82320C3F3803281F82420C3F351
:1036F000403281F82520C3F3003281F82620C3F33D
:10370000812281F82720C3F30122C3F3460381F805
:10371000282081F82930012381F82A3010BD012AA0
:103720000FD1B0F86E201B0403F47C1313430B611C
:103730000B6901339B024365C3654FF400738365D6
:10374000ABE70368054A9A63836B43F08053836356
:10375000012380F83430184610BD00BFFF0540003B
:1037600070B598B000230793089309930A930B93BD
:1037700076230C930AAB044693E807008DE8070014
:1037800007AB0ECB206800F061FD18B1012528467B
:1037900018B070BD2068436823F48073436000F064
:1037A00079FD05460028F1D12268536843F48073FF
:1037B00053600220FCF728FF2068069500F044FEC5
:1037C000064670B9206800F067FE002873D0A66432
:1037D0004FF6FF75069B5A1CAB42069208D14FF07C
:1037E0008076012584F83450A16B0E43A663CEE7A2
:1037F0000021206800F08CFE014610B14FF0805689
:10380000EFE7206800F09CFE01460028F6D1206812
:1038100000F05AFD0028DDDA0023636420680123EC
:10382000ADF8163000F03AFD002800F09580636C8A
:10383000032B19D0206800F09CFE002864D10146BB
:10384000206800F041FD04216067206800F03CFD25
:103850000821A067206800F037FD0C21E067206890
:1038600000F032FDC4F88000636C032B45D1636C1B
:10387000032B50D10421206800F026FD000DE064E8
:103880000DA92046FFF7B6FE0546002861D1226D3E
:1038900003461204206800F0BFFD002834D104F173
:1038A000100393E807008DE80700231D0ECB206866
:1038B00000F0CCFC6BE70123A3644FF6FF75069B79
:1038C0005A1CAB4206928AD00021206800F020FEEC
:1038D0000646002885D14FF08041206800F030FE78
:1038E000064600287FF47DAF0146206800F0ECFC1E
:1038F000C30FE4D042008FD58FE70DF11601206889
:1039000000F062FE0028B2D0012584F83450A16B8B
:103910000843A0633BE7BDF8161021652068090441
:1039200000F03CFE0028EFD10146206800F0CCFCFE
:1039300004216066206800F0C7FC0821A0662068AA
:1039400000F0C2FC0C21E066206800F0BDFC20679E
:1039500090E74FF08050D7E74FF08060D4E710B584
:10396000044608B9012010BD90F8343003F0FF027E
:1039700013B9027703F070FD032384F83430204636
:10398000FFF7EEFE0028EDD10123A063206384F849
:10399000343010BD436C0B60836C4B60C36C8B6028
:1039A000036DCB60436D0B61836D4B61C36D8B61A8
:1039B000036ECB6100207047016D10B50904044609
:1039C000006800F04FFE014628B9206800F07CFC3A
:1039D000C0F3432010BDA36B1943A1630020F7E798
:1039E00038B50546B0B1242380F8713003681A68F1
:1039F000002422F001021A601C605C609C6003F0ED
:103A0000ADFE6C6785F8704085F87140204685F8FA
:103A1000724038BD012038BD0268C169F8B504465E
:103A2000836800691568034360690343BA480B4320
:103A30002840034313605368E06823F44053034372
:103A40005360B64BA0699A421CBF236A184393681F
:103A500023F4306303439360B14B9A4219D103F5C9
:103A60005843B04AD3F8883003F00303B1F5004F50
:103A7000D35C40F03881082B00F28F80DFE813F030
:103A80001A01CA00F9008D0014018D008D008D000F
:103A90003600A54B9A4207D103F5E633A34AD3F883
:103AA000883003F00C03E1E7A14B9A4223D103F5E0
:103AB000E433D3F8883003F03003102B00F0F180AA
:103AC0000BD8002B00F0F380B1F5004F4FF001024E
:103AD0004FF0000300F0F880A8E0202B00F0C68033
:103AE000302BF1D1B1F5004F40F0B8806068430849
:103AF00003F58033C3E08F4B9A421ED103F5E233C6
:103B0000D3F8883003F0C003402B00F0BB800AD804
:103B10007BB9824B9A4240F0CA80FEF7ABFD00238E
:103B2000B0BB02463AE0802B00F09D80C02B00F035
:103B3000B0807A4B9A42C7D12FE07F4B9A4211D185
:103B400003F5E033D3F8883003F44073B3F5807F96
:103B500000F09880DCD9B3F5007F00F08480B3F5E5
:103B6000407FE4E76D4B9A42AED103F5C833D3F8FA
:103B7000883003F44063B3F5806F00F08380C7D9C9
:103B8000B3F5006F6FD0B3F5406FD0E76B480223F9
:103B9000626802EB4201814205D9012200232366BB
:103BA00063661046F8BDB0EB023FF6D8082B2ED85E
:103BB000DFE803F0052D1C2D242D2D2D2700FEF709
:103BC00059FD62684FF4807156080027E1FB0067D9
:103BD000002330463946FCF753FB0022584BA0F532
:103BE00040719942D9D82368D860D7E7554855081D
:103BF00000230021401941F10001ECE7FEF72EFA05
:103C0000DFE750080021002310F50000F3E7012250
:103C10000020E3E7FEF740FD4EE0FEF72BFD626873
:103C200000EB5203B3FBF2F39BB20022A3F11000AE
:103C30004FF6EF718842B0D82168CB60AEE7FEF74F
:103C40002BFDECE76068430803F5740303F510539C
:103C5000B3FBF0F3E8E7FEF701FAE0E7606843083A
:103C600003F50043F4E72D4B9A428FD0B1F5004F96
:103C7000E8D16068430803F1F47303F59043B3FBA4
:103C8000F0F31FE0254B9A420BD1FEF7E7F904232E
:103C900046E7224B9A427FF425AF4FF400400823B9
:103CA00076E7B1F5004FD6D1FEF7D8F904E0B1F5CB
:103CB000004FB2D1FEF7DEFC61684A0802EB400318
:103CC000B3FBF1F39BB20022A3F110004FF6EF71AA
:103CD00088423FF662AF23F00F012068C3F342032E
:103CE0000B43C3605AE7082B3FF657AF01A252F8C7
:103CF00023F000BF1B3C00083F3C0008453C000887
:103D00009B3B0008573C00089B3B00089B3B00087E
:103D10009B3B00085D3C0008F369FFEF008000401A
:103D20000038014074830008004400407883000894
:103D300000480040004C0040005000400024F400C7
:103D4000FFFC0F00000024F4436ADA0710B506D523
:103D50000168846A4A6822F4003222434A609C0760
:103D600006D50168C46A4A6822F4803222434A6058
:103D7000590706D50168046B4A6822F48022224361
:103D80004A601A0706D50168446B4A6822F400426B
:103D900022434A60DC0606D50168846B8A6822F4F7
:103DA000805222438A60990606D50168C46B8A68EE
:103DB00022F4005222438A605A060FD50168046C2F
:103DC0004A6822F480122243B4F5801F4A6005D16C
:103DD0004A68446C22F4C00222434A601B0606D59E
:103DE0000268816C536823F400230B43536010BDB9
:103DF0002DE9F041069D04460F4616469846216877
:103E0000CA6937EA02030CBF01220022B24202D083
:103E10000020BDE8F0816B1CF2D09DB923681A68C0
:103E200022F4D0721A609A6822F001029A6020236C
:103E300084F8713084F87230002384F870300320E5
:103E4000BDE8F081FCF7DAFBA0EB08008542D6D292
:103E5000E4E72DE9F3411F4690F87130202B04462A
:103E60000D4690464AD1002946D0002A44D090F809
:103E70007030012B42D0012380F87030002343675B
:103E8000212380F87130FCF7B9FBA4F85080064676
:103E9000A4F85280B4F85220009792B2334652B937
:103EA00040212046FFF7A4FF58B9202384F8713041
:103EB00084F8700006E0002280212046FFF798FF7A
:103EC00018B1032002B0BDE8F081A3682268B3F501
:103ED000805F0DD123695BB935F8023BC3F308035A
:103EE0001385B4F85230013B9BB2A4F85230D1E7AD
:103EF0002B7813850135F4E70120E3E70220E1E7A1
:103F00002DE9F341984690F87230202B04460D4677
:103F1000164660D100295CD0002A5AD090F8703043
:103F2000012B58D0012380F87030002343672223EF
:103F300080F87230FCF762FBA368A4F85860B3F510
:103F4000805F0746A4F85A6015D123698BB940F207
:103F5000FF13A4F85C30B4F85C60B4F85A0080B287
:103F6000B8B9202384F8723084F8700002B0BDE83C
:103F7000F081FF23EDE723B92369002BF9D07F23DC
:103F8000E7E7B3F1805FE6D12369002BF7D03F2349
:103F9000DFE7CDF800803B46002220212046FFF7D6
:103FA00027FFD0B9A368B3F5805F23680CD12269DD
:103FB00052B99B8C334025F8023BB4F85A30013B90
:103FC0009BB2A4F85A30C8E79B8C33402B70013564
:103FD000F3E70120CAE70220C8E70320C6E773B56C
:103FE000044600264667FCF709FB23681B681A078E
:103FF000054617D423681B685B070AD56FF07E431C
:10400000009300222B464FF480012046FFF7F0FE7C
:10401000A0B92023002084F8713084F8700084F85F
:1040200072300CE06FF07E430093324603464FF44B
:1040300000112046FFF7DCFE0028DBD0032002B091
:1040400070BD10B5044660B390F8713003F0FF0204
:104050001BB980F8702003F00FFB2268242384F83A
:104060007130136823F0010313602046FFF7D4FC7E
:10407000012816D0636A13B12046FFF765FE236856
:104080005A6822F490425A609A6822F02A029A6092
:104090001A6842F0010220461A60BDE81040FFF79E
:1040A0009EBF012010BD0000114B4FF4FA521B6857
:1040B000B3FBF2F241F28833534313F1FF3313D3CE
:1040C000426B12F0450FF8D0436B5B0703D5042316
:1040D000836318467047436B13F0010301D001233B
:1040E000F6E7C5228263F4E74FF00043F1E700BF33
:1040F000540000200E4B4FF4FA521B68B3FBF2F24F
:1041000041F28833534313F1FF330DD3426B12F066
:10411000450FF8D0436B13F0040315BF0423C522E9
:1041200083638263184670474FF00040704700BFBA
:1041300054000020434B10B51B684FF4FA54B3FBF6
:10414000F4F35A43002A48D0436B13F0450F02F1B1
:10415000FF32F7D0436B5B0703D504238363184614
:1041600010BD436BDC0703D501238363012010BD21
:104170000369DBB29942F9D1C523836343693248AD
:10418000184000285CD0002B2ADB5A002BD49C005E
:104190002BD4D9002BD41A012CD45C012DD4D901F5
:1041A0002ED41A022FD45C0230D4990231D4DA0210
:1041B00032D45C0333D4990334D4DA0335D41C04E9
:1041C00036D4590437D49A0438D413F0080F14BFE6
:1041D0004FF400004FF4803010BD4FF0004010BD90
:1041E0004FF0007010BD402010BD802010BD4FF476
:1041F000807010BD4FF4007010BD4FF4806010BD92
:104200004FF4006010BD4FF4805010BD4FF40050CB
:1042100010BD4FF4804010BD4FF4004010BD4FF46E
:10422000003010BD4FF4802010BD4FF4002010BDB1
:104230004FF4801010BD4FF4001010BD4FF48000FB
:1042400010BD00BF5400002008E0FFFD84B010B591
:1042500003AC84E80E000499039B42680B43059964
:104260000B4306990B4307990B430899BDE810408F
:1042700022F4FD420B4322F07F021343436004B05B
:1042800000207047D0F8800070470B68C0F880307D
:10429000002070470323036000207047006800F08F
:1042A000030070470B688360C3684A6823F47F6328
:1042B00023F00F0313438A681343CA6813430A6940
:1042C0001343C360002070471430405870470B6898
:1042D00043624B688362C36A8A6823F0F70313431F
:1042E000CA6813430A6913434A691343C36200202F
:1042F000704730B587B040230393002305460191F2
:104300001024049301A94FF4806305930294FFF7EE
:10431000C9FF41F2883221462846FFF70BFF07B05C
:1043200030BD30B587B0402303930023054601918B
:104330001124049301A94FF4806305930294FFF7BD
:10434000B1FF41F2883221462846FFF7F3FE07B05D
:1043500030BD30B587B0402303930023054601915B
:104360001224049301A94FF4806305930294FFF78C
:1043700099FF41F2883221462846FFF7DBFE07B05D
:1043800030BD30B587B0402303930023054601912B
:104390001824049301A94FF4806305930294FFF756
:1043A00081FF41F2883221462846FFF7C3FE07B05D
:1043B00030BD30B587B040230393002305460191FB
:1043C0001924049301A94FF4806305930294FFF725
:1043D00069FF41F2883221462846FFF7ABFE07B05D
:1043E00030BD000030B587B00023054601930C2492
:1043F0004022049301A94FF4806303920593029431
:10440000FFF750FF034A21462846FFF793FE07B007
:1044100030BD00BF00E1F50530B587B04023039300
:10442000002305460724049301A94FF480630192F9
:1044300005930294FFF736FF41F288322146284661
:10444000FFF778FE07B030BD10B586B000230193AA
:1044500002930393049301A94FF4806305930446E8
:10446000FFF720FF0B4B4FF4FA521B68B3FBF2F23D
:1044700041F28833534313F1FF3307D3626B1206C3
:10448000F9D5C523A363002006B010BD4FF000404E
:10449000FAE700BF5400002010B586B04FF4D57382
:1044A000019308230293402303930023049301A95B
:1044B0004FF4806305930446FFF7F4FE134B4FF46B
:1044C000FA521B68B3FBF2F241F28833534313F103
:1044D000FF3318D3626B12F0450FF8D0636B5B07A4
:1044E00003D50420A06306B010BD626B12F0010278
:1044F00001D00120F6E7606B10F04000F3D04023BC
:10450000A3631046EFE74FF00040ECE754000020B3
:1045100030B587B04023039300230546019137242B
:10452000049301A94FF4806305930294FFF7BAFE48
:1045300041F2883221462846FFF7FCFD07B030BD26
:1045400010B586B02923029341F000414023039324
:1045500041F48011002304460191049301A94FF412
:1045600080630593FFF79EFE2046FFF7C3FD06B06C
:1045700010BD10B586B000230222044601930292BA
:104580000493C0224FF4806301A903920593FFF7BF
:1045900089FE2046FFF788FD06B010BD10B586B035
:1045A00009230293C023039300230446019104933B
:1045B00001A94FF480630593FFF774FE2046FFF7CF
:1045C00073FD06B010BD000030B587B00023032294
:1045D00001930292049340224FF480630D4601A997
:1045E000039205930446FFF75DFE1D4B4FF4FA520C
:1045F0001B68B3FBF2F241F28833534313F1FF33EC
:1046000026D3626B12F0450FF8D0636B580703D5C1
:104610000420A06307B030BD636BD90701D501202A
:10462000F7E72369DBB2032B15D1C523A3636369C5
:1046300013F4604002D11B0C2B80EBE75A040CD41E
:1046400013F4004F14BF4FF480504FF48030E1E773
:104650004FF00040DEE70120DCE74FF40050D9E7DF
:104660005400002030B587B0402303930023054653
:1046700001910D24049301A94FF4806305930294E2
:10468000FFF710FE41F2883221462846FFF752FD1F
:1046900007B030BD034B1A1803EB8003107A5B6838
:1046A0005B6818476C020020064B1A5C42B9012275
:1046B0001A541A1803EB8003107A5B681B681847BA
:1046C000002070476C02002030B4054C251804EB24
:1046D000800460688468287AA44630BC604700BFC4
:1046E0006C02002030B4054C251804EB800460688F
:1046F000C468287AA44630BC604700BF6C02002022
:10470000054B10B41C1803EB8003207A5B685DF83E
:10471000044B1B69184700BF6C0200204288437895
:10472000007843EA022340EA032070470B0A017035
:1047300043700B0C090E8370C1707047024400F87F
:10474000011B9042FBD17047154BF0B500252A465E
:104750001C461E68A6B10768BE4212D15F68866813
:10476000B7420ED19F684669B7420AD1B1B904EB8E
:1047700002129389B3F5807F14BF00201020F0BD92
:1047800001250132022A03F11003E2D10DB100200C
:10479000F0BD02290CBF00201220F0BD1020F0BD9A
:1047A000480200201C4AF0B505680023164614682C
:1047B000AC4207D157688468A74203D1976844691F
:1047C000A7421DD00133022B02F11002EFD1336852
:1047D00013B13369EBB901231C01321935518468D7
:1047E0004069906000205460908179B906EB031213
:1047F0009289013292B206EB0316581CB281F0BDC9
:104800000029F3D006EB0312928912B94FF480729B
:10481000F1E70020F0BD00BF480200200138012868
:104820000ED8094A0301D118898921F4807080B219
:1048300008B1481E80B2D118888118B9D05070478D
:104840000220704700207047480200208369023927
:10485000023B99423DBF4389C06A01FB030000202F
:104860007047C26A10B504680432A389B1FBF3F142
:104870006389B1FBF3F1106830B1814202D3091AA8
:104880000832F8E75068084410BD026810B552B10C
:1048900011460B4611F8014B202C0CD93A2CF8D1BB
:1048A000511C8B4202D04FF0FF3010BD1278302ADD
:1048B000F9D101330360002010BD38B50D46044620
:1048C00018B900232B60092038BD0368002BF8D0ED
:1048D0001A78002AF5D0D98882889142F1D1587887
:1048E000FFF7D8FE10F00100EBD123682B6038BD34
:1048F00001380A4411F8013B00F8013F9142F9D117
:104900007047CA7E8B7E032843EA022301BF487D9D
:104910000A7D42EA002243EA024318467047C2F386
:1049200007238A76CB760378032B01BF120C0A7516
:10493000120A4A757047F8B5056B00F13407044652
:1049400001232A4639464078FFF7CCFEA0B9636AB6
:10495000E269E070EB1A934201D30020F8BDA6781B
:10496000012EFAD9E36960781D442A4601233946AD
:10497000FFF7B8FE013EF3E70120F8BDC3780BB1A5
:10498000FFF7D9BF18467047F8B50446FFF7F6FFA2
:104990000546002841D12378032B36D12779012FF2
:1049A00033D104F134060146A2893046FFF7C6FE32
:1049B000552384F83232AA2384F833325223412219
:1049C000722184F8343084F83530612384F836302D
:1049D00084F8372084F81A2284F81B3284F81812DD
:1049E00084F8191204F507706169FFF79FFE2169C9
:1049F00004F50870FFF79AFE226A6078013222639C
:104A00003B463146FFF76EFE257100221146607865
:104A1000FFF776FE003018BF0120F8BD036B8B4214
:104A200070B506460D4612D0FFF7A8FF044660B9E0
:104A30002A46012306F134017078FFF745FE00286D
:104A40001CBF4FF0FF3501243563204670BD0024A4
:104A5000FBE70000002310B5C3704FF0FF33036382
:104A60000446FFF7DBFF30BB94F8332294F8323270
:104A700043EA02234AF6552293421ED194F8343079
:104A8000E92B05D0636B104A03F0FF13934216D154
:104A900004F16A00FFF742FE0C4B20F07F40984281
:104AA0000FD004F18600FFF739FE094B984214BF7E
:104AB0000220002010BD042010BD032010BD0220E4
:104AC00010BD002010BD00BFEB0090004641540017
:104AD000464154332DE9F04F002385B00B600F465B
:104AE0001546FFF7D2FE061EC0F25E81B24B53F8A8
:104AF0002640002C00F05A813C60237805F0FE052A
:104B000073B16078FFF7C6FDC10709D4002D00F02E
:104B10004F8110F0040000D00A2005B0BDE8F08FEE
:104B20000023F0B223706070FFF7BEFDC20700F1F2
:104B300041810DB14307EFD404F10C0202216078EA
:104B4000FFF7DEFD08B10120E7E7A389A3F50072B6
:104B5000B2F5606FF7D85E1E1E40F4D13146204694
:104B6000FFF778FF022840F0018104F5FD7111F88C
:104B7000040C10B10846FFF7D1FD4DF826000136B0
:104B8000042E01F11001F2D100255DF82560002E00
:104B900000F0E48031462046FFF75CFF012800F278
:104BA000DE8094F8402094F83F30B4F80C8043EA5B
:104BB0000223984540F0E08094F84B3094F84A1076
:104BC00051EA032104D104F15800FFF7A7FD014683
:104BD00094F84470E1617B1E012BA77000F2CC8039
:104BE00094F841901FFA89F34F436381002B00F042
:104BF000C38009F1FF3313EA090F40F0BD8094F838
:104C0000463094F845A04AEA032A4FEA5813BAFB03
:104C1000F3FB03FB1BA39BB2A4F808A0002B40F0FE
:104C2000AB8094F8485094F8470050EA052003D12F
:104C300004F15400FFF772FD94F8433094F84220D9
:104C400052EA032200F0988012FA8BF33B44984218
:104C5000C0F09280C51AB5FBF9F5002D00F08C80EC
:104C60004FF6F570854200F2898040F6F5794D45A2
:104C70008CBF4FF002094FF0010902353244334432
:104C8000B9F1030FA56126626262E36279D194F8FB
:104C90005F2094F85E3053EA02236DD1BAF1000F21
:104CA0006AD104F16000FFF739FDAD00A06208F1A0
:104CB000FF331D44B5FBF8F841455DD34FF0FF339A
:104CC00063612361B9F1030F4FF0800323712FD18A
:104CD00094F8652094F8643043EA0223012B27D12D
:104CE000711C2046FFF79AFE10BB94F8332294F80B
:104CF0003232207143EA02234AF65522934217D1F9
:104D000004F13400FFF70AFD2C4B984210D104F552
:104D10000670FFF703FD2A4B984209D104F507708E
:104D2000FFF7FCFC606104F50870FFF7F7FC2061F9
:104D3000244A84F80090138801339BB21380E380E7
:104D4000214B1A68944204BF00221A601A699442E7
:104D50004FF000007FF4E1AE1861DEE6032001357C
:104D6000042D7FF412AF042806D1ECE604283FF4AA
:104D7000EAAE01287FF615AF0D20CEE64FF003090D
:104D80007BE7BAF1000FF7D0B9F1020F4FEA450007
:104D900018BF40193A4418BF05F00105A2620CBFC4
:104DA000054605EB500582E70B20B6E60C20B4E67D
:104DB0002846B2E60320B0E6440200205252614188
:104DC00072724161680200204802002001292DE929
:104DD000F04704460D46174640F28A80836999429F
:104DE00080F086800378022B49D0032B60D0012B02
:104DF0007ED101EB510A416A8389BAFBF3F319446E
:104E0000FFF70CFE064678BBA389BAFBF3F204F168
:104E1000340803FB12A215F001051FBF18F8023079
:104E200003F00F013B0103F0F00314BF0B43FBB28F
:104E300008F80230616A0123E3700AF10109A389CD
:104E4000B9FBF3F320461944FFF7E8FD064658B9CD
:104E5000A389B9FBF3F203FB129245B1C7F307171D
:104E600008F802700123E3703046BDE8F08718F8B7
:104E70000230C7F3032723F00F031F43F0E78389B2
:104E80005B08B1FBF3F3416A1944FFF7C7FD06461F
:104E90000028E9D1A1896D0004F13402B5FBF1F3DA
:104EA00001FB135553195755C7F307275F70D9E70F
:104EB00083899B08B1FBF3F3416A1944FFF7AEFD08
:104EC00006460028D0D1A189AD0004F13403B5FB1A
:104ED000F1F201FB12551D442846FFF71FFC27F095
:104EE000704700F0704139432846FFF71FFCB9E7CF
:104EF0000226B9E70129F8B504460E4668D9836948
:104F0000994265D20378022B32D0032B48D0012B73
:104F10005ED101EB5105416A8389B5FBF3F3194476
:104F2000FFF77CFD10B14FF0FF30F8BDA189636A37
:104F3000B5FBF1F201FB125222446F1C2046B7FB75
:104F4000F1F1194492F83450FFF768FD0028EAD1D6
:104F5000A289B7FBF2F302FB13731C44F30794F826
:104F6000340045EA00204CBF0009C0F30B00F8BD37
:104F700083895B08B1FBF3F3416A1944FFF74EFDE7
:104F80000028D0D1A189760004F13402B6FBF1F3F8
:104F900001FB13669319905D5B7840EA0320F8BD2E
:104FA00083899B08B1FBF3F3416A1944FFF736FD8F
:104FB0000028B8D1A289B60004F13400B6FBF2F3A0
:104FC00002FB13663044FFF7A9FB20F07040F8BDE8
:104FD0000120F8BD2DE9F041804605680F4671B902
:104FE0002E69F6B1AB699E4228BF01263446AB69F3
:104FF00001349C4218D3012E15D8002409E028461C
:10500000FFF778FF0128044637D9431C04D14FF03D
:10501000FF342046BDE8F081AB699842F9D33E46A3
:10502000E4E70126E2E702242146D8F80000FFF772
:1050300061FF30B1012820D00130E8D0B442D6D190
:10504000DBE74FF0FF3221462846FFF7BFFE90B95D
:1050500057B9AA696B692C61023A93420FD92B792F
:1050600043F001032B71D4E7224639462846FFF767
:10507000ADFE0028EDD00128C9D00124C9E7013BCD
:105080006B61ECE7F8B50D46012D0746114601D8D6
:105090000220F8BD0468A3699D42F9D22AB14FF0FD
:1050A000FF322046FFF792FE08BB29463868FFF71B
:1050B00021FF064608B90020F8BD0128E8D0431CAE
:1050C00014D0002229462046FFF780FE78B9A26955
:1050D0006369911E8B4205D201336361237943F0EA
:1050E0000103237196423546DFD3E4E70120F8BD82
:1050F000826838B5002305460468436192B9237875
:10510000022B01D9A36A73B923890BB9022038BDD8
:10511000A36AEB61EB69AA61002BF7D034342C62EF
:10512000002038BD13466189A08948431A460CD136
:1051300011462868FFF7DEFE431C02460BD001280B
:10514000E4D9A3699842F3D3E0E719462046FFF774
:105150007DFBE861DEE7012038BD2DE9F843C36936
:1051600005468846B3B147692037B7F5001F11D20D
:105170000468A289B7FBF2F002FB1072002A4FD13B
:10518000A9690133EB6141B92389B3EB571F47D8B4
:105190000023EB610420BDE8F8836389013B0342EF
:1051A0003ED12046FFF7A6FE0128064602D802207F
:1051B000BDE8F883421C02D10120BDE8F883A36951
:1051C000984227D3B8F1000FE2D0A9692846FFF72B
:1051D00001FF064600283DD00128E8D0431CEBD053
:1051E0002046FFF7CBFB80460028E5D10146A28987
:1051F00004F13400FFF7A2FA31462046FFF726FB00
:105200004FF0010920636389984516D3236BA3EB04
:1052100008032363AE6131462046FFF717FBE861C0
:10522000A1896F6104F13403B7FBF1F201FB12773E
:105230001F442F620020BDE8F88384F803902046C5
:10524000FFF779FB0028B7D1236B013308F1010880
:105250002363D8E70720BDE8F88300002DE9F84371
:10526000066804460B782F2B0D4601F10101F9D099
:105270005C2BF7D00023A3602B781F2B59D9DFF8C4
:10528000608104F124070B2220213846FFF756FAEB
:10529000002205F1FF3E114608201EF8013F202B99
:1052A00001F101010BD92F2B4BD16818411B10F8CC
:1052B00001EBBEF12F0FF9D0BEF15C0FF6D00D441B
:1052C000002A54D094F82420D4F80090E52A04BF92
:1052D000052284F82420212B34BF0423002384F8E2
:1052E0002F302046FFF704FF002845D1E1694846EA
:1052F000FFF794FB00283FD1236A1A78002A46D092
:10530000DA7A02F03F02A271DA7A11070CD403F1C3
:105310000B0E394613F8012B11F801CB9E45A2EB79
:105320000C0227D0002AF5D000212046FFF715FFF8
:10533000DAE7802384F82F302046BDE8F843FFF7F2
:10534000D7BE5C2BB1D02E2B39D090420FD913F0A1
:10535000800F18BF803BDFF88C9018BF18F803301F
:1053600019F801CFBCF1000F2ED06345F8D106200B
:10537000BDE8F883002AD7D194F82F3048B104282B
:105380002CD113F0040F08BF0520BDE8F8830420DA
:10539000F2E75A0722D4A379DB060DD5B2896069FA
:1053A000B0FBF2F306F1340102FB13031944307829
:1053B000FFF7A7FAA06064E70520BDE8F8830B2893
:1053C000D5D008220B2068E7A3F1610CBCF1190FBE
:1053D00001D8203BDBB2BB5401325EE7BDE8F88365
:1053E000858300080484000870B505460668FFF749
:1053F0007FFE044628BBE9693046FFF70FFB0446F1
:10540000F8B92B6A1B78E52B14D1E9693046FFF710
:1054100005FB044660B901462022286AFFF78EF991
:105420000B2205F12401286AFFF762FA0123F370C9
:10543000204670BD002BE8D001212846FFF78DFEE5
:10544000D7E7042C08BF0724F2E700007FB50190DE
:1054500004A8009140F8041D1646FFF716FA051E31
:105460001FDB124951F825405CB1114B1A68944278
:1054700004BF00221A601A690020944208BF186114
:105480002070019808B10023037041F8250030B165
:10549000012E08D1002201A96846FFF71BFB04B0CA
:1054A00070BD0B20FBE70020F9E700BF440200209D
:1054B000480200202DE9F04790B090460191044643
:1054C000002800F0D18002F03F052A4603A901A878
:1054D000FFF700FB074638BB10AE039B46F8303D94
:1054E00001993046FFF7BAFE58B99DF93F30002BBD
:1054F0001EDB15F03E0F14BF012100213046FFF7DF
:1055000023F918F01C0F73D0A0B1042809D1734BF4
:105510001A68002A00F0DE801B69002B00F0DA8098
:10552000122045F0080570B100232360074695E07E
:105530000620E6E79DF8163013F0110F63D118F03E
:10554000040F40F0C18028073CD500F031FB024633
:1055500001460C980E30FFF7E9F80C98114616300A
:10556000FFF7E4F80C9BDDF80C902022DA72DDF8EE
:1055700030A099F800005146FFF7C3F900225146C8
:1055800080464846FFF7CBF90C9B00221A775A77E2
:105590009A77DA77039B0121D970B8F1000F11D007
:1055A00041463046D3F83090FFF76CFD0028BBD160
:1055B00049460398FFF732FA039A08F1FF33136163
:1055C0000028B1D1039B28071B6B636248BF45F0DD
:1055D000400515F0FE0F0C9BA36214BF01210021B2
:1055E0003046FFF7DFF8206100283FD102209BE71B
:1055F000002899D19DF81630DA0667D418F0020F0A
:10560000E0D0DB07DED507208EE72068FFF772FCCD
:105610000128014626D9421C50425041A5EB0805FD
:1056200000284DD0E16100287FF47EAFDDF80C80CA
:10563000B8F80C30B5FBF3F203FB125575B14046D8
:10564000FFF704F90028D1D0024422620123314639
:1056500098F80100FFF738F8002839D1384610B023
:10566000BDE8F0870220D9E70927F7E7039EDDF8B8
:10567000308030784146FFF744F9A06008F11C0003
:10568000FFF74CF8F3882660002104F13006E06053
:10569000A380E162257561752162A1614FF480529A
:1056A0003046FFF74BF8AB06D8D5E568002DD5D0CE
:1056B000039BA1685A89B3F80C80A56108FB02F826
:1056C000A845A2D30020ADE708202DE704202BE752
:1056D000012029E73046FFF787FE22E74802002035
:1056E0002DE9F04F9B4685B000238946CBF800306A
:1056F00003A904469046FFF7E0F80546002832D19A
:10570000657D85BB237D9A0740F1BE80A36913EBBD
:10571000080F28BF6FEA030804F130030093B8F1C3
:10572000000F1CD00398A1698389B1FBF3F203FB3E
:105730001213002B40F091804389013B13400193E9
:1057400024D131B9A068A0B901462046FFF742FC38
:1057500004E0E36A5BB12046FFF783F848B9237D94
:1057600043F040032375284605B0BDE8F08FE1699A
:10577000EBE7012802D102256575F4E7431C01D14E
:105780000125F9E7A368E06103B9A06094F914303A
:10579000002B0CDA0398226A009940780123FEF767
:1057A000A1FF0028ECD1237D03F07F032375DDF8F2
:1057B0000CA0E1695046FFF749F80028DBD0019BB7
:1057C000BAF80C70B8FBF7F71E18002F34D0019A06
:1057D000BAF80A309AF801003A449A4284BF019A12
:1057E0009F1A3B4632464946FEF77CFF0028C7D148
:1057F000216A891B8F420BD9039B9A8922B102FB34
:1058000001910098FFF774F8237D03F07F0323755F
:10581000039B9B895F43A369E2683B44A3619A426F
:105820002CBFE260E360DBF800303B44B944CBF8C6
:105830000030A8EB070872E7236A9E420CD0A269E9
:10584000E3689A4208D20123324600999AF801008F
:10585000FEF73AFF002893D12662039B9F89A36934
:10586000B3FBF7F007FB10303F1A474528BF474608
:105870002FB1009B3A4649461844FFF739F8237D7B
:1058800063F07F032375C6E707256CE7F7B501A929
:105890000446FFF712F8054600283AD1237D5A0640
:1058A00037D51B060CD50198226A4078012304F1F4
:1058B0003001FEF717FF78BB237D03F07F032375CC
:1058C00000F076F9616A07460198FFF7A7F80546E8
:1058D000F8B9A66AF37A43F02003F372A26820684D
:1058E0003146FFF71CF8E16806F11C00FEF71EFFC9
:1058F000394606F11600FEF719FF0198B574012329
:10590000F574C370FFF740F8237D23F0400305468C
:105910002375284603B0F0BD0125FAE713B5044608
:10592000FFF7B4FF48B901A92046FEF7C6FF20B92A
:105930002069FEF773FF00B9206002B010BD0000BF
:1059400030B50F4B5D7A05F0FF04B5B95D7A5C5553
:105950005D7A03EB85056860587A184402725A7ABA
:10596000D2B2501CC0B258723A2330324B702F233F
:105970000A708B70CC70204630BD012030BD00BF56
:105980006C0200200022FFF7DBBF000010B50024EE
:105990008AB01822214604A801940294039401F0CD
:1059A0007FFF2448244B8460042280E81800426171
:1059B00001230222C460036104764476C26180F848
:1059C000203043628462C46280F83030446380F8DF
:1059D0003830C463046444648364FAF73DFE08B15C
:1059E00001F022FC01A913480194FBF771FA08B1F8
:1059F00001F01AFC114B04937F22062305930792B2
:105A00000023042204A90B48069308920993FAF78D
:105A10004DFF08B101F008FC094B049304A90C23C5
:105A200004480593FAF742FF08B101F0FDFB0AB004
:105A300010BD00BFF8020020000004502000F01448
:105A40000008302E30B5054689B01422002103A885
:105A500001F026FF2A681F4B9A4238D103F17043A8
:105A6000A3F5F8331C4CDA6C42F40052DA64DA6CB9
:105A700002F400520192019ADA6C42F00102DA64F7
:105A8000DB6C03F001030293029B412303934FF06D
:105A900090400B2303A90493FBF774FD802222613D
:105AA0004FF480720D4B62614FF480622360A261FB
:105AB0000023202220466360A360E360E26123624A
:105AC000FBF7E6FA08B101F0AFFBEC64A56209B0A0
:105AD00030BD00BF000004505C03002008000240FD
