:020000040800F2
:10000000D80400209D0100087F1600080115000893
:100010007D1600088D020008991E000800000000EF
:10002000000000000000000000000000951900081A
:100030008F02000800000000A116000897190008B0
:10004000B7010008B7010008B7010008B7010008B0
:10005000B7010008B7010008B7010008B7010008A0
:10006000B7010008B7010008B7010008B701000890
:10007000B7010008B7010008B7010008B701000880
:10008000B7010008B7010008B7010008B701000870
:10009000B7010008B7010008B7010008B701000860
:1000A000B7010008B7010008B7010008B701000850
:1000B000B7010008B7010008B7010008B701000840
:1000C000B7010008B7010008B7010008B701000830
:1000D000B7010008B7010008B7010008B701000820
:1000E000B7010008B7010008B7010008B701000810
:1000F000B7010008B7010008B7010008B701000800
:10010000B7010008B7010008B7010008B7010008EF
:10011000B7010008B7010008B7010008B7010008DF
:10012000B7010008B7010008B7010008B7010008CF
:10013000B7010008B7010008B7010008B7010008BF
:10014000B7010008B7010008B7010008B7010008AF
:10015000B7010008B7010008B7010008B70100089F
:10016000B7010008B7010008B7010008B70100088F
:10017000B7010008B7010008B7010008000000003F
:10018000B7010008B7010008DFF80CD000F06CF8E8
:1001900000480047111F0008D80400200648804787
:1001A00006480047FEE7FEE7FEE7FEE7FEE7FEE75C
:1001B000FEE7FEE7FEE7FEE72D1A000889010008CA
:1001C0002DE9F05F0546002092469B46884606468C
:1001D000814640241BE0284641464746224600F01F
:1001E00032F853465A46C01A914110D31146184668
:1001F000224600F019F82D1A67EB01084F462246F7
:100200000120002100F010F817EB00094E41201EDC
:10021000A4F10104DFDC484631462A46434600F09B
:1002200000B830BCBDE8C09F202A04DB203A00FAA9
:1002300002F1002070479140C2F1200320FA03F33D
:10024000194390407047202A04DB203A21FA02F03B
:100250000021704721FA02F3D040C2F12002914000
:100260000843194670470000064C074D06E0E06859
:1002700040F0010394E8070098471034AC42F6D3ED
:10028000FFF786FFA01F0008C01F0008FEE77047A9
:1002900070B501F037F90024254600F0B9F9064998
:1002A000064800F0DFF808B10124002500F050F9FD
:1002B0002046294670BD00001C000020C800002018
:1002C000124A117F1248012901D003290BD103687A
:1002D00043F400630360036823F40063036003686E
:1002E00043F400730360022901D003290BD1016894
:1002F00041F480510160016821F48051016001687E
:1003000041F4806101600020107770472C000020CC
:10031000002002400849C20703D04A6942F00402A3
:100320004A61800703D5486940F400404861486944
:1003300040F480304861704700200240CA070B49F2
:100340004A6902D022F4006201E042F400624A618C
:100350004A6960F3CA024A61486940F00200486194
:10036000486940F480304861704700000020024036
:10037000044910B54C6944F001044C6102604360CB
:1003800010BD000000200240074B10B55C69402200
:1003900044F480245C6172B608C908C0521E12F091
:1003A000FF02F9D162B610BD0020024070B50546CB
:1003B00000F02CFA0646184C08E0681C06D000F045
:1003C00025FA801BA84201D3032070BD2069C00319
:1003D000F3D421694CF2FA300140A06900F00040EA
:1003E000084311D00D494A6802434A60810F04D086
:1003F000A16900F040421143A161810002D020F0C8
:1004000040402061012070BD2069C00701D001205B
:100410002061002070BD0000002002402C00002060
:1004200030B50F494FF6FF724FF4801309689142BF
:1004300001D11C4601E00C05A40A4FF0006505EB54
:100440005404844204D900BFA0F10060C00A30BD4A
:10045000914201D009058B0AA0EB5300F4E700009C
:10046000E075FF1F2DE9F05F0546354889460178A4
:1004700001290CD00127804607704CF2503B5846AA
:10048000FFF794FF06004FF0000A03D053E002206C
:1004900000F05AB851464046C8F804A0294C2268DA
:1004A00092050ED5216821F400712160216849056B
:1004B00005D5216821F480612160032109E00777D7
:1004C00008E02268520504D5216821F4806121608A
:1004D000022101772868012807D04FF0FF31C9F8C1
:1004E000001040F2FA7BAF681EE06868FFF712FF69
:1004F0005846FFF75BFF0646606948F204018843EF
:10050000606116E038466968FFF718FF4CF250301A
:10051000FFF74CFF0600606920EA0B00606102D023
:10052000C9F8007005E07F1CD5E902010844B84213
:10053000E8D8FFF7C5FE88F800A03046A8E700001D
:100540002C0000200020024030BCBDE8C09F00000D
:100550000348416941F000414161002070470000BB
:10056000002002402DE9FF5F254C0646904620788A
:100570009A4601280BD0012020704CF2503B58467F
:10058000FFF714FF07004FF0000904D02AE0022013
:1005900004B000F039B84846C4F80490194D2968F1
:1005A000490504D5286820F480602860022020775F
:1005B00026B1012E09D0022E07D00CE04246534648
:1005C0000198FFF7D5FE012612E041460198FFF79A
:1005D000DBFE022E0AD05846FFF7E8FE4FEA00077E
:1005E000FFF76EFE84F800903846D1E74FF480267E
:1005F0005846FFF7DBFE07466869B0436861EFE7DE
:100600002C0000200020024030BCBDE8C09F00004C
:10061000064900204A69002A07DA054A8A60054A25
:100620008A604969002900DA0120704700200240F1
:1006300023016745AB89EFCD2DE9F84FDFF898B17D
:1006400000234FF0010C4FF0030A4FF00F090BF19C
:10065000040EB9E00CFA03F4224070D04D68022D6C
:1006600001D0122D0ED1DD0800EB8508D8F82050FE
:100670005E07F70E09FA07F6B5430E69BE402E4332
:10068000C8F8206007685E0091F804800AFA06F551
:1006900008F00308AF4308FA06F848EA0708C0F86C
:1006A00000804F68012F05D0022F03D0112F01D0F9
:1006B000122F13D1D0F80880CF6828EA0508B74078
:1006C00047EA08078760D0F804800F7928EA040811
:1006D000C7F300179F4047EA08074760D1F8048036
:1006E0006FEA0807BF0706D1C76AA743C8F3C0046B
:1006F0009C403C43C462C468AC438D68B54025430C
:10070000C5604C68E4005ED5344C256E45F00105AB
:100710002566246E23F0030504F001040094304C98
:100720002E19B4689D072F0F09FA07F5AC43B0F1F5
:10073000904F05D02B4DA84204D101251CE042E08A
:10074000002519E0284DA84201D1022514E0274DCB
:10075000A84201D103250FE0254DA84201D104256F
:100760000AE0244DA84201D1052505E0224DA8420A
:1007700001D1062500E00725BD402543B560DBF823
:1007800000405D464E689443F60300D514432C6048
:10079000DEF8004075464E689443B60300D5144316
:1007A0002C600D4D08352C684E689443F60200D538
:1007B00014432C60084D0C352C684E689443B602E7
:1007C00000D514432C605B1C0A6832FA03F57FF4F1
:1007D00041AF00F013B800000004014000100240D7
:1007E000000001400004004800080048000C0048D8
:1007F00000100048001400480018004818BCBDE86C
:10080000E08F0AB1816170478162704701480068DA
:10081000704700002800002002480168491C016060
:100820007047000028000020094810B50168002426
:1008300041F480710160032000F084F8002000F092
:1008400009F808B1012401E000F01CF8204610BDB1
:100850000020024070B5054609484FF47A71002423
:100860000068B0FBF1F000F0DAFD08B1012404E00B
:1008700000222946501E00F045F8204670BD0000B9
:100880004C0000201E4808B5016E41F001010166D0
:10089000016E01F001010091816D41F0805181658F
:1008A000806D00F080500090032000F04BF8002293
:1008B00011466FF00B0000F025F8002211466FF092
:1008C0000A0000F01FF8002211466FF0090000F046
:1008D00019F800221146501F00F014F800221146AA
:1008E000101F00F00FF800221146901E00F00AF8C9
:1008F0000022BDE808401146501E00F003B8000079
:1009000000100240F0B40E4B1B680C46C3F30223E8
:10091000C3F10705042D00D90425191D072901D2AB
:10092000002300E0DB1E012606FA05F1491E2140E6
:1009300099409E40761E16403143F0BC00F0A0BEA8
:100940000CED00E0064900F0070208684FF6FF03CF
:10095000184040EA0220034A104308607047000034
:100960000CED00E00000FA051649B0F5007F0868BC
:10097000C0F3412009D0022805D0086820F4C060E7
:1009800040F480600860002070470128FBD00868B0
:1009900020F4C06040F4007008600B483222006808
:1009A00050430A4AB0FBF2F0401C00E0401E4A6986
:1009B000520501D50028F9D148694005E3D5032047
:1009C00070470000007000404C00002040420F00C3
:1009D0000248006800F4C0607047000000700040EA
:1009E0002DE9F84F044600270088E54D3E460105F5
:1009F00004F1200B1DD5606E78B1B0F5800F11D0D9
:100A0000B0F5000F04D0B0F5400F22D001270FE061
:100A1000E86840F48030E8601BE00021201D00F011
:100A200041FE03E00021584600F0D2FE070010D03E
:100A30003E462088C00426D5A06EC0B1B0F1807FAC
:100A40001AD0B0F1007F0DD0B0F1407F19D001274E
:100A500018E0D5F88800616E20F440000843C5F81E
:100A60008800E6E7E86840F48030E86009E00021AB
:100A7000201D00F017FE03E00021584600F0A8FEFC
:100A80000746F7B13E46206880033AD5A86D4FF07F
:100A90000008C00009D4A86D40F08050A865A86D7A
:100AA0004FF0010800F080500090DFF8D8A2DAF88B
:100AB000001041F48071CAF80010FFF7A7FE8146CC
:100AC00010E0D5F88800A16E20F040700843C5F80A
:100AD0008800D8E7FFF79AFEA0EB0900022801D9A9
:100AE000032705E0DAF80000C005F3D5002F7CD01D
:100AF0004FEA0706B8F1000F03D0A86D20F0805030
:100B0000A8652078C00707D0D5F88800A16B20F031
:100B100003000843C5F888002078800707D5D5F87A
:100B20008800E16B20F00C000843C5F888002078AD
:100B3000400707D5D5F88800216C20F03000084325
:100B4000C5F888002078000707D5D5F88800616CC3
:100B500020F0C0000843C5F888002078C00607D5FB
:100B6000D5F88800A16C20F440700843C5F88800CF
:100B70002078800607D5D5F88800E16C20F4406025
:100B80000843C5F888002088800507D5D5F8880077
:100B9000E16D20F440200843C5F888002088400516
:100BA00007D5D5F88800216E20F440100843C5F819
:100BB00088002078400607D5D5F88800216D20F4FC
:100BC00040500843C5F888002078000607D5D5F8BE
:100BD0008800616D20F440400843C5F888002088F3
:100BE000C00509D5D5F8880000E01CE0A16D20F40F
:100BF00040300843C5F8880020884FF00067800423
:100C00004FF080684FD5D5F88800E16E20F0406045
:100C10000843C5F88800E06EB8423CD1E86840F46B
:100C20008010E8603FE0D5F8900010F4407015D0D7
:100C3000D4F88410814211D0D5F89000D5F89010E6
:100C400020F4407041F48031C5F89010D5F8901030
:100C500021F48031C5F89010C5F89000C00710D07D
:100C6000FFF7D4FD074641F2883906E0FFF7CEFDD5
:100C7000C11B494501D903263CE7D5F89000800700
:100C8000F4D5D5F89000D4F8841020F440700843CF
:100C9000C5F890002EE7404505D10121201D00F048
:100CA00001FD00B106462068000317D5D5F888007D
:100CB000216F20F040600843C5F88800206FB842DB
:100CC00004D1E86840F48010E86007E0404505D1B1
:100CD0000121201D00F0E6FC00B10646206840031B
:100CE00017D5D5F88800616F20F040600843C5F83B
:100CF0008800606FB84204D1E86840F48010E86072
:100D000007E0404505D10121201D00F0CBFC00B1DA
:100D10000646208840041AD5D5F88800A16F20F037
:100D200040500843C5F88800A06FB0F1805F03D041
:100D3000B0F1005F05D00AE00221201D00F0B2FCF6
:100D400003E00221584600F043FD00B1064620882A
:100D5000000407D5D5F88800E16F20F080400843F3
:100D6000C5F888002068C00307D555F8880FD4F867
:100D7000801020F0004008432860304600F004B89E
:100D8000001002400070004018BCBDE8E08F000079
:100D90002DE9F0470F46050058D03F4E306800F06F
:100DA0000700B84209D2306820F0070038433060AD
:100DB000306800F00700B84248D12878374CC007A7
:100DC0002CD06868032811D0022812D0216898B16D
:100DD000490500293ADAA16821F003010143A16025
:100DE000FFF714FD804641F2883910E0216889013F
:100DF000EFE721688903ECE78907EAE7FFF706FDDB
:100E0000A0EB0801494502D90320BDE8F087A0689E
:100E1000696800F00C00B0EB810FEFD128788007F3
:100E200005D5A068A96820F0F0000843A0603068EC
:100E300000F00700B8420BD9306820F007003843B3
:100E40003060306800F00700B84201D00120DCE7D4
:100E50002878400705D5A068E96820F4E0600843D9
:100E6000A0602878000706D5A068296920F46050A2
:100E700040EAC100A06000F041F8A168084AC1F34F
:100E80000311515C01F01F01C84006490860BDE82C
:100E9000F0470020FFF7DEBC0020024000100240B7
:100EA000581F00084C0000200148006870470000EF
:100EB0004C0000200548064900688968054AC1F3CE
:100EC0000221515C01F01F01C84070474C00002016
:100ED00000100240981F000805480649006889680C
:100EE000054AC1F3C221515C01F01F01C84070479F
:100EF0004C00002000100240981F000870B52549E2
:100F0000002318468A68CC6812F00C0204F003062D
:100F1000214C4FEA640509D00C2A05D0042A26D0BA
:100F2000082A00D1284670BD012E10D10B681B077E
:100F300004D4D1F89430C3F3032302E00B68C3F365
:100F40000313164E56F823307AB10C2AEBD1C86839
:100F500000F00302C868C0F30210401C022A08D047
:100F6000032A09D0B3FBF0F008E0184670BD204614
:100F700070BDB4FBF0F001E0B5FBF0F0CA68C968E1
:100F8000C2F306225043C1F34161491C4900B0FB42
:100F9000F1F070BD001002400024F400681F00084A
:100FA0002DE9F84305007CD0FD4CA06800F00C064C
:100FB000E06800F003072878C00661D576B10C2EF2
:100FC00001D1012F0AD0A8690028206878D040F00C
:100FD00001002060FFF71AFC804659E02068800776
:100FE00002D5A8690028DED0286A2168090703D540
:100FF000216801F0F00104E0D4F89410F02202EA34
:101000001111884215D900F067FC002849D12068E9
:1010100040F0080020602068296A20F0F0000843B2
:1010200020606068E96920F47F4040EA0120606048
:1010300015E0206840F0080020602068296A20F050
:10104000F000084320606068E96920F47F4040EACE
:1010500001206060286A00F03FFC0028D6D1FFF72D
:101060004DFFA168CF4AC1F30311515C01F01F018C
:10107000C840CD4908600020FFF7ECFB00287DD177
:101080002FE000BFFFF7C2FBA0EB0800022876D8D4
:1010900020688007F6D5206840F0080020602068AE
:1010A00001E0BBE00CE0296A20F0F000084320607A
:1010B0006068E96920F47F4040EA0120606010E048
:1010C00020F001002060FFF7A1FB804606E000BF92
:1010D000FFF79CFBA0EB08000228D8D82068800707
:1010E000F6D42878C00740D0082E18D00C2E01D195
:1010F000032F14D06868B0F5803F17D0B0F5A02F4B
:10110000206817D020F480302060206820F48020F0
:1011100020606868E0B1FFF779FB804614E0206842
:10112000800322D56868002878D01EE0206840F44B
:101130008030EDE740F480202060F7E7FFF766FBA2
:10114000A0EB08006428A2D820688003F6D50CE044
:10115000FFF75CFB804605E0FFF758FBA0EB0800BB
:10116000642894D820688003F6D4287880073BD57B
:10117000042E11D00C2E04D1022F01E036E1A1E0A3
:101180000AD0E868002820681ED040F480702060F3
:10119000FFF73CFB07460CE0206840050CD5E868EB
:1011A0000028C1D008E000BFFFF730FBC01B0228B9
:1011B00093D820684005F7D56068297C20F0F85066
:1011C00040EA016060600FE020F480702060FFF76B
:1011D0001DFB074605E000BFFFF718FBC01B0228F8
:1011E00070D820684005F7D42878000729D56869A9
:1011F0000028D4F8940012D040F00100C4F8940004
:10120000FFF704FB074604E0FFF700FBC01B0228C2
:1012100058D8D4F894008007F6D512E0EDE020F01D
:101220000100C4F89400FFF7F1FA074605E000BF9B
:10123000FFF7ECFAC01B022844D8D4F894008007CA
:10124000F6D42878400768D5A06D0027C00008D4E0
:10125000A06D40F08050A065A06D012700F0805087
:10126000009052480168C90512D40168814641F4D2
:1012700080710160FFF7CAFA804605E0FFF7C6FA01
:10128000A0EB080002281DD8D9F80000C005F5D54C
:10129000A868012817D00528D4F8900018D020F0AD
:1012A0000100C4F89000D4F8900020F0040000BFC2
:1012B000C4F89000A86841F28839D0B1FFF7A6FAC7
:1012C000804611E06BE0D4F8900040F00100EFE7B9
:1012D00040F00400C4F89000F5E700BFFFF796FA6D
:1012E000A0EB080149455AD8D4F890008007F5D5FD
:1012F0000EE0FFF78BFA804606E000BFFFF786FAA4
:10130000A0EB0801494570D8D4F890008007F5D4C7
:101310001FB1A06D20F08050A065A86AF0B30C2E1C
:101320006BD00228206820F08070206004D02068F4
:1013300010F0205F47D04AE0FFF768FA064604E065
:10134000FFF764FA801B02284FD820688001F7D489
:10135000286BE96A000110380843696BAA6B09021F
:10136000120941EA42410843A98F114A490802EB98
:101370004151084395F840104908120102EB4161C0
:101380000843E060206840F080702060E06840F032
:101390008070E060FFF73AFA054610E02BE024E0A9
:1013A00000100240581F00084C0000200070004050
:1013B0000000E0FFFFF72AFA401B022815D820683A
:1013C0008001F7D517E0E06820F00300E060E068F6
:1013D0000B490840E060FFF719FA054608E000BF36
:1013E000FFF714FA401B022802D90320BDE8F88356
:1013F00020688001F4D40020F8E70120F6E700001F
:10140000FFFFEEFE4FF0E0210428086903D020F032
:1014100004000861704740F00400FAE7704710B517
:10142000401EB0F1807F01D3012010BD4FF0E024B9
:1014300060610F21601700F023F90020A0610720F0
:101440002061002010BD10B5FFF7E8FF10BD10B5FA
:10145000040003D094F8710010B107E0012010BD22
:10146000002084F87000204600F026F8242084F83C
:1014700071002068016821F001010160204600F040
:1014800089FB0128EBD0606A10B1204600F0F0FA29
:101490002068416821F4904141602068816821F012
:1014A0002A0181602068016841F001010160204645
:1014B000BDE8104000F040BB00B500680E4987B0A1
:1014C000884217D10D48816D41F400318165806DEE
:1014D000694600F4003005900C2000900220019035
:1014E0000020029003200390072004904FF09040CA
:1014F000FFF7A2F807B000BD004400400010024012
:10150000FEE700002DE9F0411D494FF4004008615D
:101510001C4D2846FEF784FF1B4C20601B48FEF73D
:101520007FFF2368C21A1A48521C6260006819497A
:101530005FEAC05C4FF4801009684FF6FF764FF009
:10154000006708D4B14201D00805800A07EB5000BB
:10155000A8420AD807E0B14201D00805800A07EB8B
:101560005000A84201D9022000E001200A49A060F1
:1015700000240C60CA60C1E90103BDE8F0810000ED
:10158000002002400080000810000020FFFF070834
:1015900000000140E075FF1FC800002030B5204862
:1015A00087B0C16C41F00401C164C16C01F0040159
:1015B0000591C16C41F08001C164C16C01F08001F2
:1015C0000591C16C41F00101C164C16C01F00101E0
:1015D0000591C16C41F00201C164C06C4FF09045AF
:1015E00000F002000590002220212846FFF709F9AB
:1015F0004FF4005000900B480024CDE901046946E7
:101600000948FFF719F8202000900120CDE90104D6
:10161000694628460394FFF70FF807B030BD000075
:101620000010024000002110000800480E4810B5CC
:101630000C4901604FF4E1314160002181600C22CE
:10164000C160C0E904128161C16101624162FFF7BA
:10165000FEFE002805D0BDE81040442103A000F0A4
:1016600039BC10BD00440040500000202E2E2F53E6
:1016700072632F75736172742E630000FEE770470A
:101680000907090E002806DA00F00F0000F1E0203B
:1016900080F8141D704700F1E02080F800147047B6
:1016A000704700002DE9F041444C05468846E0684B
:1016B0000026810728680DD0E16801F0030181420E
:1016C00016D1A8B1E0686968C0F30210401C8842D6
:1016D0000ED120E0012804D0022805D0032807D12C
:1016E00008E02168890701E021684905002907DB36
:1016F00001265FE02168890302D421684903F5E7E8
:10170000E1686A686FF00F0321F0730103EB0212C6
:1017100011430143E160206820F080602060FFF702
:1017200075F8074605E000BFFFF770F8C01B0228F8
:1017300037D820680001F7D4B8F1000F18D0B8F1FD
:10174000010F1ED0287D4FF07E41400801EB406024
:10175000A96840EA01202169194A11400843206123
:10176000206840F080602060FFF750F807461AE0DC
:10177000A868E9680002090940EA41402169114A64
:10178000EBE7288A1049400801EB4050A96840EA7D
:10179000012021690D4AE0E7FFF738F8C01B022855
:1017A00001D9032606E020680001F5D52069A96962
:1017B000084320613046BDE8F0810000001002407F
:1017C000FF80FFF9FF80FDFF0000E0FFFF809FFF2B
:1017D0002DE9F0413D4C06468846E068002581072A
:1017E00030680DD0E16801F00301814216D1A8B143
:1017F000E0687168C0F30210401C88420ED120E0FE
:10180000012804D0022805D0032807D108E0216868
:10181000890701E021684905002907DB012551E01E
:101820002168890302D421684903F5E7E1687268F9
:101830006FF00F0321F0730103EB02121143014318
:10184000E160206820F080502060FEF7DFFF07464F
:1018500005E000BFFEF7DAFFC01B022829D8206888
:101860008000F7D4B8F1000F15D0307C4FF07E41E6
:10187000400801EB4060B16840EA01206169144A08
:10188000114008436061206840F080502060FEF7FE
:10189000BDFF07460FE0B068F1680002090940EAA1
:1018A000414061690B4AEBE7FEF7B0FFC01B02281D
:1018B00001D9032506E020688000F5D560697169CB
:1018C000084360612846BDE8F08100000010024036
:1018D000FF80FFF9FF80FDFFF8B51C4D0646002490
:1018E000A86DC00002D5FFF773F80DE0A86D40F0B9
:1018F0008050A865A86D00F080500090FFF768F850
:10190000A96D21F08051A965B0F5007F04D0802E2B
:1019100007D94FF003040AE0802E08D9A02E01D881
:1019200004E001D1022402E0702E00D10124084815
:10193000016821F0070121430160006800F0070001
:10194000A04201D00120F8BD0020F8BD00100240E7
:101950000020024010B50D4C002262610C4A08E0E4
:101960000368236123698B4202D063695B1C636156
:10197000001D9042F4D3606928B9012220214FF064
:101980009040FEF73EFF606910BD0000100000208F
:10199000FFFF0708704710B5FEF73EFFBDE8104097
:1019A000FFF751BD30B5B9B00224E00125901020F9
:1019B000229426902C940120CDE92D400A202F90CE
:1019C0000720CDE9300422A83294FFF7E9FA00B1EC
:1019D000FEE70F20002533900320CDE9340536952E
:1019E000042133A83795FFF7D3F900B1FEE70F952F
:1019F00068460094FEF7F4FF00B1FEE74FF4007074
:101A0000FEF7B2FF00B1FEE7FFF74EFA4FF47A712E
:101A1000B0FBF1F0FFF703FD0420FFF7F3FC002219
:101A20001146501EFEF76EFF39B030BD0D480168FB
:101A300041F4700101600C48016841F0010101604E
:101A4000002181600268094B1A4002608214C26062
:101A5000026822F48022026081610249C003803959
:101A60000860704788ED00E000100240FFFFF6EAD2
:101A700090F82410C90706D001684A68836A22F4E6
:101A800000321A434A6090F82410890706D501688D
:101A90004A68C36A22F480321A434A6090F82410DC
:101AA000490706D501684A68036B22F480221A436D
:101AB0004A6090F82410090706D501684A68436B0C
:101AC00022F400421A434A6090F82410C90606D551
:101AD00001688A68836B22F480521A438A6090F806
:101AE0002410890606D501688A68C36B22F4005267
:101AF0001A438A6090F82410490611D501684A6893
:101B0000036C22F480121A434A60016CB1F5801F05
:101B100006D101684A68436C22F4C0021A434A6045
:101B200090F82410090606D501684A68806C22F4F2
:101B3000002202434A607047F8B500260446466713
:101B4000FEF764FE0546206800686FF07E470007D8
:101B500008D52B4600224FF400112046009700F0D4
:101B600069F960B92068006840070AD52B46002251
:101B70004FF480012046009700F05CF908B1032083
:101B8000F8BD202084F8710084F8720084F8706039
:101B90000020F8BD2DE9F041044601688068236902
:101BA000E669184363691025002733431843954AB3
:101BB0000B68954E334003430B6020684168E3682F
:101BC00021F44051194341602168A069914201D03C
:101BD000236A18438B6823F4306303438B608B4B79
:101BE00021688B4899420DD1D0F8880010F003008D
:101BF00006D001285AD0022856D0032859D157E0E0
:101C0000012556E0834B99420BD1D0F8880010F0A3
:101C10000C0047D0042849D0082845D00C2848D1CA
:101C200046E07D4B99420BD1D0F8880010F030008F
:101C300038D010283AD0202836D0302839D137E093
:101C4000764B99420BD1D0F8880010F0C00029D013
:101C500040282BD0802827D0C0282AD128E0704BDC
:101C600099420ED1D0F8880010F440701AD0B0F527
:101C7000807F1BD0B0F5007F16D0B0F5407F18D123
:101C800016E0914215D1D0F8880010F4406009D0D8
:101C9000B0F5806F0AD0B0F5006F05D0B0F5406F99
:101CA00007D105E0002504E0022502E0042500E05C
:101CB00008255C4B00264FF4004091423DD135B1E0
:101CC000022D07D0042D07D0082D10D107E0FFF713
:101CD000F1F803E0184602E0FFF710F9A8B36268D4
:101CE00002EB4201814202D8B0EB023F01D9012749
:101CF00075E0DFF834815DB1022D0CD0042D13D0D6
:101D0000082DF4D150082905401846F1000105E0DE
:101D1000FFF7D0F80AE050084449F5E70023FEF742
:101D20004FFAA0F5407156E0FFF7E8F86268010E3F
:101D30000302500818187141F0E7E1694FF6EF7897
:101D400081422FD1092DD2D200E048E0DFE805F032
:101D500006092005230505052600C8E7FFF7AAF8B0
:101D600001E0FFF7B9F84100D4F8040001EB50019D
:101D7000B1FBF0F080B2A0F110014145B7D84FF6A9
:101D8000F0710140C0F3420001432068C16026E0C9
:101D900027496068EAE7FFF7B1F8E4E74FF48031DC
:101DA0006068E3E7092DA2D2DFE805F006091E0509
:101DB0002205050525009AE7FFF77CF801E0FFF70B
:101DC0008BF80146606801EB500100BFB1FBF0F0F9
:101DD00080B2A0F11001414589D82168C86026660B
:101DE00038466666BDE8F081606803EB5001EDE7B8
:101DF000FFF784F8E5E7616800EB5100B0FBF1F014
:101E0000E6E7000000800040F369FFEF0038014082
:101E1000001002400044004000480040004C0040D8
:101E2000005000400024F400FFFC0F00000024F4E8
:101E30000048E8012DE9F041984617460E46044651
:101E4000069D1DE0681C1BD02DB1FEF7DFFCA0EB4A
:101E50000800A84214D92068016821F4D0710160FB
:101E60002068816821F001018160202084F87100E0
:101E700084F87200002084F870000320BDE8F0812F
:101E80002068C06936EA000004D00020B842D9D0EA
:101E90000020F3E70120F9E7FEE72DE9F0411646BF
:101EA00098460446069FFFF72DFB0025FEF7B0FB82
:101EB00007E03246434621460020FEF753FB38B187
:101EC0006D1CBC42F5D3FEF743FB2846BDE8F0810C
:101ED0000834F6E7FEE702E008C8121F08C1002A2E
:101EE000FAD170477047002001E001C1121F002A9B
:101EF000FBD1704738B51546DDE90423044600914F
:101F0000FFF7CBFF29462046BDE83840FFF722BD4A
:101F10001CB5FEF789FCFFF745FDFFF73FFBFFF718
:101F200085FBFEF7B5F9084CC4E9020107480849EA
:101F3000CDE9000002460748FFF7DCFF606020782B
:101F4000401C2070FBE7000000000020A5555AAAA5
:101F5000FFFF0708008000080000000000000000EC
:101F60000102030406070809A0860100400D0300D2
:101F7000801A060000350C0040420F0080841E00CD
:101F800000093D0000127A000024F40000366E01C2
:101F90000048E801006CDC020000000001020304BC
:101FA000C01F00080000002050000000D61E0008DE
:101FB000102000085000002088040000E61E0008E1
:101FC0000000000000000000000000000000000011
:101FD0000000000000000000000000000000000001
:101FE00000000000000000000000000000000000F1
:101FF00000000000000000000000000001000000E0
:1020000000000000000000000000000000093D008A
:040000050800018965
:00000001FF
