:020000040800F2
:100000000080012015290008B9280008BB28000835
:10001000BD280008BF280008C12800080000000013
:10002000000000000000000000000000C3280008DD
:10003000C528000800000000C7280008C9280008DB
:100040006529000865290008652900086529000858
:100050006529000865290008652900086529000848
:100060006529000865290008652900086529000838
:100070006529000865290008652900086529000828
:100080006529000865290008652900086529000818
:100090006529000865290008652900086529000808
:1000A00065290008652900086529000865290008F8
:1000B00065290008652900086529000865290008E8
:1000C00065290008652900086529000865290008D8
:1000D00065290008652900086529000865290008C8
:1000E00065290008652900086529000865290008B8
:1000F00065290008652900086529000865290008A8
:100100006529000865290008652900086529000897
:100110006529000865290008652900086529000887
:100120006529000865290008652900086529000877
:100130006529000865290008652900086529000867
:100140006529000865290008652900086529000857
:100150006529000865290008652900086529000847
:100160006529000865290008652900086529000837
:1001700065290008652900086529000800000000BD
:0801800065290008652900084B
:1001880010B5054C237833B9044B13B10448AFF3C9
:1001980000800123237010BD24000020000000000F
:1001A800C029000808B5034B1BB103490348AFF346
:1001B800008008BD0000000028000020C0290008B9
:1001C80053B94AB9002908BF00281CBF4FF0FF31B6
:1001D8004FF0FF3000F07AB9ADF1080C6DE904CEAC
:1001E80000F006F8DDF804E0DDE9022304B070470A
:1001F8002DE9F0478C460D460446089E002B51D148
:100208008A4217466DD9B2FA82FEBEF1000F0BD0B2
:10021800CEF1200C01FA0EF520FA0CFC02FA0EF7CA
:100228004CEA050C00FA0EF44FEA174A250CBCFB01
:10023800FAF81FFA87F90AFB18CC45EA0C4508FBBF
:1002480009F3AB420AD9ED1908F1FF3280F0238196
:10025800AB4240F22081A8F102083D44ED1AA4B255
:10026800B5FBFAF00AFB105544EA054400FB09F90E
:10027800A14509D9E41900F1FF3380F00A81A145AD
:1002880040F2078102383C44A4EB090440EA0840E4
:100298000021002E61D024FA0EF40023346073602C
:1002A800BDE8F0878B4207D9002E54D0002186E89C
:1002B80021000846BDE8F087B3FA83F1002940F031
:1002C8008E80AB4202D3824200F2FA80841A65EB38
:1002D80003050120AC46002E3FD086E81010BDE88B
:1002E800F08712B90127B7FBF2F7B7FA87FEBEF11C
:1002F800000F34D1EB1B3A0C1FFA87FC0121B3FB2A
:10030800F2F8250C02FB183345EA03450CFB08F309
:10031800AB4207D9ED1908F1FF3002D2AB4200F227
:10032800D1808046ED1AA3B2B5FBF2F002FB10555E
:1003380043EA05440CFB00FCA44507D9E41900F185
:10034800FF3302D2A44500F2B8801846A4EB0C048F
:1003580040EA08409DE731463046BDE8F087CEF1D7
:10036800200405FA0EF307FA0EF720FA04F83A0CFF
:1003780025FA04F448EA0308B4FBF2F14FEA1845F9
:1003880002FB11441FFA87FC45EA044501FB0CF304
:10039800AB4200FA0EF409D9ED1901F1FF3080F0F3
:1003A8008A80AB4240F2878002393D44EB1A1FFA3B
:1003B80088F5B3FBF2F002FB103345EA034500FB76
:1003C8000CF3AB4207D9ED1900F1FF386FD2AB42FD
:1003D8006DD902383D44EB1A40EA01418FE7C1F17B
:1003E800200722FA07F88B4005FA01F448EA0303CC
:1003F80020FA07FE4FEA134CFD404EEA040EB5FB07
:10040800FCF94FEA1E440CFB19551FFA83F844EA1D
:10041800054509FB08F4AC4202FA01F200FA01FAB8
:1004280008D9ED1809F1FF3043D2AC4241D9A9F1FE
:1004380002091D442D1B1FFA8EFEB5FBFCF00CFBB8
:1004480010554EEA054400FB08F8A04507D9E41802
:1004580000F1FF3529D2A04527D902381C4440EACB
:100468000940A4EB0804A0FB02894C45C6464D464A
:1004780015D312D056B1BAEB0E0364EB050404FA97
:1004880007F7CB401F43CC40376074600021BDE8BC
:10049800F0871846F8E69046E0E6C245EAD2B8EB9F
:1004A800020E69EB03050138E4E72846D7E7404622
:1004B80091E78146BEE7014678E702383C4445E7C4
:1004C800084608E7A8F102083D442BE7704700BF3B
:1004D80038B50A4B054618684FF47A73B0FBF3F049
:1004E80000F078F8044638B9024629464FF0FF3044
:1004F80000F03CF8204638BD012038BD200000201F
:10050800094A136843F4807310B50320136000F0A0
:100518001BF80020FFF7DCFF044618B902F048F981
:10052800204610BD0124FBE700200240024A136860
:1005380001331360704700BF40000020014B18686A
:10054800704700BF40000020074AD36823F4E063E7
:100558001B041B0C43F0BF63000243F4003300F498
:10056800E0600343D360704700ED00E0174B30B5FF
:10057800DC68C4F30224C4F10703251D042B28BF3B
:100588000423062D4FF0010505FA03F303F1FF33A9
:100598008CBF033C00241940A14005FA04F4013C37
:1005A8002240002842EA01024FEA0212AFBF00F1DE
:1005B800604000F00F00064BD2B2A5BF00F56140C5
:1005C800D2B21A5480F8002330BD00BF00ED00E01D
:1005D80014ED00E00138B0F1807F0AD2064B074ADB
:1005E8005860F02182F823100020072298601A60D2
:1005F80070470120704700BF10E000E000ED00E008
:100608002DE9F04F85B00B68DFF8A881674C01939E
:100618000023019ADA4002D105B0BDE8F08F012627
:10062800019A9E4012EA060E00F0B1804A6822F054
:100638001007022F16D14FEAD30900EB890903F0FE
:10064800070AD9F820504FEA8A0A4FF00F0C0CFA23
:100658000AFC25EA0C0C0D6905FA0AF545EA0C05B1
:10066800C9F820504FEA430C0325D0F800B005FA2A
:100678000CF5ED4302F0030A0BEA050B0AFA0CF934
:10068800013F49EA0B09012FC0F8009011D887688B
:1006980005EA0709CF6807FA0CF747EA09078760F0
:1006A800476827EA0609C2F300179F4047EA090787
:1006B8004760BAF1030F07D1C76A27EA0606C2F3F3
:1006C800C0079F403E43C662C66835408E6806FA3A
:1006D8000CF63543C560D50059D5D8F8605045F0BB
:1006E8000105C8F86050D8F8605023F0030606F1F9
:1006F800804605F0010506F58036039503F0030CE6
:10070800039DB5684FEA8C0C0F2707FA0CF7B0F178
:10071800904F25EA07073CD0254DA8423BD005F568
:100728008065A84239D005F58065A84237D005F51F
:100738008065A84235D005F58065A84233D005F517
:100748008065A84214BF0725062505FA0CF53D4328
:10075800B56025686FEA0E06D70354BF35404EEAE8
:10076800050525606568970354BF35404EEA0505C1
:100778006560A568D70254BF35404EEA0505A560F7
:10078800E568920254BF35404EEA0505E56001333D
:100798003FE70025D9E70125D7E70225D5E7032557
:1007A800D3E70425D1E70525CFE700BF00040140C2
:1007B80000040048001002400AB18161704781625C
:1007C800704703689A69910744BF00229A629A6940
:1007D800D2075EBF9A6942F001029A61704730B54C
:1007E800039C05682343640D04F4806444F07F741B
:1007F80044F458346868C1F3090144F47F74194318
:1008080044F0030441EA024120EA040421436960F8
:1008180030BD2DE9F041069F0446884616461D4620
:100828002268936938EA03030CBF01230023B3420B
:1008380002D00020BDE8F0816B1CF2D0FFF77EFEED
:10084800C01B854201D3002DEAD1636C43F020031D
:100858006364202384F84130002384F8423084F80C
:1008680040300120BDE8F081036870B504469869FE
:1008780010F010000D46164616D170BD691C14D034
:10088800FFF75CFE801B854200D36DB9636C43F0B3
:1008980020036364202384F84130002384F8423025
:1008A80084F84030012070BD236899698A06E5D52F
:1008B80010222025DA612046DD61FFF782FF2268D9
:1008C800536823F0FF7323F48B3323F4FF7323F06F
:1008D80001035360636C43F00403636484F841507C
:1008E800DBE770B504460D46164623689B699B07EF
:1008F80001D5002070BD324629462046FFF7B4FFD7
:10090800A0B96A1CF1D0FFF719FE801B854201D3FC
:10091800002DEAD1636C43F020036364202384F83C
:100928004130002384F8423084F84030012070BD03
:10093800F7B5099E1F46164B0093054614464FF01F
:100948008073FAB2FFF74BFF324608992846FFF743
:10095800C8FF10B1012003B0F0BD012F2B680CD1E6
:10096800E4B29C62089B0096002280212846FFF78B
:1009780050FF003018BF0120EDE7220A9A6208995B
:1009880032462846FFF7ADFF0028E3D12B68E7E79A
:1009980000200080F7B5099E1F46164B00930546B8
:1009A80014460023FAB2FFF71AFF32460899284680
:1009B800FFF797FF10B1012003B0F0BD012F2B689E
:1009C8000CD1E4B29C62089B009600224021284684
:1009D800FFF71FFF003018BF0120EDE7220A9A62D7
:1009E800089932462846FFF77CFF0028E3D12B6898
:1009F800E7E700BF0020008070B504460D461646A4
:100A080023689B699B0601D5002070BD32462946A4
:100A18002046FFF729FF90B9FFF790FD801B85421C
:100A280001D3002DECD1636C43F0200363642023D1
:100A380084F84130002384F8423084F840300120A3
:100A480070BD10B5044600284AD090F8413003F034
:100A5800FF021BB980F8402001F0C2FE242384F86D
:100A680041302368E1681A6822F001021A6062685E
:100A780022F070621A619A68012922F400429A6091
:100A8800A26824D142F400429A605A68616942F02F
:100A9800007242F400425A60DA6822F40042DA60D6
:100AA80022690A43A16942EA0122DA60216AE269FD
:100AB8000A431A601A6842F001021A6000202023D3
:100AC800606484F84130206384F8420010BD42F429
:100AD800044202299A6004BF4FF400625A60D4E7C6
:100AE800012010BD2DE9F04F9B4690F8413085B0AC
:100AF800202B04460F460392BDF83CA0DDF8408049
:100B080040F0A5800E9B13B1BAF1000F06D14FF447
:100B180000736364012005B0BDE8F08F90F84030A1
:100B2800012B00F09480012580F84050FFF706FD66
:100B38001923009006462A464FF400412046FFF745
:100B480068FE81460028E5D1212384F841304023FE
:100B580084F842300E9B606463626063A4F82AA044
:100B68000196CDF800805B46039A39462046FFF788
:100B7800DFFE10B184F84090CCE7638D9BB2FF2B69
:100B880055D9FF22228500904FF0807339462046C0
:100B9800FFF725FE324641462046FFF7A2FE002811
:100BA800B8D1636A226813F8011B91626362638D8E
:100BB800228D013B9BB26385638D013A92B29BB251
:100BC8002285ABB1A2B90096434680212046FFF7A3
:100BD80020FE00289ED1638D9BB2FF2B2FD9FF22C8
:100BE800228500904FF0807339462046FFF7F7FDC5
:100BF800638D9BB2002BCDD1324641462046FFF78C
:100C0800FBFE002886D123682021D9615A6822F08A
:100C1800FF7222F48B3222F4FF7222F001025A6032
:100C280084F8411084F8400084F8420073E7628D2C
:100C3800009092B222854FF00073D2B2A6E7628D7F
:100C4800009092B222854FF00073D2B2CCE7022016
:100C580061E700002DE9F04F9B4690F8413085B0E0
:100C6800202B04460F460392BDF83CA0DDF84080D7
:100C780040F0A9800E9B13B1BAF1000F06D14FF4D2
:100C880000736364012005B0BDE8F08F90F8403030
:100C9800012B00F09880012580F84050FFF74EFCAA
:100CA8001923009006462A464FF400412046FFF7D4
:100CB800B0FD81460028E5D1222384F84130402345
:100CC80084F842300E9B606463626063A4F82AA0D3
:100CD8000196CDF800805B46039A39462046FFF717
:100CE80059FE10B184F84090CCE7638D9BB2FF2B7E
:100CF800364B58D9FF22009322854FF0807339462E
:100D08002046FFF76CFD009643460022042120464A
:100D1800FFF77FFD0028B5D12268636A526A1A700E
:100D2800636A228D01336362638D013B9BB26385E5
:100D3800638D013A92B29BB22285ABB1A2B90096FB
:100D4800434680212046FFF764FD00289AD1638D31
:100D58009BB2FF2B2FD9FF22228500904FF0807382
:100D680039462046FFF73BFD638D9BB2002BCAD165
:100D7800324641462046FFF73FFE002882D12368CD
:100D88002021D9615A6822F0FF7222F48B3222F4B2
:100D9800FF7222F001025A6084F8411084F8400082
:100DA80084F842006FE7628D009392B222854FF07B
:100DB8000073D2B2A3E7628D009092B222854FF001
:100DC8000073D2B2CCE702205DE700BF00240080A8
:100DD80090F84120D2B2202A10B51DD190F84030A9
:100DE800012B19D0242380F8413003681C6824F0B3
:100DF80001041C601C6824F480541C601C68214396
:100E08001960196841F001011960002380F8412038
:100E180080F84030184610BD022010BD10B590F87B
:100E28004140E4B2202C1CD190F84030012B18D05E
:100E3800242380F8413003681A6822F001021A60FE
:100E48001A6822F4706242EA012119601A6842F0B5
:100E580001021A60002380F8414080F840301846AB
:100E680010BD022010BD0000024B186800F4C060DD
:100E7800704700BF00700040174B1A68B0F5007F3C
:100E880002F4C0621CD1B2F5007F15D01A6822F4B2
:100E9800C06242F400721A60104A116832224A4352
:100EA8000F49B2FBF1F2194601325869400500D5E5
:100EB80022B94B695B050DD400207047013AF4E76D
:100EC800B2F5806F1FBF1A6822F4C06242F48062D4
:100ED8001A60F1E7032070470070004020000020EE
:100EE80040420F0037B51E4DAB6DDA00044618D5E9
:100EF800FFF7BAFFB0F5007F23D1802C29D9A02CA9
:100F08008CBF02200120174A136823F0070303430C
:100F18001360136803F00703181A18BF012003B001
:100F280030BDAB6D43F08053AB65AB6D03F08053C0
:100F38000193019BFFF798FFAB6D23F08053AB65DE
:100F4800D8E7802C07D808D0A4F17003584258413C
:100F5800D9E70020D7E70320D5E70220D3E700BF71
:100F68000010024000200240254B9A68D96812F010
:100F78000C0205D00C2A15D101F00301012918D162
:100F880019682048090755BFD3F894101968C1F3A8
:100F98000321C1F3031150F8210082B30C2A09D0B0
:100FA80000207047042A29D0082A174818BF0020B3
:100FB80070470020D968DA6801F00301C2F3021211
:100FC800022902F1010205D0032912D0D968C1F320
:100FD800062103E0D9680D48C1F30621DB68B0FBA0
:100FE800F2F0C3F34163013348435B00B0FBF3F015
:100FF8007047D9680448C1F30621EFE703487047F2
:1010080000100240042A000800127A000024F400AC
:101018002DE9F743054618B9012003B0BDE8F08370
:10102800A54C0368A668E768DB0606F00C0607F01F
:1010380003073CD51EB10C2E63D1012F61D1236863
:10104800980702D5AB69002BE6D02368286A1907F0
:1010580056BFD4F8943023681B0903F0F003834289
:101068003AD2FFF73FFF0028D6D1236843F00803A0
:10107800236023682A6A23F0F0031343236063681C
:10108800EA6923F47F4343EA02236360FFF76CFFB6
:10109800A3688A4AC3F30313D35C03F01F03D84041
:1010A800874B18600020FFF713FA0028B5D12B688A
:1010B800D8075DD42B68990700F19C802B68180726
:1010C80000F1D0802B68590700F1FC80AB6A002B37
:1010D80040F065810020A0E7236843F008032360FF
:1010E800236823F0F003034323606368EA6923F469
:1010F8007F4343EA02236360FFF7F4FE0028C5D06C
:101108008AE7AB691BB3236843F001032360FFF749
:1011180015FA804623689A0711D5236843F0080317
:10112800236023682A6A23F0F0031343236063686B
:10113800EA6923F47F4343EA02236360B7E7FFF7D2
:10114800FDF9A0EB08000228E4D9032065E723682D
:1011580023F001032360FFF7F1F9804623689B071A
:10116800A5D5FFF7EBF9A0EB08000228F6D9ECE7C4
:10117800082E03D00C2E08D1032F06D123689A031A
:1011880098D56B68002B95D146E76B68B3F5803F1F
:1011980010D1236843F480332360FFF7CFF98046EA
:1011A80023689B0386D4FFF7C9F9A0EB08006428DD
:1011B800F6D9CAE7B3F5A02F04D1236843F48023F6
:1011C8002360E6E7226822F480322260226822F453
:1011D80080222260002BE0D1FFF7B0F98046236817
:1011E80098037FF567AFFFF7A9F9A0EB080064281B
:1011F800F5D9AAE7042E03D00C2E10D1022F0ED158
:101208002368590503D5EB68002B3FF405AF6368E5
:101218002A6923F0F85343EA026363604EE7EB68F8
:101228007BB1236843F480732360FFF787F907468F
:1012380023685A05EBD4FFF781F9C01B0228F7D9B8
:1012480083E7236823F480732360FFF777F9074661
:1012580023685B057FF532AFFFF770F9C01B0228E2
:10126800F6D972E76B699BB1D4F8943043F0010367
:10127800C4F89430FFF762F90746D4F894309A0717
:101288003FF520AFFFF75AF9C01B0228F5D95CE7F4
:10129800D4F8943023F00103C4F89430FFF74EF9E2
:1012A8000746D4F894309B077FF50CAFFFF746F953
:1012B800C01B0228F5D948E700100240E9290008B8
:1012C80020000020A36DD80029D4A36D43F08053DB
:1012D800A365A36D03F080530193019B4FF00108B0
:1012E8005D4F3B68D9051DD5AB68012B2BD1D4F8D0
:1012F800903043F00103C4F89030FFF71FF941F232
:1013080088390746D4F890309B0742D5B8F1000FCA
:101318003FF4DCAEA36D23F08053A365D6E64FF00F
:101328000008DDE73B6843F480733B60FFF706F98C
:1013380081463B68DA05D7D4FFF700F9A0EB09002E
:101348000228F6D901E7052B06D1D4F8903043F0EE
:101358000403C4F89030CAE7D4F8902022F00102C0
:10136800C4F89020D4F8902022F00402C4F8902009
:10137800002BC2D1FFF7E2F841F288390746D4F8CA
:1013880090309807C2D5FFF7D9F8C01B4845F6D961
:10139800DBE6FFF7D3F8C01B4845B3D9D5E60C2EDA
:1013A8003FF43AAE022B236823F08073236037D1D1
:1013B800FFF7C4F80646236899012BD46A6BEB6AD9
:1013C80043EA02232A6B013A43EA0213AA6B120981
:1013D80043EA4243EA6B5208013A43EA42532A6C11
:1013E8005208013A43EA4263E360236843F080739A
:1013F8002360E36843F08073E360FFF79FF80546D6
:1014080023689A013FF566AEFFF798F8401B02285B
:10141800F6D99AE6FFF792F8801B0228CBD994E612
:10142800236813F0205F02BFE36823F00303E3603F
:10143800E36823F0887323F48033E360FFF77EF8D2
:10144800054623689B017FF545AEFFF777F8401BFB
:101458000228F6D979E600BF007000402DE9F04176
:101468000E46044610B90120BDE8F081404A1368D1
:1014780003F007038B4229D32368D90731D42168A5
:101488008A075BD43A4A136803F007039E425DD388
:1014980011F0040F374D64D10B0706D5AB682269EC
:1014A80023F4605343EAC203AB60FFF75DFDAB680A
:1014B800314AC3F30313BDE8F041D35C03F01F03C3
:1014C800D8402E4B18600020FFF702B8136823F0AD
:1014D80007030B431360136803F007039942C2D153
:1014E800CAE76268234D032A2B681BD113F0007FDB
:1014F800B9D0AB6823F003031343AB60FFF71EF8C2
:1015080041F288380746AB68626803F00C03B3EB16
:10151800820FB4D0FFF712F8C01B4045F3D903205F
:10152800BDE8F081022A02D113F4003FE0E712B9C6
:1015380013F0020FDCE713F4806FD9E70D4AA068B7
:10154800936823F0F003034393609BE7136823F049
:10155800070333431360136803F007039E4282D1E5
:1015680096E7AB68E26823F4E0631343AB6093E764
:101578000020024000100240E92900082000002055
:10158800054B064A9B68C3F30223D35C044A1068E0
:1015980003F01F03D840704700100240F9290008E3
:1015A80020000020054B064A9B68C3F3C223D35C86
:1015B800044A106803F01F03D84070470010024027
:1015C800F929000820000020F8B5454BDA6812F028
:1015D800030F05460E461C4600682AD0DA6802F05A
:1015E800030282423CD1002A3AD0DB686A68C3F31E
:1015F80002130133934233D1236823F080632360BD
:10160800FEF79CFF074623681A0132D4AF68002E04
:1016180036D0012E50D12269286922F4C002400830
:1016280022F4FE42013842EA072242EA405222618D
:1016380032E0022810D0032814D0012810D11B68EA
:101648009F0738D5E3686A6823F07303013A1843A3
:1016580040EA0210E060CFE71B6813F4806FF1D115
:101668000120F8BD1A689103ECD41B6813F4802F8D
:10167800F5E7FEF763FFC01B0228C4D90320F8BDB5
:101688002169EB6821F41F3121F4407141EA0721F7
:101698001B0941EA43412161236843F080632360C9
:1016A800FEF74CFF064623681B0113D52369AA6978
:1016B800134323610020F8BD2369686923F0C063E0
:1016C800400823F4FE43013843EA072343EA406312
:1016D8002361E1E7FEF732FF801B0228E3D9CDE75B
:1016E80000100240F8B53D4BDA6812F0030F0546CA
:1016F8000E461C46006828D0DA6802F003028242CF
:101708003AD1002A38D0DB686A68C3F30213013380
:10171800934231D1236823F080532360FEF70EFFF4
:10172800074623689A0030D4A868002E34D063692D
:10173800296923F0C063490823F4FE43013943EAC9
:10174800002343EA4163636132E0022810D0032892
:1017580014D0012810D11B689F0738D5E3686A6840
:1017680023F07303013A184340EA0210E060D1E71E
:101778001B6813F4806FF1D10120F8BD1A6891033A
:10178800ECD41B6813F4802FF5E7FEF7D7FEC01BD7
:101798000228C6D90320F8BD6269EB6822F41F321B
:1017A80022F4407242EA00221B0942EA4342626183
:1017B800236843F080532360FEF7C0FE0646236883
:1017C8009B0005D563696A69134363610020F8BD0E
:1017D800FEF7B4FE801B0228F1D9DBE700100240B7
:1017E8002DE9F347066816F40066044624D0416ED6
:1017F800B1F5800F2CD002D8C1B101261CE0B1F59B
:10180800000F0DD0B1F5400FF7D14D4A616ED2F8F7
:10181800883023F440030B43C2F8883000260BE0DD
:10182800474AD36843F48033D360EEE70430FFF7C8
:10183800CBFE06460028E8D02368D80406D5A16E5A
:10184800B1F1807F74D008D8A9B10126354621E0CE
:1018580000212030FFF746FFEBE7B1F1007F04D00D
:10186800B1F1407FF1D1354609E0354AD36843F4F8
:101878008033D360F7E7201DFFF7A6FE0546002D4D
:101888005CD12F4AA16ED2F8883023F040730B4305
:10189800C2F888302368990340F14F81284FBB6D07
:1018A800DA0040F176814FF00008DFF89890D9F817
:1018B800003043F48073C9F80030FEF73FFE8246DB
:1018C800D9F80030DB053FD5002D44D1D7F890304A
:1018D80013F4407315D0D4F88420934211D0D7F86C
:1018E8009030D7F8902042F48032C7F89020D7F88B
:1018F800902023F4407322F48032C7F89020C7F870
:101908009030D80709D5FEF719FE41F28839054607
:10191800D7F89030990740F10981D7F89030D4F87A
:10192800842023F440731343C7F89030354612E0FF
:10193800002104F12000FFF7D5FE9FE72E46A9E716
:101948000010024000700040FEF7F8FDA0EB0A000E
:101958000228B5D90325B8F1000F03D0BB6D23F0D9
:101968008053BB652368DA0708D59049A06BD1F886
:10197800882022F003020243C1F888209F0708D577
:101988008A49E06BD1F8882022F00C020243C1F8A2
:1019980088205E0708D58549206CD1F8882022F078
:1019A80030020243C1F88820180708D57F49606CC7
:1019B800D1F8882022F0C0020243C1F88820D90655
:1019C80008D57A49A06CD1F8882022F440720243E5
:1019D800C1F888209A0608D57449E06CD1F88820A7
:1019E80022F440620243C1F888209F0508D56F4958
:1019F800E06DD1F8882022F440220243C1F8882003
:101A08005E0508D56949206ED1F8882022F4401275
:101A18000243C1F88820580608D56449206DD1F8DA
:101A2800882022F440520243C1F88820190608D5BC
:101A38005E49606DD1F8882022F440420243C1F823
:101A48008820DA0508D55949A06DD1F8882022F4F4
:101A580040320243C1F888209B040FD5534AE16EF7
:101A6800D2F8883023F040630B43B1F1006FC2F81D
:101A7800883064D1D36843F48013D36023681F038C
:101A88000FD54A4A216FD2F8883023F040630B43C0
:101A9800B1F1006FC2F888305CD1D36843F4801389
:101AA800D36023685E030FD5404A616FD2F888304F
:101AB80023F040630B43B1F1006FC2F8883054D172
:101AC800D36843F48013D3602368580412D5374988
:101AD800A26FD1F8883023F040531343B2F1805FEE
:101AE800C1F888304CD10221201DFFF76DFD002878
:101AF80018BF05462268110408D52C49E06FD1F8B3
:101B0800883023F080430343C1F88830D30309D5D4
:101B1800264AD4F88010D2F8883023F000430B43CB
:101B2800C2F88830284602B0BDE8F087FEF706FD07
:101B3800401B48457FF6ECAE0CE7354612E7B1F19D
:101B4800806F9BD10121201DFFF73EFD002818BFA3
:101B5800054693E7B1F1806FA3D10121201DFFF75E
:101B680033FD002818BF05469BE7B1F1806FABD164
:101B78000121201DFFF728FD002818BF0546A3E70F
:101B8800B2F1005FB6D1022104F12000FFF7AAFDEF
:101B9800ADE7BB6D43F08053BB65BB6D03F080536D
:101BA8000193019B4FF001087FE600BF001002403F
:101BB8000268C169F8B5044683680069156803437B
:101BC80060690343BA480B432840034313605368D2
:101BD800E06823F4405303435360B64BA0699A422C
:101BE8001CBF236A1843936823F43063034393604C
:101BF800B14B9A4219D103F55843B04AD3F888300B
:101C080003F00303B1F5004FD35C40F03881082B93
:101C180000F28F80DFE813F01A01CA00F9008D0086
:101C280014018D008D008D003600A54B9A4207D116
:101C380003F5E633A34AD3F8883003F00C03E1E751
:101C4800A14B9A4223D103F5E433D3F8883003F04B
:101C58003003102B00F0F1800BD8002B00F0F3803C
:101C6800B1F5004F4FF001024FF0000300F0F8808B
:101C7800A8E0202B00F0C680302BF1D1B1F5004F41
:101C880040F0B8806068430803F58033C3E08F4BA9
:101C98009A421ED103F5E233D3F8883003F0C0032B
:101CA800402B00F0BB800AD87BB9824B9A4240F0A7
:101CB800CA80FFF765FC0023B0BB02463AE0802BE0
:101CC80000F09D80C02B00F0B0807A4B9A42C7D1BB
:101CD8002FE07F4B9A4211D103F5E033D3F88830D7
:101CE80003F44073B3F5807F00F09880DCD9B3F536
:101CF800007F00F08480B3F5407FE4E76D4B9A42A3
:101D0800AED103F5C833D3F8883003F44063B3F594
:101D1800806F00F08380C7D9B3F5006F6FD0B3F53B
:101D2800406FD0E76B480223626802EB42018142B0
:101D380005D901220023236663661046F8BDB0EB7F
:101D4800023FF6D8082B2ED8DFE803F0052D1C2D0E
:101D5800242D2D2D2700FFF713FC62684FF48071A6
:101D680056080027E1FB0067002330463946FEF796
:101D780027FA0022584BA0F540719942D9D8236818
:101D8800D860D7E75548550800230021401941F18C
:101D98000001ECE7FFF7E8F8DFE75008002100232F
:101DA80010F50000F3E701220020E3E7FFF7FAFB54
:101DB8004EE0FFF7E5FB626800EB5203B3FBF2F37A
:101DC8009BB20022A3F110004FF6EF718842B0D801
:101DD8002168CB60AEE7FFF7E5FBECE760684308F6
:101DE80003F5740303F51053B3FBF0F3E8E7FFF7CB
:101DF800BBF8E0E76068430803F50043F4E72D4BC0
:101E08009A428FD0B1F5004FE8D16068430803F1DA
:101E1800F47303F59043B3FBF0F31FE0254B9A42AC
:101E28000BD1FFF7A1F8042346E7224B9A427FF42F
:101E380025AF4FF40040082376E7B1F5004FD6D11F
:101E4800FFF792F804E0B1F5004FB2D1FFF798FB25
:101E580061684A0802EB4003B3FBF1F39BB200222E
:101E6800A3F110004FF6EF7188423FF662AF23F0FE
:101E78000F012068C3F342030B43C3605AE7082BE2
:101E88003FF657AF01A252F823F000BFBB1D000870
:101E9800DF1D0008E51D00083B1D0008F71D0008B0
:101EA8003B1D00083B1D00083B1D0008FD1D0008E8
:101EB800F369FFEF0080004000380140D82900088E
:101EC80000440040DC29000800480040004C004065
:101ED800005000400024F400FFFC0F00000024F430
:101EE800436ADA0710B506D50168846A4A6822F49D
:101EF800003222434A609C0706D50168C46A4A68D2
:101F080022F4803222434A60590706D50168046BDF
:101F18004A6822F4802222434A601A0706D50168DB
:101F2800446B4A6822F4004222434A60DC0606D524
:101F38000168846B8A6822F4805222438A60990679
:101F480006D50168C46B8A6822F4005222438A606D
:101F58005A060FD50168046C4A6822F4801222439D
:101F6800B4F5801F4A6005D14A68446C22F4C00267
:101F780022434A601B0606D50268816C536823F425
:101F880000230B43536010BD2DE9F041069D044624
:101F98000F46164698462168CA6937EA02030CBFFD
:101FA80001220022B24202D00020BDE8F0816B1C61
:101FB800F2D09DB923681A6822F4D0721A609A6820
:101FC80022F001029A60202384F8713084F872307C
:101FD800002384F870300320BDE8F081FEF7AEFAE4
:101FE800A0EB08008542D6D2E4E773B50446002684
:101FF8004667FEF7A3FA23681B681A07054617D435
:1020080023681B685B070AD56FF07E4300930022A4
:102018002B464FF480012046FFF7B6FFA0B92023D6
:10202800002084F8713084F8700084F872300CE075
:102038006FF07E430093324603464FF4001120466A
:10204800FFF7A2FF0028DBD0032002B070BD10B557
:10205800044660B390F8713003F0FF021BB980F8B2
:10206800702000F0F3FB2268242384F87130136891
:1020780023F0010313602046FFF79AFD012816D0CC
:10208800636A13B12046FFF72BFF23685A6822F4CE
:1020980090425A609A6822F02A029A601A6842F0BE
:1020A800010220461A60BDE81040FFF79EBF0120DC
:1020B80010BD00001FB5084B08491A780848009160
:1020C8004FF47A73029301230193BE21FEF70AFDB0
:1020D80005B05DF804FB00BF0500002001000020EA
:1020E800540000207FB5134B134D1A78134B0093FF
:1020F80001244FF47A76234602960194BA212846A1
:10210800FEF7F0FC0E4B1A780E4B0093029623460E
:102118000194BA212846FEF7E5FC0B4B1A780B4BC5
:102128000093029601942346BA212846FEF7DAFC6A
:1021380004B070BD040000205400002000000020FE
:1021480006000020020000200F00002003000020ED
:102158002DE9F04F664B674D1A78674B674FDFF8EC
:10216800F481DFF8F4A1DFF8F491DFF8F4B185B079
:1021780001244FF47A76029601940093BF212346F6
:102188002846FEF767FD5E4B1A785E4B029601946F
:102198000093BF2123462846FEF75CFD5A4B1A7868
:1021A8005A4B029601940093BF2123462846FEF716
:1021B80051FD3A78029601942346CDF80080BF215C
:1021C8002846FEF747FD3A78029601942346CDF853
:1021D8000080BF212846FEF73DFD4D4B4D4F1A7834
:1021E8004D4B029601940093BF2123462846FEF7E3
:1021F80031FD4A4B1A784A4B029601940093BF214D
:1022080023462846FEF726FD464BBF211A7802963C
:1022180001942346CDF800A02846FEF71BFD424B4B
:10222800BF211A78029601942346CDF800902846DB
:10223800FEF710FD9BF800200296019423460097B4
:10224800BF212846FEF706FD9BF800200296019460
:1022580023460097BF212846FEF7FCFC2E4A98F833
:10226800003011789AF800003A78304C01EB0321DD
:102278002F4B89B219802A4B1B7800EB03202D4B7A
:1022880080B2188099F8003002EB03222A4B92B2F0
:102298001A801E4B1B7803F00306C3F38105274BF6
:1022A80026701D70144B1C78254B04EB06241C80EB
:1022B800144B1B7803EB0523224D2B80224DE40899
:1022C800521A2C8012B2214DDB0802EB82022B80BD
:1022D80052001B1B5343411A04EB84041C4A09B2E5
:1022E80093FBF1F303EB4403138005B0BDE8F08FD3
:1022F8001900002054000020AD0000201600002026
:102308001C000020AC00002018000020B6000020AF
:10231800170000204A000020460000201A00002074
:102328004B0000201B0000201D000020BA000020E8
:10233800B4000020C4000020CE000020440000208B
:10234800AA000020B2000020CA000020520000208D
:10235800B8000020AF000020A9000020C200002023
:102368001E0000202DE9F04F4A4B4B4DDFF87081DD
:102378001A784A4FDFF86CB1DFF86CA1DFF86C917E
:1023880085B001244FF47A76029601942346CDF85D
:102398000080BF212846FEF75DFC414B1A78414B6F
:1023A800029601940093BF2123462846FEF752FC6B
:1023B8003D4BBF211A780296019423460097284680
:1023C800FEF748FC394BBF211A7802960194234640
:1023D80000972846FEF73EFC354BBF211A78029637
:1023E80001942346CDF800B02846FEF733FC314B64
:1023F800BF211A78029601942346CDF800A02846FA
:10240800FEF728FC2C4BBF211A780296019423462C
:10241800CDF800902846FEF71DFC284B1A78029646
:10242800274E019423460096BF212846FEF712FC4A
:102438003878244B244A99F8001098F80050E04066
:102448001880224B1B78E34013809BF800409AF8D1
:10245800002002EB042294B21D4A1480327802EB69
:1024680001221C4992B20A800E49097801EB052124
:10247800194D89B229801B1A091B121B13FB01F382
:1024880012B293FBF2F3154A0344138005B0BDE87A
:10249800F08F00BF0D00002054000020CC00002069
:1024A8000E00002050010020090000200C00002030
:1024B80007000020080000200A0000200B00002070
:1024C80045000020A000002048000020C600002091
:1024D800C0000020520100204E000020D000002043
:1024E800C7000020C8000020500000204C00002039
:1024F8002DE9F04F374BDFF80C91374D1A78374EEE
:10250800374FDFF80481DFF804B185B001244FF4B8
:102518007A7ACDF808A0234601940095BB21484655
:10252800FEF798FB2F4BBB211A78CDF808A023465D
:10253800019400964846FEF78DFB2B4BBB211A7879
:10254800CDF808A02346019400974846FEF782FB81
:10255800264BBB211A78CDF808A023460194CDF864
:1025680000804846FEF776FB214BBB211A78CDF850
:1025780008A023460194CDF800B04846FEF76AFB50
:102588001C4B1A78CDF808A0DFF884A001942346E4
:10259800CDF800A0BB214846FEF75CFB9BF8003055
:1025A8009AF800201B0203EB024398F8002013441A
:1025B800114A136033783A781B0203EB02432A78F6
:1025C80013440E4A13600E4A1B0B136005B0BDE896
:1025D800F08F00BF15000020A2000020B0000020EE
:1025E800A800002014000020130000201200002082
:1025F8001100002010000020BC0000204C01002029
:10260800A40000205400002051010020AE0000204A
:10261800CD00002010B5B8B04422002105A800F074
:10262800C3F914220021684600F0BEF9002188226F
:1026380016A800F0B9F94FF4807208921022099296
:10264800012211920A220223129205A807220024CD
:1026580005930F931093139214931593FEF7D8FCD8
:102668000F220421032368468DE81C000394049478
:10267800FEF7F4FE422316A8169325942A94FFF732
:10268800AFF84FF40070FEF7F7FB38B010BD00004C
:1026980000B58BB0FDF734FFFFF7BCFF1422002113
:1026A8000DEB020000F080F9394B3A4DDA6C42F03C
:1026B8000402DA64DA6C02F004020192019ADA6C1C
:1026C80042F08002DA64DA6C02F080020292029A26
:1026D800DA6C42F00102DA64DA6C02F00102039269
:1026E800039ADA6C42F00202DA64DB6C03F002034C
:1026F8000022049320214FF09040049BFEF75CF8E1
:102708004FF400530024059305A9234B234806934F
:1027180001260794FDF774FF202305A94FF0904088
:102728000593069607940894FDF76AFF1C481D4A0E
:1027380084604FF4E13380E80C000C234361C460EB
:1027480004618461C46104624462FFF780FC164B33
:102758001649AC60284685E80A00EE602C616C6179
:10276800AC61EC612C62FEF76CF921462846FEF755
:102778002FFB21462846FEF751FBFFF79BFCFFF78E
:10278800B1FCFFF7E5FCFFF7EDFDFFF7B1FEF8E759
:1027980000100240540000200000211000080048EA
:1027A800D400002000440040EC9C901000540040ED
:1027B8000A4B1A6E42F001021A661A6E82B002F0D3
:1027C80001020092009A9A6D42F080529A659B6DC0
:1027D80003F080530193019B02B070470010024040
:1027E80010B5044688B01422002103A800F0DCF8D4
:1027F8002268134B9A4221D1124C1348E36C43F0E0
:102808000203E364E36C03F002030193019B4FF4BA
:102818004073039312230493012305930323069320
:1028280003A904230793FDF7EBFEA36D43F40013FC
:10283800A365A36D03F400130293029B08B010BDB7
:1028480000540040001002400004004810B504463F
:1028580088B01422002103A800F0A6F82268134BC0
:102868009A4220D103F5E63303A99A6D42F4003267
:102878009A659A6D02F400320192019ADA6C42F07C
:102888000102DA64DB6C03F001030293029B0C2360
:10289800039302230493032306934FF090400723E6
:1028A8000793FDF7ADFE08B010BD00BF004400401F
:1028B8007047FEE7FEE7FEE7FEE7704770477047A0
:1028C800FDF734BE0F49D1F8883043F47003C1F8DE
:1028D80088300D4B1A68002042F001021A60986097
:1028E8001A6822F0A85222F410221A604FF480527B
:1028F800DA601A6822F480221A6098614FF0006347
:102908008B60704700ED00E000100240DFF834D023
:10291800002103E00C4B5B58435004310B480C4B2F
:1029280042189A42F6D30B4A02E0002342F8043BCD
:10293800094B9A42F9D3FFF7C5FF00F011F8FFF7EA
:10294800A7FEFEE700800120442A000800000020BE
:10295800240000202400002054010020FEE700008D
:1029680070B50D4E0D4CA41BA4100025A54209D12D
:102978000B4E0C4C00F020F8A41BA4100025A54217
:1029880005D170BD56F8253098470135EEE756F861
:10299800253098470135F2E73C2A00083C2A000810
:1029A8003C2A0008402A000802440346934200D10A
:1029B800704703F8011BF9E7F8B500BFF8BC08BC7D
:1029C8009E467047F8B500BFF8BC08BC9E467047E5
:1029D800010402080010101004101010021010104A
:1029E80008000000000000000001020304060708B8
:1029F800090000000001020304000000A086010095
:102A0800400D0300801A060000350C0040420F00FC
:102A180080841E0000093D0000127A000024F400A2
:0C2A280000366E010048E801006CDC0282
:082A3400C4D7FF7F0100000080
:042A3C00AD010008E0
:042A40008901000800
:102A4400508301301020113736303B3A3129280B9E
:102A54002A29281716153D3C35323F3E332B2A00D0
:042A640000093D0028
:0400000508002915B1
:00000001FF
