:020000040800F2
:1000000000800120D92E0008652D0008672D00080A
:10001000692D00086B2D00086D2D00080000000000
:100020000000000000000000000000006F2D00082C
:10003000712D000800000000732D0008752D0008C8
:10004000292F0008292F0008292F0008292F000830
:10005000292F0008292F0008292F0008292F000820
:10006000292F0008292F0008292F0008292F000810
:10007000292F0008292F0008292F0008292F000800
:10008000292F0008292F0008292F0008292F0008F0
:10009000292F0008292F0008292F0008292F0008E0
:1000A000292F0008292F0008292F0008292F0008D0
:1000B000292F0008292F0008292F0008292F0008C0
:1000C000292F0008292F0008292F0008292F0008B0
:1000D000292F0008292F0008292F0008292F0008A0
:1000E000292F0008292F0008292F0008292F000890
:1000F000292F0008292F0008292F0008292F000880
:10010000292F0008292F0008292F0008292F00086F
:10011000292F0008292F0008292F0008292F00085F
:10012000292F0008292F0008292F0008292F00084F
:10013000292F0008292F0008292F0008292F00083F
:10014000292F0008292F0008292F0008292F00082F
:10015000292F0008292F0008292F0008292F00081F
:10016000292F0008292F0008292F0008292F00080F
:10017000292F0008292F0008292F0008000000005F
:08018000292F0008292F0008B7
:1001880010B5054C237833B9044B13B10448AFF3C9
:1001980000800123237010BD24000020000000000F
:1001A8005830000808B5034B1BB103490348AFF3A7
:1001B800008008BD0000000028000020583000081A
:1001C800034613F8012B002AFBD1181A013870478F
:1001D80053B94AB9002908BF00281CBF4FF0FF31A6
:1001E8004FF0FF3000F07AB9ADF1080C6DE904CE9C
:1001F80000F006F8DDF804E0DDE9022304B07047FA
:100208002DE9F0478C460D460446089E002B51D137
:100218008A4217466DD9B2FA82FEBEF1000F0BD0A2
:10022800CEF1200C01FA0EF520FA0CFC02FA0EF7BA
:100238004CEA050C00FA0EF44FEA174A250CBCFBF1
:10024800FAF81FFA87F90AFB18CC45EA0C4508FBAF
:1002580009F3AB420AD9ED1908F1FF3280F0238186
:10026800AB4240F22081A8F102083D44ED1AA4B245
:10027800B5FBFAF00AFB105544EA054400FB09F9FE
:10028800A14509D9E41900F1FF3380F00A81A1459D
:1002980040F2078102383C44A4EB090440EA0840D4
:1002A8000021002E61D024FA0EF40023346073601C
:1002B800BDE8F0878B4207D9002E54D0002186E88C
:1002C80021000846BDE8F087B3FA83F1002940F021
:1002D8008E80AB4202D3824200F2FA80841A65EB28
:1002E80003050120AC46002E3FD086E81010BDE87B
:1002F800F08712B90127B7FBF2F7B7FA87FEBEF10C
:10030800000F34D1EB1B3A0C1FFA87FC0121B3FB19
:10031800F2F8250C02FB183345EA03450CFB08F3F9
:10032800AB4207D9ED1908F1FF3002D2AB4200F217
:10033800D1808046ED1AA3B2B5FBF2F002FB10554E
:1003480043EA05440CFB00FCA44507D9E41900F175
:10035800FF3302D2A44500F2B8801846A4EB0C047F
:1003680040EA08409DE731463046BDE8F087CEF1C7
:10037800200405FA0EF307FA0EF720FA04F83A0CEF
:1003880025FA04F448EA0308B4FBF2F14FEA1845E9
:1003980002FB11441FFA87FC45EA044501FB0CF3F4
:1003A800AB4200FA0EF409D9ED1901F1FF3080F0E3
:1003B8008A80AB4240F2878002393D44EB1A1FFA2B
:1003C80088F5B3FBF2F002FB103345EA034500FB66
:1003D8000CF3AB4207D9ED1900F1FF386FD2AB42ED
:1003E8006DD902383D44EB1A40EA01418FE7C1F16B
:1003F800200722FA07F88B4005FA01F448EA0303BC
:1004080020FA07FE4FEA134CFD404EEA040EB5FBF6
:10041800FCF94FEA1E440CFB19551FFA83F844EA0D
:10042800054509FB08F4AC4202FA01F200FA01FAA8
:1004380008D9ED1809F1FF3043D2AC4241D9A9F1EE
:1004480002091D442D1B1FFA8EFEB5FBFCF00CFBA8
:1004580010554EEA054400FB08F8A04507D9E418F2
:1004680000F1FF3529D2A04527D902381C4440EABB
:100478000940A4EB0804A0FB02894C45C6464D463A
:1004880015D312D056B1BAEB0E0364EB050404FA87
:1004980007F7CB401F43CC40376074600021BDE8AC
:1004A800F0871846F8E69046E0E6C245EAD2B8EB8F
:1004B800020E69EB03050138E4E72846D7E7404612
:1004C80091E78146BEE7014678E702383C4445E7B4
:1004D800084608E7A8F102083D442BE7704700BF2B
:1004E80038B50A4B054618684FF47A73B0FBF3F039
:1004F80000F086F8044638B9024629464FF0FF3026
:1005080000F04AF8204638BD012038BD2000002000
:10051800094A136843F4807310B50320136000F090
:1005280029F80020FFF7DCFF044618B902F0D0FBD9
:10053800204610BD0124FBE700200240024A136850
:1005480001331360704700BF40000020014B18685A
:10055800704700BF4000002038B50446FFF7F6FF9B
:10056800631C054618BF0134FFF7F0FF401B8442A7
:10057800FAD838BD074AD36823F4E0631B041B0C80
:1005880043F0BF63000243F4003300F4E060034328
:10059800D360704700ED00E0174B30B5DC68C4F35A
:1005A8000224C4F10703251D042B28BF0423062DAC
:1005B8004FF0010505FA03F303F1FF338CBF033C49
:1005C80000241940A14005FA04F4013C2240002807
:1005D80042EA01024FEA0212AFBF00F1604000F0A8
:1005E8000F00064BD2B2A5BF00F56140D2B21A5433
:1005F80080F8002330BD00BF00ED00E014ED00E0FE
:100608000138B0F1807F0AD2064B074A5860F021C2
:1006180082F823100020072298601A607047012092
:10062800704700BF10E000E000ED00E0044B1A68DE
:1006380004280CBF42F0040222F004021A6070473A
:1006480010E000E0704708B5FFF7FCFF08BD0000A8
:100658002DE9F04F85B00B68DFF8A881674C01934E
:100668000023019ADA4002D105B0BDE8F08F0126D7
:10067800019A9E4012EA060E00F0B1804A6822F004
:100688001007022F16D14FEAD30900EB890903F0AE
:10069800070AD9F820504FEA8A0A4FF00F0C0CFAD3
:1006A8000AFC25EA0C0C0D6905FA0AF545EA0C0561
:1006B800C9F820504FEA430C0325D0F800B005FADA
:1006C8000CF5ED4302F0030A0BEA050B0AFA0CF9E4
:1006D800013F49EA0B09012FC0F8009011D887683B
:1006E80005EA0709CF6807FA0CF747EA09078760A0
:1006F800476827EA0609C2F300179F4047EA090737
:100708004760BAF1030F07D1C76A27EA0606C2F3A2
:10071800C0079F403E43C662C66835408E6806FAE9
:100728000CF63543C560D50059D5D8F8605045F06A
:100738000105C8F86050D8F8605023F0030606F1A8
:10074800804605F0010506F58036039503F0030C95
:10075800039DB5684FEA8C0C0F2707FA0CF7B0F128
:10076800904F25EA07073CD0254DA8423BD005F518
:100778008065A84239D005F58065A84237D005F5CF
:100788008065A84235D005F58065A84233D005F5C7
:100798008065A84214BF0725062505FA0CF53D43D8
:1007A800B56025686FEA0E06D70354BF35404EEA98
:1007B800050525606568970354BF35404EEA050571
:1007C8006560A568D70254BF35404EEA0505A560A7
:1007D800E568920254BF35404EEA0505E5600133ED
:1007E8003FE70025D9E70125D7E70225D5E7032507
:1007F800D3E70425D1E70525CFE700BF0004014072
:1008080000040048001002400AB18161704781620B
:100818007047436959404161704703689A69910775
:1008280044BF00229A629A69D2075EBF9A6942F071
:1008380001029A61704730B5039C05682343640D33
:1008480004F4806444F07F7444F458346868C1F355
:10085800090144F47F74194344F0030441EA024156
:1008680020EA04042143696030BD2DE9F041069F68
:100878000446884616461D462268936938EA0303EB
:100888000CBF01230023B34202D00020BDE8F08151
:100898006B1CF2D0FFF75AFEC01B854201D3002D16
:1008A800EAD1636C43F020036364202384F8413069
:1008B800002384F8423084F840300120BDE8F081FC
:1008C800036870B50446986910F010000D46164686
:1008D80016D170BD691C14D0FFF738FE801B854205
:1008E80000D36DB9636C43F020036364202384F85C
:1008F8004130002384F8423084F84030012070BD34
:10090800236899698A06E5D510222025DA612046F0
:10091800DD61FFF782FF2268536823F0FF7323F439
:100928008B3323F4FF7323F001035360636C43F0AC
:100938000403636484F84150DBE770B504460D4650
:10094800164623689B699B0701D5002070BD324677
:1009580029462046FFF7B4FFA0B96A1CF1D0FFF77B
:10096800F5FD801B854201D3002DEAD1636C43F06D
:1009780020036364202384F84130002384F8423044
:1009880084F84030012070BDF7B5099E1F46164B0C
:100998000093054614464FF08073FAB2FFF74BFFF9
:1009A800324608992846FFF7C8FF10B1012003B066
:1009B800F0BD012F2B680CD1E4B29C62089B009615
:1009C800002280212846FFF750FF003018BF012081
:1009D800EDE7220A9A62089932462846FFF7ADFFEA
:1009E8000028E3D12B68E7E700200080F7B5099ECF
:1009F8001F46164B0093054614460023FAB2FFF72C
:100A08001AFF324608992846FFF797FF10B10120D0
:100A180003B0F0BD012F2B680CD1E4B29C62089B97
:100A28000096002240212846FFF71FFF003018BF1C
:100A38000120EDE7220A9A62089932462846FFF714
:100A48007CFF0028E3D12B68E7E700BF0020008087
:100A580070B504460D46164623689B699B0601D56A
:100A6800002070BD324629462046FFF729FF90B97D
:100A7800FFF76CFD801B854201D3002DECD1636C20
:100A880043F020036364202384F84130002384F872
:100A9800423084F84030012070BD10B5044600286B
:100AA8004AD090F8413003F0FF021BB980F840208B
:100AB80001F044FC242384F841302368E1681A6873
:100AC80022F001021A60626822F070621A619A6864
:100AD800012922F400429A60A26824D142F400421B
:100AE8009A605A68616942F0007242F400425A60A2
:100AF800DA6822F40042DA6022690A43A16942EA0C
:100B08000122DA60216AE2690A431A601A6842F02F
:100B180001021A6000202023606484F841302063B9
:100B280084F8420010BD42F4044202299A6004BFCE
:100B38004FF400625A60D4E7012010BD2DE9F04F50
:100B48009B4690F8413085B0202B04460F4603920F
:100B5800BDF83CA0DDF8408040F0A5800E9B13B1A5
:100B6800BAF1000F06D14FF400736364012005B099
:100B7800BDE8F08F90F84030012B00F094800125FB
:100B880080F84050FFF7E2FC1923009006462A46F9
:100B98004FF400412046FFF768FE81460028E5D162
:100BA800212384F84130402384F842300E9B60644E
:100BB80063626063A4F82AA00196CDF800805B46C2
:100BC800039A39462046FFF7DFFE10B184F84090BB
:100BD800CCE7638D9BB2FF2B55D9FF22228500906D
:100BE8004FF0807339462046FFF725FE32464146CE
:100BF8002046FFF7A2FE0028B8D1636A226813F8DE
:100C0800011B91626362638D228D013B9BB26385F8
:100C1800638D013A92B29BB22285ABB1A2B900961C
:100C2800434680212046FFF720FE00289ED1638D91
:100C38009BB2FF2B2FD9FF22228500904FF08073A3
:100C480039462046FFF7F7FD638D9BB2002BCDD1C7
:100C5800324641462046FFF7FBFE002886D123682E
:100C68002021D9615A6822F0FF7222F48B3222F4D3
:100C7800FF7222F001025A6084F8411084F84000A3
:100C880084F8420073E7628D009092B222854FF09B
:100C98000073D2B2A6E7628D009092B222854FF01F
:100CA8000073D2B2CCE7022061E700002DE9F04FD3
:100CB8009B4690F8413085B0202B04460F4603929E
:100CC800BDF83CA0DDF8408040F0A9800E9B13B130
:100CD800BAF1000F06D14FF400736364012005B028
:100CE800BDE8F08F90F84030012B00F09880012586
:100CF80080F84050FFF72AFC1923009006462A4640
:100D08004FF400412046FFF7B0FD81460028E5D1A9
:100D1800222384F84130402384F842300E9B6064DB
:100D280063626063A4F82AA00196CDF800805B4650
:100D3800039A39462046FFF759FE10B184F84090CF
:100D4800CCE7638D9BB2FF2B364B58D9FF2200931B
:100D580022854FF0807339462046FFF76CFD0096D8
:100D68004346002204212046FFF77FFD0028B5D125
:100D78002268636A526A1A70636A228D0133636259
:100D8800638D013B9BB26385638D013A92B29BB23E
:100D98002285ABB1A2B90096434680212046FFF7D1
:100DA80064FD00289AD1638D9BB2FF2B2FD9FF22B7
:100DB800228500904FF0807339462046FFF73BFDAF
:100DC800638D9BB2002BCAD1324641462046FFF7BD
:100DD8003FFE002882D123682021D9615A6822F079
:100DE800FF7222F48B3222F4FF7222F001025A6061
:100DF80084F8411084F8400084F842006FE7628D5F
:100E0800009392B222854FF00073D2B2A3E7628DAD
:100E1800009092B222854FF00073D2B2CCE7022044
:100E28005DE700BF0024008090F84120D2B2202A5C
:100E380010B51DD190F84030012B19D0242380F82B
:100E4800413003681C6824F001041C601C6824F409
:100E580080541C601C6821431960196841F0010125
:100E68001960002380F8412080F84030184610BDF2
:100E7800022010BD10B590F84140E4B2202C1CD1DE
:100E880090F84030012B18D0242380F841300368B3
:100E98001A6822F001021A601A6822F4706242EAA3
:100EA800012119601A6842F001021A60002380F8D3
:100EB800414080F84030184610BD022010BD0000A7
:100EC800024B186800F4C060704700BF0070004013
:100ED800174B1A68B0F5007F02F4C0621CD1B2F556
:100EE800007F15D01A6822F4C06242F400721A60BA
:100EF800104A116832224A430F49B2FBF1F21946EF
:100F080001325869400500D522B94B695B050DD4FB
:100F180000207047013AF4E7B2F5806F1FBF1A68E6
:100F280022F4C06242F480621A60F1E7032070473D
:100F3800007000402000002040420F0037B51E4DD1
:100F4800AB6DDA00044618D5FFF7BAFFB0F5007F9D
:100F580023D1802C29D9A02C8CBF02200120174A2C
:100F6800136823F0070303431360136803F00703B0
:100F7800181A18BF012003B030BDAB6D43F0805381
:100F8800AB65AB6D03F080530193019BFFF798FFAE
:100F9800AB6D23F08053AB65D8E7802C07D808D019
:100FA800A4F1700358425841D9E70020D7E703203D
:100FB800D5E70220D3E700BF00100240002002401E
:100FC800254B9A68D96812F00C0205D00C2A15D165
:100FD80001F00301012918D119682048090755BFF4
:100FE800D3F894101968C1F30321C1F3031150F821
:100FF800210082B30C2A09D000207047042A29D086
:10100800082A174818BF002070470020D968DA68F6
:1010180001F00301C2F30212022902F1010205D014
:10102800032912D0D968C1F3062103E0D9680D4815
:10103800C1F30621DB68B0FBF2F0C3F3416301336F
:1010480048435B00B0FBF3F07047D9680448C1F32C
:101058000621EFE70348704700100240E830000817
:1010680000127A000024F4002DE9F743054618B968
:10107800012003B0BDE8F083A54C0368A668E768C3
:10108800DB0606F00C0607F003073CD51EB10C2E54
:1010980063D1012F61D12368980702D5AB69002B72
:1010A800E6D02368286A190756BFD4F89430236815
:1010B8001B0903F0F00383423AD2FFF73FFF0028F1
:1010C800D6D1236843F00803236023682A6A23F0F3
:1010D800F003134323606368EA6923F47F4343EA18
:1010E80002236360FFF76CFFA3688A4AC3F3031304
:1010F800D35C03F01F03D840874B18600020FFF72C
:10110800EFF90028B5D12B68D8075DD42B6899076B
:1011180000F19C802B68180700F1D0802B685907D4
:1011280000F1FC80AB6A002B40F065810020A0E74D
:10113800236843F008032360236823F0F003034384
:1011480023606368EA6923F47F4343EA0223636008
:10115800FFF7F4FE0028C5D08AE7AB691BB3236804
:1011680043F001032360FFF7F1F9804623689A07EB
:1011780011D5236843F00803236023682A6A23F003
:10118800F003134323606368EA6923F47F4343EA67
:1011980002236360B7E7FFF7D9F9A0EB080002283C
:1011A800E4D9032065E7236823F001032360FFF7F0
:1011B800CDF9804623689B07A5D5FFF7C7F9A0EBB3
:1011C80008000228F6D9ECE7082E03D00C2E08D127
:1011D800032F06D123689A0398D56B68002B95D105
:1011E80046E76B68B3F5803F10D1236843F480333A
:1011F8002360FFF7ABF9804623689B0386D4FFF78B
:10120800A5F9A0EB08006428F6D9CAE7B3F5A02F22
:1012180004D1236843F480232360E6E7226822F49C
:1012280080322260226822F480222260002BE0D1E2
:10123800FFF78CF98046236898037FF567AFFFF7BF
:1012480085F9A0EB08006428F5D9AAE7042E03D095
:101258000C2E10D1022F0ED12368590503D5EB6847
:10126800002B3FF405AF63682A6923F0F85343EA7B
:10127800026363604EE7EB687BB1236843F48073D5
:101288002360FFF763F9074623685A05EBD4FFF795
:101298005DF9C01B0228F7D983E7236823F480731C
:1012A8002360FFF753F9074623685B057FF532AFE4
:1012B800FFF74CF9C01B0228F6D972E76B699BB19E
:1012C800D4F8943043F00103C4F89430FFF73EF9A2
:1012D8000746D4F894309A073FF520AFFFF736F960
:1012E800C01B0228F5D95CE7D4F8943023F0010339
:1012F800C4F89430FFF72AF90746D4F894309B07CE
:101308007FF50CAFFFF722F9C01B0228F5D948E793
:1013180000100240CF30000820000020A36DD80044
:1013280029D4A36D43F08053A365A36D03F08053C4
:101338000193019B4FF001085D4F3B68D9051DD50E
:10134800AB68012B2BD1D4F8903043F00103C4F8DB
:101358009030FFF7FBF841F288390746D4F890300F
:101368009B0742D5B8F1000F3FF4DCAEA36D23F024
:101378008053A365D6E64FF00008DDE73B6843F4E9
:1013880080733B60FFF7E2F881463B68DA05D7D403
:10139800FFF7DCF8A0EB09000228F6D901E7052BD6
:1013A80006D1D4F8903043F00403C4F89030CAE76B
:1013B800D4F8902022F00102C4F89020D4F89020AC
:1013C80022F00402C4F89020002BC2D1FFF7BEF827
:1013D80041F288390746D4F890309807C2D5FFF70C
:1013E800B5F8C01B4845F6D9DBE6FFF7AFF8C01BD8
:1013F8004845B3D9D5E60C2E3FF43AAE022B236804
:1014080023F08073236037D1FFF7A0F806462368DE
:1014180099012BD46A6BEB6A43EA02232A6B013ADF
:1014280043EA0213AA6B120943EA4243EA6B5208E1
:10143800013A43EA42532A6C5208013A43EA4263AA
:10144800E360236843F080732360E36843F08073AC
:10145800E360FFF77BF8054623689A013FF566AE1F
:10146800FFF774F8401B0228F6D99AE6FFF76EF8E2
:10147800801B0228CBD994E6236813F0205F02BFB3
:10148800E36823F00303E360E36823F0887323F43D
:101498008033E360FFF75AF8054623689B017FF520
:1014A80045AEFFF753F8401B0228F6D979E600BF8E
:1014B800007000402DE9F0410E46044610B90120A5
:1014C800BDE8F081404A136803F007038B4229D333
:1014D8002368D90731D421688A075BD43A4A13684C
:1014E80003F007039E425DD311F0040F374D64D11A
:1014F8000B0706D5AB68226923F4605343EAC2039D
:10150800AB60FFF75DFDAB68314AC3F30313BDE879
:10151800F041D35C03F01F03D8402E4B1860002025
:10152800FEF7DEBF136823F007030B43136013684D
:1015380003F007039942C2D1CAE76268234D032A20
:101548002B681BD113F0007FB9D0AB6823F00303DD
:101558001343AB60FEF7FAFF41F288380746AB68E1
:10156800626803F00C03B3EB820FB4D0FEF7EEFF12
:10157800C01B4045F3D90320BDE8F081022A02D1FF
:1015880013F4003FE0E712B913F0020FDCE713F49D
:10159800806FD9E70D4AA068936823F0F0030343EE
:1015A80093609BE7136823F00703334313601368C2
:1015B80003F007039E4282D196E7AB68E26823F402
:1015C800E0631343AB6093E7002002400010024041
:1015D800CF30000820000020014B1868704700BF7A
:1015E80020000020054B064A9B68C3F30223D35C06
:1015F800044A106803F01F03D840704700100240E7
:10160800DF30000820000020054B064A9B68C3F322
:10161800C223D35C044A106803F01F03D840704704
:1016280000100240DF30000820000020F8B5454BCC
:10163800DA6812F0030F05460E461C4600682AD0E9
:10164800DA6802F0030282423CD1002A3AD0DB6811
:101658006A68C3F302130133934233D1236823F03A
:1016680080632360FEF772FF074623681A0132D4AD
:10167800AF68002E36D0012E50D12269286922F495
:10168800C002400822F4FE42013842EA072242EA38
:101698004052226132E0022810D0032814D00128D9
:1016A80010D11B689F0738D5E3686A6823F0730375
:1016B800013A184340EA0210E060CFE71B6813F4D0
:1016C800806FF1D10120F8BD1A689103ECD41B6832
:1016D80013F4802FF5E7FEF739FFC01B0228C4D9A1
:1016E8000320F8BD2169EB6821F41F3121F4407112
:1016F80041EA07211B0941EA43412161236843F07C
:1017080080632360FEF722FF064623681B0113D57A
:101718002369AA69134323610020F8BD2369686916
:1017280023F0C063400823F4FE43013843EA07234B
:1017380043EA40632361E1E7FEF708FF801B0228C4
:10174800E3D9CDE700100240F8B53D4BDA6812F056
:10175800030F05460E461C46006828D0DA6802F0DA
:10176800030282423AD1002A38D0DB686A68C3F3A0
:1017780002130133934231D1236823F0805323604D
:10178800FEF7E4FE074623689A0030D4A868002EC6
:1017980034D06369296923F0C063490823F4FE4300
:1017A800013943EA002343EA4163636132E00228D6
:1017B80010D0032814D0012810D11B689F0738D5F2
:1017C800E3686A6823F07303013A184340EA021099
:1017D800E060D1E71B6813F4806FF1D10120F8BDF8
:1017E8001A689103ECD41B6813F4802FF5E7FEF711
:1017F800ADFEC01B0228C6D90320F8BD6269EB689C
:1018080022F41F3222F4407242EA00221B0942EA03
:1018180043426261236843F080532360FEF796FEDB
:10182800064623689B0005D563696A6913436361AB
:101838000020F8BDFEF78AFE801B0228F1D9DBE7FD
:10184800001002402DE9F347066816F400660446C6
:1018580024D0416EB1F5800F2CD002D8C1B1012639
:101868001CE0B1F5000F0DD0B1F5400FF7D14D4A8E
:10187800616ED2F8883023F440030B43C2F88830F5
:1018880000260BE0474AD36843F48033D360EEE781
:101898000430FFF7CBFE06460028E8D02368D804BA
:1018A80006D5A16EB1F1807F74D008D8A9B1012600
:1018B800354621E000212030FFF746FFEBE7B1F184
:1018C800007F04D0B1F1407FF1D1354609E0354AB7
:1018D800D36843F48033D360F7E7201DFFF7A6FEF3
:1018E8000546002D5CD12F4AA16ED2F8883023F02E
:1018F80040730B43C2F888302368990340F14F8145
:10190800284FBB6DDA0040F176814FF00008DFF810
:101918009890D9F8003043F48073C9F80030FEF786
:1019280015FE8246D9F80030DB053FD5002D44D19D
:10193800D7F8903013F4407315D0D4F8842093422C
:1019480011D0D7F89030D7F8902042F48032C7F8F9
:101958009020D7F8902023F4407322F48032C7F8FF
:101968009020C7F89030D80709D5FEF7EFFD41F26F
:1019780088390546D7F89030990740F10981D7F89A
:101988009030D4F8842023F440731343C7F8903080
:10199800354612E0002104F12000FFF7D5FE9FE74D
:1019A8002E46A9E70010024000700040FEF7CEFD69
:1019B800A0EB0A000228B5D90325B8F1000F03D01F
:1019C800BB6D23F08053BB652368DA0708D59049BF
:1019D800A06BD1F8882022F003020243C1F88820C6
:1019E8009F0708D58A49E06BD1F8882022F00C02BD
:1019F8000243C1F888205E0708D58549206CD1F8D4
:101A0800882022F030020243C1F88820180708D540
:101A18007F49606CD1F8882022F0C0020243C1F8E7
:101A28008820D90608D57A49A06CD1F8882022F4F4
:101A380040720243C1F888209A0608D57449E06CC0
:101A4800D1F8882022F440620243C1F888209F051B
:101A580008D56F49E06DD1F8882022F4402202436E
:101A6800C1F888205E0508D56949206ED1F888201C
:101A780022F440120243C1F88820580608D5644968
:101A8800206DD1F8882022F440520243C1F8882002
:101A9800190608D55E49606DD1F8882022F44042C5
:101AA8000243C1F88820DA0508D55949A06DD1F854
:101AB800882022F440320243C1F888209B040FD5C5
:101AC800534AE16ED2F8883023F040630B43B1F1FA
:101AD800006FC2F8883064D1D36843F48013D360B0
:101AE80023681F030FD54A4A216FD2F8883023F0A4
:101AF80040630B43B1F1006FC2F888305CD1D36802
:101B080043F48013D36023685E030FD5404A616FA6
:101B1800D2F8883023F040630B43B1F1006FC2F86C
:101B2800883054D1D36843F48013D36023685804B1
:101B380012D53749A26FD1F8883023F040531343A8
:101B4800B2F1805FC1F888304CD10221201DFFF727
:101B58006DFD002818BF05462268110408D52C49D8
:101B6800E06FD1F8883023F080430343C1F8883010
:101B7800D30309D5264AD4F88010D2F8883023F048
:101B880000430B43C2F88830284602B0BDE8F0870E
:101B9800FEF7DCFC401B48457FF6ECAE0CE735460B
:101BA80012E7B1F1806F9BD10121201DFFF73EFDA7
:101BB800002818BF054693E7B1F1806FA3D1012132
:101BC800201DFFF733FD002818BF05469BE7B1F13C
:101BD800806FABD10121201DFFF728FD002818BF19
:101BE8000546A3E7B2F1005FB6D1022104F1200057
:101BF800FFF7AAFDADE7BB6D43F08053BB65BB6D36
:101C080003F080530193019B4FF001087FE600BF6A
:101C1800001002400268C169F8B50446836800698B
:101C28001568034360690343BA480B4328400343DC
:101C380013605368E06823F4405303435360B64B82
:101C4800A0699A421CBF236A1843936823F430633F
:101C580003439360B14B9A4219D103F55843B04AF4
:101C6800D3F8883003F00303B1F5004FD35C40F09C
:101C78003881082B00F28F80DFE813F01A01CA00C0
:101C8800F9008D0014018D008D008D003600A54BE4
:101C98009A4207D103F5E633A34AD3F8883003F014
:101CA8000C03E1E7A14B9A4223D103F5E433D3F8BF
:101CB800883003F03003102B00F0F1800BD8002B94
:101CC80000F0F380B1F5004F4FF001024FF0000330
:101CD80000F0F880A8E0202B00F0C680302BF1D16E
:101CE800B1F5004F40F0B8806068430803F58033D1
:101CF800C3E08F4B9A421ED103F5E233D3F8883004
:101D080003F0C003402B00F0BB800AD87BB9824B9C
:101D18009A4240F0CA80FFF765FC0023B0BB024638
:101D28003AE0802B00F09D80C02B00F0B0807A4B09
:101D38009A42C7D12FE07F4B9A4211D103F5E03385
:101D4800D3F8883003F44073B3F5807F00F09880AF
:101D5800DCD9B3F5007F00F08480B3F5407FE4E779
:101D68006D4B9A42AED103F5C833D3F8883003F4EB
:101D78004063B3F5806F00F08380C7D9B3F5006F77
:101D88006FD0B3F5406FD0E76B480223626802EB6F
:101D98004201814205D90122002323666366104669
:101DA800F8BDB0EB023FF6D8082B2ED8DFE803F0D9
:101DB800052D1C2D242D2D2D2700FFF713FC6268FF
:101DC8004FF4807156080027E1FB00670023304676
:101DD8003946FEF7FDF90022584BA0F540719942AB
:101DE800D9D82368D860D7E755485508002300217B
:101DF800401941F10001ECE7FFF7E2F8DFE750088E
:101E08000021002310F50000F3E701220020E3E79A
:101E1800FFF7FAFB4EE0FFF7E5FB626800EB5203C1
:101E2800B3FBF2F39BB20022A3F110004FF6EF715F
:101E38008842B0D82168CB60AEE7FFF7E5FBECE756
:101E48006068430803F5740303F51053B3FBF0F31C
:101E5800E8E7FFF7B5F8E0E76068430803F50043F3
:101E6800F4E72D4B9A428FD0B1F5004FE8D1606866
:101E7800430803F1F47303F59043B3FBF0F31FE059
:101E8800254B9A420BD1FFF79BF8042346E7224BD8
:101E98009A427FF425AF4FF40040082376E7B1F566
:101EA800004FD6D1FFF78CF804E0B1F5004FB2D15E
:101EB800FFF798FB61684A0802EB4003B3FBF1F3B4
:101EC8009BB20022A3F110004FF6EF7188423FF653
:101ED80062AF23F00F012068C3F342030B43C360D2
:101EE8005AE7082B3FF657AF01A252F823F000BF7C
:101EF8001F1E0008431E0008491E00089F1D0008F9
:101F08005B1E00089F1D00089F1D00089F1D0008FC
:101F1800611E0008F369FFEF0080004000380140AF
:101F28007030000800440040743000080048004049
:101F3800004C0040005000400024F400FFFC0F005B
:101F4800000024F4436ADA0710B506D50168846AEC
:101F58004A6822F4003222434A609C0706D5016889
:101F6800C46A4A6822F4803222434A60590706D577
:101F78000168046B4A6822F4802222434A601A07E7
:101F880006D50168446B4A6822F4004222434A603D
:101F9800DC0606D50168846B8A6822F480522243E5
:101FA8008A60990606D50168C46B8A6822F40052D3
:101FB80022438A605A060FD50168046C4A6822F4E5
:101FC80080122243B4F5801F4A6005D14A68446CE8
:101FD80022F4C00222434A601B0606D50268816CBF
:101FE800536823F400230B43536010BD2DE9F041DF
:101FF800069D04460F46164698462168CA6937EA80
:1020080002030CBF01220022B24202D00020BDE828
:10201800F0816B1CF2D09DB923681A6822F4D07243
:102028001A609A6822F001029A60202384F87130BD
:1020380084F87230002384F870300320BDE8F08102
:10204800FEF784FAA0EB08008542D6D2E4E72DE932
:10205800F3411F4690F87130202B04460D469046F8
:102068004AD1002946D0002A44D090F87030012B7C
:1020780042D0012380F8703000234367212380F881
:102088007130FEF763FAA4F850800646A4F852802F
:10209800B4F85220009792B2334652B940212046F4
:1020A800FFF7A4FF58B9202384F8713084F8700032
:1020B80006E0002280212046FFF798FF18B1032090
:1020C80002B0BDE8F081A3682268B3F5805F0DD146
:1020D80023695BB935F8023BC3F308031385B4F8E9
:1020E8005230013B9BB2A4F85230D1E72B781385CC
:1020F8000135F4E70120E3E70220E1E72DE9F341A8
:10210800984690F87230202B04460D46164660D14A
:1021180000295CD0002A5AD090F87030012B58D092
:10212800012380F8703000234367222380F872303F
:10213800FEF70CFAA368A4F85860B3F5805F074669
:10214800A4F85A6015D123698BB940F2FF13A4F89B
:102158005C30B4F85C60B4F85A0080B2B8B9202397
:1021680084F8723084F8700002B0BDE8F081FF2373
:10217800EDE723B92369002BF9D07F23E7E7B3F113
:10218800805FE6D12369002BF7D03F23DFE7CDF846
:1021980000803B46002220212046FFF727FFD0B9C8
:1021A800A368B3F5805F23680CD1226952B99B8C70
:1021B800334025F8023BB4F85A30013B9BB2A4F8EF
:1021C8005A30C8E79B8C33402B700135F3E7012068
:1021D800CAE70220C8E70320C6E773B5044600260D
:1021E8004667FEF7B3F923681B681A07054617D434
:1021F80023681B685B070AD56FF07E4300930022B3
:102208002B464FF480012046FFF7F0FEA0B92023AB
:10221800002084F8713084F8700084F872300CE083
:102228006FF07E430093324603464FF40011204678
:10223800FFF7DCFE0028DBD0032002B070BD10B52C
:10224800044660B390F8713003F0FF021BB980F8C0
:10225800702000F0F9FD2268242384F87130136897
:1022680023F0010313602046FFF7D4FC012816D0A1
:10227800636A13B12046FFF765FE23685A6822F4A3
:1022880090425A609A6822F02A029A601A6842F0CC
:10229800010220461A60BDE81040FFF79EBF0120EA
:1022A80010BD0000224B10B5DA6C42F00402DA646B
:1022B800DA6C8AB002F004020192019ADA6C42F0F8
:1022C8008002DA64DA6C02F080020292029ADA6C16
:1022D80042F00102DA64DA6C02F001020392039A16
:1022E800DA6C42F00202DA64DB6C03F002030022CB
:1022F800049320214FF09040049BFEF785FA4FF499
:1023080000530024059305A90A4B0B48069307942C
:10231800FEF79EF92023059305A901234FF090406D
:10232800069307940894FEF793F90AB010BD00BF0E
:102338000010024000002110000800487FB5026824
:102348000F4B9A4219D14FF4407301931223029311
:10235800012303930323049304230DEB030109488A
:102368000593FEF775F9084B9A6D42F400129A65C9
:102378009B6D03F400130093009B07B05DF804FB0A
:10238800005400400004004800100240074A136847
:10239800196821F490711960996821F00101996018
:1023A800202382F87230002313667047DC00002077
:1023B800044A11680B6823F0C0030B60202382F8DD
:1023C80071307047DC0000201FB5084B08491A78A7
:1023D800084800914FF47A73029301230193BE21B8
:1023E800FEF7ACFB05B05DF804FB00BF050000205C
:1023F80001000020440000207FB5134B134D1A78CC
:10240800134B009301244FF47A76234602960194E5
:10241800BA212846FEF792FB0E4B1A780E4B009312
:10242800029623460194BA212846FEF787FB0B4BF8
:102438001A780B4B0093029601942346BA2128463A
:10244800FEF77CFB04B070BD0400002044000020AF
:102458000000002006000020020000200F000020DD
:10246800030000202DE9F04F664B674D1A78674B43
:10247800674FDFF8F481DFF8F4A1DFF8F491DFF8B3
:10248800F4B185B001244FF47A7602960194009352
:10249800BF2123462846FEF709FC5E4B1A785E4B9F
:1024A800029601940093BF2123462846FEF7FEFBBF
:1024B8005A4B1A785A4B029601940093BF2123462F
:1024C8002846FEF7F3FB3A78029601942346CDF8A6
:1024D8000080BF212846FEF7E9FB3A78029601946E
:1024E8002346CDF80080BF212846FEF7DFFB4D4B81
:1024F8004D4F1A784D4B029601940093BF21234605
:102508002846FEF7D3FB4A4B1A784A4B02960194A9
:102518000093BF2123462846FEF7C8FB464BBF2140
:102528001A78029601942346CDF800A02846FEF7B3
:10253800BDFB424BBF211A78029601942346CDF881
:1025480000902846FEF7B2FB9BF800200296019403
:1025580023460097BF212846FEF7A8FB9BF80020DA
:102568000296019423460097BF212846FEF79EFB5A
:102578002E4A98F8003011789AF800003A78304CD2
:1025880001EB03212F4B89B219802A4B1B7800EBF2
:1025980003202D4B80B2188099F8003002EB0322FB
:1025A8002A4B92B21A801E4B1B7803F00306C3F322
:1025B8008105274B26701D70144B1C78254B04EBA6
:1025C80006241C80144B1B7803EB0523224D2B801B
:1025D800224DE408521A2C8012B2214DDB0802EB7E
:1025E80082022B8052001B1B5343411A04EB8404C4
:1025F8001C4A09B293FBF1F303EB4403138005B0C3
:10260800BDE8F08F1900002044000020AD00002034
:10261800160000201C000020AC000020180000203C
:10262800B60000201700002096000020920000202D
:102638001A000020970000201B0000201D00002029
:10264800BA000020B4000020C4000020CE00002002
:1026580090000020AA000020B2000020CA0000203C
:102668009E000020B8000020AF000020A900002034
:10267800C20000201E0000202DE9F04F4A4B4B4DB0
:10268800DFF870811A784A4FDFF86CB1DFF86CA177
:10269800DFF86C9185B001244FF47A7602960194A4
:1026A8002346CDF80080BF212846FEF7FFFA414BAC
:1026B8001A78414B029601940093BF21234628467D
:1026C800FEF7F4FA3D4BBF211A780296019423468F
:1026D80000972846FEF7EAFA394BBF211A78029686
:1026E8000194234600972846FEF7E0FA354BBF21B0
:1026F8001A78029601942346CDF800B02846FEF7D2
:10270800D5FA314BBF211A78029601942346CDF8A9
:1027180000A02846FEF7CAFA2C4BBF211A78029669
:1027280001942346CDF800902846FEF7BFFA284BBF
:102738001A780296274E019423460096BF21284610
:10274800FEF7B4FA3878244B244A99F8001098F820
:102758000050E0401880224B1B78E34013809BF820
:1027680000409AF8002002EB042294B21D4A14801B
:10277800327802EB01221C4992B20A800E4909788C
:1027880001EB0521194D89B229801B1A091B121B5F
:1027980013FB01F312B293FBF2F3154A03441380BF
:1027A80005B0BDE8F08F00BF0D00002044000020F8
:1027B800CC0000200E000020D800002009000020D6
:1027C8000C00002007000020080000200A0000205C
:1027D8000B00002091000020A000002094000020A1
:1027E800C6000020C0000020DA0000209A00002067
:1027F800D0000020C7000020C80000209C00002056
:10280800980000202DE9F04F374BDFF80C91374D39
:102818001A78374E374FDFF80481DFF804B185B0F6
:1028280001244FF47A7ACDF808A023460194009544
:10283800BB214846FEF73AFA2F4BBB211A78CDF850
:1028480008A02346019400964846FEF72FFA2B4B22
:10285800BB211A78CDF808A0234601940097484672
:10286800FEF724FA264BBB211A78CDF808A0234698
:102878000194CDF800804846FEF718FA214BBB2199
:102888001A78CDF808A023460194CDF800B0484640
:10289800FEF70CFA1C4B1A78CDF808A0DFF884A0D4
:1028A80001942346CDF800A0BB214846FEF7FEF967
:1028B8009BF800309AF800201B0203EB024398F8BB
:1028C80000201344114A136033783A781B0203EB53
:1028D80002432A7813440E4A13600E4A1B0B1360F6
:1028E80005B0BDE8F08F00BF15000020A200002051
:1028F800B0000020A80000201400002013000020D1
:10290800120000201100002010000020BC00002050
:10291800D4000020A400002044000020D90000209A
:10292800AE000020CD0000202DE9F043154685B00B
:10293800294ADFF8AC90864600AF0C46106851680B
:102948003B1D03C31189927A9A701980E31D23F005
:102958000703ADEB030D04F1140323F00703E84666
:102968007146ADEB030D404600F029FB1B49384684
:1029780000F025FB391D684600F021FB41466846FA
:1029880000F00EFB6846394600F00AFBEB1D23F009
:1029980007036E46ADEB030DE8460C3403232246CD
:1029A80031464846FFF753FB0028F7D1FFF700FDF3
:1029B8000B4CADB264232A4641462046FFF79EFBE6
:1029C8000028F7D1FFF7E2FC6420FDF7C5FD1437B6
:1029D800BD46BDE8F08300BF94300008A130000870
:1029E800DC00002010B5104A104C106851688CB0FB
:1029F80001AB03C39068186003230C2201A9204689
:102A0800FFF725FB0028F7D1FFF7D2FC074C64231A
:102A18001E2204A92046FFF771FB0028F7D1FFF713
:102A2800B5FC0CB010BD00BF88300008DC000020E9
:102A38002DE9F043434C87B0804600AF20688946B3
:102A480061681E4607F10C0303C302F11005173233
:102A580022F00702A0681860ADEB020D4146381D50
:102A680000F0ADFA494607F1080000F0A8FA364927
:102A7800384600F0A4FA07F10C01684600F09FFA06
:102A88003249684600F08CFA4046FDF799FB012868
:102A98006C4603D12E49684600F082FA4046FDF79D
:102AA8008FFB022803D12B49204600F079FA4046D3
:102AB800FDF786FB032803D12749204600F070FA6A
:102AC800391D204600F06CFA2449204600F068FAC7
:102AD8004846FDF775FB012803D11F49204600F041
:102AE8005FFA07F10801204600F05AFA39462046F5
:102AF80000F056FAF31D23F00703ADEB030D013D7B
:102B0800DFF86090E846ADB203232A4621464846DE
:102B1800FFF79DFA0028F7D1FFF74AFC104D114C3A
:102B2800B6B22B46324641462046FFF7E7FA002860
:102B3800F7D1FFF72BFC6420FDF70EFD1C37BD46CF
:102B4800BDE8F083B23000089F300008A4300008C8
:102B5800A9300008AA300008AB300008AD300008E2
:102B6800C0270900DC00002010B5B8B04FF480720F
:102B7800089210220992012211920A22022312922B
:102B880005A8072205930F93109313921493159396
:102B9800FEF76AFA00B1FEE70F22032302900390C2
:102BA8000490042168468DE80C00FEF783FC00B110
:102BB800FEE722232590299016A81693FEF742FED9
:102BC80000B1FEE74FF40070FEF782F9044600B149
:102BD800FEE7FEF701FD4FF47A73B0FBF3F0FDF763
:102BE8000FFD0420FDF722FD224621464FF0FF305D
:102BF800FDF7D2FC38B010BD07B52E4CFDF788FCA8
:102C0800FFF7B2FFFFF74EFB00F0FCF800F0DAF830
:102C1800294A2A4B204684E80C0000230122A3609D
:102C2800E26023616361A361E3612362FDF735FF1D
:102C3800014600B1FEE72046FEF7F6F8014600B16E
:102C4800FEE72046FEF716F900B1FEE7FFF7BCFBEA
:102C5800FFF7D2FB6420FDF77FFC042210211848FF
:102C6800FFF762FE00F0AEF8FFF7BCFE00F0AAF82E
:102C7800FFF7F8FBFFF700FDFFF7C4FD114B10222B
:102C88006946188800F08AF90F4B102201A91888A4
:102C980000F084F905230C2201A96846FFF7C8FE55
:102CA80020214FF09040FDF7B4FD6420FDF754FC5F
:102CB800F6E700BF4400002000540040EC9C901050
:102CC800BE300008B8000020D0000020FEE7000059
:102CD800214B07B51A6E42F001021A661A6E02F00D
:102CE80001020092009A9A6D42F080529A659B6D9B
:102CF80003F0805301930320019BFDF73BFC002266
:102D080011466FF00B00FDF747FC002211466FF0EB
:102D18000A00FDF741FC002211466FF00900FDF79B
:102D28003BFC002211466FF00400FDF735FC002241
:102D380011466FF00300FDF72FFC002211466FF0DB
:102D48000100FDF729FC002211464FF0FF30FDF786
:102D580023FC03B05DF804FB001002407047FEE757
:102D6800FEE7FEE7FEE770477047704708B5FDF7D6
:102D7800E5FBBDE80840FDF766BC00000F49D1F847
:102D8800883043F47003C1F888300D4B1A6800206E
:102D980042F001021A6098601A6822F0A85222F4E0
:102DA80010221A604FF48052DA601A6822F48022E6
:102DB8001A6098614FF000638B60704700ED00E087
:102DC8000010024008B50C480C4B4FF4E13E80E877
:102DD80008400C2200238360C36003614261836161
:102DE80003624362FFF72BFA28B144210448BDE887
:102DF8000840FFF76BBF08BDDC00002000800040E2
:102E08001831000808B50D480D4B4FF4E13E80E835
:102E180008400C2200238360C36003614261836120
:102E2800C36103624362FFF70AFA28B159210548D2
:102E3800BDE80840FFF74ABF08BD00BF54010020A5
:102E4800004400401831000800B503681C4A93424A
:102E580089B019D11B4B1C48DA6D42F00102DA65C2
:102E6800DB6D03F0010301930222019B049203230B
:102E780003930022069308230592079303A9FDF7FD
:102E8800E7FB09B05DF804FB104A9342F9D10D4BFA
:102E98009A6D42F400329A659B6D03F400330293F5
:102EA800029B0C230393022304930023059303231B
:102EB80006930723079303A94FF09040DFE700BF6D
:102EC8000080004000100240000800480044004014
:102ED800DFF834D0002103E00C4B5B584350043139
:102EE8000B480C4B42189A42F6D30B4A02E00023D7
:102EF80042F8043B094B9A42F9D3FFF73FFF00F031
:102F080011F8FFF779FEFEE7008001205C31000828
:102F1800000000202400002024000020CC01002014
:102F2800FEE7000070B50D4E0D4CA41BA410002543
:102F3800A54209D10B4E0C4C00F08AF8A41BA41032
:102F48000025A54205D170BD56F8253098470135B2
:102F5800EEE756F8253098470135F2E75431000876
:102F6800543100085431000858310008931E222BB0
:102F780010B50C4604D900230B701C46204610BD22
:102F88000A2A09D1002807DA2D230B7040420121B3
:102F9800214400F01DF8F1E70021F9E7FFF7E6BF4B
:102FA80010B50246134601321C78002CFAD1013BB9
:102FB80011F8012B03F8012F002AF9D110BD03469F
:102FC80011F8012B03F8012B002AF9D170470000F2
:102FD800F0B51E4C8BB003460F466D4604F1200E2B
:102FE800206861682E4603C6083474453546F7D113
:102FF80021793171911E2068306022294FF000013B
:1030080004D939700F4638460BB0F0BD781E064615
:10301800B3FBF2F50DF1280E02FB153373444C1C7B
:1030280013F8283C06F8013F2B4665B93D557A1838
:10303800CC1AA342E7DA4478157800F8015F013327
:1030480002F80149F4E72146E2E700BF273100080A
:10305800F8B500BFF8BC08BC9E467047F8B500BF7D
:08306800F8BC08BC9E4670474D
:1030700001040208001010100410101002101010AB
:103080000841542B414B3D0041542B415050455574
:10309000490D0A0041542B4150504555493D002CE3
:1030A000300D0A00303236370030303000303236E2
:1030B000380041542B53454E443D30322C003930BA
:1030C000306463616665303030303030303100005C
:1030D00000000000000000010203040607080900C8
:1030E0000000000102030400A0860100400D03005F
:1030F000801A060000350C0040420F0080841E003C
:1031000000093D0000127A000024F40000366E0130
:103110000048E801006CDC022E2E5C5372635C7583
:10312000736172742E630030313233343536373880
:10313000396162636465666768696A6B6C6D6E6F3E
:0C314000707172737475767778797A007C
:08314C00BCD0FF7F0100000070
:04315400AD010008C1
:0431580089010008E1
:10315C00508301301020113736303B3A3129280B7F
:10316C002A29281716153D3C35323F3E332B2A00B1
:04317C0000093D0009
:0400000508002ED9E8
:00000001FF
