:020000040800F2
:10000000005000201D0600084D0C00084F0C000891
:1000100000000000000000000000000000000000E0
:10002000000000000000000000000000510C00086B
:100030000000000000000000530C0008550C0008F0
:100040006D0600086D0600086D0600086D060008C4
:100050006D0600086D0600086D0600086D060008B4
:100060006D0600086D0600086D0600086D060008A4
:100070006D0600086D0600086D0600086D06000894
:100080006D0600086D0600086D06000800000000FF
:100090006D0600086D0600086D0600086D06000874
:1000A0006D0600086D0600086D0600086D06000864
:1000B0006D0600086D0600086D0600086D06000854
:1000C00010B5064C2378002B07D1054B002B02D02E
:1000D000044800E000BF0123237010BD2000002071
:1000E00000000000E4250008044B10B5002B03D0ED
:1000F0000349044800E000BF10BDC04600000000F6
:1001000024000020E425000802B471464908490093
:10011000095C49008E4402BC7047C0460022430877
:100120008B4274D303098B425FD3030A8B4244D3BF
:10013000030B8B4228D3030C8B420DD3FF22090201
:1001400012BA030C8B4202D31212090265D0030BC0
:100150008B4219D300E0090AC30B8B4201D3CB03B6
:10016000C01A5241830B8B4201D38B03C01A5241F8
:10017000430B8B4201D34B03C01A5241030B8B42FA
:1001800001D30B03C01A5241C30A8B4201D3CB02E5
:10019000C01A5241830A8B4201D38B02C01A5241CA
:1001A000430A8B4201D34B02C01A5241030A8B42CD
:1001B00001D30B02C01A5241CDD2C3098B4201D3E5
:1001C000CB01C01A524183098B4201D38B01C01A63
:1001D000524143098B4201D34B01C01A52410309DA
:1001E0008B4201D30B01C01A5241C3088B4201D389
:1001F000CB00C01A524183088B4201D38B00C01A36
:10020000524143088B4201D34B00C01A5241411A5C
:1002100000D20146524110467047FFE701B5002069
:1002200000F0F0F802BDC0460029F7D076E770472D
:1002300003460B437FD4002243088B4274D3030947
:100240008B425FD3030A8B4244D3030B8B4228D3E8
:10025000030C8B420DD3FF22090212BA030C8B420E
:1002600002D31212090265D0030B8B4219D300E0AE
:10027000090AC30B8B4201D3CB03C01A5241830B33
:100280008B4201D38B03C01A5241430B8B4201D3E3
:100290004B03C01A5241030B8B4201D30B03C01A0C
:1002A0005241C30A8B4201D3CB02C01A5241830A86
:1002B0008B4201D38B02C01A5241430A8B4201D3B5
:1002C0004B02C01A5241030A8B4201D30B02C01ADF
:1002D0005241CDD2C3098B4201D3CB01C01A524146
:1002E00083098B4201D38B01C01A524143098B42CF
:1002F00001D34B01C01A524103098B4201D30B01B8
:10030000C01A5241C3088B4201D3CB00C01A5241DC
:1003100083088B4201D38B00C01A524143088B42A1
:1003200001D34B00C01A5241411A00D2014652413A
:10033000104670475DE0CA0F00D04942031000D359
:100340004042534000229C4603098B422DD3030AAE
:100350008B4212D3FC22890112BA030A8B420CD3BE
:10036000890192118B4208D3890192118B4204D3E7
:1003700089013AD0921100E08909C3098B4201D367
:10038000CB01C01A524183098B4201D38B01C01AA1
:10039000524143098B4201D34B01C01A5241030918
:1003A0008B4201D30B01C01A5241C3088B4201D3C7
:1003B000CB00C01A524183088B4201D38B00C01A74
:1003C0005241D9D243088B4201D34B00C01A52414B
:1003D000411A00D20146634652415B10104601D3D8
:1003E0004042002B00D54942704763465B1000D362
:1003F000404201B5002000F005F802BD0029F8D008
:1004000016E770477047C046002B11D1002A0FD164
:10041000002900D1002802D00021C943081C07B4DC
:10042000024802A14018029003BDC046D9FFFFFF59
:1004300003B4684601B5029800F006F8019B9E4699
:1004400002B00CBC7047C046F0B557464E46454614
:10045000DE46E0B5040083B00D00924699468B421B
:100460002FD82CD04946504600F0AEF8290006009F
:10047000200000F0A9F8331A9846203B9B4600D58F
:1004800074E053465A4693401F00534642469340F9
:100490001E00AF4229D826D05B46A41BBD41002BCD
:1004A00000DA79E0002200230092019301235A46EA
:1004B00093400193012342469340009319E0824206
:1004C000D0D900220023009201930C9B002B01D075
:1004D0001C605D600098019903B03CBC9046994651
:1004E000A246AB46F0BDA342D6D90022002300921B
:1004F00001934346002BE8D0FB0772081A43464697
:100500007B080EE0AB4201D1A2420CD8A41A9D4157
:10051000012024196D410021013E24184D41002E77
:1005200006D0AB42EED9013E24196D41002EF8D120
:100530005B460098019900196941002B22DB2B00D2
:100540005A46D3402A004446E2401C005B46150050
:10055000002B2CDB26009E40330026004746BE4081
:100560003200801A994100900191AEE74246202363
:100570009B1A5246DA40414613004A468A40170009
:100580001F4382E7424620239B1A2A0046469A4090
:100590002300F3401343D5E74246202300219B1A52
:1005A0000022009101920122DA40019282E7424644
:1005B000202326009B1ADE402F00B4469740664653
:1005C0003B003343C9E7C04610B5002903D100F012
:1005D00007F8203002E0081C00F002F810BDC04609
:1005E0001C2101231B04984201D3000C10391B0A63
:1005F000984201D3000A08391B09984201D3000927
:10060000043902A2105C40187047C046040302027D
:100610000101010100000000000000000D488546B6
:10062000002103E00C4B5B58435004310B480C4B4A
:1006300042189A42F6D30B4A02E0002313600432B8
:10064000094B9A42F9D300F04BFB01F0A7FF00F0F1
:10065000C9FAFEE7005000206826000800000020CC
:1006600020000020200000204C010020FEE70000B8
:1006700004201F4B70B5D96A01250143D962DA6A9B
:100680008AB002400192019AD96A7C300143D96252
:100690000221A026DA6AF60502400292029ADA6A7C
:1006A00030002A43DA62DA6A00242A400392039A6D
:1006B000DA6A0A43DA62DB6A00220B4004931E31D5
:1006C000049B00F093FC80239B010593094B05A933
:1006D00009480693079400F0CDFB202305A93000BC
:1006E000059306950794089400F0C4FB0AB070BD0A
:1006F00000100240000021100008005010B5164BF9
:10070000164C01222360164B200063600023E26038
:10071000A36023616361A361E361236200F08CFD48
:10072000002803D042210F4800F06EFA002120007B
:1007300000F00CFF002803D049210A4800F064FAB9
:100740000021200000F028FF002803D05021054898
:1007500000F05AFA10BDC04600540040640000206A
:10076000380F3000FC2500087FB50D4B02689A4217
:1007700014D1C0239B00019312230293113B0393D6
:100780000233049301A901330648059300F072FB7C
:100790008023054A9B03916B0B43936307B000BD15
:1007A0000054004000040050001002402549264A31
:1007B0000B6810B51A4080231B0113430B60A02364
:1007C0009EB0DB02119302231A9380235B021B93DA
:1007D000C0231B031C9380230124DB0310A8109467
:1007E0001D9300F037FF002800D0FEE70F23039091
:1007F000019304900C3B0590210001A8029301F0A5
:10080000D5F9002800D0FEE70A230A900C9006A82C
:10081000069301F0A9FA041E00D0FEE701F07EFA6B
:10082000FA218900FFF77AFC00F0F6FA042000F0C4
:100830000DFB012022002100404200F0BDFA1EB055
:1008400010BDC04600700040FFE7FFFFF7B5050090
:100850000F00160003230C4C00932978023B3A004A
:10086000200000F03FFD0028F4D1032729780097ED
:1008700001233200200000F0CFFD0028F6D16430C3
:1008800000F08EFAF7BDC04664000020F8B53B4C7E
:100890003B4E200032003B49FFF7D8FF3A4D200085
:1008A0002A003A49FFF7D2FF394F20003A00394970
:1008B000FFF7CCFFC0213B7889001A029B010A4058
:1008C00019402B7830785B183349821833480B80F5
:1008D00033490280D210334D0A80334ADB10138033
:1008E00020002A003149FFF7B1FF314E20003200CD
:1008F0003049FFF7ABFF32782B7812029B182E4E4F
:100900002E4A200013802E493200FFF79FFF2D4F03
:1009100020003A002C49FFF799FF3A7833782B4EA4
:100920002B4D12029B18200032002A492B80FFF722
:100930008DFF294F29493A002000FFF787FF3878BB
:1009400033780002264A1B181BB21380144A002475
:10095000145F1A4A0026965F134A981B0021525EC4
:10096000204B121B504318600023E95E891BFFF7E0
:100970005FFC1D4B04191C80F8BDC0461700002009
:1009800052000020110000205C0000201400002014
:1009900044000020080000205E00002054000020D9
:1009A0004C000020510000205600002010000020C4
:1009B000500000200F0000205B0000204E000020AF
:1009C000130000205A0000201200002063000020C5
:1009D00058000020160000206200002015000020B2
:1009E00060000020C0000020BC000020F8B5314CA1
:1009F000314E200032003149FFF728FF304D2000F2
:100A00002A003049FFF722FF33782F4A9B081380D2
:100A10002B782E4A2E4D9B08138020002A002D494A
:100A2000FFF714FF2C4E200032002C49FFF70EFF79
:100A300032782B7812029B18294E2A4A2000138004
:100A400029493200FFF702FF284F20003A002849C9
:100A5000FFF7FCFE3A783378264E274D12029B189A
:100A60002000320025492B80FFF7F0FE244F254956
:100A70003A002000FFF7EAFE387833780002224A75
:100A80001B181BB21380104A0024145F154A00265D
:100A9000965F0E4A981B0021525E1C4B121B50435E
:100AA00018600023E95E891BFFF7C2FB184B04198D
:100AB0001C80F8BD170000203E000020020000202E
:100AC0004100002005000020B8000020B4000020F4
:100AD0003D000020010000203C000020000000201C
:100AE00040000020D0000020040000203F00002033
:100AF0000300002043000020CA000020070000205F
:100B00004200002006000020C8000020B0000020A5
:100B1000BA000020F8B5224C224F20003A002249AA
:100B2000FFF794FE214E200032002149FFF78EFE90
:100B30002000204A2049FFF789FE3B7832781033A5
:100B400012021B049B181B4A1C4F12781C4D9B1849
:100B500020003A001B492B60FFF778FE1A4E200058
:100B600032001A49FFF772FE194A1A492000FFF7AE
:100B70006DFE3B7832781B0412029B18144A1278DF
:100B80009B18154A13602A689B18144A1360DA17D9
:100B90001205120DD318124A1B131380F8BDC0465C
:100BA00018000020480000200C0000204900002010
:100BB0000D0000204A0000200E000020450000200B
:100BC000C400002009000020460000200A00002088
:100BD000470000200B000020CC000020D4000020A3
:100BE000BE00002010B500F0BDF8FFF7DFFDFFF7F5
:100BF0003FFD00F035F8FFF781FDFFF747FEFFF7F7
:100C0000F5FEFFF787FFF8E7FEE7000001220E4B35
:100C100010B5596B05200A435A638022996B52051F
:100C20000A439A6300224042110000F0C5F80022F6
:100C300002201100404200F0BFF800220120110004
:100C4000404200F0B9F810BD001002407047FEE7C6
:100C50007047704710B500F095F800F006F910BD28
:100C60000C480D4B10B50360E1235B0243600C227E
:100C7000002342618360C36003618361C3610362D7
:100C8000436201F055FC002803D044210348FFF7DC
:100C9000BBFF10BDD8000020004400400F26000814
:100CA0007FB50D4B02689A4214D180230B4A9B02F8
:100CB000916BA0200B4393630C2301930A3B029397
:100CC000002303930333049301A90133C005059363
:100CD00000F0D0F807B000BD004400400010024012
:100CE0008022104B520019680A431A60DA680E49D4
:100CF0000A40DA601A680D490A4001211A609A68B0
:100D00008A439A601A680A490A401A60DA680949EF
:100D10000A40DA6000221A618022074B12059A60AD
:100D20007047C046001002400C40FF88F6FFF6FEF8
:100D3000FFFFFBFFFFFF02FF00ED00E0FA21084B81
:100D400010B5890004001868FFF7E8F900F064F8AE
:100D5000012000222100404200F02EF8002010BDAA
:100D60001C0000204023064A10B5116800200B43E8
:100D70001360FFF7E3FFFFF749FF002010BDC046F7
:100D800000200240024A1368013313607047C046D6
:100D900048010020014B18687047C04648010020F8
:100DA00013B50190FFF7F6FF0400FFF7F3FF019B77
:100DB000001B9842F9D313BD70B58901002814DADD
:100DC0000F23C0B20340083B114A9B089B009B18AD
:100DD000032210409040FC321500114085408140B4
:100DE000DC69AC432143D96170BD032583082840E9
:100DF000A840FC352E00074A9B009B18C022864065
:100E00002940814092009C58B44321439950EBE71C
:100E100000ED00E000E100E0094A431E012093429A
:100E20000DD8C021074A08485360036A09061B020F
:100E30001B0A0B4303620020072390601360704776
:100E4000FFFFFF0010E000E000ED00E0054B1A6836
:100E5000042802D110431860704704218A431A60A5
:100E6000FAE7C04610E000E0704710B5FFF7FCFF5E
:100E700010BD0000F0B5554A0B688218541EA241FF
:100E800085B00193002305320392019ADA4001D123
:100E900005B0F0BD01259D40019A2A40009200D185
:100EA00091E04A6894461022644694432200013C33
:100EB000022A1FD107240F271C40A400A740DA08EC
:100EC00092008218166ABE430F69A7403E4316621D
:100ED00003245E00B4408268A243CC68B44022433D
:100EE00082606246D206D20F9A404468AC432243E5
:100EF000426001E0012CEBD9032634005D00AC40D8
:100F00006246E4433240AA40076827403A43026001
:100F1000C26814408A68AA4014436246C460D20082
:100F200051D501252A4C0F27626B2A431D003540FD
:100F3000AD00AF406263274A9C08A400A418A268D1
:100F4000BA43A0270292FF050022B84210D0224FD8
:100F50000132B8420CD0214F0132B84208D0204FA4
:100F60003200B84204D01F4E0132B04200D0039A82
:100F7000AA406746029D2A43A2601B4A009C16684D
:100F8000009DE4433543FF0301D435002540674607
:100F900015605668009D3543BF0301D435002540D8
:100FA000674655609668009D3543FF0201D43500C1
:100FB000254067469560D568009E2E43BF0201D448
:100FC00025402E00D66001335FE7C04600E4FFAF46
:100FD00000100240000001400004005000080050D2
:100FE000000C00500010005000040140002A01D005
:100FF000816170478162FCE703689A69920701D5B5
:1010000000229A6201229969114202D199690A4328
:101010009A61704770B5049E89053343890D194361
:1010200080230468DB00700D1840044B65681204CF
:101030001843854311432943616070BDFF63FF037B
:10104000F8B504000E0017001D00226893693340B4
:101050009B1B59424B41BB4201D000200EE06B1C50
:10106000F4D0002D0BD12300202241331A7022002E
:10107000002303204232403413702370F8BDFFF781
:1010800089FE069BC01A8542DFD2ECE7F8B50368FB
:101090000400986910230E0017001840202500282E
:1010A00015D1F8BD721C13D0002E0BD123002022C5
:1010B00041331A702200002342324034137003205F
:1010C0002370EEE7FFF766FEC01B8642EED323686F
:1010D0009A692A42E6D010222000DA61DD61FFF72A
:1010E0008BFF22680849536801200B40536004239A
:1010F00063642300220041331D70002342324034D8
:1011000013702370CDE7C04600E800FEF8B5040078
:101110000D001600022723689B693B4201D0002086
:1011200018E0320029002000FFF7B0FF002818D196
:101130006B1CF0D0002D0ED12022636C03201343D2
:101140006364230041331A7022000023423240348A
:1011500013702370F8BDFFF71DFE801B8542DAD2A5
:10116000EAE70120F6E70000F8B504000D001700DB
:101170002026042223689B69134201D0002025E029
:101180003A0029002000FFF781FF00280FD12368D3
:101190009A6932420DD0DE615A6810490A405A609D
:1011A00023006064413340341E7058702070012069
:1011B0000CE0002D0BD12022636C032013436364E9
:1011C000230041331A70002340342370F8BDFFF729
:1011D000E1FDC01B8542CCD2EDE7C04600E800FE31
:1011E000F8B504000D001600202723689B693B42D8
:1011F00001D0002016E0320029002000FFF746FF52
:10120000002816D1002D0ED12022636C0320134339
:101210006364230041331A702200002342324034B9
:1012200013702370F8BDFFF7B5FD801B8542DCD23B
:10123000EAE70120F6E7000070B504000120002C69
:101240003FD0250041352B78DBB2002B05D12200A1
:10125000403213702000FFF787FA242301212B70FE
:101260002368E0681A68A6688A431A6061681A4AA7
:101270000A401A619968194A11409960012821D1E0
:10128000802109023143996058681549014359602A
:10129000D96800200A40DA60616922690A43A169BD
:1012A00009020A43DA60216AE2690A431A600122EC
:1012B00019680A431A60202360642B70206342344B
:1012C000207070BD84210902314399600228DBD16E
:1012D000802109015960D7E7FFFFFFF0FF7FFFFF83
:1012E00000800002F0B5050087B0039104920593D9
:1012F00041352B7804000220202B56D123004033A7
:101300001A78012A51D001261E70FFF743FD802173
:10131000070000901923320009022000FFF790FE19
:10132000002841D121232B70113BAD192B70049B58
:10133000606463626B469B8A60636385628D344B35
:10134000FF2A21D9FF222285009380235B04039981
:101350002000FFF75FFEFF26638D3A000C99200006
:10136000002B19D1FFF73CFF002819D12021236859
:10137000284ED9615A6832405A60230040344133C4
:1013800019702870207010E0628D92B2228500934F
:101390008023D2B29B04DAE7FFF7B8FE002806D01C
:1013A000636C0120042B00D0032007B0F0BD636AFA
:1013B0002268591C61621B789362638D228D013B08
:1013C000013A9BB292B263852285002AC4D1638D13
:1013D000002BC1D000970C9B80212000FFF730FE2E
:1013E0000028E1D1638DFF2B09D98023FF222685B8
:1013F0005B04009003992000FFF70CFEACE780230C
:10140000628D9B0492B22285D2B20090F2E7C04670
:101410000020008000E800FEF0B5050087B00391D1
:101420000492059341352B7804000220202B56D1DD
:10143000230040331A78012A51D001261E70FFF78D
:10144000A9FC802107000090192332000902200026
:10145000FFF7F6FD002841D122232B70123BAD1976
:101460002B70049B606463626B469B8A6063638538
:10147000628D344BFF2A21D9FF22228500938023DD
:101480005B0403992000FFF7C5FDFF26638D3A003A
:101490000C992000002B19D1FFF7A2FE002819D1CA
:1014A00020212368284ED9615A6832405A602300AF
:1014B0004034413319702870207010E0628D92B270
:1014C000228500938023D2B29B04DAE7FFF74CFE1B
:1014D000002806D0636C0120042B00D0032007B045
:1014E000F0BD636A5A1C62622268526A1A70228DC9
:1014F000638D013A013B92B29BB222856385002A3B
:10150000C4D1638D002BC1D000970C9B802120009B
:10151000FFF796FD0028E1D1638DFF2B09D98023C9
:10152000FF2226855B04009003992000FFF772FDDF
:10153000ACE78023628D9B0492B22285D2B20090E8
:10154000F2E7C0460024008000E800FEF0B5040089
:10155000413422780300D2B20220202A18D11D0083
:1015600040352E78012E13D01B68223020701E6863
:10157000233886431E601E68064F3E401E601E686C
:1015800031431960196808431860002022702870E0
:10159000F0BDC046FFEFFFFFF0B5050041352A78EA
:1015A0000300D2B20220202A17D11C004034267832
:1015B000012E12D01B68223028701E682338864303
:1015C0001E601E68054F09023E40314319601968CC
:1015D0000843186000202A702070F0BDFFF0FFFF64
:1015E000F022174B30B5D96811420BD000230121EE
:1015F000144802688A431A43026000680840584051
:10160000084030BD8021C0229D6B49050E4C52011F
:101610000D420AD023681A40C0235B019A42E5D1EB
:101620000A4BC01843424341E1E79D6B294399634C
:101630002168074C0A40996B21409963ECE7C0464A
:101640000010024000200240007000400040FFFFF8
:10165000FFFFFFEFF0B5036885B00400DB074ED451
:1016600023689B0700D59FE02368DB0635D50C2354
:10167000BC4DEA681A4200D0E9E02B689B0502D510
:10168000E369002B50D0E0226B68606A12021340BD
:10169000984200D8C9E0FFF7A3FF002844D16B6847
:1016A000B14A1340626A13436B606A68236A12028C
:1016B0001B06120A13436B60636AEA68590B8023A6
:1016C00001311B028B401206A849120F8A5C0020D0
:1016D000D340A74A1360FFF731FB23681B0700D5EF
:1016E000ECE023685B0700D50FE123689B0600D57B
:1016F00090E1A16A002900D0C0E1002015E00C2192
:10170000984DEB680B40082B08D08023EA685B02F9
:101710000A408A420BD1EA681A4208D02B689B0320
:101720009ED56368002B9BD1012005B0F0BD626897
:101730009A4212D12A6813432B60FFF72BFB8026B5
:101740000700B6022B68334200D089E7FFF722FB7F
:10175000C01B6428F6D90320E7E7A021C9028A420A
:1017600005D180222968D2020A432A60E2E729686B
:1017700080480140296029680B400393039B7E4900
:101780002B680B402B60002AD7D1FFF703FB802684
:101790000700B6022B68334200D161E7FFF7FAFA7F
:1017A000C01B6428F6D9D6E70C216E4DEA680A40C2
:1017B000042A06D0EB680B408B4210D1EB68DB03A8
:1017C0000DD42B685B0702D5E368012BACD16A68A6
:1017D00023696A491B020A4013436B6044E7E268CD
:1017E0002B68002A10D009218B4313432B60FFF78D
:1017F000D1FA042607002B683342E8D1FFF7CAFA72
:10180000C01B0228F7D9A6E7012293432B60FFF7FC
:10181000C1FA042607002B68334200D124E7FFF702
:10182000B9FAC01B0228F6D995E76B684E4A1340F7
:1018300003436B606A68236A12021B06120A134391
:101840006B60FFF7CDFE002800D135E76CE7E36958
:10185000002B20D080232A685B0013432B60FFF706
:1018600099FA80260700B6002B6833420DD06B68CA
:101870003D4A1340626A13436B606A68236A12022E
:101880001B06120A13436B6027E7FFF783FAC01B9E
:101890000228E9D95FE72B68394A802613402B607C
:1018A000FFF778FA0700B6002B68334200D114E73F
:1018B000FFF770FAC01B0228F6D94CE762690123D2
:1018C000284D002A10D02A6D022613432B65FFF7FE
:1018D00061FA07002B6D334200D002E7FFF75AFA96
:1018E000C01B0228F6D936E72A6D02269A432A65DC
:1018F000FFF750FA07002B6D334200D1F1E6FFF7F6
:1019000049FAC01B0228F6D925E780230021154D8E
:101910005B05AA6B00911A4204D1AA6B1343AB6317
:10192000012300938027174E7F0033683B4208D085
:101930008022A3685200934226D12A6D13432B655F
:1019400047E033683B433360FFF724FA0190336884
:101950003B42EDD1FFF71EFA019BC01A6428F6D96D
:10196000F9E6C04600100240FF1FFFFF24260008D2
:101970001C000020FFFFFEFFFFFFFBFFFFE0FFFF5B
:10198000FFFEFFFF00700040002B16D12B6D604A58
:10199000802713402B652B6D5E4ABF0013402B65DB
:1019A000FFF7F8F906002B6D3B422AD0FFF7F2F95A
:1019B000594B801B9842F6D9CDE6A021C9008B4235
:1019C0000DD18023296DDB000B432B652B6D1A4352
:1019D0002A65FFF7DFF980270600BF000EE02B6DB8
:1019E0004B4A13402B652B6D4A4A1340A7E7FFF77C
:1019F000D1F9494B801B984200D9ACE62B6D3B4294
:101A0000F5D0009B012B00D06FE6AB6B434A13402F
:101A1000AB636AE6A1690123414D424A002918D00F
:101A2000A96802261943A960696B0B436B63802385
:101A3000116A9B010B431362FFF7ACF90700AB6817
:101A4000334200D055E6FFF7A5F9C01B0228F6D9AE
:101A500081E6A96802269943A960136A32490B40BE
:101A60001362FFF797F90700AB68334200D140E6F5
:101A7000FFF790F9C01B0228F6D96CE60C22284D1E
:101A80000120EB681340934200D14EE62B68274AB1
:101A900013402B6002292BD1FFF77CF98026070029
:101AA000B6042B6833421DD1216BE36AEA680B430D
:101AB0001F490A401343626B80241343EB60802369
:101AC0002A685B0413432B60FFF764F90600A40443
:101AD0002B68234200D010E6FFF75CF9801B022838
:101AE000F6D938E6FFF756F9C01B0228D9D932E6F5
:101AF000FFF750F980240600A4042B68234200D18C
:101B0000FBE5FFF747F9801B0228F6D923E6C0461C
:101B1000FFFEFFFFFFFBFFFF88130000FFFFFFEF4B
:101B20000010024000000140FFDFFFFFFFFFFFFE4B
:101B3000FFFF02FF0C22184B10B5D9680A40082A93
:101B400026D00C2A06D0042A1AD11B68DB0621D421
:101B5000124810BD8A021248120F825C0902D8682E
:101B6000890F0131C00304D50E485043FEF7D6FA61
:101B7000EFE71B68DB0601D50B48F6E70748F4E7FB
:101B800080205B6800021B045B0F01339840E0E794
:101B90000448DEE70448DCE7001002400024F400BB
:101BA0003C26000800127A0000093D00F7B501222A
:101BB000534C06002368019113408B4228D33268AE
:101BC000930731D4D30737D40123226801991A40EF
:101BD000914200D285E032684A4C530700D587E035
:101BE000130706D5E26833694749DB000A4013430F
:101BF000E360FFF79FFFE368444A1B061B0FD35CBB
:101C0000D840434B18600020FFF798F800200AE006
:101C10002368019993430B43236023681340019A7F
:101C20009A42CCD00120FEBDF0203649CB688343D8
:101C3000B0680343CB60C5E7324D72682B68022A57
:101C400019D19B03EED50321EB688B431343EB6063
:101C5000FFF7A0F873680700022B19D10C22EB687C
:101C60001340082BB0D0FFF795F82A4BC01B9842C1
:101C7000F4D90320D7E7032A02D19B01E3D4D1E7AB
:101C8000012A02D15B07DED4CCE79B05DBD4C9E790
:101C9000032B0CD10C22EB681340934200D193E745
:101CA000FFF778F81B4BC01B9842F3D9E1E7012BF3
:101CB00011D00C22EB68134200D185E7FFF76AF8D8
:101CC000144BC01B9842F4D9D3E7FFF763F8114BCC
:101CD000C01B9842CDD80C22EB681340042BF4D1E2
:101CE00072E722689A43226022681A429AD172E708
:101CF000E36809490B40F1680B43E36070E7C046B5
:101D00000020024000100240FFC7FFFF2426000809
:101D10001C00002088130000FFF8FFFF014B18682B
:101D20007047C0461C000020044B054ADB685B0579
:101D30005B0FD35C034A1068D84070470010024024
:101D4000342600081C000020044B054ADB689B0475
:101D50005B0FD35C034A1068D84070470010024004
:101D6000342600081C0000208223F7B502681B01FE
:101D700005001A4248D080230021654C5B05A26B08
:101D800000911A4204D1A26B1343A3630123009371
:101D90008027604E7F0033683B4277D06968C0225D
:101DA00008002368920313401040834203D1A868BF
:101DB0000240934209D0C0230A009B021A409A4273
:101DC00003D1236801209B0371D4C022236D9202AA
:101DD000134000D06CE06968C0230A009B021A40DF
:101DE0009A4207D123684C480340C0208003014039
:101DF0000B432360236D1A43009B2265012B03D103
:101E0000A36B464A1340A3632B68DA0706D5032069
:101E10003F49CA6C8243E8680243CA649A0706D500
:101E20000C203B49CA6C824328690243CA645A07A2
:101E300006D537493A48CA6C024068690243CA6409
:101E40001A0706D532493748CA6C0240A8690243CE
:101E5000CA64DA0506D52E493348CA6C0240E869DF
:101E60000243CA645A0606D529493048CA6C024062
:101E7000686A0243CA6400201B0618D5244A2C490C
:101E8000D36C0B40296A0B43D36410E033683B43A7
:101E90003360FEF77FFF019033683B4200D07DE75F
:101EA000FEF778FF019BC01A6428F5D90320FEBD18
:101EB00011408B4202D02968890608D4A9680A40DB
:101EC000934200D187E72B681B0500D483E780226B
:101ED000216D206D120302432265226D124B1548BD
:101EE0000B40024022652365CB0500D473E7FEF763
:101EF00051FF80270600BF00236D3B4200D06AE7F8
:101F0000FEF748FF0C4B801B9842F5D9CEE7C04640
:101F10000010024000700040FFFFCFFFFFFFFFEF07
:101F2000FFF3FFFFFFCFFFFFFFFFFCFFFFFFFFFB04
:101F3000FFFFF3FFFFFFF7FF8813000070B51028C5
:101F400000D1CDE01ED8022800D19EE004D801289F
:101F500000D181E000203BE0042800D1A6E0082861
:101F6000F8D1C0216A4A8901D36C0B4000D191E0BD
:101F7000802189018B4200D178E080225201934276
:101F8000E8D179E040283FD00FD82028E2D1C02501
:101F900080205F49AD020B6D0A6D40022A408242EB
:101FA0000DD19805C00FC00312E080235B0098425A
:101FB00000D19DE080231B019842E8D0CAE780242D
:101FC000A402A24205D102200340181E00D05148AD
:101FD00070BD0020AA42FBD10B682342F8D0C0227A
:101FE0000B6880219203134089038B4208D09342EF
:101FF00000D18AE080225203934203D14648E7E7AA
:102000004648E5E74648E3E78020414BC004DA6CE8
:1020100010401AD11A689201DAD5DA684148D968B5
:102020009202120F805C0902DA68890F0131D20333
:1020300007D41B68DB0606D43B4B5843FEF76EF80B
:10204000C6E73A4BF9E7364BF7E702229B681340A5
:10205000181EBDD03648BBE703212D4AD36C0B4078
:1020600002D1FFF771FEB3E7022B03D113680422FC
:10207000134027E0012B02D1FFF75CFDA8E7002009
:10208000032BA5D1106D80058CE70C21204AD36C61
:102090000B4002D1FFF748FE9AE7082BE6D0042B4D
:1020A000EAD000200C2B00D092E7EBE7C021184AC1
:1020B0000901D36C0B40EDD080242401A34206D14A
:1020C00013680340181E00D182E7174880E780207C
:1020D000C0008342D0D000208B4200D078E7D1E707
:1020E0000B4B986B8023DB03184000D170E7D1E7DE
:1020F000C021074A8902D36C0B40CBD080218902D2
:102100008B42B3D08022520239E70A4860E7C046CA
:10211000001002408890000080841E0040420F00A2
:1021200000093D003C2600080024F40000127A005B
:10213000006CDC0220A10700F8B505000368826886
:102140000069196802436869824E0243E8690243E4
:10215000814801400A431A605A6880490A40E96888
:102160000A435A60A969B34201D02A6A11439A68A6
:102170007B4802400A439A607A4A934217D103226D
:10218000794BDB6C1340794AD45C0220FFF7D6FE12
:102190002F680300B74266D1082C00D9D7E0200091
:1021A000FDF7B2FF31D539D559D5D5D55C00704A88
:1021B000934205D10C226C4BDB6C13406D4AE3E774
:1021C0006D4A00249342E0D06C4A9342DDD0103433
:1021D000B342DAD1C0228021634B1201DB6CC9000B
:1021E00013400C3C8B42D0D004D80024A342CCD066
:1021F0001024CAE78021022409018B42C5D006348D
:102200009342C2D0F4E7FFF78FFD00240300A04201
:1022100006D12000F8BD544B1B68DB0621D4584B77
:1022200003216A68012451439942F2D8110399426B
:10223000EFD300275608190E1802801979413B0088
:10224000FEF7E2F84F4BC2184F4B9A42E1D82B6889
:10225000D8600024DDE7FFF76DFCD6E780231B0282
:10226000DEE74A4BDCE78022E969120291423FD166
:10227000082C3AD82000FDF747FF050F17383038F3
:10228000383833006A685B00110050081818FDF7F1
:1022900045FF002480B216E0FFF756FD6B68400052
:1022A0005B08C0186968F2E72F4B69681C68102347
:1022B00048081C4002D0364BC018E8E7354BC01820
:1022C000FDF72CFF80B20F2302009A431300000792
:1022D0002A68400F1843D0609BE7FFF72BFCDDE72F
:1022E0006B68580880235B02DBE701240020EAE7E3
:1022F000082C2CD82000FDF707FF050F122A222AF0
:102300002A2A2500FFF710FD69684B081818FDF709
:1023100005FF80B2F8609CE7FFF716FDF4E7124B6B
:1023200069681C68102348081C4001D0174BEDE772
:10233000134BC018FDF7F2FE80B2F86069E7FFF7B3
:10234000F9FBE1E7802369681B024808DEE7012406
:102350005FE7C04600480040F369FFEFFFCFFFFF93
:10236000FFF4FFFF0038014000100240452600083E
:102370000044004049260008004C00400050004046
:102380000024F40000FDFFFFFFFC0F0000093D00EA
:1023900000127A000048E801436A30B5DA0706D532
:1023A0000168284C4A682240846A22434A609A079E
:1023B00006D50168244C4A682240C46A22434A6018
:1023C0005A0706D50168214C4A682240046B224313
:1023D0004A601A0706D501681D4C4A682240446BC2
:1023E00022434A60DA0606D501681A4C8A68224000
:1023F000846B22438A609A0606D50168164C8A6867
:102400002240C46B22438A605A0610D50168134DDE
:102410004A68046C2A4022434A6080225203944254
:1024200005D14A680E4C2240446C22434A601B0688
:1024300006D502680B4953680B40816C0B4353600F
:1024400030BDC046FFFFFDFFFFFFFEFFFFFFFBFFAC
:10245000FF7FFFFFFFEFFFFFFFDFFFFFFFFFEFFF4C
:10246000FFFF9FFFFFFFF7FFF8B504000E00150008
:102470001F002268D36933409B1B59424B41AB423A
:1024800001D0002018E0069B0133F3D0069B002BFF
:1024900013D123680C491A6803200A401A609A680D
:1024A000A331FF318A439A602200202369321370DE
:1024B0005370002368342370F8BDFEF76BFC069B55
:1024C000C01B8342D5D2E4E75FFEFFFF73B5002651
:1024D0000400C666FEF75EFC236805001B681B0748
:1024E00017D423681B685B070AD580210F4B002295
:1024F0000093C9032B002000FFF7B6FF002813D17B
:102500002200202300206932683413705370207039
:102510000BE08021054B320000938903030020006B
:10252000FFF7A2FF0028DCD0032076BDFFFFFF01EC
:1025300070B5041E01D1012070BD050069352B78EE
:10254000DBB2002B04D1020068321370FEF7A8FB47
:102550002423012122682B7013688B431360636A64
:10256000002B02D02000FFF717FF2000FFF7E4FD4B
:102570000128E0D0236808495A6820000A402A212F
:102580005A609A688A439A60012219680A431A605D
:10259000FFF79CFFD0E7C046FFB7FFFF70B50026EE
:1025A0000C4D0D4C641BA410A64209D1002600F06E
:1025B00019F80A4D0A4C641BA410A64205D170BD3F
:1025C000B300EB5898470136EEE7B300EB58984755
:1025D0000136F2E760260008602600086026000841
:1025E00064260008F8B5C046F8BC08BC9E46704793
:0C25F000F8B5C046F8BC08BC9E46704719
:1025FC002E2E5C2E2E5C2E2E5C5372635C69326325
:10260C002E63002E2E5C2E2E5C2E2E5C5372635C81
:10261C0075736172742E63000000000000000000EE
:10262C00010203040607080900000000010203046C
:10263C00030406080C1018203001040208001010C6
:0C264C0010041010100210101008000004
:08265800F0DDFF7F010000002E
:04266000E900000885
:04266400C1000008A9
:102668003736303B3A312928352A29281716153D9F
:102678003C323F3E332B2ABEBA0000000000200047
:040000050800061DCC
:00000001FF
