:020000040800F2
:10000000904100209D010008571C0008B11A00080B
:10001000551C000841030008C92C0008000000001E
:100020000000000000000000000000009F27000802
:100030004303000800000000791C0008A127000805
:10004000B7010008B7010008B7010008B7010008B0
:10005000B7010008B7010008B7010008B7010008A0
:10006000B7010008B7010008B7010008B701000890
:10007000B7010008B7010008B7010008B701000880
:10008000B7010008B7010008B7010008B701000870
:10009000B7010008B7010008B7010008B701000860
:1000A000B7010008B7010008B7010008B701000850
:1000B000B7010008B7010008B7010008B701000840
:1000C000B7010008B7010008B7010008B701000830
:1000D000B7010008B7010008B7010008B701000820
:1000E000B7010008B7010008B7010008B701000810
:1000F000B7010008B7010008B7010008B701000800
:10010000B7010008B7010008B7010008B7010008EF
:10011000B7010008B7010008B7010008B7010008DF
:10012000B7010008B7010008B7010008B7010008CF
:10013000B7010008B7010008B7010008B7010008BF
:10014000B7010008B7010008B7010008B7010008AF
:10015000B7010008B7010008B7010008B70100089F
:10016000B7010008B7010008B7010008B70100088F
:10017000B7010008B7010008B7010008000000003F
:10018000B7010008B7010008DFF80CD000F082F8D2
:1001900000480047013E0008904100200648804783
:1001A00006480047FEE7FEE7FEE7FEE7FEE7FEE75C
:1001B000FEE7FEE7FEE7FEE75D280008890100088C
:1001C0002DE9F05F0546002092469B46884606468C
:1001D000814640241BE0284641464746224600F01F
:1001E00048F853465A46C01A914110D31146184652
:1001F000224600F02FF82D1A67EB01084F462246E1
:100200000120002100F026F817EB00094E41201EC6
:10021000A4F10104DFDC484631462A46434600F09B
:1002200000B830BCBDE8C09F30B50B460146002089
:100230002022012409E021FA02F59D4205D303FAA8
:1002400002F5491B04FA02F52844151EA2F1010229
:10025000F1DC30BD202A04DB203A00FA02F1002054
:1002600070479140C2F1200320FA03F319439040F4
:100270007047202A04DB203A21FA02F0002170475F
:1002800021FA02F3D040C2F12002914008431946FE
:1002900070470000064C074D06E0E06840F001039F
:1002A00094E8070098471034AC42F6D3FFF770FF8C
:1002B00050430008704300080146014801F000B9AE
:1002C0006400002010B5044801F00CF9042801D0A6
:1002D000012010BD002010BD6400002082B001206C
:1002E0008DF800009DF80000012802D0022002B025
:1002F0007047024802B001F00BB900006400002012
:1003000038B50024009313460A460146034801F01D
:1003100077F900B10124204638BD000064000020B8
:1003200038B50024009313460A460146034801F0FD
:100330005FFA00B10124204638BD000064000020AF
:10034000FEE77047002200F001B8000030B50E4B08
:10035000054601205C7A002C14D1587A1C54587A36
:1003600003EB800045605D7A03F108002A54587A57
:10037000421C5A72303008703A2048702F20887022
:10038000CC70002030BD00008001002070B5044614
:1003900000F0F8F80546601C00D0641C00F0F2F88C
:1003A000401BA042FAD370BD2DE9F84FDFF898B199
:1003B00000234FF0010C4FF0030A4FF00F090BF12F
:1003C000040EB9E00CFA03F4224070D04D68022DFF
:1003D00001D0122D0ED1DD0800EB8508D8F8205091
:1003E0005E07F70E09FA07F6B5430E69BE402E43C5
:1003F000C8F8206007685E0091F804800AFA06F5E4
:1004000008F00308AF4308FA06F848EA0708C0F8FE
:1004100000804F68012F05D0022F03D0112F01D08B
:10042000122F13D1D0F80880CF6828EA0508B7400A
:1004300047EA08078760D0F804800F7928EA0408A3
:10044000C7F300179F4047EA08074760D1F80480C8
:100450006FEA0807BF0706D1C76AA743C8F3C004FD
:100460009C403C43C462C468AC438D68B54025439E
:10047000C5604C68E4005ED5344C256E45F001053E
:100480002566246E23F0030504F001040094304C2B
:100490002E19B4689D072F0F09FA07F5AC43B0F188
:1004A000904F05D02B4DA84204D101251CE042E01D
:1004B000002519E0284DA84201D1022514E0274D5E
:1004C000A84201D103250FE0254DA84201D1042502
:1004D0000AE0244DA84201D1052505E0224DA8429D
:1004E00001D1062500E00725BD402543B560DBF8B6
:1004F00000405D464E689443F60300D514432C60DB
:10050000DEF8004075464E689443B60300D51443A8
:100510002C600D4D08352C684E689443F60200D5CA
:1005200014432C60084D0C352C684E689443B60279
:1005300000D514432C605B1C0A6832FA03F57FF483
:1005400041AF00F013B80000000401400010024069
:10055000000001400004004800080048000C00486A
:1005600000100048001400480018004818BCBDE8FE
:10057000E08F42694A40426170470AB18161704729
:100580008162704701480068704700000800002041
:1005900090F84120202A24D190F84020012A20D030
:1005A000012280F84020242280F84120026813684C
:1005B00023F0010313600268136823F4805313606F
:1005C000026813680B43136001680A6842F0010275
:1005D0000A60202180F84110002180F84010084670
:1005E00070470220704790F84120202A22D190F8CD
:1005F0004020012A1ED0012280F84020242280F8C9
:1006000041200268136823F0010313600268136835
:1006100023F4706343EA0121116001680A6842F023
:1006200001020A60202180F84110002180F840106A
:10063000084670470220704770B5040004D094F853
:100640004100002510B106E0012070BD84F8405043
:10065000204600F04DF8242084F84100206801680D
:1006600021F0010101606068216820F0706008617C
:100670002068816821F400418160E0680128A06859
:1006800007D040F4044021688860E068022803D065
:1006900006E040F40040F6E721684FF4006048604F
:1006A00020684168114A114341602068C16821F403
:1006B0000041C160D4E904010843A16940EA012076
:1006C0002168C860D4E907010843216808602068F0
:1006D000016841F0010101606564202084F8410057
:1006E000256384F84250002070BD000000800002A5
:1006F00000B500680E4987B0884217D14FF44070AA
:100700000090122001900120029003200390042009
:10071000049069460748FFF747FE0748816D41F49A
:1007200000118165806D00F40010059007B000BDD8
:1007300000540040000400480010024002480168D4
:10074000491C01607047000008000020094810B5EE
:100750000168002441F480710160032000F084F8F6
:10076000002000F009F808B1012401E000F01CF8B5
:10077000204610BD0020024070B5054609484FF4E0
:100780007A7100240068B0FBF1F001F01FF908B1A4
:10079000012404E000222946501E00F045F82046BE
:1007A00070BD00000C0000201E4808B5016E41F02D
:1007B00001010166016E01F001010091816D41F0BE
:1007C00080518165806D00F080500090032000F022
:1007D0004BF8002211466FF00B0000F025F80022C4
:1007E00011466FF00A0000F01FF8002211466FF06A
:1007F000090000F019F800221146501F00F014F80B
:1008000000221146101F00F00FF800221146901E22
:1008100000F00AF80022BDE808401146501E00F022
:1008200003B8000000100240F0B40E4B1B680C46E9
:10083000C3F30223C3F10705042D00D90425191DB4
:10084000072901D2002300E0DB1E012606FA05F18C
:10085000491E214099409E40761E16403143F0BC0F
:1008600001F0FAB90CED00E0064900F00702086853
:100870004FF6FF03184040EA0220034A1043086085
:10088000704700000CED00E00000FA051649B0F5D5
:10089000007F0868C0F3412009D0022805D008680D
:1008A00020F4C06040F48060086000207047012898
:1008B000FBD0086820F4C06040F4007008600B486A
:1008C0003222006850430A4AB0FBF2F0401C00E0BC
:1008D000401E4A69520501D50028F9D148694005F2
:1008E000E3D5032070470000007000400C0000209A
:1008F00040420F000248006800F4C06070470000EA
:10090000007000402DE9F84F044600270088E54DAF
:100910003E46010504F1200B1DD5606E78B1B0F59F
:10092000800F11D0B0F5000F04D0B0F5400F22D0E9
:1009300001270FE0E86840F48030E8601BE0002108
:10094000201D01F09BF903E00021584601F02CFA2C
:10095000070010D03E462088C00426D5A06EC0B146
:10096000B0F1807F1AD0B0F1007F0DD0B0F1407FA0
:1009700019D0012718E0D5F88800616E20F44000F6
:100980000843C5F88800E6E7E86840F48030E8608E
:1009900009E00021201D01F071F903E00021584613
:1009A00001F002FA0746F7B13E46206880033AD5C7
:1009B000A86D4FF00008C00009D4A86D40F0805029
:1009C000A865A86D4FF0010800F080500090DFF896
:1009D000D8A2DAF8001041F48071CAF80010FFF7CD
:1009E000D1FD814610E0D5F88800A16E20F040705E
:1009F0000843C5F88800D8E7FFF7C4FDA0EB09005D
:100A0000022801D9032705E0DAF80000C005F3D574
:100A1000002F7CD04FEA0706B8F1000F03D0A86D75
:100A200020F08050A8652078C00707D0D5F888004E
:100A3000A16B20F003000843C5F8880020788007E8
:100A400007D5D5F88800E16B20F00C000843C5F805
:100A500088002078400707D5D5F88800216C20F061
:100A600030000843C5F888002078000707D5D5F87E
:100A70008800616C20F0C0000843C5F88800207829
:100A8000C00607D5D5F88800A16C20F44070084353
:100A9000C5F888002078800607D5D5F88800E16C75
:100AA00020F440600843C5F888002088800507D5F9
:100AB000D5F88800E16D20F440200843C5F888008F
:100AC0002088400507D5D5F88800216E20F4401015
:100AD0000843C5F888002078400607D5D5F8880077
:100AE000216D20F440500843C5F8880020780006A6
:100AF00007D5D5F88800616D20F440400843C5F85B
:100B000088002088C00509D5D5F8880000E01CE0E1
:100B1000A16D20F440300843C5F8880020884FF0CC
:100B2000006780044FF080684FD5D5F88800E16EEB
:100B300020F040600843C5F88800E06EB8423CD120
:100B4000E86840F48010E8603FE0D5F8900010F4C9
:100B5000407015D0D4F88410814211D0D5F890009F
:100B6000D5F8901020F4407041F48031C5F8901011
:100B7000D5F8901021F48031C5F89010C5F8900098
:100B8000C00710D0FFF7FEFC074641F2883906E0A7
:100B9000FFF7F8FCC11B494501D903263CE7D5F80E
:100BA00090008007F4D5D5F89000D4F8841020F494
:100BB00040700843C5F890002EE7404505D101215B
:100BC000201D01F05BF800B106462068000317D530
:100BD000D5F88800216F20F040600843C5F88800F0
:100BE000206FB84204D1E86840F48010E86007E064
:100BF000404505D10121201D01F040F800B1064615
:100C00002068400317D5D5F88800616F20F0406058
:100C10000843C5F88800606FB84204D1E86840F422
:100C20008010E86007E0404505D10121201D01F05A
:100C300025F800B10646208840041AD5D5F888006A
:100C4000A16F20F040500843C5F88800A06FB0F1B4
:100C5000805F03D0B0F1005F05D00AE00221201DC3
:100C600001F00CF803E00221584601F09DF800B1B4
:100C700006462088000407D5D5F88800E16F20F0EB
:100C800080400843C5F888002068C00307D555F8A0
:100C9000880FD4F8801020F00040084328603046C8
:100CA00000F004B8001002400070004018BCBDE81D
:100CB000E08F00002DE9F0470F46050058D03F4E69
:100CC000306800F00700B84209D2306820F0070011
:100CD00038433060306800F00700B84248D12878C7
:100CE000374CC0072CD06868032811D0022812D0D6
:100CF000216898B1490500293ADAA16821F0030179
:100D00000143A160FFF73EFC804641F2883910E0C4
:100D100021688901EFE721688903ECE78907EAE7A1
:100D2000FFF730FCA0EB0801494502D90320BDE8DC
:100D3000F087A068696800F00C00B0EB810FEFD17C
:100D40002878800705D5A068A96820F0F00008433E
:100D5000A060306800F00700B8420BD9306820F07E
:100D6000070038433060306800F00700B84201D017
:100D70000120DCE72878400705D5A068E96820F461
:100D8000E0600843A0602878000706D5A0682969BC
:100D900020F4605040EAC100A06000F041F8A16872
:100DA000084AC1F30311515C01F01F01C840064914
:100DB0000860BDE8F0470020FFF7DEBC00200240DD
:100DC000001002406C4200080C000020014800683E
:100DD000704700000C00002005480649006889683B
:100DE000054AC1F30221515C01F01F01C840704760
:100DF0000C00002000100240AC42000805480649E3
:100E000000688968054AC1F3C221515C01F01F01E5
:100E1000C84070470C00002000100240AC4200089F
:100E200070B52549002318468A68CC6812F00C0278
:100E300004F00306214C4FEA640509D00C2A05D0C2
:100E4000042A26D0082A00D1284670BD012E10D1D0
:100E50000B681B0704D4D1F89430C3F3032302E0DA
:100E60000B68C3F30313164E56F823307AB10C2ADD
:100E7000EBD1C86800F00302C868C0F30210401C40
:100E8000022A08D0032A09D0B3FBF0F008E0184684
:100E900070BD204670BDB4FBF0F001E0B5FBF0F092
:100EA000CA68C968C2F306225043C1F34161491CB4
:100EB0004900B0FBF1F070BD001002400024F400C6
:100EC0007C4200082DE9F84305007CD0FD4CA06869
:100ED00000F00C06E06800F003072878C00661D532
:100EE00076B10C2E01D1012F0AD0A8690028206804
:100EF00078D040F001002060FFF744FB804659E0C5
:100F00002068800702D5A8690028DED0286A2168F9
:100F1000090703D5216801F0F00104E0D4F894102A
:100F2000F02202EA1111884215D900F0C1FF002811
:100F300049D1206840F0080020602068296A20F02C
:100F4000F000084320606068E96920F47F4040EACF
:100F50000120606015E0206840F0080020602068F3
:100F6000296A20F0F000084320606068E96920F4F5
:100F70007F4040EA01206060286A00F099FF002865
:100F8000D6D1FFF74DFFA168CF4AC1F30311515CE1
:100F900001F01F01C840CD4908600020FFF7ECFBBD
:100FA00000287DD12FE000BFFFF7ECFAA0EB08008E
:100FB000022876D820688007F6D5206840F008001F
:100FC0002060206801E0BBE00CE0296A20F0F0001E
:100FD000084320606068E96920F47F4040EA01200E
:100FE000606010E020F001002060FFF7CBFA80463F
:100FF00006E000BFFFF7C6FAA0EB08000228D8D829
:1010000020688007F6D42878C00740D0082E18D072
:101010000C2E01D1032F14D06868B0F5803F17D093
:10102000B0F5A02F206817D020F480302060206811
:1010300020F4802020606868E0B1FFF7A3FA8046C2
:1010400014E02068800322D56868002878D01EE06C
:10105000206840F48030EDE740F480202060F7E71E
:10106000FFF790FAA0EB08006428A2D8206880035C
:10107000F6D50CE0FFF786FA804605E0FFF782FA26
:10108000A0EB0800642894D820688003F6D4287860
:1010900080073BD5042E11D00C2E04D1022F01E085
:1010A00036E1A1E00AD0E868002820681ED040F4AC
:1010B00080702060FFF766FA07460CE02068400564
:1010C0000CD5E8680028C1D008E000BFFFF75AFA45
:1010D000C01B022893D820684005F7D56068297C9A
:1010E00020F0F85040EA016060600FE020F480706A
:1010F0002060FFF747FA074605E000BFFFF742FA16
:10110000C01B022870D820684005F7D42878000753
:1011100029D568690028D4F8940012D040F0010065
:10112000C4F89400FFF72EFA074604E0FFF72AFA06
:10113000C01B022858D8D4F894008007F6D512E0D6
:10114000EDE020F00100C4F89400FFF71BFA074619
:1011500005E000BFFFF716FAC01B022844D8D4F8F8
:1011600094008007F6D42878400768D5A06D002742
:10117000C00008D4A06D40F08050A065A06D01278C
:1011800000F08050009052480168C90512D40168EF
:10119000814641F480710160FFF7F4F9804605E073
:1011A000FFF7F0F9A0EB080002281DD8D9F80000DD
:1011B000C005F5D5A868012817D00528D4F89000F7
:1011C00018D020F00100C4F89000D4F8900020F06E
:1011D000040000BFC4F89000A86841F28839D0B17B
:1011E000FFF7D0F9804611E06BE0D4F8900040F0B2
:1011F0000100EFE740F00400C4F89000F5E700BFFD
:10120000FFF7C0F9A0EB080149455AD8D4F890007F
:101210008007F5D50EE0FFF7B5F9804606E000BF80
:10122000FFF7B0F9A0EB0801494570D8D4F8900059
:101230008007F5D41FB1A06D20F08050A065A86A8A
:10124000F0B30C2E6BD00228206820F08070206054
:1012500004D0206810F0205F47D04AE0FFF792F9F1
:10126000064604E0FFF78EF9801B02284FD820685D
:101270008001F7D4286BE96A000110380843696BD4
:10128000AA6B0902120941EA42410843A98F114A97
:10129000490802EB4151084395F8401049081201F2
:1012A00002EB41610843E060206840F080702060FC
:1012B000E06840F08070E060FFF764F9054610E0F8
:1012C0002BE024E0001002406C4200080C000020DB
:1012D000007000400000E0FFFFF754F9401B0228B7
:1012E00015D820688001F7D517E0E06820F00300EA
:1012F000E060E0680B490840E060FFF743F905460D
:1013000008E000BFFFF73EF9401B022802D9032086
:10131000BDE8F88320688001F4D40020F8E70120BC
:10132000F6E70000FFFFEEFEF0B5426E920F0A7086
:10133000426EC2F383624A70426EC2F301628A70E7
:10134000426E120CCA70B0F86420120A0A7190F84A
:1013500064204A71826E120DCA80826EC2F303420B
:101360000A72B0F86820C2F3C0324A72B0F868203E
:10137000C2F380328A72B0F86820C2F34032CA7277
:10138000B0F86820C2F300320A7300264E73426C34
:101390004FF40075012462B1012A3AD0026847492E
:1013A0009163816B41F08051816380F8344001206A
:1013B000F0BDB0F86820C36E9205120D42EA937238
:1013C0000A61C26EC2F3C2620A75C26EC2F30262E1
:1013D0004A75C26EC2F342528A75C26EC2F382422D
:1013E000CA75C26EC2F3C2320A760A69521C4265DD
:1013F0000B7E03F007039B1C9A4042650B7A03F0B7
:101400000F0704FA07F383655B0A5A43C0E91725FF
:101410000EE090F86820C36E9206920A42EA1342E8
:101420000A610A69521C92024265C0E916520566B9
:1014300030F86C2FC2F3803201F8192F0288C2F302
:10144000C6124A70027802F07F028A704268D20F98
:10145000CA704268C2F341720A714268C2F3826282
:101460004A714268C2F383528A714268C2F34052A1
:10147000CA710E724268C2F300424A728288C2F395
:10148000C0328A728288C2F38032CA728288C2F302
:1014900040320A738288C2F300324A738288C2F3F0
:1014A00081228A738288C2F30122CA730079C0F351
:1014B000460008744C740020F0BD0000FF05400099
:1014C000426C0A60826C4A60C26C8A60026DCA60BB
:1014D000426D0A61826D4A61C26D8A61006EC861A7
:1014E0000020704770B50446B0F850000025010494
:1014F000206800F040FE18B1A16B0143A16304E035
:101500000021206800F0E0FF0546C5F3432070BDD0
:1015100070B504000ED094F83400002518B9257772
:10152000204600F041F8032084F83400204600F003
:101530000AF808B1012070BDA5632563012084F875
:101540003400002070BD3EB5002104467620009195
:10155000CDE901100B460A46206800F0B8FF40B9FB
:101560002068416821F480714160206800F0C1FF6B
:1015700008B101203EBD2068416841F4807141609E
:101580000220FEF703FF204601F057F8012520B99D
:10159000204600F0DBFF0028ECD084F83450A16B2B
:1015A0000143A163E5E70000F0B50068104987B08A
:1015B00088421BD10F48016E41F480610166006EC4
:1015C000022400F4806005904FF488500025032623
:1015D0000C278DE8F10069460748FEF7E5FE042078
:1015E0008DE8F10069460548FEF7DEFE07B0F0BD64
:1015F000002801400010024000080048000C00488C
:101600002DE9F04F87B09A4617460D460446FEF77F
:10161000B9FF83463DB194F83400012807D0A06B90
:1016200040F000500FE0A06B40F000600BE04FF086
:101630000008C4F83880E16D07EB0A00884204D93D
:10164000A06B40F00070A0638EE0032084F83400AB
:101650002068C0F82C80606C012800D07F024FF415
:101660000071206800F096FCDFF87891012640B107
:101670002268C2F83890A16B0143A16384F83460FA
:1016800072E04FF0FF3000904FEA4A200190902026
:10169000029002200596CDE903086946206800F013
:1016A000E7FDBAF1010F06D9022020633946206810
:1016B00000F0EAFC04E026633946206800F0FDFCF7
:1016C00018B32268C2F83890A16B0143A16347E0C8
:1016D000406B000411D50027206800F00EFF05F8CC
:1016E000010B010A05F8011B010C05F8021B000E95
:1016F0007F1C05F8010C082FEED3FEF743FFA0EB8B
:101700000B01109881421CD2D8B12068416B11F4B2
:10171000957FDDD0416BC90509D5BAF1010F06D916
:10172000616C032903D000F057FD0028C9D120685F
:10173000416B09071AD5C0F83890A06B40F008003B
:101740004DE02168C1F83890A06B40F00040A063E4
:1017500084F83460C4F83080032007B000F044B847
:1017600084F83460C4F830800120F6E7416B8907C3
:1017700005D5C0F83890A06B40F002002FE0416B17
:1017800089061AD5C0F83890A06B40F0200026E0FA
:1017900000F0B3FE05F8010B010A05F8011B010C6E
:1017A00005F8021B000E05F8010CFEF7EBFEA0EB9E
:1017B0000B01109881420CD258B12068416B89020C
:1017C000E6D4216840F23A50886384F834600020FF
:1017D000C3E72168C1F83890A06B40F00040A063D7
:1017E000BEE70000FF05400030BCBDE8C08F000030
:1017F0002DE9F04F8DB09B4616460D460446FEF788
:10180000C1FE0A903DB194F83400012807D0A06BC6
:1018100040F000500DE0A06B40F0006009E00027B0
:10182000A763E16D06EB0B00884204D9A06B40F082
:101830000070A06384E0032084F834002068C7624D
:10184000606C012800D076024FF40071206800F02F
:10185000A1FBDFF854A1012140B12368C3F838A0EF
:10186000A26B0243A26384F8341069E04FF0FF30AA
:1018700003904FEA4B2004909020CDE90507CDE975
:1018800007718846B94603A9206800F0F1FCBBF156
:10189000010F06D9202020633146206800F0B6FCF5
:1018A00005E0102020633146206800F0C8FC0600E7
:1018B0002BD02168C1F838A0A06B30436BE0406B9F
:1018C00040041AD55FF0000715F8010B009015F8D9
:1018D000011B40EA0120009015F8021B40EA01407C
:1018E000009015F8011C40EA0160009069462068EC
:1018F00000F016FE7F1C082FE6D3FEF743FE0A9980
:10190000411A169881421FD2F0B12068416B11F440
:101910008D7FD4D0416BC90522D5BBF1010F1FD9F2
:10192000616C03291CD000F057FCC8B12268C2F8D2
:1019300038A0A16B0143A16384F83480C4F83090CF
:1019400001200DB000F032B82168C1F838A0A06BBA
:101950003043A06384F83480C4F830900320F0E76B
:101960002068416B090705D5C0F838A0A06B40F08E
:10197000080010E0416B890705D5C0F838A0A06BBE
:1019800040F0020007E0416BC90606D5C0F838A058
:10199000A06B40F01000A063CEE740F23A518163A3
:1019A00084F834800020CCE7FF05400030BCBDE85F
:1019B000C08F4FF0E0210428086903D020F0040014
:1019C0000861704740F00400FAE7704710B5401E08
:1019D000B0F1807F01D3012010BD4FF0E0246061A1
:1019E0000F21601700F038F90020A0610720206166
:1019F000002010BD10B5FFF7E8FF10BD10B50400C2
:101A000003D094F8710010B107E0012010BD002050
:101A100084F87000204600F027F8242084F8710034
:101A20002068016821F001010160204600F0CAFF32
:101A30000128EBD0606A10B1204600F031FF206829
:101A4000416821F4904141602068816821F02A01B9
:101A500081602068016841F0010101602046BDE815
:101A6000104000F081BF000000B500680E4987B04B
:101A7000884217D10D48816D41F400318165806D38
:101A8000694600F4003005900C200090022001907F
:101A90000020029003200390072004904FF0904014
:101AA000FEF782FC07B000BD004400400010024079
:101AB000FEE7000010B504490448FEF743FC024964
:101AC000491E087010BD00000300002058420008A5
:101AD00030B5244887B0C16C41F00401C164C16CC9
:101AE00001F004010591C16C41F08001C164C16C39
:101AF00001F080010591C16C41F00101C164C16C2C
:101B000001F001010591C16C41F00801C164C16C93
:101B100001F008010591C16C41F00201C164C06C83
:101B20004FF0904500F00200059000222021284649
:101B3000FEF723FD4FF4005000900B480024CDE940
:101B4000010469460948FEF72FFC2020009001207F
:101B5000CDE90104694628460394FEF725FC07B049
:101B600030BD0000001002400000211000080048B5
:101B7000164810B514490160154941600021012241
:101B8000C0E90212016141618161C1610162FEF738
:101B900053FD18B14C210FA001F097F800210B481C
:101BA000FEF7F6FC18B153210AA001F08EF80021CF
:101BB0000648FEF718FD002805D0BDE810405A2160
:101BC00004A001F082B810BD0054004018000020AD
:101BD000D38D80102E2E2F5372632F6932632E63A4
:101BE0000000000006480549016000214160816055
:101BF000C16001614161032181617047002801409A
:101C0000640000200E4810B50C4901604FF4E1312A
:101C10004160002181600C22C160C0E90412816131
:101C2000C16101624162FFF7E9FE002805D0BDE80D
:101C300010404E2103A001F048B810BD0044004000
:101C4000E80000202E2E2F5372632F75736172747B
:101C50002E630000FEE770470907090E002806DA28
:101C600000F00F0000F1E02080F8141D704700F133
:101C7000E02080F800147047704700002DE9F04123
:101C8000444C05468846E0680026810728680DD048
:101C9000E16801F00301814216D1A8B1E0686968EA
:101CA000C0F30210401C88420ED120E0012804D06D
:101CB000022805D0032807D108E02168890701E040
:101CC00021684905002907DB01265FE021688903B7
:101CD00002D421684903F5E7E1686A686FF00F03F1
:101CE00021F0730103EB021211430143E16020680C
:101CF00020F080602060FEF745FC074605E000BF4D
:101D0000FEF740FCC01B022837D820680001F7D43A
:101D1000B8F1000F18D0B8F1010F1ED0287D4FF098
:101D20007E41400801EB4060A96840EA012021693A
:101D3000194A114008432061206840F0806020600B
:101D4000FEF720FC07461AE0A868E96800020909C6
:101D500040EA41402169114AEBE7288A10494008CE
:101D600001EB4050A96840EA012021690D4AE0E7F3
:101D7000FEF708FCC01B022801D9032606E02068F4
:101D80000001F5D52069A969084320613046BDE806
:101D9000F081000000100240FF80FFF9FF80FDFF8E
:101DA0000000E0FFFF809FFF2DE9F0413D4C06461B
:101DB0008846E0680025810730680DD0E16801F0B1
:101DC0000301814216D1A8B1E0687168C0F3021026
:101DD000401C88420ED120E0012804D0022805D002
:101DE000032807D108E02168890701E02168490537
:101DF000002907DB012551E02168890302D421680D
:101E00004903F5E7E16872686FF00F0321F0730191
:101E100003EB021211430143E160206820F080507F
:101E20002060FEF7AFFB074605E000BFFEF7AAFB08
:101E3000C01B022829D820688000F7D4B8F1000F11
:101E400015D0307C4FF07E41400801EB4060B16816
:101E500040EA01206169144A11400843606120682A
:101E600040F080502060FEF78DFB07460FE0B06821
:101E7000F1680002090940EA414061690B4AEBE759
:101E8000FEF780FBC01B022801D9032506E020686D
:101E90008000F5D560697169084360612846BDE836
:101EA000F081000000100240FF80FFF9FF80FDFF7D
:101EB000F8B51C4D06460024A86DC00002D5FEF7FB
:101EC00019FD0DE0A86D40F08050A865A86D00F0E8
:101ED00080500090FEF70EFDA96D21F08051A9659C
:101EE000B0F5007F04D0802E07D94FF003040AE03C
:101EF000802E08D9A02E01D804E001D1022402E0EE
:101F0000702E00D101240848016821F00701214307
:101F10000160006800F00700A04201D00120F8BD78
:101F20000020F8BD001002400020024010B586B02D
:101F300004463720CDE90010402002900020039095
:101F40004FF4806004906946204600F0D9FA41F2CF
:101F500088323721204600F09DF906B010BD000000
:101F600010B504460A4886B001432920CDE9001087
:101F700040200290002003904FF480600490694656
:101F8000204600F0BDFA204600F038FA06B010BD39
:101F90000000108010B586B004461020CDE9001076
:101FA00040200290002003904FF480600490694626
:101FB000204600F0A5FA41F288321021204600F0B8
:101FC00069F906B010BD000030B585B000240546A3
:101FD000009401944FF480600294CDE90340694677
:101FE000284600F08DFA0B484FF4FA510068B0FB18
:101FF000F1F041F288314843401E03D24FF00040D7
:1020000005B030BD696B0906F6D5C520A86320462A
:10201000F6E700000C00002070B585B004464FF4D0
:10202000D570009001A908204025002681E86100B4
:10203000C00104906946204600F062FA11484FF44E
:10204000FA510068B0FBF1F041F288314843401E7C
:1020500003D24FF0004005B070BD616B11F0450F29
:10206000F5D0606B400701D5042003E0606BC0072A
:1020700002D00120A063EEE7606B400600D5A563A7
:102080003046E8E70C00002010B586B00446122068
:10209000CDE9001040200290002003904FF48060B2
:1020A00004906946204600F02BFA41F28832122152
:1020B000204600F0EFF806B010BD10B586B004461B
:1020C0001120CDE9001040200290002003904FF431
:1020D000806004906946204600F012FA41F288328E
:1020E0001121204600F0D6F806B010BD10B586B01C
:1020F00004460720CDE900204020029000200390F4
:102100004FF4806004906946204600F0F9F941F2EE
:1021100088320721204600F0BDF806B010BD10B58A
:1021200086B0044600210220CDE90010C020CDE990
:1021300002014FF4806004906946204600F0E0F907
:10214000204600F035F906B010BD10B586B0044643
:102150000920CDE90010C0200290002003904FF428
:10216000806004906946204600F0CAF9204600F0DD
:102170001FF906B010BD10B586B004460D20CDE99C
:10218000001040200290002003904FF480600490E3
:102190006946204600F0B4F941F288320D2120460C
:1021A00000F078F806B010BD30B585B00C46054695
:1021B00000210320CDE900104020CDE902010001FB
:1021C00004906946284600F09BF9224603212846E0
:1021D00000F034F905B030BD10B586B004460021DA
:1021E0000C20CDE900104020CDE90201000104904F
:1021F0006946204600F084F9034A0C21204600F08D
:1022000049F806B010BD000000E1F50510B586B034
:1022100004461920CDE900104020029000200390D0
:102220004FF4806004906946204600F069F941F25D
:1022300088321921204600F02DF806B010BD10B5E7
:1022400086B004461820CDE90010402002900020FE
:1022500003904FF4806004906946204600F050F9E6
:1022600041F288321821204600F014F806B010BD63
:102270000A6842624A688262D1E902231A43D1E9BC
:1022800004310B43C16A1A4321F0F7010A43C262C9
:102290000020704730B5444B4FF4FA5545241B6875
:1022A000B3FBF5F353435B1E02D24FF0004030BD49
:1022B000426B2242F7D0426B520703D5042181635F
:1022C000084630BD426BD20702D00121816303E092
:1022D0000269D2B28A4201D0012030BDC52181639A
:1022E000002100F0F1F83149084201D1002030BD51
:1022F000002802DA4FF0007030BD410001D54020C7
:1023000030BD810001D5802030BDC10002D54FF421
:10231000807030BD010102D54FF4007030BD410125
:1023200002D54FF4806030BDC10102D54FF400608A
:1023300030BD010202D54FF4805030BD410202D5BC
:102340004FF4005030BD810202D54FF4804030BDC3
:10235000C10202D54FF4004030BD410302D54FF415
:10236000003030BD810302D54FF4802030BDC10361
:1023700002D54FF4002030BD010402D54FF4801087
:1023800030BD410402D54FF4001030BD810402D5A8
:102390004FF4800030BD000702D54FF4000030BD7F
:1023A0004FF4803030BD00000C00002008E0FFFD3D
:1023B00011494FF4FA520968B1FBF2F141F2883247
:1023C0005143491E02D24FF000407047426B12F059
:1023D000450FF6D0416B490703D5042181630846B8
:1023E0007047416BC90703D00121816308467047DC
:1023F000C5218163002070470C0000200E494FF476
:10240000FA520968B1FBF2F141F288325143491E98
:1024100002D24FF000407047426B12F0450FF6D0E9
:10242000416B490703D50421816308467047C521E4
:1024300081630020704700000C0000201F4B10B586
:102440001B684FF4FA54B3FBF4F341F2883463434E
:102450005B1E02D24FF0004010BD446B14F0450FDC
:10246000F6D0436B5B0703D504218163084610BD9A
:10247000436BDB0702D00121816303E00369DBB218
:102480008B4201D0012010BDC5218163002100F0E5
:102490001BF810F4604F04D0410406D54FF40050EF
:1024A00010BD000C1080002010BD000402D54FF4B8
:1024B000805010BD4FF4803010BD00000C00002093
:1024C000006800F00300704708444069704770B529
:1024D0000DF1100C11439CE870002343194329436C
:1024E0004268314347F6FF639A431143416000203D
:1024F00070BD0321016000207047D0F88000704754
:102500000A688260D1E901231A43D1E903310B4300
:10251000C1681A436FF30B010A43C2600020704781
:102520000968C0F8801000207047000010B5064C04
:1025300001202070FDF7C6FE18B9207820F00100B8
:102540002070207810BD00000100002010B590B070
:1025500004460120ADF838002068FFF7B1FF0028DD
:1025600054D0606C032842D02068FFF7D8FD0028C3
:102570004AD100212068FFF7A7FF60670421206887
:10258000FFF7A2FFA06708212068FFF79DFFE06723
:102590000C212068FFF798FFC4F88000606C0328C6
:1025A00025D00EA92068FFF7FFFD00282CD1606C14
:1025B00003281CD0BDF83800206501042068FFF70F
:1025C000C4FD002820D100212068FFF77DFF606650
:1025D00004212068FFF778FFA06608212068FFF734
:1025E00073FFE0660C212068FFF76EFF206704216F
:1025F0002068FFF769FF000DE06403A92046FEF79D
:1026000093FE30B14FF0805010B010BD4FF080609D
:10261000FAE7B4F85000002302042068FFF766FDD3
:102620000028F1D104F1100007C88DE8070094E8F4
:102630000F00FFF74CFF0020E6E72DE9F8430025E7
:10264000044600950068FFF7BFFC00281AD12068F7
:10265000FFF7E2FC4FF080784FF6FF76D8B14FF0ED
:102660008057A5640098411C0091B0421AD0002107
:102670002068FFF75BFC20B900212068FFF770FCA1
:1026800010B13846BDE8F88300212068FFF71CFF31
:10269000C00FE7D01FE00127A7640098411C0091FC
:1026A000B04201D14046EDE700212068FFF73EFC33
:1026B0000028E7D14FF080412068FFF751FC002847
:1026C000E0D100212068FFF7FFFEC10FE5D04000F8
:1026D00001D5676400E065640020D3E770B5064C5F
:1026E000054601202070FDF7F9FD18B92846FFF7CF
:1026F0001DFF2070207870BD0100002010B5124829
:1027000088B014460078C00702D0032008B010BD7E
:10271000C1B1012905D0022908D003290CD0042019
:10272000F4E76846FDF7C8FD06980AE06846FDF73D
:10273000C3FD0798208005E06846FDF7BDFD0798BA
:10274000400A20600020E1E70100002070B51D462E
:10275000164608460124A31E2A463146FDF7D0FD41
:1027600028B900BFFDF7AEFD0028FBD100242046AC
:1027700070BDFFF7DBBE000070B51D46164608466B
:102780000124A31E2A463146FDF7CAFD28B900BF21
:10279000FDF798FD0028FBD10024204670BD70474E
:1027A00010B5FDF7CBFFBDE81040FFF723B90000DF
:1027B000F0B5B9B00224E001259010202690092040
:1027C00022942F9001262C94CDE92D460727CDE9A0
:1027D000307422A83294FEF775FB00B1FEE70F209B
:1027E000002533900320CDE934053695042133A824
:1027F0003795FEF75FFA00B1FEE70F95164814957E
:1028000000904FF080601C900820CDE90260019498
:1028100004970420CDE90504800407906846FEF77C
:1028200071F800B1FEE74FF40070FEF72FF800B129
:10283000FEE7FEF7CBFA4FF47A71B0FBF1F0FFF749
:10284000C5F80420FFF7B5F800221146501EFDF729
:10285000EBFF39B0F0BD0000420008000D480168F0
:1028600041F4700101600C48016841F00101016010
:10287000002181600268094B1A4002608214C26024
:10288000026822F48022026081610249C00380391B
:102890000860704788ED00E000100240FFFFF6EA94
:1028A00090F82410C90706D001684A68836A22F4A8
:1028B00000321A434A6090F82410890706D501684F
:1028C0004A68C36A22F480321A434A6090F824109E
:1028D000490706D501684A68036B22F480221A432F
:1028E0004A6090F82410090706D501684A68436BCE
:1028F00022F400421A434A6090F82410C90606D513
:1029000001688A68836B22F480521A438A6090F8C7
:102910002410890606D501688A68C36B22F4005228
:102920001A438A6090F82410490611D501684A6854
:10293000036C22F480121A434A60016CB1F5801FC7
:1029400006D101684A68436C22F4C0021A434A6007
:1029500090F82410090606D501684A68806C22F4B4
:10296000002202434A607047F8B5002604464667D5
:10297000FDF708FE0546206800686FF07E470007F7
:1029800008D52B4600224FF400112046009700F096
:1029900069F960B92068006840070AD52B46002213
:1029A0004FF480012046009700F05CF908B1032045
:1029B000F8BD202084F8710084F8720084F87060FB
:1029C0000020F8BD2DE9F0410446016880682369C4
:1029D000E669184363691025002733431843954A75
:1029E0000B68954E334003430B6020684168E368F1
:1029F00021F44051194341602168A069914201D0FE
:102A0000236A18438B6823F4306303438B608B4B3A
:102A100021688B4899420DD1D0F8880010F003004E
:102A200006D001285AD0022856D0032859D157E0A1
:102A3000012556E0834B99420BD1D0F8880010F065
:102A40000C0047D0042849D0082845D00C2848D18C
:102A500046E07D4B99420BD1D0F8880010F0300051
:102A600038D010283AD0202836D0302839D137E055
:102A7000764B99420BD1D0F8880010F0C00029D0D5
:102A800040282BD0802827D0C0282AD128E0704B9E
:102A900099420ED1D0F8880010F440701AD0B0F5E9
:102AA000807F1BD0B0F5007F16D0B0F5407F18D1E5
:102AB00016E0914215D1D0F8880010F4406009D09A
:102AC000B0F5806F0AD0B0F5006F05D0B0F5406F5B
:102AD00007D105E0002504E0022502E0042500E01E
:102AE00008255C4B00264FF4004091423DD135B1A2
:102AF000022D07D0042D07D0082D10D107E0FEF7D6
:102B00006BF903E0184602E0FEF78AF9A8B36268A1
:102B100002EB4201814202D8B0EB023F01D901270A
:102B200075E0DFF834815DB1022D0CD0042D13D097
:102B3000082DF4D150082905401846F1000105E0A0
:102B4000FEF74AF90AE050084449F5E70023FDF78B
:102B500037FBA0F5407156E0FEF762F96268010E9E
:102B60000302500818187141F0E7E1694FF6EF7859
:102B700081422FD1092DD2D200E048E0DFE805F0F4
:102B800006092005230505052600C8E7FEF724F9F8
:102B900001E0FEF733F94100D4F8040001EB5001E5
:102BA000B1FBF0F080B2A0F110014145B7D84FF66B
:102BB000F0710140C0F3420001432068C16026E08B
:102BC00027496068EAE7FEF72BF9E4E74FF4803124
:102BD0006068E3E7092DA2D2DFE805F006091E05CB
:102BE0002205050525009AE7FEF7F6F801E0FEF755
:102BF00005F90146606801EB500100BFB1FBF0F040
:102C000080B2A0F11001414589D82168C8602666CC
:102C100038466666BDE8F081606803EB5001EDE779
:102C2000FEF7FEF8E5E7616800EB5100B0FBF1F05C
:102C3000E6E7000000800040F369FFEF0038014044
:102C4000001002400044004000480040004C00409A
:102C5000005000400024F400FFFC0F00000024F4AA
:102C60000048E8012DE9F041984617460E46044613
:102C7000069D1DE0681C1BD02DB1FDF783FCA0EB69
:102C80000800A84214D92068016821F4D0710160BD
:102C90002068816821F001018160202084F87100A2
:102CA00084F87200002084F870000320BDE8F081F1
:102CB0002068C06936EA000004D00020B842D9D0AC
:102CC0000020F3E70120F9E7FEE7FEE70FB4084B29
:102CD00010B504A902AA039800F01CF8044602A942
:102CE000002000F0C4F8204610BC5DF814FB000082
:102CF0006F2E000802E008C8121F08C1002AFAD18E
:102D000070477047002001E001C1121F002AFBD16B
:102D1000704700002DE9FF4F89B09B46044600250F
:102D200006E025280BD05A460B999047641C6D1C71
:102D300020780028F5D10DB0284600F095B800277E
:102D4000B8460122474900E0074314F8013F203B01
:102D500002FA03F00842F7D120782E2819D114F88E
:102D6000010F47F004072A280ED06FF02F022078B9
:102D7000A0F1300109290CD808EB880102EB4101D0
:102D800000EB0108641CF2E70A98641C50F8048BFD
:102D90000A9020780028CED0642808D0692806D070
:102DA00075281ED05A460B9990476D1C58E00A9919
:102DB0004FF00A0901C90A91002802DA40422D2188
:102DC00002E0390504D52B218DF82010012103E004
:102DD000F90704D02021F7E78A4608AE0DE000216C
:102DE000FAE70A994FF00A0901C90A91F7E749463B
:102DF000FDF71AFA303106F8011D0028F7D1ADEBC6
:102E0000060000F12009780701D44FF00108C845F9
:102E100002DDA8EB090000E000208046002706E064
:102E200008A85A46C05D0B9990476D1C7F1C5745FA
:102E3000F6DB04E030205A460B9990476D1CB8F140
:102E40000001A8F10108F5DC05E016F8010B5A466F
:102E50000B9990476D1CB9F10001A9F10109F4DC4F
:102E6000641C65E70928010030BCBDE8C08F0A6812
:102E7000531C0B601070704710B504460020E070C2
:102E8000401E2063204601F05CF808B1042010BD0C
:102E900004F2322000F0AEFFA0F52A41553901D0EE
:102EA000032010BD94F83400E92805D0EB2814D194
:102EB00094F83600902810D104F16A0000F08FFFDA
:102EC0000749B1EB002F06D004F1860000F087FF20
:102ED0000449884201D1002010BD022010BD00002D
:102EE0000046415446415433F0B50022144D134678
:102EF00005EB021426685EB10768BE4209D1666818
:102F00008768BE4205D1A4684669B44204D000E097
:102F10000123521C022AEBD3022A01D069B904E032
:102F20004BB9022907D01220F0BD05EB02108089B1
:102F3000B0F5807F01D00020F0BD1020F0BD000072
:102F40006001002030B50021054B0C4603EB011257
:102F50001568854200D11460491C0229F6D330BDA2
:102F6000600100200268C06A938952895343B1FB13
:102F7000F3F1001D04C81AB1914203D3891AF8E78E
:102F8000002070470068084470478269891E921EBD
:102F90008A4201D800207047C26A408901FB0020A4
:102FA00070472DE9F04105680F00804606D000F01B
:102FB0002EFE022809D20120BDE8F0812E6916B14B
:102FC000A869B04207D8012605E0411CF4D0A969E0
:102FD0008142F1D83E463446A869641CA04202D81A
:102FE0000224022E0AD32146404600F010FE38B1DA
:102FF0000128E1D0411CDFD0B442EDD10020DBE755
:103000004FF0FF3632462146284600F0B3FF30B974
:1030100057B122463946284600F0ACFF20B10128BE
:103020000FD001242046C7E72C61D5E90501891E90
:10303000884201D8401E6861287940F0010028715B
:10304000F0E73446EEE700002DE9F0410E4624306B
:103050000D6804460B22202100F06CFF0020014681
:1030600008272A5C401C202A12D92F2A0BD05C2A60
:1030700009D02E2A01D0B94214D30B2F22D02E2AE8
:1030800020D10CE0401C2B5C2F2BFBD05C2BF9D00B
:1030900028443060B1B12078E5281FD020E0082115
:1030A0000B27DEE7802A03D3114B1A4412F8802C39
:1030B00010A300E05B1C93F800C0BCF1000F04D02B
:1030C0009445F7D10620BDE8F081A2F16103192BE8
:1030D00001D8203AD2B26254491CC2E705202070C0
:1030E000202A01D8042000E00020E0720020EAE756
:1030F000B4420008222A2B2C3A3B3C3D3E3F5B5D0C
:103100007C7F0000401E022812D20A4901EB001108
:103110008889B0F5807F05D008B1401E80B28881D3
:1031200010B103E00020FAE700200860002070479B
:1031300002207047600100202DE9F0410446002183
:10314000056800F0DFF8002826D12846E16900F084
:10315000F8FE02001FD1206A017899B1C17A01F00E
:103160003F01A171C17A09070FD404F124010B2694
:1031700010F8013B11F8017BDB1B761E04D0002BFD
:10318000F6D002E0042206E02BB10021204600F038
:1031900005F80200D9D01046BDE8F0812DE9F047CE
:1031A000054647690468C0698946203710B1B7F5FC
:1031B000001F02D30420BDE8F087A189B7FBF1F21C
:1031C00001FB127100295FD1401CE861A9694FF031
:1031D000000819B3A0896289B7FBF0F0521E1042B3
:1031E00052D1284600F013FD064601281FD9701C55
:1031F00036D0A069B04241D8B9F1000F12D02846AC
:10320000A969FFF7CEFE06000FD0012E0FD0701C6B
:1032100026D0204600F0DEFF10BB0AE02089B0EB8C
:10322000571F31D8C5F81C80C4E70720C3E7022028
:10323000C1E7A289002104F1340000F07BFE4FF0C9
:10324000000831462046FFF7A0FE4FF00109206339
:103250000DE000BF84F80390204600F0BBFF08B1EA
:103260000120A8E7206B08F10108401C2063618958
:103270004145EFD8216BA1EB080020633146204681
:10328000AE61FFF782FEE8616F61A089B7FBF0F1E4
:1032900000FB117020443430286200208BE770B5A9
:1032A00004460021066800F02DF80DE03046E16983
:1032B00000F047FE50B9206A0078E52809D040B1F7
:1032C00001212046FFF76AFF0028EFD0042807D02D
:1032D00007E03046E16900F034FE050003D00FE05E
:1032E000072005460CE020220021206A00F022FE83
:1032F0000B2204F12401206A00F012FE0120F0707C
:10330000284670BD2DE9F04104680F460646B1F528
:10331000001F3CD2F8063AD17761B56825B920780C
:10332000032806D3A56A25B16089A18900FB01F8AD
:1033300012E02089B0EB571F29D9A06A12E030466D
:1033400000F065FC0546401C1FD0022D1FD3A0696C
:10335000A8421CD9A7EB080747452946EFD22046CB
:10336000FFF713FEC6E9065088B1A189B7FBF1F15A
:103370000844F061A089B7FBF0F100FB1170204414
:10338000343030620020BDE8F0810120FBE70220EC
:10339000F9E70000084910B50B5C002253B901227F
:1033A0000A540A1801EB8000127A4068016810463E
:1033B00088470246104610BD8001002030B4054CFD
:1033C000231804EB80001B7A406804691846A44661
:1033D00030BC60478001002030B4054D2C1805EB4F
:1033E0008000247A406885682046AC4630BC60473F
:1033F00080010020044A111802EB8000097A40681D
:1034000042680846104700008001002030B4054D96
:103410002C1805EB8000247A4068C5682046AC462D
:1034200030BC60478001002038B5044600F04AF9FE
:1034300000280CD16946204600F0F5FE002806D190
:103440002069FFF75FFE002801D10021216038BD0F
:103450002DE9F74181B0904602980090684600F04F
:103460004CFC040003D50B2004B0BDE8F0810D4EE8
:10347000002756F824501DB12846FFF763FD2F7032
:103480000198002800D0077046F8240002D0B8F157
:10349000010F01D00020E7E7002201A902A800F0F7
:1034A00035FAE1E7140000202DE9F74394B0050058
:1034B0000BD002F03F063246694615A800F026FA06
:1034C00004004FF0000804D0F3E0092017B0BDE875
:1034D000F0830098049004A8159900F05BFB0400A9
:1034E0000ED19DF83F00000601D5062408E07008C3
:1034F00001D0012100E0002104A8FFF7F5FC0446FB
:1035000016F01C0F5DD04FF00109C4B1042C10D18E
:1035100000206B4902E0401C022804D201EB00129B
:103520001268002AF7D1022807D004A8FFF7B7FED7
:10353000044646F008065CB1BBE01224B9E09DF8F1
:10354000160010F0110F47D1700701D50824B0E024
:10355000300747D500F0CFFB07460C9839460E30B0
:1035600000F0E8FD0C983946163000F0E3FD0C98A9
:103570002021C1720C99009800F01EFC0746002221
:103580000C99009800F0C2FD0C9800211C3000F04E
:10359000D1FD009981F8039017B3D1F83090002243
:1035A000394604A800F078FD040009D14946009886
:1035B00000F0C7FC04000098A7F1010707610DD0D7
:1035C00077E0ECBB9DF81600C10601D5042470E03D
:1035D000B10703D5C00701D007246AE0300701D541
:1035E00046F040060098006B68620C98A86270086C
:1035F00001D0012100E0002104A800F09DFB28611A
:10360000C0B30C99009800F0D7FBA8600C981C3050
:1036100000F0E5FBC5F82C80E8600099296000996E
:1036200005F130004FF48052C988A9802E7585F8C5
:103630001580C5F8208000218146C5F8188000E07B
:1036400037E000F077FCB00635D5EE689EB3AE618A
:103650000098A9684789808947430FE0284600F011
:10366000D6FA0146012800D80224481C03D0F61BD4
:1036700024B105E021E00124F61B01E0BE42EDD8B3
:10368000E961B4B900988289B6FBF2F302FB1362D8
:103690008AB1FFF77AFC80B1009901238A89B6FBD1
:1036A000F2F202442A6248784946FFF795FE10B1CB
:1036B0000124C5F80080204608E70224F9E700004D
:1036C00060010020F8B50446694600F0ACFD002812
:1036D0000ED1217D4A060BD508060ED50098226A28
:1036E0000123407804F13001FFF790FE08B101207A
:1036F000F8BD207D00F07F00207500F0FCFA064642
:10370000616A009800F01DFC0028F1D1A56A2946E5
:10371000E87A40F02000E872A268206800F0F6FC29
:1037200005F11C00E16800F005FD314605F11600C9
:1037300000F000FD002105F1120000F003FD0098EB
:103740000121C17000F002FD217D01F0BF01217552
:10375000F8BD2DE9F04F884689B0002119609946DF
:103760001546044604A900F05EFD002806D1607DE0
:10377000002803D1207D800703D4072009B000F082
:10378000C1B8A069012742194FF0020A04F1300BB9
:10379000824200D2C543ACE00498A1698289B1FBA2
:1037A000F2F302FB1313002B79D1B1FBF2F640893F
:1037B000401E064018D129B1E06A38B12046FFF713
:1037C000D1FB07E0A06838B9002100E0E16920469C
:1037D000FFF7E7FB00287ED001282FD0411C58D0EE
:1037E000E061A16801B9A060207D00060BD50498B6
:1037F000226A012340785946FFF708FEC0BB207DAE
:1038000000F07F002075E1690498FFF7BEFBA8B1C6
:103810003044009004988189B5FBF1F1029141B3E5
:10382000721841898A4201D9891B02914078414628
:10383000029B009AFFF7EAFDD0B903E084F815A0D7
:1038400002209BE7216A0098081A029988420AD24E
:1038500004998A8900FB0281584600F061FB207DB3
:1038600000F07F00207504988689029846432FE077
:103870000FE0FFE7226A00998A420ED0E268A16950
:1038800091420AD2407801235946009AFFF7A4FDDD
:1038900018B16775012071E701E000982062049873
:1038A000A1698089B1FBF0F200FB1212861AAE42C8
:1038B00000D92E46B1FBF0F200FB12102044324634
:1038C0004146303000F02CFB207D40F08000207518
:1038D000B044A06900E00FE03044A061E168884294
:1038E00000D80846E060D9F800008119AD1BC9F87E
:1038F0000010002D7FF450AF207D40F04000207577
:1039000000203BE730BCBDE8C08F00002DE9FF413F
:10391000002790460E460F6000F0EFF9050003D532
:103920000B2004B0BDE8F081974850F825409CB1C9
:103930003460207808F0FE0620B16078FFF75AFD69
:10394000C1070BD02770E8B2B8466070FFF722FDC0
:10395000C10708D00320E4E70C20E2E70EB14007DE
:1039600004D40020DDE71EB1400701D50A20D8E7C6
:10397000607804F10C020221FFF720FDF0BBA08962
:10398000A0F50071B1F5606F3FD8411E08423CD1EF
:10399000002631462046FFF76FFA022822D1002583
:1039A0004FEA0D0704EB051090F8F61100F5F970D9
:1039B00019B1083000F013FA00E0002047F82500A4
:1039C0006D1C042DEED3002557F8256036B1314625
:1039D0002046FFF751FA022801D203E003206D1CB4
:1039E000042DF1D3042810D0022878D204F13F002E
:1039F00000F000FAA189884271D100E005E004F1ED
:103A00004A0000F0F7F910B105E0012089E704F160
:103A1000580000F0E4F9E06194F84450A570012DDD
:103A200001D0022D5BD1454394F841006081E8B399
:103A3000411E084253D104F1450000F0DBF920811A
:103A4000A1894909B0FBF1F201FB120070BB04F13E
:103A5000470000F0CFF9070004D104F1540000F052
:103A6000BEF9074604F1420000F0C4F9010036D067
:103A7000A08923894009B3FBF0F04A190244974218
:103A80002DD3B81A6789B0FBF7F078B103274FF64A
:103A9000F57C604500D8022740F6F57C604500D8EB
:103AA00001273244801C3144E26200E017E0A0614B
:103AB000C4E90861032F14D08BB12944A162022FFD
:103AC00020D000F0010100EB400001EB5000A18983
:103AD000401E0844B0FBF1F0E169884214D90D2082
:103AE0001FE704F15E0000F085F90028F7D1208976
:103AF0000028F4D104F1600000F071F9A062A0691F
:103B00008000E4E74000E2E74FF0FF3060612061B1
:103B100080202071032F2CD104F1640000F06AF999
:103B2000012826D1711C204600F00BFA08BB84F84E
:103B3000048004F2322000F05DF9A0F52A415539E5
:103B400017D104F1340000F04AF91049884210D12D
:103B500004F5067000F043F90D49884209D104F5D7
:103B6000077000F03CF9606104F5087000F037F967
:103B7000206105482770001F0188491C0180E180F1
:103B80002046FFF7DFF9ECE61400002052526141B5
:103B90007272416173B504460568019801E0401CEA
:103BA000019001782F29FAD05C29F8D00021A1607A
:103BB00001980078202806D2802084F82F00204623
:103BC000FFF7A0FB7CBD01A92046FFF73DFA0028C6
:103BD000F8D12046FFF7B0FA94F82F1028B1042846
:103BE000F0D14907EED405207CBD4907FCD4A0796B
:103BF000C006F8D5A9896069B0FBF1F201FB12009B
:103C000041192846343100F0D7F8A060DBE72DE9F0
:103C1000F04104680D4602290BD3A069A84208D9D7
:103C200020784FF0FF36012807D0022834D003282F
:103C300049D001263046BDE8F081A08905EB550743
:103C4000B7FBF0F0616A0144204600F07AF90028E1
:103C5000F0D1A089B7FBF0F100FB11717F1CB7FB1D
:103C6000F0F0214491F83480616A0144204600F06C
:103C700068F90028DED1A089B7FBF0F100FB1170D4
:103C8000204490F8341048EA0120E90701D00609E1
:103C9000D0E7C0F30B06CDE7A089616A4008B5FB09
:103CA000F0F00144204600F04CF90028C2D1A1896F
:103CB0006800B0FBF1F201FB12002044343000F048
:103CC00099F80646B6E7A089616A8008B5FBF0F06E
:103CD0000144204600F035F90028ABD1A189A800A5
:103CE000B0FBF1F201FB12002044343000F077F811
:103CF00020F070469EE70020704710B504464FF054
:103D0000FF302268002A13D0114600E0491C0B78CE
:103D1000212B0ED33A2BF9D112F8013B303B0A2B61
:103D200006D28A4204D1002B02D1491C18462160D8
:103D300010BD002010BD0000F0B502461D4BD2F8AA
:103D40000050002003EB00142668AE4207D16668DD
:103D50009768BE4203D1A4685669B44202D0401CA1
:103D60000228EFD3022814D1002002E0401C0228D0
:103D700004D203EB00142468002CF7D102280ED0E3
:103D800003EB00142560956865605269A26000220B
:103D9000A281002903EB0011898902D019B100200A
:103DA000F0BD491C01E04FF4807103EB0012401C90
:103DB0009181F0BD6001002070B506460D4601F10D
:103DC0001A0000F017F804463078032805D105F1F1
:103DD000140000F00FF844EA0044204670BDC1789A
:103DE000827842EA01214278007842EA012140EAE1
:103DF000012070474178007840EA012070470000B8
:103E0000ADF5035DFCF7A2FCFEF7D2FCFDF760FE0A
:103E1000FDF7F8FEFDF7E6FEFDF74CFEFDF7A8FE08
:103E20004FF09044012220212046FCF7A6FB64209D
:103E3000FCF7ACFA41F24C00012230496844FFF72C
:103E400007FBC8B100256420FCF7A0FA202120461A
:103E5000FCF78FFB6D1CEDB20A2DF4D3012220215B
:103E60002046FCF78AFB6420FCF790FA0022202110
:103E70002046FCF782FBFEE7012220212046FCF7CA
:103E80007CFB1FA203AB07CA83E8070007AD0A2229
:103E900003A92846FFF708FB0028DFD101222021D3
:103EA0002046FCF76AFB19A06E4607C88DE807009C
:103EB00019481AA102783046FEF708FF31460DF581
:103EC00002530C222E462846FFF743FC78B100250A
:103ED0006420FCF75BFA20212046FCF74AFB6D1CAE
:103EE000EDB20A2DF4D33046FFF79EFAB6E7012271
:103EF00020212046FCF741FBF5E7000003000020ED
:103F00005752495445312E545854000048656C6C42
:103F10006F20576F726C64000000002025640A0057
:103F2000002A05D011F8013B00F8013B521EF9D1DF
:103F3000704700005FFA81F100F8011B521EFBD1AF
:103F4000704770B50446006B0D460026A8420FD09E
:103F5000204600F03FF906000AD1607801232A4686
:103F600004F13401FFF738FA08B1751E0126256304
:103F7000304670BD2DE9F047022617460D4604462F
:103F800002297DD3A069A8427AD920784FF001098F
:103F9000012804D0022840D003287AD154E0A18916
:103FA00005EB5508B8FBF1F0616A01442046FFF7C4
:103FB000C8FF06006DD1A189B8FBF1F201FB1280A8
:103FC0002044343008F10108E90704D00178FAB23E
:103FD00062F31F1100E03946017084F80390A18953
:103FE000B8FBF1F0616A01442046FFF7AAFF060022
:103FF0004FD1A189B8FBF1F201FB1280204434308B
:10400000E90702D0C7F3071105E00178C7F30322DF
:1040100001F0F0011143017039E0A089616A4008A4
:10402000B5FBF0F001442046FFF78BFF060030D1CE
:10403000A1896800B0FBF1F201FB12002044B9B283
:10404000343000F07FF822E0A089616A8008B5FB77
:10405000F0F001442046FFF774FF060019D1A08953
:10406000AD00B5FBF0F100FB115020443430FFF7F8
:10407000B6FE67F31B000146A089B5FBF0F200E035
:1040800007E000FB12502044343000F053F884F86D
:1040900003903046BDE8F0872DE9F04105681346EE
:1040A0000E46074602292DD3A869B0422AD93BB152
:1040B0004FF0FF3219462846FFF75CFF00281FD15A
:1040C00031463846FFF7A3FD040018D0012C19D063
:1040D000601C19D0002231462846FFF74BFF00280C
:1040E0000ED1D5E90510821E914205D2491C6961A5
:1040F000297941F0010129712646B042E0D800201B
:10410000BDE8F0810220FBE70120F9E770B50C461D
:104110000646154691B204F11A0000F013F8307803
:10412000032806D1290C04F11400BDE8704000F00A
:1041300009B870BD0170090A4170090A8170090A45
:10414000C17070470170090A4170704770B504462C
:1041500000F040F8050036D1207803282CD12079D2
:10416000012829D104F13400A28900210646FFF775
:10417000E1FE4AF6552104F23220FFF7E3FF13492E
:104180003046FFF7D7FF124904F50670FFF7D2FF5C
:1041900004F507706169FFF7CDFF04F50870216928
:1041A000FFF7C8FF226A0123521C22636078314660
:1041B000FFF72CF900202071002260781146FFF7EC
:1041C000FDF800B10125284670BD00005252614142
:1041D000727241612DE9F0410446C0780027F8B1C0
:1041E000256B04F13401607801232A468846FFF7E5
:1041F0000DF908B1012713E00020E070606AE16961
:10420000281A88420CD2A67808E0E0690123054408
:1042100060782A464146FFF7F9F8761E022EF4D25E
:104220003846BDE8F08170B50D4604000CD020681A
:1042300050B1017841B1C188A288914204D140783F
:10424000FFF7D8F8C00703D000202860092070BD10
:1042500020682860002070BDDD2600087327000854
:104260004D27000879270008FD26000800000000FF
:10427000000000000102030406070809A0860100EF
:10428000400D0300801A060000350C0040420F006C
:1042900080841E0000093D0000127A000024F40012
:1042A00000366E010048E801006CDC0200000000EE
:1042B00001020304435545414141414345454549B8
:1042C000494941414592924F4F4F5555594F554F8E
:1042D0009C4F9E9F41494F55A5A5A6A7A8A9AAAB4B
:1042E000ACADAEAFB0B1B2B3B4414141B8B9BABBF5
:1042F000BCBDBEBFC0C1C2C3C4C54141C8C9CACB91
:10430000CCCDCECFD1D145454549494949D9DADB54
:10431000DCDD49DF4FE14F4F4F4FE6E8E85555559B
:104320005959EEEFF0F1F2F3F4F5F6F7F8F9FAFB7C
:10433000FCFDFEFF0100040010004000000100022F
:10434000000001000200040008001000200000002E
:10435000704300080000002018000000F42C000842
:10436000884300081800002078410000042D000850
:1043700001010000000000000000000000093D00F5
:08438000000000000000000035
:040000050800018965
:00000001FF
