:020000040800F2
:1000000000800120A9270008B5260008B7260008AF
:10001000B9260008BB260008BD2600080000000025
:10002000000000000000000000000000BF260008E3
:10003000C126000800000000C3260008C5260008ED
:10004000F9270008F9270008F9270008F927000810
:10005000F9270008F9270008F9270008F927000800
:10006000F9270008F9270008F9270008F9270008F0
:10007000F9270008F9270008F9270008F9270008E0
:10008000F9270008F9270008F9270008F9270008D0
:10009000F9270008F9270008F9270008F9270008C0
:1000A000F9270008F9270008F9270008F9270008B0
:1000B000F9270008F9270008F9270008F9270008A0
:1000C000F9270008F9270008F9270008F927000890
:1000D000F9270008F9270008F9270008F927000880
:1000E000F9270008F9270008F9270008F927000870
:1000F000F9270008F9270008F9270008F927000860
:10010000F9270008F9270008F9270008F92700084F
:10011000F9270008F9270008F9270008F92700083F
:10012000F9270008F9270008F9270008F92700082F
:10013000F9270008F9270008F9270008F92700081F
:10014000F9270008F9270008F9270008F92700080F
:10015000F9270008F9270008F9270008F9270008FF
:10016000F9270008F9270008F9270008F9270008EF
:10017000F9270008F9270008F92700080000000007
:08018000F9270008F927000827
:1001880010B5054C237833B9044B13B10448AFF3C9
:1001980000800123237010BD200000200000000013
:1001A8004428000808B5034B1BB103490348AFF3C3
:1001B800008008BD0000000024000020442800083A
:1001C80053B94AB9002908BF00281CBF4FF0FF31B6
:1001D8004FF0FF3000F07AB9ADF1080C6DE904CEAC
:1001E80000F006F8DDF804E0DDE9022304B070470A
:1001F8002DE9F0478C460D460446089E002B51D148
:100208008A4217466DD9B2FA82FEBEF1000F0BD0B2
:10021800CEF1200C01FA0EF520FA0CFC02FA0EF7CA
:100228004CEA050C00FA0EF44FEA174A250CBCFB01
:10023800FAF81FFA87F90AFB18CC45EA0C4508FBBF
:1002480009F3AB420AD9ED1908F1FF3280F0238196
:10025800AB4240F22081A8F102083D44ED1AA4B255
:10026800B5FBFAF00AFB105544EA054400FB09F90E
:10027800A14509D9E41900F1FF3380F00A81A145AD
:1002880040F2078102383C44A4EB090440EA0840E4
:100298000021002E61D024FA0EF40023346073602C
:1002A800BDE8F0878B4207D9002E54D0002186E89C
:1002B80021000846BDE8F087B3FA83F1002940F031
:1002C8008E80AB4202D3824200F2FA80841A65EB38
:1002D80003050120AC46002E3FD086E81010BDE88B
:1002E800F08712B90127B7FBF2F7B7FA87FEBEF11C
:1002F800000F34D1EB1B3A0C1FFA87FC0121B3FB2A
:10030800F2F8250C02FB183345EA03450CFB08F309
:10031800AB4207D9ED1908F1FF3002D2AB4200F227
:10032800D1808046ED1AA3B2B5FBF2F002FB10555E
:1003380043EA05440CFB00FCA44507D9E41900F185
:10034800FF3302D2A44500F2B8801846A4EB0C048F
:1003580040EA08409DE731463046BDE8F087CEF1D7
:10036800200405FA0EF307FA0EF720FA04F83A0CFF
:1003780025FA04F448EA0308B4FBF2F14FEA1845F9
:1003880002FB11441FFA87FC45EA044501FB0CF304
:10039800AB4200FA0EF409D9ED1901F1FF3080F0F3
:1003A8008A80AB4240F2878002393D44EB1A1FFA3B
:1003B80088F5B3FBF2F002FB103345EA034500FB76
:1003C8000CF3AB4207D9ED1900F1FF386FD2AB42FD
:1003D8006DD902383D44EB1A40EA01418FE7C1F17B
:1003E800200722FA07F88B4005FA01F448EA0303CC
:1003F80020FA07FE4FEA134CFD404EEA040EB5FB07
:10040800FCF94FEA1E440CFB19551FFA83F844EA1D
:10041800054509FB08F4AC4202FA01F200FA01FAB8
:1004280008D9ED1809F1FF3043D2AC4241D9A9F1FE
:1004380002091D442D1B1FFA8EFEB5FBFCF00CFBB8
:1004480010554EEA054400FB08F8A04507D9E41802
:1004580000F1FF3529D2A04527D902381C4440EACB
:100468000940A4EB0804A0FB02894C45C6464D464A
:1004780015D312D056B1BAEB0E0364EB050404FA97
:1004880007F7CB401F43CC40376074600021BDE8BC
:10049800F0871846F8E69046E0E6C245EAD2B8EB9F
:1004A800020E69EB03050138E4E72846D7E7404622
:1004B80091E78146BEE7014678E702383C4445E7C4
:1004C800084608E7A8F102083D442BE7704700BF3B
:1004D80038B50A4B054618684FF47A73B0FBF3F049
:1004E80000F086F8044638B9024629464FF0FF3036
:1004F80000F04AF8204638BD012038BD1C00002015
:10050800094A136843F4807310B50320136000F0A0
:1005180029F80020FFF7DCFF044618B902F080F83C
:10052800204610BD0124FBE700200240024A136860
:1005380001331360704700BF64000020014B186846
:10054800704700BF6400002038B50446FFF7F6FF87
:10055800631C054618BF0134FFF7F0FF401B8442B7
:10056800FAD838BD074AD36823F4E0631B041B0C90
:1005780043F0BF63000243F4003300F4E060034338
:10058800D360704700ED00E0174B30B5DC68C4F36A
:100598000224C4F10703251D042B28BF0423062DBC
:1005A8004FF0010505FA03F303F1FF338CBF033C59
:1005B80000241940A14005FA04F4013C2240002817
:1005C80042EA01024FEA0212AFBF00F1604000F0B8
:1005D8000F00064BD2B2A5BF00F56140D2B21A5443
:1005E80080F8002330BD00BF00ED00E014ED00E00E
:1005F8000138B0F1807F0AD2064B074A5860F021D3
:1006080082F823100020072298601A6070470120A2
:10061800704700BF10E000E000ED00E0044B1A68EE
:1006280004280CBF42F0040222F004021A6070474A
:1006380010E000E0704708B5FFF7FCFF08BD0000B8
:100648002DE9F04F85B00B68DFF8A881674C01935E
:100658000023019ADA4002D105B0BDE8F08F0126E7
:10066800019A9E4012EA060E00F0B1804A6822F014
:100678001007022F16D14FEAD30900EB890903F0BE
:10068800070AD9F820504FEA8A0A4FF00F0C0CFAE3
:100698000AFC25EA0C0C0D6905FA0AF545EA0C0571
:1006A800C9F820504FEA430C0325D0F800B005FAEA
:1006B8000CF5ED4302F0030A0BEA050B0AFA0CF9F4
:1006C800013F49EA0B09012FC0F8009011D887684B
:1006D80005EA0709CF6807FA0CF747EA09078760B0
:1006E800476827EA0609C2F300179F4047EA090747
:1006F8004760BAF1030F07D1C76A27EA0606C2F3B3
:10070800C0079F403E43C662C66835408E6806FAF9
:100718000CF63543C560D50059D5D8F8605045F07A
:100728000105C8F86050D8F8605023F0030606F1B8
:10073800804605F0010506F58036039503F0030CA5
:10074800039DB5684FEA8C0C0F2707FA0CF7B0F138
:10075800904F25EA07073CD0254DA8423BD005F528
:100768008065A84239D005F58065A84237D005F5DF
:100778008065A84235D005F58065A84233D005F5D7
:100788008065A84214BF0725062505FA0CF53D43E8
:10079800B56025686FEA0E06D70354BF35404EEAA8
:1007A800050525606568970354BF35404EEA050581
:1007B8006560A568D70254BF35404EEA0505A560B7
:1007C800E568920254BF35404EEA0505E5600133FD
:1007D8003FE70025D9E70125D7E70225D5E7032517
:1007E800D3E70425D1E70525CFE700BF0004014082
:1007F80000040048001002400AB18161704781621C
:10080800704703689A69910744BF00229A629A69FF
:10081800D2075EBF9A6942F001029A61704730B50B
:10082800039C05682343640D04F4806444F07F74DA
:1008380044F458346868C1F3090144F47F741943D7
:1008480044F0030441EA024120EA040421436960B8
:1008580030BD2DE9F041069F0446884616461D46E0
:100868002268936938EA03030CBF01230023B342CB
:1008780002D00020BDE8F0816B1CF2D0FFF75EFECD
:10088800C01B854201D3002DEAD1636C43F02003DD
:100898006364202384F84130002384F8423084F8CC
:1008A80040300120BDE8F081036870B504469869BE
:1008B80010F010000D46164616D170BD691C14D0F4
:1008C800FFF73CFE801B854200D36DB9636C43F093
:1008D80020036364202384F84130002384F84230E5
:1008E80084F84030012070BD236899698A06E5D5EF
:1008F80010222025DA612046DD61FFF782FF226899
:10090800536823F0FF7323F48B3323F4FF7323F02E
:1009180001035360636C43F00403636484F841503B
:10092800DBE770B504460D46164623689B699B07AE
:1009380001D5002070BD324629462046FFF7B4FF96
:10094800A0B96A1CF1D0FFF7F9FD801B854201D3DD
:10095800002DEAD1636C43F020036364202384F8FC
:100968004130002384F8423084F84030012070BDC3
:1009780070B504460D46164623689B699B0601D54B
:10098800002070BD324629462046FFF78DFF90B9FA
:10099800FFF7D4FD801B854201D3002DECD1636C99
:1009A80043F020036364202384F84130002384F853
:1009B800423084F84030012070BD70B504460D46C1
:1009C800164623689B695B070ED4324629462046A3
:1009D800FFF76AFFF0B923689A6991061CD59A69EE
:1009E800520703D5228D0AB1002070BD2021D9619C
:1009F8005A6822F0FF7222F48B3222F4FF7222F03E
:100A080001025A600023636484F8411084F842307C
:100A180084F84030012070BDFFF790FD801B8542AF
:100A280001D3002DCDD1636C43F0200363642023F0
:100A380084F841300023EBE710B5044600284AD07B
:100A480090F8413003F0FF021BB980F8402001F014
:100A580067FB242384F841302368E1681A6822F090
:100A680001021A60626822F070621A619A680129AC
:100A780022F400429A60A26824D142F400429A60AB
:100A88005A68616942F0007242F400425A60DA68BA
:100A980022F40042DA6022690A43A16942EA01228B
:100AA800DA60216AE2690A431A601A6842F00102B0
:100AB8001A6000202023606484F84130206384F8A1
:100AC800420010BD42F4044202299A6004BF4FF468
:100AD80000625A60D4E7012010BD00002DE9F743F9
:100AE800984690F84130202B04460E46914640F037
:100AF800848090F84030012B7FD0012780F8407027
:100B0800FFF71CFD1923054600903A464FF40041B3
:100B18002046FFF79EFE18B1012003B0BDE8F08320
:100B2800212384F84130102384F842306064A4F80B
:100B38002A80638DC4F824909BB2FF2B6063304BEE
:100B480026D9FF22228500934FF080733146204634
:100B5800FFF765FE638D0A999BB22A462046FBB9CA
:100B6800FFF706FF0028D7D123682021D9615A68EA
:100B780022F0FF7222F48B3222F4FF7222F001027B
:100B88005A6084F8411084F8400084F84200C4E7B1
:100B9800628D009392B222854FF00073D2B2D5E7EE
:100BA800FFF7BFFE0028B7D1636A226813F8011B5C
:100BB80091626362638D228D013B9BB26385638D75
:100BC800013A92B29BB22285002BC3D0002AC1D130
:100BD80000950A9B80212046FFF73BFE00289BD109
:100BE800638D9BB2FF2B03D9FF2222850090ABE7D0
:100BF800628D009092B22285CEE702208DE700BF79
:100C0800002000802DE9F743984690F84130202BCA
:100C180004460E46914640F0868090F84030012BFD
:100C280000F08180012780F84070FFF787FC1923C6
:100C3800054600903A464FF400412046FFF709FE6A
:100C480018B1012003B0BDE8F083222384F84130B5
:100C5800102384F842306064A4F82A80638DC4F8B5
:100C680024909BB2FF2B6063304B26D9FF2222854C
:100C780000934FF0807331462046FFF7D0FD638D17
:100C88000A999BB22A462046FBB9FFF771FE002855
:100C9800D7D123682021D9615A6822F0FF7222F443
:100CA8008B3222F4FF7222F001025A6084F841105C
:100CB80084F8400084F84200C4E7628D009392B241
:100CC80022854FF00073D2B2D5E7FFF776FE0028F1
:100CD800B7D12268636A526A1A70636A228D013337
:100CE8006362638D013B9BB26385638D013A92B267
:100CF8009BB22285002BC2D0002AC0D100950A9B46
:100D080080212046FFF7A5FD00289AD1638D9BB26C
:100D1800FF2B03D9FF2222850090AAE7628D00905D
:100D280092B22285CDE702208CE700BF0024008024
:100D380090F84120D2B2202A10B51DD190F8403049
:100D4800012B19D0242380F8413003681C6824F053
:100D580001041C601C6824F480541C601C68214336
:100D68001960196841F001011960002380F84120D9
:100D780080F84030184610BD022010BD10B590F81C
:100D88004140E4B2202C1CD190F84030012B18D0FF
:100D9800242380F8413003681A6822F001021A609F
:100DA8001A6822F4706242EA012119601A6842F056
:100DB80001021A60002380F8414080F8403018464C
:100DC80010BD022010BD0000024B186800F4C0607E
:100DD800704700BF00700040174B1A68B0F5007FDD
:100DE80002F4C0621CD1B2F5007F15D01A6822F453
:100DF800C06242F400721A60104A116832224A43F3
:100E08000F49B2FBF1F2194601325869400500D585
:100E180022B94B695B050DD400207047013AF4E70D
:100E2800B2F5806F1FBF1A6822F4C06242F4806274
:100E38001A60F1E703207047007000401C00002092
:100E480040420F0037B51E4DAB6DDA00044618D589
:100E5800FFF7BAFFB0F5007F23D1802C29D9A02C49
:100E68008CBF02200120174A136823F007030343AD
:100E78001360136803F00703181A18BF012003B0A2
:100E880030BDAB6D43F08053AB65AB6D03F0805361
:100E98000193019BFFF798FFAB6D23F08053AB657F
:100EA800D8E7802C07D808D0A4F1700358425841DD
:100EB800D9E70020D7E70320D5E70220D3E700BF12
:100EC8000010024000200240254B9A68D96812F0B1
:100ED8000C0205D00C2A15D101F00301012918D103
:100EE80019682048090755BFD3F894101968C1F349
:100EF8000321C1F3031150F8210082B30C2A09D051
:100F080000207047042A29D0082A174818BF002053
:100F180070470020D968DA6801F00301C2F30212B1
:100F2800022902F1010205D0032912D0D968C1F3C0
:100F3800062103E0D9680D48C1F30621DB68B0FB40
:100F4800F2F0C3F34163013348435B00B0FBF3F0B5
:100F58007047D9680448C1F30621EFE70348704792
:100F6800001002409428000800127A000024F400BF
:100F78002DE9F743054618B9012003B0BDE8F08311
:100F8800A54C0368A668E768DB0606F00C0607F0C0
:100F980003073CD51EB10C2E63D1012F61D1236804
:100FA800980702D5AB69002BE6D02368286A190791
:100FB80056BFD4F8943023681B0903F0F00383422A
:100FC8003AD2FFF73FFF0028D6D1236843F0080341
:100FD800236023682A6A23F0F003134323606368BD
:100FE800EA6923F47F4343EA02236360FFF76CFF57
:100FF800A3688A4AC3F30313D35C03F01F03D840E2
:10100800874B18600020FFF763FA0028B5D12B68DA
:10101800D8075DD42B68990700F19C802B681807C6
:1010280000F1D0802B68590700F1FC80AB6A002BD7
:1010380040F065810020A0E7236843F0080323609F
:10104800236823F0F003034323606368EA6923F409
:101058007F4343EA02236360FFF7F4FE0028C5D00C
:101068008AE7AB691BB3236843F001032360FFF7EA
:1010780065FA804623689A0711D5236843F0080368
:10108800236023682A6A23F0F0031343236063680C
:10109800EA6923F47F4343EA02236360B7E7FFF773
:1010A8004DFAA0EB08000228E4D9032065E723687D
:1010B80023F001032360FFF741FA804623689B076A
:1010C800A5D5FFF73BFAA0EB08000228F6D9ECE714
:1010D800082E03D00C2E08D1032F06D123689A03BB
:1010E80098D56B68002B95D146E76B68B3F5803FC0
:1010F80010D1236843F480332360FFF71FFA80463A
:1011080023689B0386D4FFF719FAA0EB080064282C
:10111800F6D9CAE7B3F5A02F04D1236843F4802396
:101128002360E6E7226822F480322260226822F4F3
:1011380080222260002BE0D1FFF700FA8046236866
:1011480098037FF567AFFFF7F9F9A0EB080064286B
:10115800F5D9AAE7042E03D00C2E10D1022F0ED1F8
:101168002368590503D5EB68002B3FF405AF636886
:101178002A6923F0F85343EA026363604EE7EB6899
:101188007BB1236843F480732360FFF7D7F90746E0
:1011980023685A05EBD4FFF7D1F9C01B0228F7D909
:1011A80083E7236823F480732360FFF7C7F90746B2
:1011B80023685B057FF532AFFFF7C0F9C01B022833
:1011C800F6D972E76B699BB1D4F8943043F0010308
:1011D800C4F89430FFF7B2F90746D4F894309A0768
:1011E8003FF520AFFFF7AAF9C01B0228F5D95CE745
:1011F800D4F8943023F00103C4F89430FFF79EF933
:101208000746D4F894309B077FF50CAFFFF796F9A3
:10121800C01B0228F5D948E7001002407A280008C8
:101228001C000020A36DD80029D4A36D43F080537F
:10123800A365A36D03F080530193019B4FF0010850
:101248005D4F3B68D9051DD5AB68012B2BD1D4F870
:10125800903043F00103C4F89030FFF76FF941F282
:1012680088390746D4F890309B0742D5B8F1000F6B
:101278003FF4DCAEA36D23F08053A365D6E64FF0B0
:101288000008DDE73B6843F480733B60FFF756F9DD
:1012980081463B68DA05D7D4FFF750F9A0EB09007F
:1012A8000228F6D901E7052B06D1D4F8903043F08F
:1012B8000403C4F89030CAE7D4F8902022F0010261
:1012C800C4F89020D4F8902022F00402C4F89020AA
:1012D800002BC2D1FFF732F941F288390746D4F81A
:1012E80090309807C2D5FFF729F9C01B4845F6D9B1
:1012F800DBE6FFF723F9C01B4845B3D9D5E60C2E2A
:101308003FF43AAE022B236823F08073236037D171
:10131800FFF714F90646236899012BD46A6BEB6A28
:1013280043EA02232A6B013A43EA0213AA6B120921
:1013380043EA4243EA6B5208013A43EA42532A6CB1
:101348005208013A43EA4263E360236843F080733A
:101358002360E36843F08073E360FFF7EFF8054626
:1013680023689A013FF566AEFFF7E8F8401B0228AC
:10137800F6D99AE6FFF7E2F8801B0228CBD994E663
:10138800236813F0205F02BFE36823F00303E360E0
:10139800E36823F0887323F48033E360FFF7CEF823
:1013A800054623689B017FF545AEFFF7C7F8401B4C
:1013B8000228F6D979E600BF007000402DE9F04117
:1013C8000E46044610B90120BDE8F081404A136872
:1013D80003F007038B4229D32368D90731D4216846
:1013E8008A075BD43A4A136803F007039E425DD329
:1013F80011F0040F374D64D10B0706D5AB6822698D
:1014080023F4605343EAC203AB60FFF75DFDAB68AA
:10141800314AC3F30313BDE8F041D35C03F01F0363
:10142800D8402E4B18600020FFF752B8136823F0FD
:1014380007030B431360136803F007039942C2D1F3
:10144800CAE76268234D032A2B681BD113F0007F7B
:10145800B9D0AB6823F003031343AB60FFF76EF812
:1014680041F288380746AB68626803F00C03B3EBB7
:10147800820FB4D0FFF762F8C01B4045F3D90320B0
:10148800BDE8F081022A02D113F4003FE0E712B967
:1014980013F0020FDCE713F4806FD9E70D4AA06858
:1014A800936823F0F003034393609BE7136823F0EA
:1014B800070333431360136803F007039E4282D186
:1014C80096E7AB68E26823F4E0631343AB6093E705
:1014D80000200240001002407A2800081C0000206A
:1014E800014B1868704700BF1C000020054B064AD6
:1014F8009B68C3F30223D35C044A106803F01F03FC
:10150800D8407047001002408A2800081C000020BC
:10151800054B064A9B68C3F3C223D35C044A106890
:1015280003F01F03D8407047001002408A280008C3
:101538001C000020F8B5454BDA6812F0030F054689
:101548000E461C4600682AD0DA6802F0030282427E
:101558003CD1002A3AD0DB686A68C3F3021301332E
:10156800934233D1236823F080632360FEF7E6FFBC
:10157800074623681A0132D4AF68002E36D0012EF0
:1015880050D12269286922F4C002400822F4FE42A0
:10159800013842EA072242EA4052226132E0022838
:1015A80010D0032814D0012810D11B689F0738D504
:1015B800E3686A6823F07303013A184340EA0210AB
:1015C800E060CFE71B6813F4806FF1D10120F8BD0C
:1015D8001A689103ECD41B6813F4802FF5E7FEF723
:1015E800ADFFC01B0228C4D90320F8BD2169EB68F0
:1015F80021F41F3121F4407141EA07211B0941EA16
:1016080043412161236843F080632360FEF796FF1E
:10161800064623681B0113D52369AA69134323616E
:101628000020F8BD2369686923F0C063400823F4EB
:10163800FE43013843EA072343EA40632361E1E7B5
:10164800FEF77CFF801B0228E3D9CDE7001002409B
:10165800F8B53D4BDA6812F0030F05460E461C46F6
:10166800006828D0DA6802F0030282423AD1002AE0
:1016780038D0DB686A68C3F302130133934231D16F
:10168800236823F080532360FEF758FF074623683A
:101698009A0030D4A868002E34D06369296923F0F1
:1016A800C063490823F4FE43013943EA002343EAAF
:1016B8004163636132E0022810D0032814D0012866
:1016C80010D11B689F0738D5E3686A6823F0730355
:1016D800013A184340EA0210E060D1E71B6813F4AE
:1016E800806FF1D10120F8BD1A689103ECD41B6812
:1016F80013F4802FF5E7FEF721FFC01B0228C6D997
:101708000320F8BD6269EB6822F41F3222F44072AC
:1017180042EA00221B0942EA43426261236843F01D
:1017280080532360FEF70AFF064623689B0005D511
:1017380063696A69134363610020F8BDFEF7FEFE22
:10174800801B0228F1D9DBE7001002402DE9F3479E
:10175800066816F40066044624D0416EB1F5800F81
:101768002CD002D8C1B101261CE0B1F5000F0DD074
:10177800B1F5400FF7D14D4A616ED2F8883023F4A5
:1017880040030B43C2F8883000260BE0474AD36871
:1017980043F48033D360EEE70430FFF7CBFE064610
:1017A8000028E8D02368D80406D5A16EB1F1807F5F
:1017B80074D008D8A9B10126354621E0002120308F
:1017C800FFF746FFEBE7B1F1007F04D0B1F1407FAE
:1017D800F1D1354609E0354AD36843F48033D36004
:1017E800F7E7201DFFF7A6FE0546002D5CD12F4A1E
:1017F800A16ED2F8883023F040730B43C2F88830CA
:101808002368990340F14F81284FBB6DDA0040F1FE
:1018180076814FF00008DFF89890D9F8003043F44B
:101828008073C9F80030FEF789FE8246D9F8003087
:10183800DB053FD5002D44D1D7F8903013F4407321
:1018480015D0D4F88420934211D0D7F89030D7F827
:10185800902042F48032C7F89020D7F8902023F4E3
:10186800407322F48032C7F89020C7F89030D80728
:1018780009D5FEF763FE41F288390546D7F890305E
:10188800990740F10981D7F89030D4F8842023F4DF
:1018980040731343C7F89030354612E0002104F135
:1018A8002000FFF7D5FE9FE72E46A9E7001002406B
:1018B80000700040FEF742FEA0EB0A000228B5D9EE
:1018C8000325B8F1000F03D0BB6D23F08053BB652F
:1018D8002368DA0708D59049A06BD1F8882022F050
:1018E80003020243C1F888209F0708D58A49E06BA4
:1018F800D1F8882022F00C020243C1F888205E0744
:1019080008D58549206CD1F8882022F0300202439E
:10191800C1F88820180708D57F49606CD1F888205D
:1019280022F0C0020243C1F88820D90608D57A49B6
:10193800A06CD1F8882022F440720243C1F88820B4
:101948009A0608D57449E06CD1F8882022F44062E0
:101958000243C1F888209F0508D56F49E06DD1F88A
:10196800882022F440220243C1F888205E0508D569
:101978006949206ED1F8882022F440120243C1F848
:101988008820580608D56449206DD1F8882022F4AB
:1019980040520243C1F88820190608D55E49606D97
:1019A800D1F8882022F440420243C1F88820DA05A1
:1019B80008D55949A06DD1F8882022F44032024355
:1019C800C1F888209B040FD5534AE16ED2F88830BD
:1019D80023F040630B43B1F1006FC2F8883064D143
:1019E800D36843F48013D36023681F030FD54A4A92
:1019F800216FD2F8883023F040630B43B1F1006FB8
:101A0800C2F888305CD1D36843F48013D36023686C
:101A18005E030FD5404A616FD2F8883023F04063E7
:101A28000B43B1F1006FC2F8883054D1D36843F446
:101A38008013D3602368580412D53749A26FD1F8B0
:101A4800883023F040531343B2F1805FC1F88830E7
:101A58004CD10221201DFFF76DFD002818BF054657
:101A68002268110408D52C49E06FD1F8883023F09A
:101A780080430343C1F88830D30309D5264AD4F8F4
:101A88008010D2F8883023F000430B43C2F8883026
:101A9800284602B0BDE8F087FEF750FD401B4845D8
:101AA8007FF6ECAE0CE7354612E7B1F1806F9BD1BB
:101AB8000121201DFFF73EFD002818BF054693E7CA
:101AC800B1F1806FA3D10121201DFFF733FD00285C
:101AD80018BF05469BE7B1F1806FABD10121201DEE
:101AE800FFF728FD002818BF0546A3E7B2F1005FFD
:101AF800B6D1022104F12000FFF7AAFDADE7BB6DC6
:101B080043F08053BB65BB6D03F080530193019B89
:101B18004FF001087FE600BF001002400268C1696B
:101B2800F8B5044683680069156803436069034390
:101B3800BA480B432840034313605368E06823F412
:101B4800405303435360B64BA0699A421CBF236AB3
:101B58001843936823F4306303439360B14B9A426C
:101B680019D103F55843B04AD3F8883003F003037A
:101B7800B1F5004FD35C40F03881082B00F28F801C
:101B8800DFE813F01A01CA00F9008D0014018D0076
:101B98008D008D003600A54B9A4207D103F5E63338
:101BA800A34AD3F8883003F00C03E1E7A14B9A422B
:101BB80023D103F5E433D3F8883003F03003102B36
:101BC80000F0F1800BD8002B00F0F380B1F5004F46
:101BD8004FF001024FF0000300F0F880A8E0202B3E
:101BE80000F0C680302BF1D1B1F5004F40F0B8803D
:101BF8006068430803F58033C3E08F4B9A421ED1D7
:101C080003F5E233D3F8883003F0C003402B00F02B
:101C1800BB800AD87BB9824B9A4240F0CA80FFF752
:101C280065FC0023B0BB02463AE0802B00F09D80A3
:101C3800C02B00F0B0807A4B9A42C7D12FE07F4B7F
:101C48009A4211D103F5E033D3F8883003F4407396
:101C5800B3F5807F00F09880DCD9B3F5007F00F001
:101C68008480B3F5407FE4E76D4B9A42AED103F52B
:101C7800C833D3F8883003F44063B3F5806F00F0BD
:101C88008380C7D9B3F5006F6FD0B3F5406FD0E745
:101C98006B480223626802EB4201814205D90122A6
:101CA8000023236663661046F8BDB0EB023FF6D802
:101CB800082B2ED8DFE803F0052D1C2D242D2D2D03
:101CC8002700FFF713FC62684FF48071560800275D
:101CD800E1FB0067002330463946FEF771FA00221F
:101CE800584BA0F540719942D9D82368D860D7E7F6
:101CF8005548550800230021401941F10001ECE73F
:101D0800FFF7E2F8DFE750080021002310F5000094
:101D1800F3E701220020E3E7FFF7FAFB4EE0FFF7C5
:101D2800E5FB626800EB5203B3FBF2F39BB20022BF
:101D3800A3F110004FF6EF718842B0D82168CB604C
:101D4800AEE7FFF7E5FBECE76068430803F57403CB
:101D580003F51053B3FBF0F3E8E7FFF7B5F8E0E756
:101D68006068430803F50043F4E72D4B9A428FD08F
:101D7800B1F5004FE8D16068430803F1F47303F547
:101D88009043B3FBF0F31FE0254B9A420BD1FFF7CA
:101D98009BF8042346E7224B9A427FF425AF4FF481
:101DA8000040082376E7B1F5004FD6D1FFF78CF84D
:101DB80004E0B1F5004FB2D1FFF798FB61684A081B
:101DC80002EB4003B3FBF1F39BB20022A3F1100036
:101DD8004FF6EF7188423FF662AF23F00F0120689B
:101DE800C3F342030B43C3605AE7082B3FF657AFD0
:101DF80001A252F823F000BF271D00084B1D000860
:101E0800511D0008A71C0008631D0008A71C000836
:101E1800A71C0008A71C0008691D0008F369FFEF4C
:101E280000800040003801405C2800080044004061
:101E38006028000800480040004C00400050004066
:101E48000024F400FFFC0F00000024F4436ADA07C2
:101E580010B506D50168846A4A6822F40032224324
:101E68004A609C0706D50168C46A4A6822F4803231
:101E780022434A60590706D50168046B4A6822F470
:101E8800802222434A601A0706D50168446B4A68D3
:101E980022F4004222434A60DC0606D50168846BBE
:101EA8008A6822F4805222438A60990606D501681E
:101EB800C46B8A6822F4005222438A605A060FD5FE
:101EC8000168046C4A6822F480122243B4F5801F2A
:101ED8004A6005D14A68446C22F4C00222434A6031
:101EE8001B0606D50268816C536823F400230B4354
:101EF800536010BD2DE9F041069D04460F46164675
:101F080098462168CA6937EA02030CBF01220022F9
:101F1800B24202D00020BDE8F0816B1CF2D09DB91E
:101F280023681A6822F4D0721A609A6822F00102B3
:101F38009A60202384F8713084F87230002384F882
:101F480070300320BDE8F081FEF7F8FAA0EB080036
:101F58008542D6D2E4E773B5044600264667FEF705
:101F6800EDFA23681B681A07054617D423681B680F
:101F78005B070AD56FF07E43009300222B464FF48F
:101F880080012046FFF7B6FFA0B92023002084F87F
:101F9800713084F8700084F872300CE06FF07E4382
:101FA8000093324603464FF400112046FFF7A2FF84
:101FB8000028DBD0032002B070BD10B5044660B322
:101FC80090F8713003F0FF021BB980F8702000F020
:101FD800C3FB2268242384F87130136823F00103BB
:101FE80013602046FFF79AFD012816D0636A13B1E3
:101FF8002046FFF72BFF23685A6822F490425A6064
:102008009A6822F02A029A601A6842F00102204671
:102018001A60BDE81040FFF79EBF012010BD000008
:10202800224B10B5DA6C42F00402DA64DA6C8AB03A
:1020380002F004020192019ADA6C42F08002DA643A
:10204800DA6C02F080020292029ADA6C42F0010223
:10205800DA64DA6C02F001020392039ADA6C42F055
:102068000202DA64DB6C03F00203002204932021ED
:102078004FF09040049BFEF7BFFB4FF40053002441
:10208800059305A90A4B0B4806930794FEF7D8FA5F
:102098002023059305A901234FF090400693079448
:1020A8000894FEF7CDFA0AB010BD00BF0010024038
:1020B800000021100008004808B51548154B1649BE
:1020C800012280E80A0000238360C2600361436143
:1020D8008361C3610362FEF7AFFC18B142210F4868
:1020E80000F09CFA00210A48FEF722FE18B14921A7
:1020F8000A4800F093FA00210548FEF73FFE28B190
:1021080050210648BDE8084000F088BA08BD00BF65
:1021180068000020EC9C9010005400406D280008D6
:102128007FB502680F4B9A4219D14FF4407301935F
:1021380012230293012303930323049304230DEB37
:10214800030109480593FEF77BFA084B9A6D42F4A0
:1021580000129A659B6D03F400130093009B07B06F
:102168005DF804FB005400400004004800100240E1
:1021780010B5B8B04FF4807208921022099201226B
:1021880011920A220223129205A8072205930F939F
:102198001093139214931593FEF7EAFE00B1FEE72D
:1021A8000F220323029003900490042168468DE8CF
:1021B8000C00FFF703F900B1FEE7422325902A90AF
:1021C80016A81693FFF7C2FA00B1FEE74FF40070A5
:1021D800FEF702FE044600B1FEE7FFF781F94FF46F
:1021E8007A73B0FBF3F0FEF703FA0420FEF716FA51
:1021F800224621464FF0FF30FEF7C6F938B010BD31
:102208002DE9F341104D04460F4616464FF00308DA
:102218002178CDF8008001233A462846FEF75EFC77
:102228000028F5D1084D032721780097012332466D
:102238002846FEF7E7FC0028F6D1642002B0BDE886
:10224800F041FEF781B900BF680000202DE9F04792
:102258003F4C404E404D414F4149DFF84C91DFF82B
:102268004CA1DFF84C8132462046FFF7C9FF2A46C9
:102278003C492046FFF7C4FF3A463B492046FFF752
:10228800BFFF3B78394F1A0202F440713278384E5A
:102298000A4438499B010A8003F440712B78364D73
:1022A8000B443649D2100B802A80DB103246344961
:1022B8003B802046FFF7A4FF4A4632492046FFF7F5
:1022C8009FFF99F800203378DFF8E8902E492F4EC9
:1022D80003EB022320464A46A8F80030FFF790FF98
:1022E80052462B492046FFF78BFF9AF8002099F8B1
:1022F8000030DFF8C490DFF8C4A0264903EB0223BE
:1023080020464A463380FFF77BFF52462249204643
:10231800FFF776FF9AF8003099F80020B5F9001019
:10232800B8F9000002EB03221C4B12B21A80B7F96D
:102338000030121A5B1A5343194A1360B6F9002089
:10234800121A93FBF2F3174A0B441380BDE8F08787
:1023580017000020520000205C00002044000020EC
:102368001100002014000020080000205600002062
:1023780051000020540000204C0000205E00002086
:10238800100000200F00002013000020580000203B
:102398001200002016000020150000206000002018
:1023A800C4000020C0000020500000205A00002077
:1023B8004E0000205B000020630000206200002027
:1023C8002DE9F047364C374E374D3849DFF818813C
:1023D800DFF81891DFF818A1354F32462046FFF78D
:1023E8000FFF2A4633492046FFF70AFF3378324E5B
:1023F80032499B08A8F800302B78314D9B082A46B3
:1024080020463380FFF7FCFE4A462E492046FFF758
:10241800F7FE99F800202B78DFF8D8902A492B4D41
:1024280003EB022320464A463B80FFF7E9FE52466B
:1024380027492046FFF7E4FE9AF8002099F8003073
:10244800DFF8B490DFF8B4A0224903EB022320465A
:102458004A462B80FFF7D4FE52461F492046FFF715
:10246800CFFE9AF8003099F80020B8F90010B7F9B3
:10247800000002EB0322194B12B21A80B6F90030A1
:10248800121A5B1A5343164A1360B5F90020121A40
:1024980093FBF2F3134A0B441380BDE8F08700BFA7
:1024A800170000203E00002041000020020000200C
:1024B800DC00002005000020B800002001000020FA
:1024C8003D0000200000002004000020D40000206F
:1024D800030000200700002006000020CC00002098
:1024E800B4000020BE000020BA0000203C000020FC
:1024F8003F00002040000020430000204200002050
:102508002DE9F0412A4DDFF8E8802A4F2A4E2B4961
:102518002B4C42462846FFF773FE3A46294928467F
:10252800FFF76EFE324628492846FFF769FE98F8FD
:102538000030DFF8C080254903F110023B78244FB2
:102548001B0203EB02433278224E134428464246CC
:102558002360FFF755FE3A461F492846FFF750FE0D
:1025680032461E492846FFF74BFE3B7898F8002074
:102578001B0203EB024332781344194A13602268A2
:102588001344184A13604FF4805293FBF2F3164A2F
:102598001BB213804FF47A7293FBF2F307EE903A72
:1025A800124BF8EEE77AC3ED007ABDE8F08100BF80
:1025B80018000020490000204A0000200C000020DC
:1025C800C80000200D0000200E0000200900002097
:1025D80046000020470000200A0000200B000020D1
:1025E800D8000020E0000020BC000020D00000201F
:1025F800480000204500002008B5FDF781FFFFF7DF
:10260800B7FDFFF70DFD00F085F8FFF755FDFFF763
:102618001DFEFFF7D5FEFFF773FFF8E7FEE70000A2
:10262800214B07B51A6E42F001021A661A6E02F0C3
:1026380001020092009A9A6D42F080529A659B6D51
:1026480003F0805301930320019BFDF78BFF0022C9
:1026580011466FF00B00FDF797FF002211466FF04F
:102668000A00FDF791FF002211466FF00900FDF7FF
:102678008BFF002211466FF00400FDF785FF002252
:1026880011466FF00300FDF77FFF002211466FF03F
:102698000100FDF779FF002211464FF0FF30FDF7EA
:1026A80073FF03B05DF804FB001002407047FEE7BB
:1026B800FEE7FEE7FEE770477047704708B5FDF78D
:1026C80035FFBDE80840FDF7B6BF00000F49D1F857
:1026D800883043F47003C1F888300D4B1A68002025
:1026E80042F001021A6098601A6822F0A85222F497
:1026F80010221A604FF48052DA601A6822F480229D
:102708001A6098614FF000638B60704700ED00E03D
:102718000010024008B50D480D4B4FF4E13E80E82B
:1027280008400C2200238360C36003614261836117
:10273800C36103624362FFF740FC28B144210548A6
:10274800BDE80840FFF76ABF08BD00BFE4000020ED
:1027580000440040C42800087FB502680F4B9A4225
:1027680019D103F5E63301A99A6D42F400329A654E
:102778009B6D03F400330093009B0C230193022309
:10278800029300230393032304934FF090400723FD
:102798000593FDF755FF07B05DF804FB00440040C2
:1027A800DFF834D0002103E00C4B5B584350043170
:1027B8000B480C4B42189A42F6D30B4A02E000230E
:1027C80042F8043B094B9A42F9D3FFF77FFF00F028
:1027D80011F8FFF711FFFEE700800120E428000848
:1027E8000000002020000020200000205C010020C4
:1027F800FEE7000070B50D4E0D4CA41BA41000257B
:10280800A54209D10B4E0C4C00F018F8A41BA410DB
:102818000025A54205D170BD56F8253098470135E9
:10282800EEE756F8253098470135F2E7DC2800082E
:10283800DC280008DC280008E0280008F8B500BFFC
:10284800F8BC08BC9E467047F8B500BFF8BC08BC89
:042858009E467047E1
:10285C0001040208001010100410101002101010C7
:10286C00082E2E5C5372635C6932632E6300000089
:10287C000000000000000102030406070809000024
:10288C000000010203040000A0860100400D0300BB
:10289C00801A060000350C0040420F0080841E0098
:1028AC0000093D0000127A000024F40000366E018D
:1028BC000048E801006CDC022E2E5C5372635C75E0
:0828CC00736172742E630000B9
:0828D40024D9FF7F0100000080
:0428DC00AD01000842
:0428E0008901000862
:1028E4003736303B3A312928352A29281716153D21
:1028F4003C323F3E332B2ABEBA00000000093D00A3
:04000005080027A91F
:00000001FF
