:020000040800F2
:1000000000800120595400084D5000085B50000842
:1000100061500008675000086D50000800000000A3
:100020000000000000000000000000007350000805
:1000300081500008000000008F5000089D5000080B
:10004000A9540008A9540008A9540008A95400089C
:10005000A9540008A9540008A9540008A95400088C
:10006000A9540008A9540008A9540008A95400087C
:10007000A9540008A9540008A9540008A95400086C
:10008000A9540008A9540008A9540008A95400085C
:10009000A9540008A9540008A9540008A95400084C
:1000A000A9540008A9540008A9540008A95400083C
:1000B000A9540008A9540008A9540008A95400082C
:1000C000A9540008A9540008A9540008A95400081C
:1000D000A9540008A9540008A9540008A95400080C
:1000E000A9540008A9540008A9540008A9540008FC
:1000F000A9540008A9540008A9540008A9540008EC
:10010000A9540008A9540008A9540008A9540008DB
:10011000A9540008A9540008A9540008A9540008CB
:10012000A9540008A9540008A9540008A9540008BB
:10013000A9540008A9540008A9540008A9540008AB
:10014000A9540008A9540008A9540008A95400089B
:10015000A9540008A9540008A9540008A95400088B
:10016000A9540008A9540008A9540008A95400087B
:10017000A9540008A9540008A95400080000000070
:08018000A9540008A95400086D
:1001900010B5054C237833B9044B13B10448AFF3C1
:1001A00000800123237010BD5002002000000000D9
:1001B000E45F000808B5034B1BB103490348AFF3E4
:1001C000008008BD0000000054020020E45F000829
:1001D000034613F8012B002AFBD1181A0138704787
:1001E00001F0FF01102A2BDB10F0070F08D010F8E8
:1001F000013B013A8B422DD010F0070F42B3F6D1EC
:10020000F0B441EA012141EA014122F007047FF004
:1002100000070023F0E80256083C85EA010586EA5B
:10022000010685FA47F5A3FA87F586FA47F6A5FA97
:1002300087F68EB9EED1F0BC01F0FF0102F00702A3
:1002400032B110F8013B013A83EA010313B1F8D14E
:100250000020704701387047002D06BF354603382F
:10026000073815F0010F07D1013015F4807F02BF68
:10027000013015F4C03F0130F0BC0138704700BFB9
:1002800053B94AB9002908BF00281CBF4FF0FF31FD
:100290004FF0FF3000F07AB9ADF1080C6DE904CEF3
:1002A00000F006F8DDF804E0DDE9022304B0704751
:1002B0002DE9F0478C460D460446089E002B51D18F
:1002C0008A4217466DD9B2FA82FEBEF1000F0BD0FA
:1002D000CEF1200C01FA0EF520FA0CFC02FA0EF712
:1002E0004CEA050C00FA0EF44FEA174A250CBCFB49
:1002F000FAF81FFA87F90AFB18CC45EA0C4508FB07
:1003000009F3AB420AD9ED1908F1FF3280F02381DD
:10031000AB4240F22081A8F102083D44ED1AA4B29C
:10032000B5FBFAF00AFB105544EA054400FB09F955
:10033000A14509D9E41900F1FF3380F00A81A145F4
:1003400040F2078102383C44A4EB090440EA08402B
:100350000021002E61D024FA0EF400233460736073
:10036000BDE8F0878B4207D9002E54D0002186E8E3
:1003700021000846BDE8F087B3FA83F1002940F078
:100380008E80AB4202D3824200F2FA80841A65EB7F
:1003900003050120AC46002E3FD086E81010BDE8D2
:1003A000F08712B90127B7FBF2F7B7FA87FEBEF163
:1003B000000F34D1EB1B3A0C1FFA87FC0121B3FB71
:1003C000F2F8250C02FB183345EA03450CFB08F351
:1003D000AB4207D9ED1908F1FF3002D2AB4200F26F
:1003E000D1808046ED1AA3B2B5FBF2F002FB1055A6
:1003F00043EA05440CFB00FCA44507D9E41900F1CD
:10040000FF3302D2A44500F2B8801846A4EB0C04D6
:1004100040EA08409DE731463046BDE8F087CEF11E
:10042000200405FA0EF307FA0EF720FA04F83A0C46
:1004300025FA04F448EA0308B4FBF2F14FEA184540
:1004400002FB11441FFA87FC45EA044501FB0CF34B
:10045000AB4200FA0EF409D9ED1901F1FF3080F03A
:100460008A80AB4240F2878002393D44EB1A1FFA82
:1004700088F5B3FBF2F002FB103345EA034500FBBD
:100480000CF3AB4207D9ED1900F1FF386FD2AB4244
:100490006DD902383D44EB1A40EA01418FE7C1F1C2
:1004A000200722FA07F88B4005FA01F448EA030313
:1004B00020FA07FE4FEA134CFD404EEA040EB5FB4E
:1004C000FCF94FEA1E440CFB19551FFA83F844EA65
:1004D000054509FB08F4AC4202FA01F200FA01FA00
:1004E00008D9ED1809F1FF3043D2AC4241D9A9F146
:1004F00002091D442D1B1FFA8EFEB5FBFCF00CFB00
:1005000010554EEA054400FB08F8A04507D9E41849
:1005100000F1FF3529D2A04527D902381C4440EA12
:100520000940A4EB0804A0FB02894C45C6464D4691
:1005300015D312D056B1BAEB0E0364EB050404FADE
:1005400007F7CB401F43CC40376074600021BDE803
:10055000F0871846F8E69046E0E6C245EAD2B8EBE6
:10056000020E69EB03050138E4E72846D7E7404669
:1005700091E78146BEE7014678E702383C4445E70B
:10058000084608E7A8F102083D442BE7704700BF82
:1005900080B582B000AF0023FB710C4A0B4B1B6887
:1005A00043F480731360032000F01EF9002000F074
:1005B0000FF80346002B02D00123FB7101E004F089
:1005C00021FDFB7918460837BD4680BD002002405A
:1005D00080B584B000AF78600023FB730C4B1B68C0
:1005E0000C4AA2FB03239B09184600F024F903469A
:1005F000002B02D00123FB7305E0002279684FF045
:10060000FF3000F0FCF8FB7B18461037BD4680BD7C
:100610007C000020D34D621080B400AF044B1B68F7
:100620000133034A136000BFBD465DF8047B704789
:100630007802002080B400AF034B1B681846BD460B
:100640005DF8047B704700BF7802002080B584B05D
:1006500000AF7860FFF7EEFFB8607B68FB60FB6877
:10066000B3F1FF3F02D0FB680133FB6000BFFFF72F
:10067000E1FF0246BB68D21AFB689A42F7D300BF7B
:100680001037BD4680BD000080B485B000AF7860F3
:100690007B6803F00703FB600C4BDB68BB60BA6848
:1006A0004FF6FF031340BB60FB681A02BB6813439D
:1006B00043F0BF6343F40033BB60044ABB68D360BC
:1006C00000BF1437BD465DF8047B704700ED00E0C5
:1006D00080B400AF044BDB681B0A03F00703184625
:1006E000BD465DF8047B704700ED00E080B483B048
:1006F00000AF03463960FB7197F90730002B0BDA26
:100700000D49FB7903F00F03043B3A68D2B21201A2
:10071000D2B20B441A7609E0084997F907303A68D3
:10072000D2B21201D2B20B4483F8002300BF0C37BF
:10073000BD465DF8047B704700ED00E000E100E09D
:1007400080B489B000AFF860B9607A60FB6803F0EC
:100750000703FB61FB69C3F10703042B28BF0423D4
:10076000BB61FB690433062B02D9FB69033B00E044
:1007700000237B610122BB6902FA03F35A1EBB68A6
:100780001A407B699A4001217B6901FA03F3591EE3
:100790007B680B40134318462437BD465DF8047B45
:1007A0007047000080B582B000AF78607B68013B85
:1007B000B3F1807F01D301230FE00A4A7B68013B3C
:1007C00053600F214FF0FF30FFF790FF054B0022E1
:1007D0009A60044B07221A60002318460837BD466A
:1007E00080BD00BF10E000E080B582B000AF78604F
:1007F0007868FFF749FF00BF0837BD4680BD80B568
:1008000086B000AF0346B9607A60FB7300237B615A
:10081000FFF75EFF78617A68B9687869FFF790FF43
:10082000024697F90F3011461846FFF75FFF00BFE9
:100830001837BD4680BD80B582B000AF786078685B
:10084000FFF7B0FF034618460837BD4680BD0000DD
:1008500080B487B000AF7860396000237B617FE1AE
:100860003B681A6801217B6901FA03F31340FB60BE
:10087000FB68002B00F071813B685B68022B03D0A2
:100880003B685B68122B23D17B69DA087B680832EE
:1008900053F822303B617B6903F007039B000F2272
:1008A00002FA03F3DB433A6913403B613B681A6980
:1008B0007B6903F007039B0002FA03F33A691343D1
:1008C0003B617B69DA087B680832396943F822109A
:1008D0007B681B683B617B695B00032202FA03F3C0
:1008E000DB433A6913403B613B685B6803F00302FA
:1008F0007B695B0002FA03F33A6913433B617B684F
:100900003A691A603B685B68012B0BD03B685B68F7
:10091000022B07D03B685B68112B03D03B685B68F8
:10092000122B30D17B689B683B617B695B000322A3
:1009300002FA03F3DB433A6913403B613B68DA6830
:100940007B695B0002FA03F33A6913433B617B68FE
:100950003A699A607B685B683B6101227B6902FAB5
:1009600003F3DB433A6913403B613B685B681B0957
:1009700003F001027B6902FA03F33A6913433B6116
:100980007B683A695A603B685B6803F00303032B9A
:1009900018D17B68DB6A3B6101227B6902FA03F3B1
:1009A000DB433A6913403B613B685B68DB0803F05B
:1009B00001027B6902FA03F33A6913433B617B68E6
:1009C0003A69DA627B68DB683B617B695B00032222
:1009D00002FA03F3DB433A6913403B613B689A68D0
:1009E0007B695B0002FA03F33A6913433B617B685E
:1009F0003A69DA603B685B6803F08053002B00F0D3
:100A0000AC805E4A5D4B1B6E43F0010313665B4B8B
:100A10001B6E03F00103BB60BB68594A7B699B08EE
:100A2000023352F823303B617B6903F003039B00E0
:100A30000F2202FA03F3DB433A6913403B617B6800
:100A4000B3F1904F25D07B684E4A93421FD07B680C
:100A50004D4A934219D07B684C4A934213D07B682D
:100A60004B4A93420DD07B684A4A934207D07B6839
:100A7000494A934201D106230CE007230AE00523EB
:100A800008E0042306E0032304E0022302E001233C
:100A900000E000237A6902F00302920093403A6971
:100AA00013433B6136497B699B0802333A6941F83D
:100AB00023203A4B1B683B61FB68DB433A691340D8
:100AC0003B613B685B6803F48033002B03D03A69D9
:100AD000FB6813433B61314A3B6913602F4B5B68F2
:100AE0003B61FB68DB433A6913403B613B685B68F1
:100AF00003F40033002B03D03A69FB6813433B61D6
:100B0000264A3B695360254B9B683B61FB68DB438E
:100B10003A6913403B613B685B6803F48013002B28
:100B200003D03A69FB6813433B611C4A3B699360FD
:100B30001A4BDB683B61FB68DB433A6913403B615E
:100B40003B685B6803F40013002B03D03A69FB6831
:100B500013433B61114A3B69D3607B6901337B617D
:100B60003B681A687B6922FA03F3002B7FF478AEA6
:100B700000BF1C37BD465DF8047B70470010024083
:100B8000000001400004004800080048000C004834
:100B900000100048001400480018004800040140FC
:100BA00080B487B000AF7860396000237B61CDE00E
:100BB00001227B699A403B6813403B613B69002BF3
:100BC00000F0C1807B681A687B695B00032101FA31
:100BD00003F31A437B681A607B69DA087B69D908DA
:100BE0007B68083153F821107B6903F007039B00F1
:100BF0000F2000FA03F3DB4319407B68083243F807
:100C000022107B689A687B695B00032101FA03F379
:100C1000DB431A407B689A607B685A6801217B69D4
:100C200001FA03F3DB431A407B685A607B68DA6899
:100C30007B695B00032101FA03F3DB431A407B6805
:100C4000DA607B68DA6A01217B6901FA03F3DB432E
:100C50001A407B68DA62444A7B699B08023352F887
:100C60002330FB607B6903F003039B000F2202FA31
:100C700003F3FA681340FB607B68B3F1904F25D013
:100C80007B683A4A93421FD07B68394A934219D015
:100C90007B68384A934213D07B68374A93420DD021
:100CA0007B68364A934207D07B68354A934201D12C
:100CB00006230CE007230AE0052308E0042306E0EE
:100CC000032304E0022302E0012300E000237A6909
:100CD00002F00302920003FA02F2FB689A4232D158
:100CE0007B6903F003039B000F2202FA03F3FB600E
:100CF0001D487B699B081C497A699208023251F8A9
:100D00002210FA68D2430A40023340F823201D49DA
:100D10001C4B1A683B69DB4313400B601949194BA4
:100D20005A683B69DB4313404B601649154B9A6880
:100D30003B69DB4313408B601249124BDA683B6915
:100D4000DB431340CB607B6901337B613A687B698D
:100D500022FA03F3002B7FF42BAF00BF1C37BD46F4
:100D60005DF8047B704700BF0000014000040048AC
:100D700000080048000C004800100048001400481B
:100D8000001800480004014080B483B000AF7860D0
:100D90000B467B8013467B707B78002B03D07A88D0
:100DA0007B689A6102E07A887B689A6200BF0C37A0
:100DB000BD465DF8047B704780B483B000AF7860B7
:100DC0000B467B807B685A697B885A407B685A61F6
:100DD00000BF0C37BD465DF8047B704780B582B01C
:100DE00000AF78607B68002B01D1012380E07B6835
:100DF00093F84130DBB2002B06D17B68002283F8E8
:100E00004020786802F0D8FE7B68242283F84120D5
:100E10007B681B687A681268126822F001021A6007
:100E20007B681B687A68526822F070621A617B687E
:100E30001B687A681268926822F400429A607B68A4
:100E4000DB68012B07D17B681B687A68926842F4E3
:100E500000429A6006E07B681B687A68926842F4F8
:100E600004429A607B68DB68022B04D17B681B68B4
:100E70004FF400625A607B681A687B681B685B6885
:100E800043F0007343F4004353607B681B687A6847
:100E90001268D26822F40042DA607B681B687A68C4
:100EA00011697A68526911437A68926912020A4399
:100EB000DA607B681B687A68D1697A68126A0A43CB
:100EC0001A607B681B687A681268126842F0010237
:100ED0001A607B6800225A647B68202283F84120D4
:100EE0007B6800221A637B68002283F8422000237B
:100EF00018460837BD4680BD80B588B002AFF8609F
:100F0000084611461A4603467B810B463B81134631
:100F1000FB80FB6893F84130DBB2202B40F0F98076
:100F20003B6A002B02D0BB8C002B05D1FB684FF431
:100F300000725A640123EDE0FB6893F84030012B06
:100F400001D10223E6E0FB68012283F84020FFF78D
:100F500071FB78617B690093192301224FF40041F2
:100F6000F86800F0C3FA0346002B01D00123D1E05A
:100F7000FB68212283F84120FB68402283F842204D
:100F8000FB6800225A64FB683A6A5A62FB68BA8CB2
:100F90005A85FB6800225A63F8883A8979897B6907
:100FA0000193BB6A00930346F86800F0D3F9034647
:100FB000002B05D0FB68002283F840200123A9E024
:100FC000FB685B8D9BB2FF2B0ED9FB68FF221A8555
:100FD000FB681B8DDAB27989002300934FF0807390
:100FE000F86800F0A5FB0FE0FB685B8D9AB2FB6828
:100FF0001A85FB681B8DDAB27989002300934FF0C4
:101000000073F86800F094FB7A69B96AF86800F038
:10101000ADFA0346002B01D001237BE0FB681B687F
:10102000FA68526A12789A62FB685B6A5A1CFB681B
:101030005A62FB685B8D9BB2013B9AB2FB685A8592
:10104000FB681B8D013B9AB2FB681A85FB685B8DC0
:101050009BB2002B34D0FB681B8D002B30D17B69F9
:101060000093BB6A00228021F86800F03FFA034633
:10107000002B01D001234DE0FB685B8D9BB2FF2B61
:101080000ED9FB68FF221A85FB681B8DDAB27989BD
:10109000002300934FF08073F86800F049FB0FE0E5
:1010A000FB685B8D9AB2FB681A85FB681B8DDAB210
:1010B0007989002300934FF00073F86800F038FB43
:1010C000FB685B8D9BB2002B9ED17A69B96AF86888
:1010D00000F08CFA0346002B01D001231AE0FB68D4
:1010E0001B682022DA61FB681A68FB681B68596874
:1010F0000A4B0B405360FB68202283F84120FB68B9
:10110000002283F84220FB68002283F8402000235D
:1011100000E0022318461837BD4680BD00E800FEF7
:1011200080B588B002AFF860084611461A460346FB
:101130007B810B463B811346FB80FB6893F8413073
:10114000DBB2202B40F0FD803B6A002B02D0BB8C31
:10115000002B05D1FB684FF400725A640123F1E0C3
:10116000FB6893F84030012B01D10223EAE0FB68D1
:10117000012283F84020FFF75DFA78617B690093D4
:10118000192301224FF40041F86800F0AFF903463B
:10119000002B01D00123D5E0FB68222283F84120F7
:1011A000FB68402283F84220FB6800225A64FB68F7
:1011B0003A6A5A62FB68BA8C5A85FB6800225A6305
:1011C000F8883A8979897B690193BB6A0093034661
:1011D000F86800F013F90346002B05D0FB680022E5
:1011E00083F840200123ADE0FB685B8D9BB2FF2BB1
:1011F0000ED9FB68FF221A85FB681B8DDAB279894C
:10120000524B00934FF08073F86800F091FA0FE0B2
:10121000FB685B8D9AB2FB681A85FB681B8DDAB29E
:1012200079894A4B00934FF00073F86800F080FA18
:101230007B690093BB6A00220421F86800F056F92C
:101240000346002B01D001237CE0FB685B6AFA684F
:101250001268526AD2B21A70FB685B6A5A1CFB6849
:101260005A62FB681B8D013B9AB2FB681A85FB68CA
:101270005B8D9BB2013B9AB2FB685A85FB685B8D24
:101280009BB2002B34D0FB681B8D002B30D17B69C7
:101290000093BB6A00228021F86800F027F903461A
:1012A000002B01D001234DE0FB685B8D9BB2FF2B2F
:1012B0000ED9FB68FF221A85FB681B8DDAB279898B
:1012C000002300934FF08073F86800F031FA0FE0CC
:1012D000FB685B8D9AB2FB681A85FB681B8DDAB2DE
:1012E0007989002300934FF00073F86800F020FA2A
:1012F000FB685B8D9BB2002B9AD17A69B96AF8685A
:1013000000F074F90346002B01D001231AE0FB68BA
:101310001B682022DA61FB681A68FB681B68596841
:101320000B4B0B405360FB68202283F84120FB6885
:10133000002283F84220FB68002283F8402000232B
:1013400000E0022318461837BD4680BD0024008007
:1013500000E800FE80B586B002AFF860084611468E
:101360001A4603467B810B463B811346FB80FB8874
:10137000DAB27989204B00934FF08073F86800F05F
:10138000D7F9FA69B969F86800F0F0F80346002B5C
:1013900001D001232CE0FB88012B05D1FB681B68E1
:1013A0003A89D2B29A6215E0FB681B683A89120A40
:1013B00092B2D2B29A62FA69B969F86800F0D6F8C6
:1013C0000346002B01D0012312E0FB681B683A8919
:1013D000D2B29A62FB690093BB6900228021F8684F
:1013E00000F084F80346002B01D0012300E0002325
:1013F00018461037BD4680BD0020008080B586B0FD
:1014000002AFF860084611461A4603467B810B4638
:101410003B811346FB80FB88DAB27989204B00932D
:101420000023F86800F084F9FA69B969F86800F0F7
:101430009DF80346002B01D001232CE0FB88012BF3
:1014400005D1FB681B683A89D2B29A6215E0FB6845
:101450001B683A89120A92B2D2B29A62FA69B969E1
:10146000F86800F083F80346002B01D0012312E056
:10147000FB681B683A89D2B29A62FB690093BB6928
:1014800000224021F86800F031F80346002B01D01B
:10149000012300E0002318461037BD4680BD00BF81
:1014A0000020008080B483B000AF78607B681B6848
:1014B0009B6903F00203022B03D17B681B680022A7
:1014C0009A627B681B689B6903F00103012B07D0BC
:1014D0007B681B687A681268926942F001029A611F
:1014E00000BF0C37BD465DF8047B704780B584B003
:1014F00000AFF860B9603B601346FB7122E03B68C7
:10150000B3F1FF3F1ED0FFF795F80246BB69D21A30
:101510003B689A4202D83B68002B13D1FB685B6C96
:1015200043F02002FB685A64FB68202283F84120C4
:10153000FB68002283F84220FB68002283F84020E9
:1015400001230FE0FB681B689A69BB681A40BB68FF
:101550009A420CBF01230023DBB21A46FB799A4260
:10156000CDD0002318461037BD4680BD80B584B06D
:1015700000AFF860B9607A602CE07A68B968F86802
:1015800000F070F80346002B01D001232AE0BB686D
:10159000B3F1FF3F1ED0FFF74DF802467B68D21A29
:1015A000BB689A4202D8BB68002B13D1FB685B6C06
:1015B00043F02002FB685A64FB68202283F8412034
:1015C000FB68002283F84220FB68002283F8402059
:1015D000012307E0FB681B689B6903F00203022BF1
:1015E000CBD1002318461037BD4680BD80B584B0EE
:1015F00000AFF860B9607A6028E07A68B968F86886
:1016000000F030F80346002B01D0012326E0FFF75D
:1016100011F802467B68D21ABB689A4202D8BB68AE
:10162000002B13D1FB685B6C43F02002FB685A640B
:10163000FB68202283F84120FB68002283F84220C7
:10164000FB68002283F84020012307E0FB681B6849
:101650009B6903F02003202BCFD1002318461037BD
:10166000BD4680BD80B584B000AFF860B9607A60D7
:10167000FB681B689B6903F01003102B51D122E01B
:10168000BB68B3F1FF3F1ED0FEF7D4FF02467B6874
:10169000D21ABB689A4202D8BB68002B13D1FB68F0
:1016A0005B6C43F02002FB685A64FB68202283F8DD
:1016B0004120FB68002283F84220FB68002283F867
:1016C000402001232EE0FB681B689B6903F0200388
:1016D000202BD5D1FB681B681022DA61FB681B68E0
:1016E0002022DA61F868FFF7DDFEFB681A68FB6804
:1016F0001B6859680D4B0B405360FB685B6C43F0F3
:101700000402FB685A64FB68202283F84120FB68CE
:10171000002283F84220FB68002283F84020012346
:1017200000E0002318461037BD4680BD00E800FEEB
:1017300080B485B000AFF8607B600B467B811346B8
:101740007B72FB681A68FB681B685968BB695B0D94
:1017500003F480600B4B0343DB4319407B89C3F3E5
:1017600009007B7A1B0403F47F0318437B6818434A
:10177000BB6903430B43536000BF1437BD465DF89C
:10178000047B7047FF63FF0380B483B000AF7860D1
:1017900039607B6893F84130DBB2202B38D17B680D
:1017A00093F84030012B01D1022332E07B68012203
:1017B00083F840207B68242283F841207B681B68E3
:1017C0007A681268126822F001021A607B681B684E
:1017D0007A681268126822F480521A607B681B686B
:1017E0007A68126811683A680A431A607B681B6855
:1017F0007A681268126842F001021A607B6820223F
:1018000083F841207B68002283F84020002300E019
:10181000022318460C37BD465DF8047B704780B440
:1018200085B000AF786039607B6893F84130DBB2F7
:10183000202B39D17B6893F84030012B01D1022352
:1018400033E07B68012283F840207B68242283F800
:1018500041207B681B687A681268126822F00102D6
:101860001A607B681B681B68FB60FB6823F470636D
:10187000FB603B681B02FA681343FB607B681B68D4
:10188000FA681A607B681B687A681268126842F00E
:1018900001021A607B68202283F841207B680022C5
:1018A00083F84020002300E0022318461437BD4689
:1018B0005DF8047B7047000080B400AF044B1B68E8
:1018C00003F4C0631846BD465DF8047B704700BF53
:1018D0000070004080B485B000AF78607B68B3F5DD
:1018E000007F30D1234B1B6803F4C063B3F5007F46
:1018F00038D0204A1F4B1B6823F4C06343F40073A5
:1019000013601D4B1B68322202FB03F31B4AA2FB30
:1019100003239B0C0133FB6002E0FB68013BFB608F
:10192000144B5B6903F48063B3F5806F02D1FB68ED
:10193000002BF2D10F4B5B6903F48063B3F5806F2A
:1019400010D103230FE00B4B1B6803F4C063B3F506
:10195000806F07D0074A074B1B6823F4C06343F42A
:1019600080631360002318461437BD465DF8047B7E
:10197000704700BF007000407C00002083DE1B43E6
:1019800080B588B000AF78607B68002B01D101235F
:1019900053E3A34B9B6803F00C03BB61A04BDB68D4
:1019A00003F003037B617B681B6803F01003002BCB
:1019B00000F0DF80BB69002B07D0BB690C2B40F027
:1019C00086807B69012B40F08280954B1B6803F079
:1019D0000203002B05D07B689B69002B01D10123FA
:1019E0002BE37B681A6A8E4B1B6803F00803002BFD
:1019F00004D08B4B1B6803F0F00305E0884BD3F851
:101A000094301B0903F0F0039A4223D97B681B6AC8
:101A1000184600F0CBFC0346002B01D001230CE359
:101A20007F4A7F4B1B6843F0080313607C497C4B63
:101A30001B6823F0F0027B681B6A13430B60784934
:101A4000774B5B6823F47F427B68DB691B0213439F
:101A50004B6022E0724A724B1B6843F0080313602C
:101A60006F496F4B1B6823F0F0027B681B6A1343BE
:101A70000B606B496A4B5B6823F47F427B68DB69D0
:101A80001B0213434B607B681B6A184600F08EFCF8
:101A90000346002B01D00123CFE200F0B3FB014647
:101AA0005F4B9B681B0903F00F035E4AD35C03F096
:101AB0001F0321FA03F35C4A13600020FEF788FD40
:101AC0000346FB73FB7B002B52D0FB7BB5E27B68AC
:101AD0009B69002B32D0524A514B1B6843F00103E3
:101AE0001360FEF7A7FD386108E0FEF7A3FD02468C
:101AF0003B69D31A022B01D903239EE2484B1B6892
:101B000003F00203002BF0D0454A454B1B6843F01D
:101B1000080313604249424B1B6823F0F0027B68C4
:101B20001B6A13430B603E493D4B5B6823F47F42C5
:101B30007B68DB691B0213434B601AE0384A384B61
:101B40001B6823F001031360FEF774FD386108E0A1
:101B5000FEF770FD02463B69D31A022B01D903231D
:101B60006BE22F4B1B6803F00203002BF0D100E067
:101B700000BF7B681B6803F00103002B72D0BB69B8
:101B8000082B05D0BB690C2B0ED17B69032B0BD125
:101B9000234B1B6803F40033002B62D07B685B6827
:101BA000002B5ED1012348E27B685B68B3F5803F80
:101BB00006D11B4A1A4B1B6843F4803313601DE0A7
:101BC0007B685B68B3F5A02F0CD1154A144B1B68DA
:101BD00043F480231360124A114B1B6843F4803393
:101BE00013600BE00E4A0E4B1B6823F48033136026
:101BF0000B4A0B4B1B6823F4802313607B685B68E4
:101C0000002B1AD0FEF716FD38610FE0FEF712FD2B
:101C100002463B69D31A642B08D903230DE200BFA7
:101C200000100240FC6000087C000020AE4B1B68E6
:101C300003F40033002BE9D014E0FEF7FBFC38611D
:101C400008E0FEF7F7FC02463B69D31A642B01D982
:101C50000323F2E1A44B1B6803F40033002BF0D103
:101C600000E000BF7B681B6803F00203002B60D01C
:101C7000BB69042B05D0BB690C2B19D17B69022BE6
:101C800016D1994B1B6803F48063002B05D07B6849
:101C9000DB68002B01D10123CFE19349924B5B68B4
:101CA00023F0F8527B681B691B0613434B6040E02E
:101CB0007B68DB68002B23D08B4A8B4B1B6843F47B
:101CC00080731360FEF7B6FC386108E0FEF7B2FCE3
:101CD00002463B69D31A022B01D90323ADE1824BA3
:101CE0001B6803F48063002BF0D07F497E4B5B6858
:101CF00023F0F8527B681B691B0613434B6018E006
:101D0000794A794B1B6823F480731360FEF792FCC9
:101D1000386108E0FEF78EFC02463B69D31A022BBD
:101D200001D9032389E1704B1B6803F48063002B06
:101D3000F0D17B681B6803F00803002B3CD07B6864
:101D40005B69002B1CD0684A674BD3F8943043F092
:101D50000103C2F89430FEF76DFC386108E0FEF72D
:101D600069FC02463B69D31A022B01D9032364E1C3
:101D70005D4BD3F8943003F00203002BEFD01BE04F
:101D8000594A594BD3F8943023F00103C2F89430E8
:101D9000FEF750FC386108E0FEF74CFC02463B6958
:101DA000D31A022B01D9032347E14F4BD3F89430C8
:101DB00003F00203002BEFD17B681B6803F00403E0
:101DC000002B00F0A5800023FB77474B9B6D03F0B1
:101DD0008053002B0DD1444A434B9B6D43F08053FD
:101DE0009365414B9B6D03F08053BB60BB6801233F
:101DF000FB773E4B1B6803F48073002B18D13B4AE2
:101E00003A4B1B6843F480731360FEF713FC386190
:101E100008E0FEF70FFC02463B69D31A022B01D9FA
:101E200003230AE1314B1B6803F48073002BF0D0CD
:101E30007B689B68012B08D12B4A2B4BD3F8903041
:101E400043F00103C2F8903024E07B689B68052BC7
:101E500010D1254A244BD3F8903043F00403C2F844
:101E60009030214A204BD3F8903043F00103C2F860
:101E700090300FE01C4A1C4BD3F8903023F0010344
:101E8000C2F89030184A184BD3F8903023F004036E
:101E9000C2F890307B689B68002B16D0FEF7CAFB17
:101EA00038610AE0FEF7C6FB02463B69D31A41F2ED
:101EB0008832934201D90323BFE00B4BD3F8903013
:101EC00003F00203002BEDD019E0FEF7B3FB3861FD
:101ED0000EE0FEF7AFFB02463B69D31A41F28832AF
:101EE000934205D90323A8E000100240007000408F
:101EF000544BD3F8903003F00203002BE9D1FB7F61
:101F0000012B05D14F4A4F4B9B6D23F080539365B6
:101F10007B689B6A002B00F08F80BB690C2B00F064
:101F200089807B689B6A022B56D1464A454B1B68C9
:101F300023F080731360FEF77DFB386108E0FEF745
:101F400079FB02463B69D31A022B01D9032374E0C3
:101F50003C4B1B6803F00073002BF0D139497B68C0
:101F60001B6B013B1A017B685B6B1B021A437B688E
:101F70009B6B1B095B041A437B68DB6A1A437B6813
:101F8000DB6B5B08013B5B051A437B681B6C5B08E2
:101F9000013B5B061343CB602A4A2A4B1B6843F084
:101FA00080731360274A274BDB6843F08073D3604C
:101FB000FEF740FB386108E0FEF73CFB02463B6958
:101FC000D31A022B01D9032337E01E4B1B6803F001
:101FD0000073002BF0D02FE01A4A1A4B1B6823F035
:101FE00080731360174B1B6803F02053002B05D13F
:101FF000144A144BDB6823F00303D360114A114BDE
:10200000DB6823F0887323F48033D360FEF712FB80
:10201000386108E0FEF70EFB02463B69D31A022B3B
:1020200001D9032309E0074B1B6803F00073002B61
:10203000F0D101E0012300E0002318462037BD461F
:1020400080BD00BF0010024080B584B000AF786052
:1020500039607B68002B01D10123C6E0654B1B680A
:1020600003F007023B689A4210D26249614B1B6839
:1020700023F007023B6813430B605E4B1B6803F0C1
:1020800007023B689A4201D00123AEE07B681B68DF
:1020900003F00103002B4CD07B685B68032B07D156
:1020A000554B1B6803F00073002B21D101239CE0EA
:1020B0007B685B68022B07D14F4B1B6803F400332E
:1020C000002B15D1012390E07B685B68002B07D1C2
:1020D000494B1B6803F00203002B09D1012384E064
:1020E000454B1B6803F48063002B01D101237CE086
:1020F0004149414B9B6823F003027B685B681343B3
:102100008B60FEF797FAF8600AE0FEF793FA024652
:10211000FB68D31A41F28832934201D9032364E069
:10212000354B9B6803F00C027B685B689B009A420E
:10213000EBD17B681B6803F00203002B08D02E490B
:102140002D4B9B6823F0F0027B689B6813438B60E8
:10215000284B1B6803F007023B689A4210D92549B7
:10216000244B1B6823F007023B6813430B60214B91
:102170001B6803F007023B689A4201D0012334E058
:102180007B681B6803F00403002B08D01A491A4B24
:102190009B6823F4E0627B68DB6813438B607B6899
:1021A0001B6803F00803002B09D01349124B9B68EE
:1021B00023F460527B681B69DB0013438B6000F0E3
:1021C00021F801460C4B9B681B0903F00F030B4AD7
:1021D000D35C03F01F0321FA03F3094A13600020C4
:1021E000FEF7F6F90346FB72FB7A18461037BD4638
:1021F00080BD00BF0020024000100240FC600008CB
:102200007C00002080B489B000AF0023FB61002374
:10221000BB61464B9B6803F00C033B61434BDB689F
:1022200003F00303FB603B69002B05D03B690C2BDB
:1022300021D1FB68012B1ED13C4B1B6803F0080326
:10224000002B07D1394BD3F894301B0A03F00F034E
:10225000FB6105E0354B1B681B0903F00F03FB61B5
:10226000334AFB6952F82330FB613B69002B0DD1E7
:10227000FB69BB610AE03B69042B02D12D4BBB61BA
:1022800004E03B69082B01D12B4BBB613B690C2B54
:1022900045D1264BDB6803F00303BB60234BDB68AF
:1022A0001B0903F0070301337B60BB68022B02D0DC
:1022B000032B0DD019E01F4A7B68B2FBF3F31B4AD6
:1022C000D268120A02F07F0202FB03F37B6119E07D
:1022D000194A7B68B2FBF3F3144AD268120A02F07F
:1022E0007F0202FB03F37B610CE0FA697B68B2FBBF
:1022F000F3F30E4AD268120A02F07F0202FB03F3E4
:102300007B6100BF094BDB685B0E03F00303013305
:102310005B003B607A693B68B2FBF3F3BB61BB696E
:1023200018462437BD465DF8047B70470010024014
:10233000146100080024F40000127A0080B400AF99
:10234000034B1B681846BD465DF8047B704700BF11
:102350007C00002080B500AFFFF7F0FF0146064B80
:102360009B681B0A03F00703044AD35C03F01F03B6
:1023700021FA03F3184680BD001002400C610008EA
:1023800080B500AFFFF7DAFF0146064B9B68DB0A1A
:1023900003F00703044AD35C03F01F0321FA03F39D
:1023A000184680BD001002400C61000880B586B060
:1023B00000AF786000233B612A4B9B6D03F0805394
:1023C000002B03D0FFF778FA786114E0254A254BFB
:1023D0009B6D43F080539365224B9B6D03F08053BC
:1023E000FB60FB68FFF768FA78611E4A1D4B9B6D26
:1023F00023F0805393657B69B3F5007F0BD17B6835
:10240000802B19D97B68A02B02D902233B6113E0F2
:1024100001233B6110E07B68802B02D903233B61E1
:102420000AE07B68802B02D102233B6104E07B68D9
:10243000702B01D101233B610B490B4B1B6823F02F
:1024400007023B6913430B60074B1B6803F007024D
:102450003B699A4201D0012300E000231846183757
:10246000BD4680BD001002400020024080B586B00D
:1024700000AF78600023FB740023BB747B681B688B
:1024800003F40063002B3FD07B685B6EB3F5800FD5
:102490001CD0B3F5800F02D8002B0ED01FE0B3F58F
:1024A000000F03D0B3F5400F1CD018E0854A854BD0
:1024B000DB6843F48033D36015E07B68043300218C
:1024C000184600F0B9FA0346FB740CE07B68203331
:1024D0000021184600F0A0FB0346FB7403E0012333
:1024E000FB7400E000BFFB7C002B0BD17549754BE2
:1024F000D3F8883023F440027B685B6E1343C1F845
:10250000883001E0FB7CBB747B681B6803F480535C
:10251000002B3FD07B689B6EB3F1807F1CD0B3F162
:10252000807F02D8002B0ED01FE0B3F1007F03D0D4
:10253000B3F1407F1CD018E0624A624BDB6843F481
:102540008033D36015E07B6804330021184600F027
:1025500073FA0346FB740CE07B68203300211846B5
:1025600000F05AFB0346FB7403E00123FB7400E018
:1025700000BFFB7C002B0BD15249524BD3F8883063
:1025800023F040727B689B6E1343C1F8883001E0F2
:10259000FB7CBB747B681B6803F40033002B00F0EA
:1025A000A08000237B74474B9B6D03F08053002B6E
:1025B00001D1012300E00023002B0DD0414A414B03
:1025C0009B6D43F0805393653E4B9B6D03F08053AE
:1025D000BB60BB6801237B743B4A3B4B1B6843F4E5
:1025E00080731360FEF726F8F86009E0FEF722F822
:1025F0000246FB68D31A022B02D90323FB7405E0C1
:10260000314B1B6803F48073002BEFD0FB7C002B55
:102610005CD12C4BD3F8903003F440737B617B6921
:10262000002B1FD07B68D3F884207B699A4219D095
:10263000244BD3F8903023F440737B61214A214B23
:10264000D3F8903043F48033C2F890301D4A1D4BCC
:10265000D3F8903023F48033C2F89030194A7B6964
:10266000C2F890307B6903F00103002B16D0FDF710
:10267000E1FFF8600BE0FDF7DDFF0246FB68D31ACF
:1026800041F28832934202D90323FB7406E00D4BDA
:10269000D3F8903003F00203002BECD0FB7C002B2E
:1026A0000CD10849074BD3F8903023F440727B6873
:1026B000D3F884301343C1F8903009E0FB7CBB743D
:1026C00006E000BF0010024000700040FB7CBB74BD
:1026D0007B7C012B05D19E4A9D4B9B6D23F0805343
:1026E00093657B681B6803F00103002B0AD09849AF
:1026F000974BD3F8883023F003027B689B6B13431E
:10270000C1F888307B681B6803F00203002B0AD0F5
:102710008F498F4BD3F8883023F00C027B68DB6B3A
:102720001343C1F888307B681B6803F00403002B57
:102730000AD08749864BD3F8883023F030027B6873
:102740001B6C1343C1F888307B681B6803F00803D7
:10275000002B0AD07E497E4BD3F8883023F0C0028C
:102760007B685B6C1343C1F888307B681B6803F09F
:102770001003002B0AD07649754BD3F8883023F428
:1027800040727B689B6C1343C1F888307B681B6880
:1027900003F02003002B0AD06D496D4BD3F888302D
:1027A00023F440627B68DB6C1343C1F888307B689C
:1027B0001B6803F40073002B0AD06549644BD3F8FF
:1027C000883023F440227B68DB6D1343C1F88830E6
:1027D0007B681B6803F48063002B0AD05C495C4B68
:1027E000D3F8883023F440127B681B6E1343C1F882
:1027F00088307B681B6803F04003002B0AD05449E3
:10280000534BD3F8883023F440527B681B6D13433D
:10281000C1F888307B681B6803F08003002B0AD066
:102820004B494B4BD3F8883023F440427B685B6DB7
:102830001343C1F888307B681B6803F48073002B56
:102840000AD04349424BD3F8883023F440327B68A6
:102850009B6D1343C1F888307B681B6803F40053F9
:10286000002B28D03A493A4BD3F8883023F0406205
:102870007B68DB6E1343C1F888307B68DB6EB3F195
:10288000006F06D1324A324BDB6843F48013D360C9
:1028900011E07B68DB6EB3F1806F0CD17B68043391
:1028A0000121184600F0C8F80346FB74FB7C002B9E
:1028B00001D0FB7CBB747B681B6803F40023002BF6
:1028C00028D02349224BD3F8883023F040627B681C
:1028D0001B6F1343C1F888307B681B6FB3F1006F27
:1028E00006D11B4A1A4BDB6843F48013D36011E016
:1028F0007B681B6FB3F1806F0CD17B6804330121BF
:10290000184600F099F80346FB74FB7C002B01D0BD
:10291000FB7CBB747B681B6803F48023002B2BD0EB
:102920000B490B4BD3F8883023F040627B685B6F18
:102930001343C1F888307B685B6FB3F1006F09D136
:10294000034A034BDB6843F48013D36014E000BFF9
:10295000001002407B685B6FB3F1806F0CD17B6825
:1029600004330121184600F067F80346FB74FB7C32
:10297000002B01D0FB7CBB747B681B6803F4804395
:10298000002B2FD02B492B4BD3F8883023F040520B
:102990007B689B6F1343C1F888307B689B6FB3F1F2
:1029A000805F0DD17B6804330221184600F044F8A3
:1029B0000346FB74FB7C002B14D0FB7CBB7411E042
:1029C0007B689B6FB3F1005F0CD17B6820330221E1
:1029D000184600F021F90346FB74FB7C002B01D064
:1029E000FB7CBB747B681B6803F40043002B0AD09C
:1029F0001049104BD3F8883023F080427B68DB6F9E
:102A00001343C1F888307B681B6803F48033002BC4
:102A10000BD00849074BD3F8883023F000427B687D
:102A2000D3F880301343C1F88830BB7C1846183780
:102A3000BD4680BD0010024080B584B000AF786014
:102A400039600023FB73734BDB6803F00303002B37
:102A500018D0704BDB6803F003027B681B689A4256
:102A60000DD17B681B68002B09D06A4BDB681B0902
:102A700003F007035A1C7B685B689A4244D0012329
:102A8000FB7341E07B681B68022B0CD0032B13D037
:102A9000012B20D15F4B1B6803F00203002B1DD1DB
:102AA0000123FB731AE05B4B1B6803F48063002B6C
:102AB00016D10123FB7313E0564B1B6803F400335C
:102AC000002B0FD1534B1B6803F48023002B09D13B
:102AD0000123FB7306E00123FB7304E000BF02E067
:102AE00000BF00E000BFFB7B002B0DD14948494BE4
:102AF000DB6823F073027B6819687B685B68013BC5
:102B00001B010B431343C360FB7B002B7DD1414A68
:102B1000404B1B6823F080631360FDF78BFDB860AA
:102B200009E0FDF787FD0246BB68D31A022B02D9E4
:102B30000323FB7305E0374B1B6803F00063002B96
:102B4000EFD1FB7B002B60D13B68002B11D13148CA
:102B5000304B1B6923F41F3323F440737A68926867
:102B600011027A68D268120952040A4313430361BE
:102B700027E03B68012B12D12648264B1B6923F422
:102B8000C00323F4FE437A68926811027A681269DE
:102B90005208013A52050A431343036111E01D48EC
:102BA0001C4B1B6923F0C06323F4FE437A689268D0
:102BB00011027A6852695208013A52060A431343D5
:102BC0000361144A134B1B6843F080631360FDF7E5
:102BD00031FDB86009E0FDF72DFD0246BB68D31A50
:102BE000022B02D90323FB7305E00A4B1B6803F099
:102BF0000063002BEFD0FB7B002B06D10549054B72
:102C00001A697B689B6913430B61FB7B184610377D
:102C1000BD4680BD0010024080B584B000AF786032
:102C200039600023FB73684BDB6803F00303002B60
:102C300018D0654BDB6803F003027B681B689A427F
:102C40000DD17B681B68002B09D05F4BDB681B092B
:102C500003F007035A1C7B685B689A4244D0012347
:102C6000FB7341E07B681B68022B0CD0032B13D055
:102C7000012B20D1544B1B6803F00203002B1DD104
:102C80000123FB731AE0504B1B6803F48063002B95
:102C900016D10123FB7313E04B4B1B6803F4003385
:102CA000002B0FD1484B1B6803F48023002B09D164
:102CB0000123FB7306E00123FB7304E000BF02E085
:102CC00000BF00E000BFFB7B002B0DD13E483E4B18
:102CD000DB6823F073027B6819687B685B68013BE3
:102CE0001B010B431343C360FB7B002B67D1364AA8
:102CF000354B1B6823F080531360FDF79BFCB860D5
:102D000009E0FDF797FC0246BB68D31A022B02D9F3
:102D10000323FB7305E02C4B1B6803F00053002BCF
:102D2000EFD1FB7B002B4AD13B68002B11D1264809
:102D3000254B5B6923F41F3323F440737A68926850
:102D400011027A68D268120952040A43134343619C
:102D500011E01D481C4B5B6923F0C06323F4FE4364
:102D60007A68926811027A6812695208013A52062A
:102D70000A4313434361144A134B1B6843F08053C7
:102D80001360FDF757FCB86009E0FDF753FC0246FD
:102D9000BB68D31A022B02D90323FB7305E00A4B4D
:102DA0001B6803F00053002BEFD0FB7B002B06D1F8
:102DB0000549054B5A697B685B6913434B61FB7B93
:102DC00018461037BD4680BD0010024080B582B065
:102DD00000AF78607B68002B01D1012343E07B6862
:102DE00093F87130DBB2002B06D17B68002283F8A8
:102DF0007020786802F046FA7B68242283F87120FC
:102E00007B681B687A681268126822F001021A60F7
:102E1000786800F0B5F90346012B01D1012322E0C7
:102E20007B685B6A002B02D0786800F0E7FC7B6867
:102E30001B687A681268526822F490425A607B6874
:102E40001B687A681268926822F02A029A607B688E
:102E50001B687A681268126842F001021A6078688A
:102E600000F06EFD034618460837BD4680BD80B5AC
:102E700082B000AF78607B68002B01D101232AE08B
:102E80007B68242283F871207B681B687A6812684B
:102E9000126822F001021A607B681B6800221A6027
:102EA0007B681B6800225A607B681B6800229A605E
:102EB000786802F08DFA7B6800225A677B680022EE
:102EC00083F871207B68002283F872207B680022DF
:102ED00083F87020002318460837BD4680BD80B5B2
:102EE00088B002AFF860B9603B601346FB800023F6
:102EF0007B61FB6893F87130DBB2202B77D1BB6824
:102F0000002B02D0FB88002B01D1012370E0FB686D
:102F100093F87030012B01D1022369E0FB68012294
:102F200083F87020FB6800225A67FB68212283F82F
:102F30007120FDF77FFB7861FB68FA88A3F85020C9
:102F4000FB68FA88A3F8522034E03B6800937B6961
:102F500000228021F86800F03CFD0346002B01D0E0
:102F6000032345E0FB689B68B3F5805F11D1FB68E4
:102F70001B69002B0DD1BB683B61FB681B683A697C
:102F80001288C2F3080292B21A85BB680233BB6092
:102F900007E0FB681A68BB68591CB9601B789BB2D4
:102FA0001385FB68B3F852309BB2013B9AB2FB68C1
:102FB000A3F85220FB68B3F852309BB2002BC4D167
:102FC0003B6800937B6900224021F86800F001FD16
:102FD0000346002B01D003230AE0FB68202283F87C
:102FE0007120FB68002283F87020002300E0022398
:102FF00018461837BD4680BD80B58AB002AFF8606C
:10300000B9603B601346FB800023FB61FB6893F8CB
:103010007230DBB2202B40F0AD80BB68002B02D0B9
:10302000FB88002B01D10123A5E0FB6893F87030E9
:10303000012B01D102239EE0FB68012283F870205E
:10304000FB6800225A67FB68222283F87220FDF792
:10305000F1FAF861FB68FA88A3F85820FB68FA884F
:10306000A3F85A20FB689B68B3F5805F0ED1FB681C
:103070001B69002B05D1FB6840F2FF12A3F85C200E
:1030800028E0FB68FF22A3F85C2023E0FB689B6834
:10309000002B0DD1FB681B69002B04D1FB68FF22BC
:1030A000A3F85C2016E0FB687F22A3F85C2011E007
:1030B000FB689B68B3F1805F0CD1FB681B69002B38
:1030C00004D1FB687F22A3F85C2003E0FB683F2269
:1030D000A3F85C20FB68B3F85C307B833AE03B6884
:1030E0000093FB6900222021F86800F072FC03467F
:1030F000002B01D003233EE0FB689B68B3F5805FA3
:1031000012D1FB681B69002B0ED1BB687B61FB6889
:103110001B689B8C9AB27B8B13409AB27B691A8096
:10312000BB680233BB600CE0BB685A1CBA60FA682B
:103130001268928C92B2D1B27A8BD2B20A40D2B2D9
:103140001A70FB68B3F85A309BB2013B9AB2FB6825
:10315000A3F85A20FB68B3F85A309BB2002BBED1BB
:10316000FB68202283F87220FB68002283F870201D
:10317000002300E0022318462037BD4680BD000032
:103180002DE9B04388B000AF78600023FB611023C5
:10319000FB7600237B8100237B610023FB740023EB
:1031A000FB607B689A687B681B691A437B685B6974
:1031B0001A437B68DB691343FB617B681A687B6891
:1031C0001B681968AA4B0B40F9690B4313607B68B5
:1031D0001B687A681268526822F440517A68D26893
:1031E0000A435A607B689B69FB617B681B68A14A44
:1031F000934204D07B681B6AFA691343FB617B68C6
:103200001B687A681268926822F43061FA690A438E
:103210009A607B681B68984A934221D1974BD3F8F8
:10322000883003F00303032B16D801A252F823F0D1
:10323000413200084D32000847320008533200087E
:103240000123FB76E4E00223FB76E1E00423FB7636
:10325000DEE00823FB76DBE01023FB7600BFD7E03F
:103260007B681B68864A934234D1844BD3F88830FC
:1032700003F00C030C2B29D801A252F823F000BF55
:10328000B5320008CD320008CD320008CD3200083A
:10329000C1320008CD320008CD320008CD3200081E
:1032A000BB320008CD320008CD320008CD32000814
:1032B000C73200080023FB76AAE00223FB76A7E0D2
:1032C0000423FB76A4E00823FB76A1E01023FB7621
:1032D00000BF9DE07B681B686A4A934220D1674B20
:1032E000D3F8883003F03003102B0FD0102B02D806
:1032F000002B05D010E0202B05D0302B09D00BE09F
:103300000023FB7684E00223FB7681E00423FB7636
:103310007EE00823FB767BE01023FB7600BF77E09E
:103320007B681B68584A934220D1544BD3F88830AD
:1033300003F0C003402B0FD0402B02D8002B05D048
:1033400010E0802B05D0C02B09D00BE00023FB76CA
:103350005EE00223FB765BE00423FB7658E0082363
:10336000FB7655E01023FB7600BF51E07B681B68BD
:10337000464A934224D1414BD3F8883003F440733A
:10338000B3F5807F12D0B3F5807F02D8002B07D031
:1033900012E0B3F5007F06D0B3F5407F09D00BE013
:1033A0000023FB7634E00223FB7631E00423FB7636
:1033B0002EE00823FB762BE01023FB7600BF27E0EE
:1033C0007B681B682B4A934223D12C4BD3F888305F
:1033D00003F44063B3F5806F12D0B3F5806F02D869
:1033E000002B07D012E0B3F5006F06D0B3F5406FA5
:1033F00009D00BE00023FB760AE00223FB7607E00E
:103400000423FB7604E00823FB7601E01023FB761F
:1034100000BF7B681B68174A934240F0EE80FB7E3A
:10342000082B37D801A252F823F000BF513400080E
:103430009534000859340008953400085F340008BA
:103440009534000895340008953400086734000866
:10345000FEF780FFF86020E00D4BFB601DE0FEF7FB
:10346000D1FEF86019E04FF40043FB6015E000BFA7
:10347000F369FFEF00800040003801400010024077
:103480000044004000480040004C00400050004014
:103490000024F4000123FB7400BFFB68002B00F044
:1034A0009E817B685A6813465B001A44FB689A4207
:1034B00005D87B685B681A03FB689A4202D2012335
:1034C000FB748CE1FB7E082B00F2848001A252F891
:1034D00023F000BFF9340008D5350008393500085D
:1034E000D53500086D350008D5350008D5350008FC
:1034F000D5350008AB350008FEF72CFF03464FF02A
:1035000000044FEA042949EA13694FEA03287B685B
:103510005B685B084FF0000418EB030049EB040103
:103520007B685B684FF000041A462346FCF7A8FE50
:1035300003460C467B6150E07B685B685B084FF09C
:103540000004AD494FF0000213EB010844EB0209FF
:10355000404649467B685B684FF000041A462346A4
:10356000FCF78EFE03460C467B6136E0FEF74AFE12
:1035700003461A464FF000031D0245EA1265140285
:103580007B685B685B081A464FF00003A01845EBA8
:1035900003017B685B684FF000041A462346FCF782
:1035A0006FFE03460C467B6117E07B685B685B0837
:1035B0004FF0000413F5000044F100017B685B68E4
:1035C0004FF000041A462346FCF75AFE03460C4609
:1035D0007B6102E00123FB7400BF7B69B3F5407F90
:1035E00008D37B69B3F5801F04D27B681B687A69B6
:1035F000DA60F4E00123FB74F1E07B68DB69B3F58A
:10360000004F7ED1FB7E082B5BD801A252F823F03D
:10361000353600085336000871360008C3360008F6
:103620008D360008C3360008C3360008C3360008CC
:10363000AB360008FEF78EFE03465A007B685B68D7
:103640005B081A447B685B68B2FBF3F39BB27B6157
:103650003AE0FEF795FE03465A007B685B685B081C
:103660001A447B685B68B2FBF3F39BB27B612BE08F
:103670007B685B685B0803F1F47303F590437A6839
:103680005268B3FBF2F39BB27B611DE0FEF7BAFD1B
:1036900003465A007B685B685B081A447B685B687A
:1036A000B2FBF3F39BB27B610EE07B685B685B0867
:1036B00003F580327B685B68B2FBF3F39BB27B61FE
:1036C00002E00123FB7400BF7B690F2B16D97B69D5
:1036D000B3F5803F12D27B699BB223F00F037B814D
:1036E0007B695B089BB203F007039AB27B891343A3
:1036F0007B817B681B687A89DA6070E00123FB7448
:103700006DE0FB7E082B59D801A252F823F000BFD0
:1037100035370008513700086D370008BD370008FD
:1037200089370008BD370008BD370008BD370008DD
:10373000A5370008FEF70EFE02467B685B685B0853
:103740001A447B685B68B2FBF3F39BB27B6138E0A1
:10375000FEF716FE02467B685B685B081A447B68CE
:103760005B68B2FBF3F39BB27B612AE07B685B682A
:103770005B0803F5740303F510537A685268B3FBD2
:10378000F2F39BB27B611CE0FEF73CFD02467B68D6
:103790005B685B081A447B685B68B2FBF3F39BB21F
:1037A0007B610EE07B685B685B0803F500427B6829
:1037B0005B68B2FBF3F39BB27B6102E00123FB7415
:1037C00000BF7B690F2B08D97B69B3F5803F04D21A
:1037D0007B681B687A69DA6001E00123FB747B680F
:1037E00000221A667B6800225A66FB7C1846203746
:1037F000BD46BDE8B08300BF000024F480B483B0B0
:1038000000AF78607B685B6A03F00103002B0AD08D
:103810007B681B687A681268526822F400317A6803
:10382000926A0A435A607B685B6A03F00203002BCA
:103830000AD07B681B687A681268526822F480316B
:103840007A68D26A0A435A607B685B6A03F00403B1
:10385000002B0AD07B681B687A681268526822F4D1
:1038600080217A68126B0A435A607B685B6A03F0B6
:103870000803002B0AD07B681B687A6812685268BC
:1038800022F400417A68526B0A435A607B685B6A93
:1038900003F01003002B0AD07B681B687A6812685B
:1038A000926822F480517A68926B0A439A607B682E
:1038B0005B6A03F02003002B0AD07B681B687A68E0
:1038C0001268926822F400517A68D26B0A439A60B7
:1038D0007B685B6A03F04003002B1AD07B681B688F
:1038E0007A681268526822F480117A68126C0A436E
:1038F0005A607B681B6CB3F5801F0AD17B681B681C
:103900007A681268526822F4C0017A68526C0A43DD
:103910005A607B685B6A03F08003002B0AD07B68E7
:103920001B687A681268526822F400217A68926CE7
:103930000A435A6000BF0C37BD465DF8047B7047F0
:1039400080B586B002AF78600023FB607B68002200
:103950005A67FCF76FFEF8607B681B681B6803F012
:103960000803082B0ED16FF07E430093FB68002202
:103970004FF40011786800F02CF80346002B01D0BA
:10398000032322E07B681B681B6803F00403042BFD
:103990000ED16FF07E430093FB6800224FF480014C
:1039A000786800F016F80346002B01D003230CE0E2
:1039B0007B68202283F871207B68202283F87220A4
:1039C0007B68002283F87020002318461037BD461C
:1039D00080BD80B584B000AFF860B9603B6013462D
:1039E000FB712CE0BB69B3F1FF3F28D0BB69002B12
:1039F00007D0FCF71FFE02463B68D21ABB699A4209
:103A00001DD9FB681B68FA681268126822F4D0722C
:103A10001A60FB681B68FA681268926822F001025B
:103A20009A60FB68202283F87120FB68202283F8CB
:103A30007220FB68002283F8702003230FE0FB68EC
:103A40001B68DA69BB681A40BB689A420CBF012345
:103A50000023DBB21A46FB799A42C3D000231846F2
:103A60001037BD4680BD000080B58AB000AF07F1B9
:103A7000140300221A605A609A60DA601A612B4AB5
:103A80002A4BDB6C43F00403D364284BDB6C03F05C
:103A900004033B613B69254A244BDB6C43F0800304
:103AA000D364224BDB6C03F08003FB60FB681F4A8E
:103AB0001E4BDB6C43F00103D3641C4BDB6C03F047
:103AC0000103BB60BB68194A184BDB6C43F002036F
:103AD000D364164BDB6C03F002037B607B6800222F
:103AE00020214FF09040FDF74FF94FF400537B61D8
:103AF0000F4BBB610023FB6107F1140319460D480E
:103B0000FCF7A6FE20237B610123BB610023FB6140
:103B100000233B6207F1140319464FF09040FCF775
:103B200097FE00BF2837BD4680BD00BF0010024091
:103B3000000021100008004880B500AF1B4B1C4A54
:103B40001A601A4B1B4A5A60184B00229A60174B96
:103B50000122DA60154B00221A61144B00225A61CF
:103B6000124B00229A61114B0022DA610F4B0022A6
:103B70001A620E48FDF732F90346002B01D001F01E
:103B80003AFA00210948FDF7FFFD0346002B01D05A
:103B900001F031FA00210548FDF741FE0346002BF4
:103BA00001D001F028FA00BF80BD00BF7C020020D8
:103BB00000540040EC9C901080B58AB000AF786053
:103BC00007F1140300221A605A609A60DA601A61E1
:103BD0007B681B68174A934227D1174A164BDB6C48
:103BE00043F00203D364144BDB6C03F002033B612C
:103BF0003B69C0237B611223BB610123FB6103236B
:103C00003B6204237B6207F1140319460B48FCF75F
:103C10001FFE094A084B9B6D43F400139365064B46
:103C20009B6D03F40013FB60FB6800BF2837BD46A3
:103C300080BD00BF00540040001002400004004856
:103C400080B582B000AF786039601022396878683A
:103C500001F072FC3B6818460837BD4680BD000085
:103C60002DE9F04FB7B000AF78646B463B64C823D2
:103C700087F8D23097F8D2000346013BC7F8CC3022
:103C8000C3B24FF00004E20042EA5372D900C3B25B
:103C90004FF00004E60046EA5376DD0003460733A2
:103CA000DB08DB00ADEB030D6B460033C7F8C83013
:103CB00097F8D2201346013BC7F8C430D3B24FF077
:103CC00000044FEAC40949EA53794FEAC308D3B262
:103CD0004FF000044FEAC40B4BEA537B4FEAC30A90
:103CE00013460733DB08DB00ADEB030D6B460033F7
:103CF000C7F8C03097F8D2201346013BC7F8BC3054
:103D0000D3B24FF00004E100F963F96B41EA53715B
:103D1000F963DB00BB63D3B24FF00004E1007963C9
:103D2000796B41EA53717963DB003B6313460733D8
:103D3000DB08DB00ADEB030D6B460033C7F8B83092
:103D400097F8D2201346013BC7F8B430D3B24FF0F6
:103D50000004E100F962F96A41EA5371F962DB009B
:103D6000BB62D3B24FF00004E1007962796A41EAA4
:103D700053717962DB003B6213460733DB08DB00DB
:103D8000ADEB030D6B460033C7F8B03097F8D22087
:103D90001346013BC7F8AC30D3B24FF00004E1004A
:103DA000F961F96941EA5371F961DB00BB61D3B292
:103DB0004FF00004E1007961796941EA537179615A
:103DC000DB003B6113460733DB08DB00ADEB030D83
:103DD0006B460033C7F8A83097F8D2201346013B52
:103DE000C7F8A430D3B24FF00004E100F960F968DD
:103DF00041EA5371F960DB00BB60D3B24FF00004BD
:103E0000E1007960796841EA53717960DB003B60D9
:103E100013460733DB08DB00ADEB030D6B460033C5
:103E2000C7F8A0300023C7F8D4300023C7F89C306F
:103E30006423C7F89830002387F8D330D7F8C81028
:103E400097F8D2309AB26423E848FFF7D5F80346D2
:103E500087F89730D7F8C01097F8D2309AB2642319
:103E6000E248FFF7C9F8D7F8B81097F8D2309AB2FD
:103E70006423DE48FFF7C0F8D7F8B01097F8D230C7
:103E80009AB26423D948FFF7B7F8D7F8A81097F883
:103E9000D2309AB26423D548FFF7AEF8D7F8A01015
:103EA00097F8D2309AB26423D048FFF7A5F8D7F834
:103EB000C830CF49184601F08AFBC7F8D400D7F8BC
:103EC000D430002B07D1D7F8C030C949184601F0CB
:103ED0007EFBC7F8D400D7F8D430002B07D1D7F831
:103EE000B830C349184601F072FBC7F8D400D7F8C0
:103EF000D430002B07D1D7F8B030BD49184601F0B7
:103F000066FBC7F8D400D7F8D430002B07D1D7F818
:103F1000A830B749184601F05AFBC7F8D400D7F8C3
:103F2000D430002B07D1D7F8A030B149184601F0A2
:103F30004EFBC7F8D40001F045F9AE49D7F8D400DC
:103F400001F045FBC7F89C00D7F89C20D7F8D43087
:103F5000D31AC7F89830D7F89C20D7F8D430D31AA2
:103F6000642B3FF76BAFD7F89C20D7F8D4309A4238
:103F70003FF464AFD7F89C30002B3FF45FAF0A20CA
:103F8000FCF764FB2C21D7F8D40001F012FBC7F832
:103F9000D400D7F8D4300133C7F8D4302C21D7F867
:103FA000D40001F006FBC7F8D400D7F8D4300133B1
:103FB000C7F8D430D7F8D4301B7887F85C30D7F8FE
:103FC000D4300133C7F8D430D7F8D4301B7887F811
:103FD0005D30D7F8D4300133C7F8D430002387F8E8
:103FE0005E30D7F8D4301B7887F85830D7F8D43003
:103FF0000133C7F8D430D7F8D4301B7887F859305C
:10400000D7F8D4300133C7F8D430002387F85A30BA
:10401000D7F8D4300133C7F8D430D7F8D4301B7870
:1040200087F85430D7F8D4300133C7F8D430D7F8F4
:10403000D4301B7887F85530D7F8D4300133C7F81F
:10404000D430D7F8D4301B7887F85630D7F8D4302E
:104050000133C7F8D430002387F857300023C7F85E
:1040600090300023C7F88C300023C7F88830002335
:10407000C7F8843007F15C03184601F016FA0346CE
:10408000C7F88C3007F15803184601F00EFA0346C2
:10409000C7F8883007F15403184601F006FA0346C2
:1040A000C7F88430D7F88C3042F2107202FB03F26A
:1040B000D7F8883042F2107101FB03F34E49A1FB9F
:1040C00003135B091A44D7F8843042F2107101FBE4
:1040D00003F34A49A1FB0313DB0B1344C7F89030E9
:1040E0000A20FCF7B3FA2C21D7F8D40001F061FACA
:1040F000C7F8D400D7F8D4300133C7F8D4302C2116
:10410000D7F8D40001F055FAC7F8D400D7F8D43066
:104110000133C7F8D430D7F8D4300133C7F8D430DE
:10412000D7F8D4301B7887F85030D7F8D430013323
:10413000C7F8D430D7F8D4301B7887F85130D7F887
:10414000D4300133C7F8D430002387F85230D7F881
:10415000D4301B7887F84C30D7F8D4300133C7F807
:10416000D430D7F8D4301B7887F84D30D7F8D43016
:104170000133C7F8D430002387F84E30D7F8D43055
:104180000133C7F8D430D7F8D4301B7887F84830DB
:10419000D7F8D4300133C7F8D430D7F8D4301B78EF
:1041A00087F84930D7F8D4300133C7F8D430D7F87E
:1041B000D4301B7887F84A30D7F8D4300133C7F8A9
:1041C000D430002387F84B300023C7F88030002319
:1041D000FB670023BB6700237B6707F1500318468A
:1041E00001F063F90346FB670AE000BFE803002023
:1041F000106000081860000889888888D55204E992
:1042000007F14C03184601F050F90346BB6707F16C
:104210004803184601F049F903467B67FB6F42F2F9
:10422000107202FB03F2BB6F42F2107101FB03F349
:104230004E49A1FB03135B091A447B6F42F21071D4
:1042400001FB03F34A49A1FB0313DB0B1344C7F83B
:1042500080300A20FCF7FAF92C21D7F8D40001F0BD
:10426000A8F9C7F8D400D7F8D4300133C7F8D43050
:104270002C21D7F8D40001F09CF9C7F8D400D7F866
:10428000D4300133C7F8D430D7F8D4301B7887F84E
:104290007030002387F871302C21D7F8D40001F05A
:1042A00088F9C7F8D400D7F8D4300133C7F8D43030
:1042B0002C21D7F8D40001F07CF9C7F8D400D7F846
:1042C000D4300133C7F8D4302C21D7F8D40001F012
:1042D00070F9C7F8D400D7F8D4300133C7F8D43018
:1042E00013E097F8D330D7F8D420127807F1D8012B
:1042F0000B4403F8782CD7F8D4300133C7F8D43006
:1043000097F8D330013387F8D330D7F8D4301B78FF
:104310002E2BE6D197F8D33007F1D80213440022B0
:1043200003F8782C0A20FCF791F97B6CD7F89020E1
:104330001A607B6C0433D7F880201A607B6C03F121
:10434000080407F16003184601F0AFF80246642341
:1043500003FB02F323600023C7F8D4307B6CD7F84B
:1043600040D01846DC37BD46BDE8F08F8988888884
:10437000D55204E980B483B000AF0346FB80B7F99F
:104380000630002B02DAFB885B42FB80FB88184674
:104390000C37BD465DF8047B7047000080B584B0E3
:1043A00004AF094B1B789AB24FF47A73029301233E
:1043B0000193064B00930123BE210548FCF79CFDA9
:1043C00000BFBD4680BD00BF2400002028000020A3
:1043D0007C02002080B584B004AF184B1B789AB2E1
:1043E0004FF47A73029301230193154B0093012339
:1043F000BA211448FCF780FD134B1B789AB24FF496
:104400007A73029301230193104B00930123BA2185
:104410000C48FCF771FD0E4B1B789AB24FF47A737F
:104420000293012301930B4B00930123BA2105480A
:10443000FCF762FD00BFBD4680BD00BF64000020E8
:10444000680000207C0200206C000020700000202A
:10445000740000207800002080B584B004AF9D4B2C
:104460001B789AB24FF47A730293012301939A4B0B
:1044700000930123BF219948FCF752FE984B1B780B
:104480009AB24FF47A73029301230193954B0093F0
:104490000123BF219148FCF743FE934B1B789AB24E
:1044A0004FF47A73029301230193904B00930123FD
:1044B000BF218A48FCF734FE8D4B1B789AB24FF42B
:1044C0007A730293012301938A4B00930123BF2146
:1044D0008248FCF725FE864B1B789AB24FF47A731C
:1044E000029301230193834B00930123BF217B4857
:1044F000FCF716FE804B1B789AB24FF47A73029346
:10450000012301937D4B00930123BF217348FCF7E6
:1045100007FE7B4B1B789AB24FF47A730293012308
:104520000193784B00930123BF216C48FCF7F8FD01
:10453000754B1B789AB24FF47A730293012301935F
:10454000724B00930123BF216448FCF7E9FD704BD7
:104550001B789AB24FF47A730293012301936D4B47
:1045600000930123BF215D48FCF7DAFD6A4B1B78FD
:104570009AB24FF47A73029301230193674B00932D
:104580000123BF215548FCF7CBFD634B1B789AB242
:104590004FF47A73029301230193604B009301233C
:1045A000BF214E48FCF7BCFD524B1B789BB21B024F
:1045B0009AB2524B1B789BB213449AB2584B1A8052
:1045C000504B1B789BB21B029AB2504B1B789BB28C
:1045D00013449AB2534B1A804E4B1B789BB21B026A
:1045E0009AB24E4B1B789BB213449AB24E4B1A8030
:1045F0004B4B1B881846FFF7BDFE4A4B1B881846DD
:10460000FFF7B8FE484B1B881846FFF7B3FE374B41
:104610001B7803F00303DAB2444B1A70334B1B7858
:104620009B10DBB203F00303DAB2414B1A703F4B2D
:104630001B789BB21B029AB2274B1B789BB2134488
:104640009AB23C4B1A803A4B1B789BB21B029AB22F
:10465000244B1B789BB213449AB2374B1A80354BCC
:104660001B88DB089AB2354B1A80334B1B88DB085A
:104670009AB2334B1A802C4B1A88294B1B88D31AB9
:104680009BB21BB21A4613469B0013445B001946AB
:104690002B4B1A88294B1B88D31A9BB21BB203FBE6
:1046A00001F3204A11881E4A12888A1A92B212B265
:1046B00093FBF2F39AB2214B1B88194689000B44F5
:1046C0005B009BB213449AB21E4B1A8000BFBD46DA
:1046D00080BD00BF000000200C0300207C020020F1
:1046E000040000200803002008000020240300200C
:1046F0000C0000201403002010000020D002002035
:1047000014000020DC02002018000020000300201C
:104710001C0000203803002020000020D8020020C8
:10472000200300203C030020580300202C0300201D
:10473000C8020020040300201C0300204C030020BA
:10474000EC0200202803002080B584B004AF674B42
:104750001B789AB24FF47A73029301230193644B4E
:1047600000930123BF216348FCF7DAFC624B1B78FE
:104770009AB24FF47A730293012301935F4B009333
:104780000123BF215B48FCF7CBFC5D4B1B789AB241
:104790004FF47A730293012301935A4B0093012340
:1047A000BF215448FCF7BCFC574B1B789AB24FF41E
:1047B0007A73029301230193524B00930123BF218B
:1047C0004C48FCF7ADFC514B1B789AB24FF47A730E
:1047D0000293012301934E4B00930123BF214548CF
:1047E000FCF79EFC4B4B1B789AB24FF47A73029302
:1047F00001230193484B00930123BF213D48FCF75F
:104800008FFC464B1B789AB24FF47A7302930123C4
:104810000193434B00930123BF213648FCF780FCF2
:10482000404B1B789AB24FF47A73029301230193A1
:104830003D4B00930123BF212E48FCF771FC314B07
:104840001B785B08DBB29AB2384B1A80384B1B7866
:104850005B08DBB29AB2374B1A802D4B1B789BB2A8
:104860001B029AB22C4B1B789BB213449AB2324B68
:104870001A802B4B1B789BB21B029AB22A4B1B78D7
:104880009BB213449AB22D4B1A80194B1B789BB2E2
:104890001B029AB2194B1B789BB213449AB2284B55
:1048A0001A80244B1A88214B1B88D31A9BB21BB247
:1048B0001946234B1A88204B1B88D31A9BB21BB274
:1048C00003FB01F31D4A11881B4A12888A1A92B20F
:1048D00012B293FBF2F39AB2144B1B8813449AB2B0
:1048E000184B1A8000BFBD4680BD00BF2C000020C1
:1048F000440300207C0200203000002064030020DC
:104900003400002050030020380000204000002028
:10491000480300203C000020E8020020480000205E
:10492000E002002044000020CC020020F002002021
:1049300040030020D4020020340300206C03002038
:10494000E40200205C03002080B584B004AF3E4B3D
:104950001B789AB24FF47A730293012301933B4B75
:1049600000930123BB213A48FCF7DAFB394B1B7853
:104970009AB24FF47A73029301230193364B00935A
:104980000123BB213248FCF7CBFB344B1B789AB296
:104990004FF47A73029301230193314B0093012367
:1049A000BB212B48FCF7BCFB2E4B1B789AB24FF473
:1049B0007A730293012301932B4B00930123BB21B4
:1049C0002348FCF7ADFB294B1B789AB24FF47A735E
:1049D000029301230193264B00930123BB211C4822
:1049E000FCF79EFB234B1B789AB24FF47A73029329
:1049F00001230193204B00930123BB211448FCF7B2
:104A00008FFB1D4B1B781A04194B1B781B02134498
:104A1000154A127813441A46184B1A60104B1B782B
:104A20001A040D4B1B781B021344084A12781344D6
:104A30001A46134B1A60124B1B681B0B114A13606A
:104A400000BFBD4680BD00BF58000020F40200201A
:104A50007C0200205C000020180300206000002081
:104A6000FC0200204C0000206803002050000020C1
:104A700010030020540000205403002030030020C5
:104A800060030020F802002080B5C4B000AF3B1DD9
:104A9000186007F1880380220021184600F04EFDBF
:104AA00007F10803184680231A46002100F046FD4E
:104AB0000523C7F80C313B1D07F188001A68194916
:104AC00000F044FD07F188031846FBF781FB03461D
:104AD0009AB207F188014FF47A731348FEF7FFF991
:104AE00007F108014FF47A7304220F48FEF784FAA5
:104AF000034687F80B3107F108031B784F2B06D1CB
:104B0000D7F80C310133C7F80C31012305E0D7F891
:104B10000C31013BC7F80C310023184607F58877A4
:104B2000BD4680BD1C6000087003002080B58CB0BD
:104B300000AF0346FB7107F10C0320220021184649
:104B400000F0FCFCFB79002B14BF01230023DBB237
:104B50001A4607F10C031149184600F0F7FC07F15B
:104B60000C031846FBF734FB03469AB207F10C011D
:104B70004FF47A730A48FEF7B2F907F10C0143F6D5
:104B8000982314220648FEF737FA034687F82F3099
:104B9000012318463037BD4680BD00BF386000088D
:104BA0007003002080B5D4B002AF07F10C03186089
:104BB00007F1080319603B1D1A6007F1C00380224A
:104BC0000021184600F0BAFC794A07F1B40307CA7D
:104BD00083E807000C2387F8443107F134031846B3
:104BE00080231A46002100F0A9FC07F12C03714A2A
:104BF00092E8030018600433197007F124036E4A29
:104C000012881A80023300221A609A8007F11C036E
:104C1000694A12881A80023300221A609A8007F1CA
:104C20001403654A12881A80023300221A609A809F
:104C300007F10C031868FBF7CBFA034687F84331FA
:104C400007F108031868FBF7C3FA034687F84231F7
:104C50003B1D1868FBF7BCFA034687F84131002377
:104C600087F8473113E007F124031846FBF7B0FA41
:104C700003461A4607F12403134450491A460B46CB
:104C80001B88138097F84731013387F8473197F82D
:104C9000472197F84331C3F106039A42E3DB07F15A
:104CA0000C0307F124021968104600F073FC00237E
:104CB00087F8463113E007F11C031846FBF788FA22
:104CC00003461A4607F11C0313443C491A460B4697
:104CD0001B88138097F84631013387F8463197F8DF
:104CE000462197F84231C3F106039A42E3DB07F10C
:104CF000080307F11C021968104600F04BFC002362
:104D000087F8453113E007F114031846FBF760FA02
:104D100003461A4607F11403134428491A460B4662
:104D20001B88138097F84531013387F8453197F890
:104D3000452197F84131C3F106039A42E3DB3B1D5D
:104D400007F114021968104600F024FC07F1240151
:104D500007F12C0207F1C00007F11403019307F1DA
:104D60001C0300930B46164900F0F0FB07F1C0034B
:104D70001846FBF72DFA03469AB207F1C0014FF42B
:104D80007A731048FEF7ABF807F1340141F288332B
:104D900008220C48FEF730F9034687F840316420BA
:104DA000FBF754FC00BF07F5A477BD4680BD00BFEC
:104DB000606000080060000808600008FC5F0008F0
:104DC0004860000870030020B0B592B000AFFBF758
:104DD000DFFB00F095F8FEF747FEFEF7ADFE00F0B2
:104DE000C5F900F01FFA00F0EDF9FFF7D7FAFFF769
:104DF000F1FA6420FBF72AFC3A48FFF745FE3A48EF
:104E0000FEF735F83848FDF7E1FF3848FFF73CFE7C
:104E10003548FEF72CF83448FDF7D8FF3448FFF743
:104E200033FE3148FEF723F82F48FDF7CFFF314816
:104E3000FFF72AFE2C48FEF71AF82B48FDF7C6FFAD
:104E40002D48FFF721FE2848FEF711F82648FDF708
:104E5000BDFF2A48FFF718FE2348FEF708F822484E
:104E6000FDF7B4FF0020FFF761FE1F48FDF7FFFFCD
:104E70001D48FDF7ABFFFFF7EFFAFFF765FCFFF703
:104E800063FD1948FDF7F3FF1748FDF79FFF202149
:104E90004FF09040FBF790FF07F13C031846FEF7F8
:104EA000DFFEFB6B07F1280211461846FEF7C8FE2D
:104EB00004463B6C07F1140211461846FEF7C0FE8B
:104EC00005467B6C3A4611461846FEF7B9FE034686
:104ED0001A4629462046FFF765FE41F65830FBF793
:104EE000B5FBD4E76C600008700300207460000814
:104EF00090600008B8600008E0600008E860000802
:104F000080B5B8B000AF07F19C03442200211846D9
:104F100000F014FB07F1880300221A605A609A60BF
:104F2000DA601A613B4688220021184600F006FB31
:104F30000223C7F89C304FF48073C7F8A8301023C1
:104F4000C7F8AC300223C7F8C4300223C7F8C83012
:104F50000123C7F8CC300A23C7F8D0300723C7F89D
:104F6000D4300223C7F8D8300223C7F8DC3007F169
:104F70009C031846FCF704FD0346002B01D000F00B
:104F80003AF80F23C7F888300323C7F88C30002382
:104F9000C7F890300023C7F894300023C7F8983042
:104FA00007F1880304211846FDF74EF80346002B4D
:104FB00001D000F020F863233B600023BB63002393
:104FC000FB630023FB6400233B653B461846FDF76B
:104FD0004DFA0346002B01D000F00DF84FF400709D
:104FE000FCF778FC0346002B01D000F004F800BF6A
:104FF000E037BD4680BD80B400AF00BFBD465DF860
:10500000047B704780B483B000AF0F4A0E4B1B6E19
:1050100043F0010313660C4B1B6E03F001037B602E
:105020007B68094A084B9B6D43F080539365064BA0
:105030009B6D03F080533B603B6800BF0C37BD465F
:105040005DF8047B704700BF0010024080B400AFE1
:1050500000BFBD465DF8047B704780B400AFFEE73B
:1050600080B400AFFEE780B400AFFEE780B400AFCD
:10507000FEE780B400AF00BFBD465DF8047B70471B
:1050800080B400AF00BFBD465DF8047B704780B4BC
:1050900000AF00BFBD465DF8047B704780B500AF30
:1050A000FBF7BAFA00BF80BD80B584B000AF78606E
:1050B000114B1B68002B02D10F4B104A1A600E4B8C
:1050C0001B68FB600C4B1A687B6813446A4693426A
:1050D00007D900F0EFF902460C2313604FF0FF33BD
:1050E00006E0054B1A687B681344034A1360FB68AB
:1050F00018461037BD4680BD6C020020DC0400203D
:1051000080B400AF174A174BD3F8883043F47003CC
:10511000C2F88830144A144B1B6843F00103136033
:10512000114B00229A60104A0F4B1B6823F0A853C2
:1051300023F4102313600C4B4FF48052DA600A4AB8
:10514000094B1B6823F480231360074B00229A61EC
:10515000044B4FF000629A6000BFBD465DF8047BCF
:10516000704700BF00ED00E00010024080B500AFC6
:10517000124B134A1A60114B4FF4E1325A600F4B35
:1051800000229A600D4B0022DA600C4B00221A615B
:105190000A4B0C225A61094B00229A61074B0022EC
:1051A0001A62064B00225A620448FDF70FFE0346BE
:1051B000002B01D0FFF71FFF00BF80BD7003002050
:1051C0000080004080B500AF144B154A1A60134BA5
:1051D0004FF416525A60114B00229A600F4B002276
:1051E000DA600E4B00221A610C4B0C225A610B4BF9
:1051F00000229A61094B0022DA61084B00221A62F0
:10520000064B00225A620548FDF7E0FD0346002BDD
:1052100001D0FFF7F0FE00BF80BD00BFE803002013
:105220000038014080B500AF144B154A1A60134B8B
:105230004FF4E1325A60114B00229A600F4B00226A
:10524000DA600E4B00221A610C4B0C225A610B4B98
:1052500000229A61094B0022DA61084B00221A628F
:10526000064B00225A620548FDF7B0FD0346002BAD
:1052700001D0FFF7C0FE00BF80BD00BF600400206A
:105280000044004080B58EB000AF786007F1240381
:1052900000221A605A609A60DA601A617B681B68A3
:1052A000464A934228D1464A454BDB6D43F0010301
:1052B000D365434BDB6D03F001033B623B6A404A1D
:1052C0003F4BDB6C43F00403D3643D4BDB6C03F0DA
:1052D0000403FB61FB6903237B620223BB6200239F
:1052E000FB6203233B6308237B6307F12403194616
:1052F0003448FBF7ADFA5DE07B681B68324A9342A5
:105300002AD12F4A2E4B1B6E43F4804313662C4B3D
:105310001B6E03F48043BB61BB69294A284BDB6CDD
:1053200043F00103D364264BDB6C03F001037B6184
:105330007B694FF4C0637B620223BB620023FB6284
:1053400003233B6307237B6307F1240319464FF0D4
:105350009040FBF77DFA2DE07B681B681B4A934267
:1053600028D1174A164B9B6D43F400339365144BB9
:105370009B6D03F400333B613B69114A104BDB6CBE
:1053800043F00103D3640E4BDB6C03F00103FB60BD
:10539000FB680C237B620223BB620023FB620323B6
:1053A0003B6307237B6307F1240319464FF09040CA
:1053B000FBF74EFA00BF3837BD4680BD0080004085
:1053C000001002400008004800380140004400403E
:1053D00080B582B000AF78607B681B68194A934241
:1053E0000AD1194A184BDB6D23F00103D365032161
:1053F0001648FBF7D5FB21E07B681B68144A9342F3
:105400000CD1114A104B1B6E23F4804313664FF4EA
:10541000C0614FF09040FBF7C3FB0FE07B681B6857
:105420000C4A93420AD1084A074B9B6D23F4003380
:1054300093650C214FF09040FBF7B2FB00BF08379B
:10544000BD4680BD008000400010024000080048BA
:105450000038014000440040DFF834D0002103E070
:105460000C4B5B58435004310B480C4B42189A428A
:10547000F6D30B4A02E0002342F8043B094B9A4260
:10548000F9D3FFF73DFE00F01BF8FFF79DFCFEE7A8
:1054900000800120B86200080000002050020020B7
:1054A00050020020DC040020FEE70A22002100F068
:1054B00029B90000014B1868704700BF8000002028
:1054C00070B50D4E0D4CA41BA4100025A54209D1AA
:1054D0000B4E0C4C00F086FDA41BA4100025A54229
:1054E00005D170BD56F8253098470135EEE756F8DE
:1054F000253098470135F2E7B0620008B062000835
:10550000B0620008B4620008931E222B10B50C464E
:1055100004D900230B701C46204610BD0A2A09D16D
:10552000002807DA2D230B7040420121214400F0AE
:10553000FFF8F1E70021F9E7FFF7E6BF0244034671
:10554000934200D1704703F8011BF9E70EB400B590
:105550009CB04FF402711DABADF814100290069090
:105560006FF000410A48049107914FF6FF7153F81C
:10557000042BADF816100068019302A900F088F919
:10558000029B00221A701CB05DF804EB03B0704758
:105590008000002010B50246134601321C78002C12
:1055A000FAD1013B11F8012B03F8012F002AF9D1A0
:1055B00010BDC9B2034610F8012B1AB19142F9D1BE
:1055C0001846704700290CBF184600207047F0B5F8
:1055D000037833B1034618465E1C1B7833B918466E
:1055E000F0BD0B78002B18BF0020F0BD4D1E441EEF
:1055F00015F8012F002AF3D014F8017F97423346A3
:10560000F6D0E8E72DE9F84F8046894692461F46D6
:105610008B465D460A9815F8014B00F0C9F8204406
:10562000467816F008060BD12D2C0BD12C780126CC
:105630000BF1020567B1102F14D1302C0AD011E004
:10564000AB46E6E72B2C04BF2C780BF10205F1E703
:10565000302C27D12B7803F0DF03582B4BD16C78FB
:1056600010270235002E0CBF6FF000414FF00041B3
:105670000022B1FBF7FE104607FB1E1CA4F130030D
:10568000092B11D81C46A7421DDD531C07D08645A7
:1056900016D301D1A44513DB00FB0740012215F806
:1056A000014BEBE70A27DDE7A4F14103192B01D8F1
:1056B000373CE8E7A4F16103192B04D8573CE2E733
:1056C0004FF0FF32EBE7531C08D12223C8F800301B
:1056D0000846BAF1000F07D1BDE8F88F06B1404285
:1056E000BAF1000F0CD022B1013DCAF80050BDE85C
:1056F000F88F4D46F9E73024002FB3D10827B1E7E2
:10570000BDE8F88F084B37B51C68084D236A002B9D
:1057100008BF2B46009313460A4601462046FFF772
:1057200071FF03B030BD00BF80000020E400002006
:10573000F0B51E4C8BB003460F466D4604F1200EAB
:10574000206861682E4603C6083474453546F7D193
:1057500021793171911E2068306022294FF00001BB
:1057600004D939700F4638460BB0F0BD781E064696
:10577000B3FBF2F50DF1280E02FB153373444C1CFC
:1057800013F8283C06F8013F2B4665B93D557A18B9
:10579000CC1AA342E7DA4478157800F8015F0133A8
:1057A00002F80149F4E72146E2E700BF446100083E
:1057B000D0F8EC00704782B001B901A942B14BB1F9
:1057C00013780B601278101C18BF012002B07047CC
:1057D0001046FBE76FF00100F8E72DE9F0478E680F
:1057E0009E4282460C469146984635D88A8912F4E4
:1057F000906F31D0256809696F1A6569022305EB3E
:10580000450595FBF3F508F101033B449D4238BF84
:105810001D46530531D5294600F044FB064650B9D4
:105820000C23CAF80030A38943F04003A3814FF052
:10583000FF30BDE8F0873A46216900F0C0FAA3893D
:1058400023F4906343F08003A381266165613E44A5
:10585000ED1B2660A5604646464528BF46463246B3
:105860004946206800F0B6FAA3689B1BA360236832
:105870001E4426600020BDE8F0872A4600F070FB39
:1058800006460028E1D12169504600F0BDFAC7E77D
:105890002DE9F04F9DB0804603938B891C060D4681
:1058A00016460FD50B696BB9402100F0FBFA286052
:1058B000286128B90C23C8F800304FF0FF30C5E04C
:1058C00040236B610023099320238DF82930302376
:1058D0008DF82A304FF0010B37463C4614F8013B57
:1058E000002B3CD1B7EB060A0BD053463246294673
:1058F0004046FFF772FF013000F0A380099B53443C
:1059000009933B78002B00F09C8000234FF0FF327E
:1059100004930793059206938DF853301A9305224A
:1059200021785048FAF75CFC671C049BD8B9D9066B
:1059300044BF20228DF853201A0744BF2B228DF834
:10594000532022782A2A16D0079A00210A202746B7
:1059500001343B78303B092B51D9C9B111E0252BDB
:10596000C0D02746B9E73F4A801A0BFA00F0184327
:1059700004903C46D3E7039A111D12680391002A54
:1059800001DB079204E0524243F0020307920493C2
:105990003B782E2B0ED17B782A2B07F1010132D1D7
:1059A000039B1A1D1B680392002BB8BF4FF0FF33F7
:1059B000023705932C4C397803222046FAF710FC65
:1059C00038B14023001B03FA00F0049B0343049307
:1059D0000137397825488DF8281006227E1CFAF701
:1059E000FFFB002835D0224BFBB9039B073323F084
:1059F000070308330393099B4B4409936CE700FBAF
:105A000002320121A3E70023059318460A240F461A
:105A100001313A78303A092A03D9002BCAD00590CF
:105A2000C8E704FB00200123F1E703AB00932A46FB
:105A3000104B04A94046AFF30080B0F1FF3F814610
:105A4000D9D1AB895B063FF538AF09981DB0BDE8E9
:105A5000F08F03AB00932A46064B04A9404600F0A2
:105A600081F8EAE773610008796100087D61000848
:105A700000000000DB5700082DE9F04791461F4663
:105A80008A680B69DDF820809342B8BF1346C9F8D5
:105A9000003091F8432006460C4612B10133C9F894
:105AA00000302368990642BFD9F800300233C9F8A4
:105AB0000030256815F0060507D104F1190AE368DE
:105AC000D9F800209B1A9D4229DB94F843302268C4
:105AD000003318BF012392062ED404F14302394645
