:020000040800F2
:1000000000800120BD480008B1440008BF4400083A
:10001000C5440008CB440008D1440008000000009B
:10002000000000000000000000000000D7440008AD
:10003000E544000800000000F34400080145000802
:100040000D4900080D4900080D4900080D49000838
:100050000D4900080D4900080D4900080D49000828
:100060000D4900080D4900080D4900080D49000818
:100070000D4900080D4900080D4900080D49000808
:100080000D4900080D4900080D4900080D490008F8
:100090000D4900080D4900080D4900080D490008E8
:1000A0000D4900080D4900080D4900080D490008D8
:1000B0000D4900080D4900080D4900080D490008C8
:1000C0000D4900080D4900080D4900080D490008B8
:1000D0000D4900080D4900080D4900080D490008A8
:1000E0000D4900080D4900080D4900080D49000898
:1000F0000D4900080D4900080D4900080D49000888
:100100000D4900080D4900080D4900080D49000877
:100110000D4900080D4900080D4900080D49000867
:100120000D4900080D4900080D4900080D49000857
:100130000D4900080D4900080D4900080D49000847
:100140000D4900080D4900080D4900080D49000837
:100150000D4900080D4900080D4900080D49000827
:100160000D4900080D4900080D4900080D49000817
:100170000D4900080D4900080D4900080000000065
:080180000D4900080D490008BB
:1001900010B5054C237833B9044B13B10448AFF3C1
:1001A00000800123237010BDF40100200000000036
:1001B0002C54000808B5034B1BB103490348AFF3A7
:1001C000008008BD00000000F80100202C54000849
:1001D000034613F8012B002AFBD1181A0138704787
:1001E00001F0FF01102A2BDB10F0070F08D010F8E8
:1001F000013B013A8B422DD010F0070F42B3F6D1EC
:10020000F0B441EA012141EA014122F007047FF004
:1002100000070023F0E80256083C85EA010586EA5B
:10022000010685FA47F5A3FA87F586FA47F6A5FA97
:1002300087F68EB9EED1F0BC01F0FF0102F00702A3
:1002400032B110F8013B013A83EA010313B1F8D14E
:100250000020704701387047002D06BF354603382F
:10026000073815F0010F07D1013015F4807F02BF68
:10027000013015F4C03F0130F0BC0138704700BFB9
:1002800053B94AB9002908BF00281CBF4FF0FF31FD
:100290004FF0FF3000F07AB9ADF1080C6DE904CEF3
:1002A00000F006F8DDF804E0DDE9022304B0704751
:1002B0002DE9F0478C460D460446089E002B51D18F
:1002C0008A4217466DD9B2FA82FEBEF1000F0BD0FA
:1002D000CEF1200C01FA0EF520FA0CFC02FA0EF712
:1002E0004CEA050C00FA0EF44FEA174A250CBCFB49
:1002F000FAF81FFA87F90AFB18CC45EA0C4508FB07
:1003000009F3AB420AD9ED1908F1FF3280F02381DD
:10031000AB4240F22081A8F102083D44ED1AA4B29C
:10032000B5FBFAF00AFB105544EA054400FB09F955
:10033000A14509D9E41900F1FF3380F00A81A145F4
:1003400040F2078102383C44A4EB090440EA08402B
:100350000021002E61D024FA0EF400233460736073
:10036000BDE8F0878B4207D9002E54D0002186E8E3
:1003700021000846BDE8F087B3FA83F1002940F078
:100380008E80AB4202D3824200F2FA80841A65EB7F
:1003900003050120AC46002E3FD086E81010BDE8D2
:1003A000F08712B90127B7FBF2F7B7FA87FEBEF163
:1003B000000F34D1EB1B3A0C1FFA87FC0121B3FB71
:1003C000F2F8250C02FB183345EA03450CFB08F351
:1003D000AB4207D9ED1908F1FF3002D2AB4200F26F
:1003E000D1808046ED1AA3B2B5FBF2F002FB1055A6
:1003F00043EA05440CFB00FCA44507D9E41900F1CD
:10040000FF3302D2A44500F2B8801846A4EB0C04D6
:1004100040EA08409DE731463046BDE8F087CEF11E
:10042000200405FA0EF307FA0EF720FA04F83A0C46
:1004300025FA04F448EA0308B4FBF2F14FEA184540
:1004400002FB11441FFA87FC45EA044501FB0CF34B
:10045000AB4200FA0EF409D9ED1901F1FF3080F03A
:100460008A80AB4240F2878002393D44EB1A1FFA82
:1004700088F5B3FBF2F002FB103345EA034500FBBD
:100480000CF3AB4207D9ED1900F1FF386FD2AB4244
:100490006DD902383D44EB1A40EA01418FE7C1F1C2
:1004A000200722FA07F88B4005FA01F448EA030313
:1004B00020FA07FE4FEA134CFD404EEA040EB5FB4E
:1004C000FCF94FEA1E440CFB19551FFA83F844EA65
:1004D000054509FB08F4AC4202FA01F200FA01FA00
:1004E00008D9ED1809F1FF3043D2AC4241D9A9F146
:1004F00002091D442D1B1FFA8EFEB5FBFCF00CFB00
:1005000010554EEA054400FB08F8A04507D9E41849
:1005100000F1FF3529D2A04527D902381C4440EA12
:100520000940A4EB0804A0FB02894C45C6464D4691
:1005300015D312D056B1BAEB0E0364EB050404FADE
:1005400007F7CB401F43CC40376074600021BDE803
:10055000F0871846F8E69046E0E6C245EAD2B8EBE6
:10056000020E69EB03050138E4E72846D7E7404669
:1005700091E78146BEE7014678E702383C4445E70B
:10058000084608E7A8F102083D442BE7704700BF82
:1005900080B582B000AF0023FB710C4A0B4B1B6887
:1005A00043F480731360032000F01EF9002000F074
:1005B0000FF80346002B02D00123FB7101E003F08A
:1005C00053FFFB7918460837BD4680BD0020024026
:1005D00080B584B000AF78600023FB730C4B1B68C0
:1005E0000C4AA2FB03239B09184600F024F903469A
:1005F000002B02D00123FB7305E0002279684FF045
:10060000FF3000F0FCF8FB7B18461037BD4680BD7C
:1006100020000020D34D621080B400AF044B1B6853
:100620000133034A136000BFBD465DF8047B704789
:100630001C02002080B400AF034B1B681846BD4667
:100640005DF8047B704700BF1C02002080B584B0B9
:1006500000AF7860FFF7EEFFB8607B68FB60FB6877
:10066000B3F1FF3F02D0FB680133FB6000BFFFF72F
:10067000E1FF0246BB68D21AFB689A42F7D300BF7B
:100680001037BD4680BD000080B485B000AF7860F3
:100690007B6803F00703FB600C4BDB68BB60BA6848
:1006A0004FF6FF031340BB60FB681A02BB6813439D
:1006B00043F0BF6343F40033BB60044ABB68D360BC
:1006C00000BF1437BD465DF8047B704700ED00E0C5
:1006D00080B400AF044BDB681B0A03F00703184625
:1006E000BD465DF8047B704700ED00E080B483B048
:1006F00000AF03463960FB7197F90730002B0BDA26
:100700000D49FB7903F00F03043B3A68D2B21201A2
:10071000D2B20B441A7609E0084997F907303A68D3
:10072000D2B21201D2B20B4483F8002300BF0C37BF
:10073000BD465DF8047B704700ED00E000E100E09D
:1007400080B489B000AFF860B9607A60FB6803F0EC
:100750000703FB61FB69C3F10703042B28BF0423D4
:10076000BB61FB690433062B02D9FB69033B00E044
:1007700000237B610122BB6902FA03F35A1EBB68A6
:100780001A407B699A4001217B6901FA03F3591EE3
:100790007B680B40134318462437BD465DF8047B45
:1007A0007047000080B582B000AF78607B68013B85
:1007B000B3F1807F01D301230FE00A4A7B68013B3C
:1007C00053600F214FF0FF30FFF790FF054B0022E1
:1007D0009A60044B07221A60002318460837BD466A
:1007E00080BD00BF10E000E080B582B000AF78604F
:1007F0007868FFF749FF00BF0837BD4680BD80B568
:1008000086B000AF0346B9607A60FB7300237B615A
:10081000FFF75EFF78617A68B9687869FFF790FF43
:10082000024697F90F3011461846FFF75FFF00BFE9
:100830001837BD4680BD80B582B000AF786078685B
:10084000FFF7B0FF034618460837BD4680BD0000DD
:1008500080B487B000AF7860396000237B617FE1AE
:100860003B681A6801217B6901FA03F31340FB60BE
:10087000FB68002B00F071813B685B68022B03D0A2
:100880003B685B68122B23D17B69DA087B680832EE
:1008900053F822303B617B6903F007039B000F2272
:1008A00002FA03F3DB433A6913403B613B681A6980
:1008B0007B6903F007039B0002FA03F33A691343D1
:1008C0003B617B69DA087B680832396943F822109A
:1008D0007B681B683B617B695B00032202FA03F3C0
:1008E000DB433A6913403B613B685B6803F00302FA
:1008F0007B695B0002FA03F33A6913433B617B684F
:100900003A691A603B685B68012B0BD03B685B68F7
:10091000022B07D03B685B68112B03D03B685B68F8
:10092000122B30D17B689B683B617B695B000322A3
:1009300002FA03F3DB433A6913403B613B68DA6830
:100940007B695B0002FA03F33A6913433B617B68FE
:100950003A699A607B685B683B6101227B6902FAB5
:1009600003F3DB433A6913403B613B685B681B0957
:1009700003F001027B6902FA03F33A6913433B6116
:100980007B683A695A603B685B6803F00303032B9A
:1009900018D17B68DB6A3B6101227B6902FA03F3B1
:1009A000DB433A6913403B613B685B68DB0803F05B
:1009B00001027B6902FA03F33A6913433B617B68E6
:1009C0003A69DA627B68DB683B617B695B00032222
:1009D00002FA03F3DB433A6913403B613B689A68D0
:1009E0007B695B0002FA03F33A6913433B617B685E
:1009F0003A69DA603B685B6803F08053002B00F0D3
:100A0000AC805E4A5D4B1B6E43F0010313665B4B8B
:100A10001B6E03F00103BB60BB68594A7B699B08EE
:100A2000023352F823303B617B6903F003039B00E0
:100A30000F2202FA03F3DB433A6913403B617B6800
:100A4000B3F1904F25D07B684E4A93421FD07B680C
:100A50004D4A934219D07B684C4A934213D07B682D
:100A60004B4A93420DD07B684A4A934207D07B6839
:100A7000494A934201D106230CE007230AE00523EB
:100A800008E0042306E0032304E0022302E001233C
:100A900000E000237A6902F00302920093403A6971
:100AA00013433B6136497B699B0802333A6941F83D
:100AB00023203A4B1B683B61FB68DB433A691340D8
:100AC0003B613B685B6803F48033002B03D03A69D9
:100AD000FB6813433B61314A3B6913602F4B5B68F2
:100AE0003B61FB68DB433A6913403B613B685B68F1
:100AF00003F40033002B03D03A69FB6813433B61D6
:100B0000264A3B695360254B9B683B61FB68DB438E
:100B10003A6913403B613B685B6803F48013002B28
:100B200003D03A69FB6813433B611C4A3B699360FD
:100B30001A4BDB683B61FB68DB433A6913403B615E
:100B40003B685B6803F40013002B03D03A69FB6831
:100B500013433B61114A3B69D3607B6901337B617D
:100B60003B681A687B6922FA03F3002B7FF478AEA6
:100B700000BF1C37BD465DF8047B70470010024083
:100B8000000001400004004800080048000C004834
:100B900000100048001400480018004800040140FC
:100BA00080B487B000AF7860396000237B61CDE00E
:100BB00001227B699A403B6813403B613B69002BF3
:100BC00000F0C1807B681A687B695B00032101FA31
:100BD00003F31A437B681A607B69DA087B69D908DA
:100BE0007B68083153F821107B6903F007039B00F1
:100BF0000F2000FA03F3DB4319407B68083243F807
:100C000022107B689A687B695B00032101FA03F379
:100C1000DB431A407B689A607B685A6801217B69D4
:100C200001FA03F3DB431A407B685A607B68DA6899
:100C30007B695B00032101FA03F3DB431A407B6805
:100C4000DA607B68DA6A01217B6901FA03F3DB432E
:100C50001A407B68DA62444A7B699B08023352F887
:100C60002330FB607B6903F003039B000F2202FA31
:100C700003F3FA681340FB607B68B3F1904F25D013
:100C80007B683A4A93421FD07B68394A934219D015
:100C90007B68384A934213D07B68374A93420DD021
:100CA0007B68364A934207D07B68354A934201D12C
:100CB00006230CE007230AE0052308E0042306E0EE
:100CC000032304E0022302E0012300E000237A6909
:100CD00002F00302920003FA02F2FB689A4232D158
:100CE0007B6903F003039B000F2202FA03F3FB600E
:100CF0001D487B699B081C497A699208023251F8A9
:100D00002210FA68D2430A40023340F823201D49DA
:100D10001C4B1A683B69DB4313400B601949194BA4
:100D20005A683B69DB4313404B601649154B9A6880
:100D30003B69DB4313408B601249124BDA683B6915
:100D4000DB431340CB607B6901337B613A687B698D
:100D500022FA03F3002B7FF42BAF00BF1C37BD46F4
:100D60005DF8047B704700BF0000014000040048AC
:100D700000080048000C004800100048001400481B
:100D8000001800480004014080B483B000AF7860D0
:100D90000B467B8013467B707B78002B03D07A88D0
:100DA0007B689A6102E07A887B689A6200BF0C37A0
:100DB000BD465DF8047B704780B483B000AF7860B7
:100DC0000B467B807B685A697B885A407B685A61F6
:100DD00000BF0C37BD465DF8047B704780B582B01C
:100DE00000AF78607B68002B01D1012380E07B6835
:100DF00093F84130DBB2002B06D17B68002283F8E8
:100E00004020786802F06AFD7B68242283F8412044
:100E10007B681B687A681268126822F001021A6007
:100E20007B681B687A68526822F070621A617B687E
:100E30001B687A681268926822F400429A607B68A4
:100E4000DB68012B07D17B681B687A68926842F4E3
:100E500000429A6006E07B681B687A68926842F4F8
:100E600004429A607B68DB68022B04D17B681B68B4
:100E70004FF400625A607B681A687B681B685B6885
:100E800043F0007343F4004353607B681B687A6847
:100E90001268D26822F40042DA607B681B687A68C4
:100EA00011697A68526911437A68926912020A4399
:100EB000DA607B681B687A68D1697A68126A0A43CB
:100EC0001A607B681B687A681268126842F0010237
:100ED0001A607B6800225A647B68202283F84120D4
:100EE0007B6800221A637B68002283F8422000237B
:100EF00018460837BD4680BD80B588B002AFF8609F
:100F0000084611461A4603467B810B463B81134631
:100F1000FB80FB6893F84130DBB2202B40F0F98076
:100F20003B6A002B02D0BB8C002B05D1FB684FF431
:100F300000725A640123EDE0FB6893F84030012B06
:100F400001D10223E6E0FB68012283F84020FFF78D
:100F500071FB78617B690093192301224FF40041F2
:100F6000F86800F055F90346002B01D00123D1E0C9
:100F7000FB68212283F84120FB68402283F842204D
:100F8000FB6800225A64FB683A6A5A62FB68BA8CB2
:100F90005A85FB6800225A63F8883A8979897B6907
:100FA0000193BB6A00930346F86800F0B9F8034662
:100FB000002B05D0FB68002283F840200123A9E024
:100FC000FB685B8D9BB2FF2B0ED9FB68FF221A8555
:100FD000FB681B8DDAB27989002300934FF0807390
:100FE000F86800F037FA0FE0FB685B8D9AB2FB6897
:100FF0001A85FB681B8DDAB27989002300934FF0C4
:101000000073F86800F026FA7A69B96AF86800F0A7
:101010003FF90346002B01D001237BE0FB681B68EE
:10102000FA68526A12789A62FB685B6A5A1CFB681B
:101030005A62FB685B8D9BB2013B9AB2FB685A8592
:10104000FB681B8D013B9AB2FB681A85FB685B8DC0
:101050009BB2002B34D0FB681B8D002B30D17B69F9
:101060000093BB6A00228021F86800F0D1F80346A3
:10107000002B01D001234DE0FB685B8D9BB2FF2B61
:101080000ED9FB68FF221A85FB681B8DDAB27989BD
:10109000002300934FF08073F86800F0DBF90FE055
:1010A000FB685B8D9AB2FB681A85FB681B8DDAB210
:1010B0007989002300934FF00073F86800F0CAF9B3
:1010C000FB685B8D9BB2002B9ED17A69B96AF86888
:1010D00000F01EF90346002B01D001231AE0FB6843
:1010E0001B682022DA61FB681A68FB681B68596874
:1010F0000A4B0B405360FB68202283F84120FB68B9
:10110000002283F84220FB68002283F8402000235D
:1011100000E0022318461837BD4680BD00E800FEF7
:1011200080B586B002AFF860084611461A460346FD
:101130007B810B463B811346FB80FB88DAB27989C1
:10114000204B00934FF08073F86800F083F9FA6940
:10115000B969F86800F09CF80346002B01D0012320
:101160002CE0FB88012B05D1FB681B683A89D2B2C1
:101170009A6215E0FB681B683A89120A92B2D2B2F1
:101180009A62FA69B969F86800F082F80346002BA0
:1011900001D0012312E0FB681B683A89D2B29A623F
:1011A000FB690093BB6900228021F86800F030F8E9
:1011B0000346002B01D0012300E00023184610371E
:1011C000BD4680BD0020008080B483B000AF786051
:1011D0007B681B689B6903F00203022B03D17B68C9
:1011E0001B6800229A627B681B689B6903F00103FD
:1011F000012B07D07B681B687A681268926942F0FD
:1012000001029A6100BF0C37BD465DF8047B704750
:1012100080B584B000AFF860B9603B601346FB71E5
:1012200022E03B68B3F1FF3F1ED0FFF703FA02460E
:10123000BB69D21A3B689A4202D83B68002B13D193
:10124000FB685B6C43F02002FB685A64FB68202259
:1012500083F84120FB68002283F84220FB680022CB
:1012600083F8402001230FE0FB681B689A69BB6884
:101270001A40BB689A420CBF01230023DBB21A4616
:10128000FB799A42CDD0002318461037BD4680BD69
:1012900080B584B000AFF860B9607A602CE07A68FD
:1012A000B968F86800F070F80346002B01D00123FC
:1012B0002AE0BB68B3F1FF3F1ED0FFF7BBF902463F
:1012C0007B68D21ABB689A4202D8BB68002B13D144
:1012D000FB685B6C43F02002FB685A64FB682022C9
:1012E00083F84120FB68002283F84220FB6800223B
:1012F00083F84020012307E0FB681B689B6903F02B
:101300000203022BCBD1002318461037BD4680BD07
:1013100080B584B000AFF860B9607A6028E07A6880
:10132000B968F86800F030F80346002B01D00123BB
:1013300026E0FFF77FF902467B68D21ABB689A4223
:1013400002D8BB68002B13D1FB685B6C43F0200212
:10135000FB685A64FB68202283F84120FB68002266
:1013600083F84220FB68002283F84020012307E035
:10137000FB681B689B6903F02003202BCFD100235F
:1013800018461037BD4680BD80B584B000AFF86008
:10139000B9607A60FB681B689B6903F01003102B2F
:1013A00051D122E0BB68B3F1FF3F1ED0FFF742F9F5
:1013B00002467B68D21ABB689A4202D8BB68002BEF
:1013C00013D1FB685B6C43F02002FB685A64FB6836
:1013D000202283F84120FB68002283F84220FB682A
:1013E000002283F8402001232EE0FB681B689B69E4
:1013F00003F02003202BD5D1FB681B681022DA6193
:10140000FB681B682022DA61F868FFF7DDFEFB68E5
:101410001A68FB681B6859680D4B0B405360FB68EA
:101420005B6C43F00402FB685A64FB68202283F87B
:101430004120FB68002283F84220FB68002283F8E9
:101440004020012300E0002318461037BD4680BD30
:1014500000E800FE80B485B000AFF8607B600B460A
:101460007B8113467B72FB681A68FB681B685968AE
:10147000BB695B0D03F480600B4B0343DB431940F6
:101480007B89C3F309007B7A1B0403F47F031843B1
:101490007B681843BB6903430B43536000BF143799
:1014A000BD465DF8047B7047FF63FF0380B483B0E3
:1014B00000AF786039607B6893F84130DBB2202B55
:1014C00038D17B6893F84030012B01D1022332E000
:1014D0007B68012283F840207B68242283F8412026
:1014E0007B681B687A681268126822F001021A6031
:1014F0007B681B687A681268126822F480521A604E
:101500007B681B687A68126811683A680A431A6037
:101510007B681B687A681268126842F001021A60E0
:101520007B68202283F841207B68002283F84020DA
:10153000002300E0022318460C37BD465DF8047B0B
:10154000704780B485B000AF786039607B6893F8ED
:101550004130DBB2202B39D17B6893F84030012B2E
:1015600001D1022333E07B68012283F840207B68AD
:10157000242283F841207B681B687A68126812680D
:1015800022F001021A607B681B681B68FB60FB6825
:1015900023F47063FB603B681B02FA681343FB6033
:1015A0007B681B68FA681A607B681B687A68126837
:1015B000126842F001021A607B68202283F8412001
:1015C0007B68002283F84020002300E002231846B5
:1015D0001437BD465DF8047B7047000080B400AF4F
:1015E000044B1B6803F4C0631846BD465DF8047BDA
:1015F000704700BF0070004080B485B000AF7860D5
:101600007B68B3F5007F30D1234B1B6803F4C063C4
:10161000B3F5007F38D0204A1F4B1B6823F4C0630A
:1016200043F4007313601D4B1B68322202FB03F36B
:101630001B4AA2FB03239B0C0133FB6002E0FB6807
:10164000013BFB60144B5B6903F48063B3F5806F6F
:1016500002D1FB68002BF2D10F4B5B6903F480636E
:10166000B3F5806F10D103230FE00B4B1B6803F41D
:10167000C063B3F5806F07D0074A074B1B6823F49C
:10168000C06343F480631360002318461437BD46DB
:101690005DF8047B704700BF007000402000002010
:1016A00083DE1B4380B588B000AF78607B68002B79
:1016B00001D1012353E3A34B9B6803F00C03BB61EF
:1016C000A04BDB6803F003037B617B681B6803F0BE
:1016D0001003002B00F0DF80BB69002B07D0BB6933
:1016E0000C2B40F086807B69012B40F08280954B6B
:1016F0001B6803F00203002B05D07B689B69002B5D
:1017000001D101232BE37B681A6A8E4B1B6803F01F
:101710000803002B04D08B4B1B6803F0F00305E09B
:10172000884BD3F894301B0903F0F0039A4223D975
:101730007B681B6A184600F0CBFC0346002B01D0E7
:1017400001230CE37F4A7F4B1B6843F008031360BF
:101750007C497C4B1B6823F0F0027B681B6A1343B7
:101760000B607849774B5B6823F47F427B68DB69C9
:101770001B0213434B6022E0724A724B1B6843F01A
:10178000080313606F496F4B1B6823F0F0027B68FE
:101790001B6A13430B606B496A4B5B6823F47F42FF
:1017A0007B68DB691B0213434B607B681B6A18462E
:1017B00000F08EFC0346002B01D00123CFE200F0A5
:1017C000B3FB01465F4B9B681B0903F00F035E4AA6
:1017D000D35C03F01F0321FA03F35C4A136000207B
:1017E000FEF7F6FE0346FB73FB7B002B52D0FB7B20
:1017F000B5E27B689B69002B32D0524A514B1B6883
:1018000043F001031360FEF715FF386108E0FEF7AF
:1018100011FF02463B69D31A022B01D903239EE232
:10182000484B1B6803F00203002BF0D0454A454BA0
:101830001B6843F0080313604249424B1B6823F0C6
:10184000F0027B681B6A13430B603E493D4B5B68AB
:1018500023F47F427B68DB691B0213434B601AE071
:10186000384A384B1B6823F001031360FEF7E2FE91
:10187000386108E0FEF7DEFE02463B69D31A022B10
:1018800001D903236BE22F4B1B6803F00203002BEB
:10189000F0D100E000BF7B681B6803F00103002B60
:1018A00072D0BB69082B05D0BB690C2B0ED17B69AC
:1018B000032B0BD1234B1B6803F40033002B62D0A6
:1018C0007B685B68002B5ED1012348E27B685B6824
:1018D000B3F5803F06D11B4A1A4B1B6843F4803393
:1018E00013601DE07B685B68B3F5A02F0CD1154A2F
:1018F000144B1B6843F480231360124A114B1B687E
:1019000043F4803313600BE00E4A0E4B1B6823F444
:10191000803313600B4A0B4B1B6823F48023136046
:101920007B685B68002B1AD0FEF784FE38610FE0FD
:10193000FEF780FE02463B69D31A642B08D90323C5
:101940000DE200BF00100240B85400082000002043
:10195000AE4B1B6803F40033002BE9D014E0FEF714
:1019600069FE386108E0FEF765FE02463B69D31A5E
:10197000642B01D90323F2E1A44B1B6803F4003369
:10198000002BF0D100E000BF7B681B6803F002036E
:10199000002B60D0BB69042B05D0BB690C2B19D17F
:1019A0007B69022B16D1994B1B6803F48063002BD3
:1019B00005D07B68DB68002B01D10123CFE193497F
:1019C000924B5B6823F0F8527B681B691B0613433C
:1019D0004B6040E07B68DB68002B23D08B4A8B4B4D
:1019E0001B6843F480731360FEF724FE386108E03F
:1019F000FEF720FE02463B69D31A022B01D90323CE
:101A0000ADE1824B1B6803F48063002BF0D07F496B
:101A10007E4B5B6823F0F8527B681B691B061343FF
:101A20004B6018E0794A794B1B6823F4807313608C
:101A3000FEF700FE386108E0FEF7FCFD02463B6958
:101A4000D31A022B01D9032389E1704B1B6803F4DD
:101A50008063002BF0D17B681B6803F00803002B28
:101A60003CD07B685B69002B1CD0684A674BD3F87D
:101A7000943043F00103C2F89430FEF7DBFD386187
:101A800008E0FEF7D7FD02463B69D31A022B01D9C5
:101A9000032364E15D4BD3F8943003F00203002B81
:101AA000EFD01BE0594A594BD3F8943023F001038F
:101AB000C2F89430FEF7BEFD386108E0FEF7BAFDCB
:101AC00002463B69D31A022B01D9032347E14F4B4E
:101AD000D3F8943003F00203002BEFD17B681B682E
:101AE00003F00403002B00F0A5800023FB77474B95
:101AF0009B6D03F08053002B0DD1444A434B9B6DEB
:101B000043F080539365414B9B6D03F08053BB6062
:101B1000BB680123FB773E4B1B6803F48073002BEB
:101B200018D13B4A3A4B1B6843F480731360FEF7AD
:101B300081FD386108E0FEF77DFD02463B69D31A5E
:101B4000022B01D903230AE1314B1B6803F4807394
:101B5000002BF0D07B689B68012B08D12B4A2B4BC4
:101B6000D3F8903043F00103C2F8903024E07B6852
:101B70009B68052B10D1254A244BD3F8903043F0B5
:101B80000403C2F89030214A204BD3F8903043F040
:101B90000103C2F890300FE01C4A1C4BD3F8903080
:101BA00023F00103C2F89030184A184BD3F8903054
:101BB00023F00403C2F890307B689B68002B16D09A
:101BC000FEF738FD38610AE0FEF734FD02463B6956
:101BD000D31A41F28832934201D90323BFE00B4B61
:101BE000D3F8903003F00203002BEDD019E0FEF79C
:101BF00021FD38610EE0FEF71DFD02463B69D31A58
:101C000041F28832934205D90323A8E00010024034
:101C100000700040544BD3F8903003F00203002BC7
:101C2000E9D1FB7F012B05D14F4A4F4B9B6D23F030
:101C3000805393657B689B6A002B00F08F80BB69A3
:101C40000C2B00F089807B689B6A022B56D1464A98
:101C5000454B1B6823F080731360FEF7EBFC386183
:101C600008E0FEF7E7FC02463B69D31A022B01D9D4
:101C7000032374E03C4B1B6803F00073002BF0D18E
:101C800039497B681B6B013B1A017B685B6B1B024C
:101C90001A437B689B6B1B095B041A437B68DB6AF6
:101CA0001A437B68DB6B5B08013B5B051A437B686F
:101CB0001B6C5B08013B5B061343CB602A4A2A4B33
:101CC0001B6843F080731360274A274BDB6843F09F
:101CD0008073D360FEF7AEFC386108E0FEF7AAFC23
:101CE00002463B69D31A022B01D9032337E01E4B6E
:101CF0001B6803F00073002BF0D02FE01A4A1A4B38
:101D00001B6823F080731360174B1B6803F020538C
:101D1000002B05D1144A144BDB6823F00303D36076
:101D2000114A114BDB6823F0887323F48033D360AE
:101D3000FEF780FC386108E0FEF77CFC02463B6958
:101D4000D31A022B01D9032309E0074B1B6803F0C8
:101D50000073002BF0D101E0012300E000231846BE
:101D60002037BD4680BD00BF0010024080B584B062
:101D700000AF786039607B68002B01D10123C6E099
:101D8000654B1B6803F007023B689A4210D2624918
:101D9000614B1B6823F007023B6813430B605E4BEB
:101DA0001B6803F007023B689A4201D00123AEE0B2
:101DB0007B681B6803F00103002B4CD07B685B68D9
:101DC000032B07D1554B1B6803F00073002B21D167
:101DD00001239CE07B685B68022B07D14F4B1B689B
:101DE00003F40033002B15D1012390E07B685B687E
:101DF000002B07D1494B1B6803F00203002B09D1CC
:101E0000012384E0454B1B6803F48063002B01D160
:101E100001237CE04149414B9B6823F003027B682E
:101E20005B6813438B60FEF705FCF8600AE0FEF781
:101E300001FC0246FB68D31A41F28832934201D971
:101E4000032364E0354B9B6803F00C027B685B68FE
:101E50009B009A42EBD17B681B6803F00203002BC6
:101E600008D02E492D4B9B6823F0F0027B689B68BD
:101E700013438B60284B1B6803F007023B689A42B0
:101E800010D92549244B1B6823F007023B681343F4
:101E90000B60214B1B6803F007023B689A4201D09C
:101EA000012334E07B681B6803F00403002B08D097
:101EB0001A491A4B9B6823F4E0627B68DB68134382
:101EC0008B607B681B6803F00803002B09D0134963
:101ED000124B9B6823F460527B681B69DB00134341
:101EE0008B6000F021F801460C4B9B681B0903F046
:101EF0000F030B4AD35C03F01F0321FA03F3094AD3
:101F000013600020FEF764FB0346FB72FB7A184661
:101F10001037BD4680BD00BF0020024000100240C7
:101F2000B85400082000002080B489B000AF00231E
:101F3000FB610023BB61464B9B6803F00C033B61D4
:101F4000434BDB6803F00303FB603B69002B05D0C8
:101F50003B690C2B21D1FB68012B1ED13C4B1B682C
:101F600003F00803002B07D1394BD3F894301B0A38
:101F700003F00F03FB6105E0354B1B681B0903F001
:101F80000F03FB61334AFB6952F82330FB613B6965
:101F9000002B0DD1FB69BB610AE03B69042B02D128
:101FA0002D4BBB6104E03B69082B01D12B4BBB617E
:101FB0003B690C2B45D1264BDB6803F00303BB6068
:101FC000234BDB681B0903F0070301337B60BB680D
:101FD000022B02D0032B0DD019E01F4A7B68B2FB05
:101FE000F3F31B4AD268120A02F07F0202FB03F3EA
:101FF0007B6119E0194A7B68B2FBF3F3144AD2689B
:10200000120A02F07F0202FB03F37B610CE0FA6923
:102010007B68B2FBF3F30E4AD268120A02F07F0229
:1020200002FB03F37B6100BF094BDB685B0E03F02F
:10203000030301335B003B607A693B68B2FBF3F357
:10204000BB61BB6918462437BD465DF8047B704709
:1020500000100240D05400080024F40000127A005E
:1020600080B400AF034B1B681846BD465DF8047B87
:10207000704700BF2000002080B500AFFFF7F0FFE1
:102080000146064B9B681B0A03F00703044AD35C16
:1020900003F01F0321FA03F3184680BD001002402D
:1020A000C854000880B500AFFFF7DAFF0146064BC1
:1020B0009B68DB0A03F00703044AD35C03F01F03A9
:1020C00021FA03F3184680BD00100240C8540008EE
:1020D00080B586B000AF786000233B612A4B9B6DD2
:1020E00003F08053002B03D0FFF778FA786114E0F7
:1020F000254A254B9B6D43F080539365224B9B6D86
:1021000003F08053FB60FB68FFF768FA78611E4AB2
:102110001D4B9B6D23F0805393657B69B3F5007F66
:102120000BD17B68802B19D97B68A02B02D90223A5
:102130003B6113E001233B6110E07B68802B02D9F7
:1021400003233B610AE07B68802B02D102233B61C1
:1021500004E07B68702B01D101233B610B490B4BE1
:102160001B6823F007023B6913430B60074B1B6896
:1021700003F007023B699A4201D0012300E00023EB
:1021800018461837BD4680BD0010024000200240AE
:1021900080B586B000AF78600023FB740023BB7469
:1021A0007B681B6803F40063002B3FD07B685B6E89
:1021B000B3F5800F1CD0B3F5800F02D8002B0ED0E2
:1021C0001FE0B3F5000F03D0B3F5400F1CD018E0AB
:1021D000854A854BDB6843F48033D36015E07B6828
:1021E00004330021184600F0B9FA0346FB740CE0F2
:1021F0007B6820330021184600F0A0FB0346FB74E7
:1022000003E00123FB7400E000BFFB7C002B0BD13B
:102210007549754BD3F8883023F440027B685B6EB8
:102220001343C1F8883001E0FB7CBB747B681B68FA
:1022300003F48053002B3FD07B689B6EB3F1807F0B
:102240001CD0B3F1807F02D8002B0ED01FE0B3F179
:10225000007F03D0B3F1407F1CD018E0624A624B8C
:10226000DB6843F48033D36015E07B6804330021DE
:10227000184600F073FA0346FB740CE07B682033C9
:102280000021184600F05AFB0346FB7403E00123CB
:10229000FB7400E000BFFB7C002B0BD15249524B7A
:1022A000D3F8883023F040727B689B6E1343C1F8EB
:1022B000883001E0FB7CBB747B681B6803F400334F
:1022C000002B00F0A08000237B74474B9B6D03F034
:1022D0008053002B01D1012300E00023002B0DD0FF
:1022E000414A414B9B6D43F0805393653E4B9B6D40
:1022F00003F08053BB60BB6801237B743B4A3B4BBC
:102300001B6843F480731360FEF794F9F86009E0EA
:10231000FEF790F90246FB68D31A022B02D9032379
:10232000FB7405E0314B1B6803F48073002BEFD086
:10233000FB7C002B5CD12C4BD3F8903003F4407322
:102340007B617B69002B1FD07B68D3F884207B697D
:102350009A4219D0244BD3F8903023F440737B6118
:10236000214A214BD3F8903043F48033C2F89030A7
:102370001D4A1D4BD3F8903023F48033C2F89030BF
:10238000194A7B69C2F890307B6903F00103002B86
:1023900016D0FEF74FF9F8600BE0FEF74BF9024656
:1023A000FB68D31A41F28832934202D90323FB74AB
:1023B00006E00D4BD3F8903003F00203002BECD075
:1023C000FB7C002B0CD10849074BD3F8903023F449
:1023D00040727B68D3F884301343C1F8903009E031
:1023E000FB7CBB7406E000BF0010024000700040A0
:1023F000FB7CBB747B7C012B05D19E4A9D4B9B6D66
:1024000023F0805393657B681B6803F00103002B66
:102410000AD09849974BD3F8883023F003027B68A1
:102420009B6B1343C1F888307B681B6803F0020381
:10243000002B0AD08F498F4BD3F8883023F00C0241
:102440007B68DB6B1343C1F888307B681B6803F043
:102450000403002B0AD08749864BD3F8883023F039
:1024600030027B681B6C1343C1F888307B681B68A3
:1024700003F00803002B0AD07E497E4BD3F8883046
:1024800023F0C0027B685B6C1343C1F888307B6823
:102490001B6803F01003002B0AD07649754BD3F864
:1024A000883023F440727B689B6C1343C1F88830FA
:1024B0007B681B6803F02003002B0AD06D496D4B2D
:1024C000D3F8883023F440627B68DB6C1343C1F897
:1024D00088307B681B6803F40073002B0AD06549C1
:1024E000644BD3F8883023F440227B68DB6D1343C0
:1024F000C1F888307B681B6803F48063002B0AD026
:102500005C495C4BD3F8883023F440127B681B6E27
:102510001343C1F888307B681B6803F04003002B2D
:102520000AD05449534BD3F8883023F440527B6887
:102530001B6D1343C1F888307B681B6803F0800370
:10254000002B0AD04B494B4BD3F8883023F4404240
:102550007B685B6D1343C1F888307B681B6803F4AC
:102560008073002B0AD04349424BD3F8883023F4C0
:1025700040327B689B6D1343C1F888307B681B68D1
:1025800003F40053002B28D03A493A4BD3F8883053
:1025900023F040627B68DB6E1343C1F888307B68B0
:1025A000DB6EB3F1006F06D1324A324BDB6843F485
:1025B0008013D36011E07B68DB6EB3F1806F0CD1C8
:1025C0007B6804330121184600F0C8F80346FB7409
:1025D000FB7C002B01D0FB7CBB747B681B6803F485
:1025E0000023002B28D02349224BD3F8883023F036
:1025F00040627B681B6F1343C1F888307B681B6F98
:10260000B3F1006F06D11B4A1A4BDB6843F4801309
:10261000D36011E07B681B6FB3F1806F0CD17B68D6
:1026200004330121184600F099F80346FB74FB7C43
:10263000002B01D0FB7CBB747B681B6803F48023F8
:10264000002B2BD00B490B4BD3F8883023F0406282
:102650007B685B6F1343C1F888307B685B6FB3F1B5
:10266000006F09D1034A034BDB6843F48013D36046
:1026700014E000BF001002407B685B6FB3F1806F15
:102680000CD17B6804330121184600F067F803463B
:10269000FB74FB7C002B01D0FB7CBB747B681B684C
:1026A00003F48043002B2FD02B492B4BD3F88830D9
:1026B00023F040527B689B6F1343C1F888307B68DE
:1026C0009B6FB3F1805F0DD17B6804330221184604
:1026D00000F044F80346FB74FB7C002B14D0FB7C19
:1026E000BB7411E07B689B6FB3F1005F0CD17B681A
:1026F00020330221184600F021F90346FB74FB7CCD
:10270000002B01D0FB7CBB747B681B6803F4004387
:10271000002B0AD01049104BD3F8883023F08042A8
:102720007B68DB6F1343C1F888307B681B6803F458
:102730008033002B0BD00849074BD3F8883023F0A7
:1027400000427B68D3F880301343C1F88830BB7CEB
:1027500018461837BD4680BD0010024080B584B0D1
:1027600000AF786039600023FB73734BDB6803F0C4
:102770000303002B18D0704BDB6803F003027B6867
:102780001B689A420DD17B681B68002B09D06A4BED
:10279000DB681B0903F007035A1C7B685B689A42DD
:1027A00044D00123FB7341E07B681B68022B0CD0F3
:1027B000032B13D0012B20D15F4B1B6803F00203C6
:1027C000002B1DD10123FB731AE05B4B1B6803F444
:1027D0008063002B16D10123FB7313E0564B1B685B
:1027E00003F40033002B0FD1534B1B6803F48023F9
:1027F000002B09D10123FB7306E00123FB7304E0E6
:1028000000BF02E000BF00E000BFFB7B002B0DD14A
:102810004948494BDB6823F073027B6819687B6881
:102820005B68013B1B010B431343C360FB7B002B25
:102830007DD1414A404B1B6823F080631360FDF754
:10284000F9FEB86009E0FDF7F5FE0246BB68D31A51
:10285000022B02D90323FB7305E0374B1B6803F0FF
:102860000063002BEFD1FB7B002B60D13B68002B7A
:1028700011D13148304B1B6923F41F3323F44073CB
:102880007A68926811027A68D268120952040A437F
:102890001343036127E03B68012B12D12648264BE6
:1028A0001B6923F4C00323F4FE437A689268110283
:1028B0007A6812695208013A52050A4313430361C8
:1028C00011E01D481C4B1B6923F0C06323F4FE4339
:1028D0007A68926811027A6852695208013A52067F
:1028E0000A4313430361144A134B1B6843F080638C
:1028F0001360FDF79FFEB86009E0FDF79BFE0246FE
:10290000BB68D31A022B02D90323FB7305E00A4BE1
:102910001B6803F00063002BEFD0FB7B002B06D17C
:102920000549054B1A697B689B6913430B61FB7B67
:1029300018461037BD4680BD0010024080B584B0F7
:1029400000AF786039600023FB73684BDB6803F0ED
:102950000303002B18D0654BDB6803F003027B6890
:102960001B689A420DD17B681B68002B09D05F4B16
:10297000DB681B0903F007035A1C7B685B689A42FB
:1029800044D00123FB7341E07B681B68022B0CD011
:10299000032B13D0012B20D1544B1B6803F00203EF
:1029A000002B1DD10123FB731AE0504B1B6803F46D
:1029B0008063002B16D10123FB7313E04B4B1B6884
:1029C00003F40033002B0FD1484B1B6803F4802322
:1029D000002B09D10123FB7306E00123FB7304E004
:1029E00000BF02E000BF00E000BFFB7B002B0DD169
:1029F0003E483E4BDB6823F073027B6819687B68B6
:102A00005B68013B1B010B431343C360FB7B002B43
:102A100067D1364A354B1B6823F080531360FDF7AE
:102A200009FEB86009E0FDF705FE0246BB68D31A4F
:102A3000022B02D90323FB7305E02C4B1B6803F028
:102A40000053002BEFD1FB7B002B4AD13B68002BBE
:102A500011D12648254B5B6923F41F3323F44073BF
:102A60007A68926811027A68D268120952040A439D
:102A70001343436111E01D481C4B5B6923F0C063A5
:102A800023F4FE437A68926811027A681269520848
:102A9000013A52060A4313434361144A134B1B681D
:102AA00043F080531360FDF7C5FDB86009E0FDF702
:102AB000C1FD0246BB68D31A022B02D90323FB7364
:102AC00005E00A4B1B6803F00053002BEFD0FB7BA3
:102AD000002B06D10549054B5A697B685B69134396
:102AE0004B61FB7B18461037BD4680BD001002408D
:102AF00080B582B000AF78607B68002B01D10123E4
:102B000043E07B6893F87130DBB2002B06D17B6821
:102B1000002283F87020786801F0E6FD7B682422AB
:102B200083F871207B681B687A681268126822F04B
:102B300001021A60786800F0B5F90346012B01D153
:102B4000012322E07B685B6A002B02D0786800F0EA
:102B5000E7FC7B681B687A681268526822F490422E
:102B60005A607B681B687A681268926822F02A02B1
:102B70009A607B681B687A681268126842F00102EA
:102B80001A60786800F06EFD034618460837BD46A7
:102B900080BD80B582B000AF78607B68002B01D12A
:102BA00001232AE07B68242283F871207B681B685C
:102BB0007A681268126822F001021A607B681B684A
:102BC00000221A607B681B6800225A607B681B68C1
:102BD00000229A60786801F02DFE7B6800225A6717
:102BE0007B68002283F871207B68002283F87220C2
:102BF0007B68002283F87020002318460837BD4602
:102C000080BD80B588B002AFF860B9603B60134604
:102C1000FB8000237B61FB6893F87130DBB2202BD3
:102C200077D1BB68002B02D0FB88002B01D1012398
:102C300070E0FB6893F87030012B01D1022369E04A
:102C4000FB68012283F87020FB6800225A67FB684A
:102C5000212283F87120FDF7EDFC7861FB68FA888A
:102C6000A3F85020FB68FA88A3F8522034E03B68B0
:102C700000937B6900228021F86800F03CFD034648
:102C8000002B01D0032345E0FB689B68B3F5805F10
:102C900011D1FB681B69002B0DD1BB683B61FB6840
:102CA0001B683A691288C2F3080292B21A85BB689F
:102CB0000233BB6007E0FB681A68BB68591CB96047
:102CC0001B789BB21385FB68B3F852309BB2013B73
:102CD0009AB2FB68A3F85220FB68B3F852309BB25B
:102CE000002BC4D13B6800937B6900224021F86827
:102CF00000F001FD0346002B01D003230AE0FB682E
:102D0000202283F87120FB68002283F870200023C2
:102D100000E0022318461837BD4680BD80B58AB052
:102D200002AFF860B9603B601346FB800023FB6193
:102D3000FB6893F87230DBB2202B40F0AD80BB68AB
:102D4000002B02D0FB88002B01D10123A5E0FB68FA
:102D500093F87030012B01D102239EE0FB68012221
:102D600083F87020FB6800225A67FB68222283F8F0
:102D70007220FDF75FFCF861FB68FA88A3F8582021
:102D8000FB68FA88A3F85A20FB689B68B3F5805F5C
:102D90000ED1FB681B69002B05D1FB6840F2FF12C6
:102DA000A3F85C2028E0FB68FF22A3F85C2023E066
:102DB000FB689B68002B0DD1FB681B69002B04D1BD
:102DC000FB68FF22A3F85C2016E0FB687F22A3F8D3
:102DD0005C2011E0FB689B68B3F1805F0CD1FB685D
:102DE0001B69002B04D1FB687F22A3F85C2003E061
:102DF000FB683F22A3F85C20FB68B3F85C307B8360
:102E00003AE03B680093FB6900222021F86800F05B
:102E100072FC0346002B01D003233EE0FB689B6855
:102E2000B3F5805F12D1FB681B69002B0ED1BB6824
:102E30007B61FB681B689B8C9AB27B8B13409AB2B8
:102E40007B691A80BB680233BB600CE0BB685A1C0C
:102E5000BA60FA681268928C92B2D1B27A8BD2B20E
:102E60000A40D2B21A70FB68B3F85A309BB2013BE9
:102E70009AB2FB68A3F85A20FB68B3F85A309BB2A9
:102E8000002BBED1FB68202283F87220FB68002251
:102E900083F87020002300E0022318462037BD4647
:102EA00080BD00002DE9B04388B000AF78600023FA
:102EB000FB611023FB7600237B8100237B610023D1
:102EC000FB740023FB607B689A687B681B691A436C
:102ED0007B685B691A437B68DB691343FB617B6832
:102EE0001A687B681B681968AA4B0B40F9690B4389
:102EF00013607B681B687A681268526822F440513C
:102F00007A68D2680A435A607B689B69FB617B6878
:102F10001B68A14A934204D07B681B6AFA69134379
:102F2000FB617B681B687A681268926822F43061E2
:102F3000FA690A439A607B681B68984A934221D1D8
:102F4000974BD3F8883003F00303032B16D801A264
:102F500052F823F0652F0008712F00086B2F00082E
:102F6000772F00080123FB76E4E00223FB76E1E003
:102F70000423FB76DEE00823FB76DBE01023FB7600
:102F800000BFD7E07B681B68864A934234D1844BEC
:102F9000D3F8883003F00C030C2B29D801A252F887
:102FA00023F000BFD92F0008F12F0008F12F0008EF
:102FB000F12F0008E52F0008F12F0008F12F00087D
:102FC000F12F0008DF2F0008F12F0008F12F000873
:102FD000F12F0008EB2F00080023FB76AAE0022364
:102FE000FB76A7E00423FB76A4E00823FB76A1E0B0
:102FF0001023FB7600BF9DE07B681B686A4A934202
:1030000020D1674BD3F8883003F03003102B0FD05A
:10301000102B02D8002B05D010E0202B05D0302B30
:1030200009D00BE00023FB7684E00223FB7681E0ED
:103030000423FB767EE00823FB767BE01023FB76FF
:1030400000BF77E07B681B68584A934220D1544BFD
:10305000D3F8883003F0C003402B0FD0402B02D8A8
:10306000002B05D010E0802B05D0C02B09D00BE041
:103070000023FB765EE00223FB765BE00423FB7615
:1030800058E00823FB7655E01023FB7600BF51E0A3
:103090007B681B68464A934224D1414BD3F8883061
:1030A00003F44073B3F5807F12D0B3F5807F02D86C
:1030B000002B07D012E0B3F5007F06D0B3F5407FB8
:1030C00009D00BE00023FB7634E00223FB7631E0ED
:1030D0000423FB762EE00823FB762BE01023FB76FF
:1030E00000BF27E07B681B682B4A934223D12C4BFF
:1030F000D3F8883003F44063B3F5806F12D0B3F592
:10310000806F02D8002B07D012E0B3F5006F06D015
:10311000B3F5406F09D00BE00023FB760AE00223F1
:10312000FB7607E00423FB7604E00823FB7601E04E
:103130001023FB7600BF7B681B68174A934240F060
:10314000EE80FB7E082B37D801A252F823F000BF97
:1031500075310008B93100087D310008B931000827
:1031600083310008B9310008B9310008B9310008CD
:103170008B310008FEF780FFF86020E00D4BFB600C
:103180001DE0FEF7D1FEF86019E04FF40043FB604C
:1031900015E000BFF369FFEF0080004000380140F8
:1031A000001002400044004000480040004C004035
:1031B000005000400024F4000123FB7400BFFB68B2
:1031C000002B00F09E817B685A6813465B001A440E
:1031D000FB689A4205D87B685B681A03FB689A42D1
:1031E00002D20123FB748CE1FB7E082B00F2848069
:1031F00001A252F823F000BF1D320008F932000886
:103200005D320008F932000891320008F9320008F6
:10321000F9320008F9320008CF320008FEF72CFF1F
:1032200003464FF000044FEA042949EA13694FEAC4
:1032300003287B685B685B084FF0000418EB030011
:1032400049EB04017B685B684FF000041A46234693
:10325000FDF716F803460C467B6150E07B685B681F
:103260005B084FF00004AD494FF0000213EB01087A
:1032700044EB0209404649467B685B684FF0000416
:103280001A462346FCF7FCFF03460C467B6136E0FA
:10329000FEF74AFE03461A464FF000031D0245EAB8
:1032A000126514027B685B685B081A464FF00003E6
:1032B000A01845EB03017B685B684FF000041A46D9
:1032C0002346FCF7DDFF03460C467B6117E07B6875
:1032D0005B685B084FF0000413F5000044F1000147
:1032E0007B685B684FF000041A462346FCF7C8FF72
:1032F00003460C467B6102E00123FB7400BF7B693F
:10330000B3F5407F08D37B69B3F5801F04D27B6897
:103310001B687A69DA60F4E00123FB74F1E07B68F2
:10332000DB69B3F5004F7ED1FB7E082B5BD801A291
:1033300052F823F05933000877330008953300081A
:10334000E7330008B1330008E7330008E73300082B
:10335000E7330008CF330008FEF78EFE03465A001D
:103360007B685B685B081A447B685B68B2FBF3F3BD
:103370009BB27B613AE0FEF795FE03465A007B68FC
:103380005B685B081A447B685B68B2FBF3F39BB233
:103390007B612BE07B685B685B0803F1F47303F5EA
:1033A00090437A685268B3FBF2F39BB27B611DE0F5
:1033B000FEF7BAFD03465A007B685B685B081A4457
:1033C0007B685B68B2FBF3F39BB27B610EE07B68CA
:1033D0005B685B0803F580327B685B68B2FBF3F3E4
:1033E0009BB27B6102E00123FB7400BF7B690F2B62
:1033F00016D97B69B3F5803F12D27B699BB223F06B
:103400000F037B817B695B089BB203F007039AB2D1
:103410007B8913437B817B681B687A89DA6070E063
:103420000123FB746DE0FB7E082B59D801A252F8F2
:1034300023F000BF593400087534000891340008A7
:10344000E1340008AD340008E1340008E13400083C
:10345000E1340008C9340008FEF70EFE02467B681E
:103460005B685B081A447B685B68B2FBF3F39BB252
:103470007B6138E0FEF716FE02467B685B685B08FE
:103480001A447B685B68B2FBF3F39BB27B612AE072
:103490007B685B685B0803F5740303F510537A6877
:1034A0005268B3FBF2F39BB27B611CE0FEF73CFD7C
:1034B00002467B685B685B081A447B685B68B2FB0A
:1034C000F3F39BB27B610EE07B685B685B0803F5FE
:1034D00000427B685B68B2FBF3F39BB27B6102E066
:1034E0000123FB7400BF7B690F2B08D97B69B3F5FF
:1034F000803F04D27B681B687A69DA6001E00123AF
:10350000FB747B6800221A667B6800225A66FB7C8B
:1035100018462037BD46BDE8B08300BF000024F444
:1035200080B483B000AF78607B685B6A03F001030E
:10353000002B0AD07B681B687A681268526822F4F4
:1035400000317A68926A0A435A607B685B6A03F0CA
:103550000203002B0AD07B681B687A6812685268E5
:1035600022F480317A68D26A0A435A607B685B6AC7
:1035700003F00403002B0AD07B681B687A6812688A
:10358000526822F480217A68126B0A435A607B6881
:103590005B6A03F00803002B0AD07B681B687A681B
:1035A0001268526822F400417A68526B0A435A60EA
:1035B0007B685B6A03F01003002B0AD07B681B68F2
:1035C0007A681268926822F480517A68926B0A4392
:1035D0009A607B685B6A03F02003002B0AD07B684B
:1035E0001B687A681268926822F400517A68D26B7C
:1035F0000A439A607B685B6A03F04003002B1AD091
:103600007B681B687A681268526822F480117A68B5
:10361000126C0A435A607B681B6CB3F5801F0AD199
:103620007B681B687A681268526822F4C0017A6865
:10363000526C0A435A607B685B6A03F08003002B7C
:103640000AD07B681B687A681268526822F40021ED
:103650007A68926C0A435A6000BF0C37BD465DF829
:10366000047B704780B586B002AF78600023FB60B2
:103670007B6800225A67FCF7DDFFF8607B681B68F7
:103680001B6803F00803082B0ED16FF07E430093F4
:10369000FB6800224FF40011786800F02CF8034614
:1036A000002B01D0032322E07B681B681B6803F01A
:1036B0000403042B0ED16FF07E430093FB680022BD
:1036C0004FF48001786800F016F80346002B01D013
:1036D00003230CE07B68202283F871207B68202282
:1036E00083F872207B68002283F87020002318463C
:1036F0001037BD4680BD80B584B000AFF860B960BA
:103700003B601346FB712CE0BB69B3F1FF3F28D04F
:10371000BB69002B07D0FCF78DFF02463B68D21A2D
:10372000BB699A421DD9FB681B68FA681268126867
:1037300022F4D0721A60FB681B68FA6812689268FB
:1037400022F001029A60FB68202283F87120FB6856
:10375000202283F87220FB68002283F87020032364
:103760000FE0FB681B68DA69BB681A40BB689A42C5
:103770000CBF01230023DBB21A46FB799A42C3D067
:10378000002318461037BD4680BD000080B58AB0C2
:1037900000AF07F1140300221A605A609A60DA60E1
:1037A0001A612B4A2A4BDB6C43F00403D364284B89
:1037B000DB6C03F004033B613B69254A244BDB6C63
:1037C00043F08003D364224BDB6C03F08003FB6087
:1037D000FB681F4A1E4BDB6C43F00103D3641C4B98
:1037E000DB6C03F00103BB60BB68194A184BDB6C50
:1037F00043F00203D364164BDB6C03F002037B60DF
:103800007B68002220214FF09040FDF7BDFA4FF475
:1038100000537B610F4BBB610023FB6107F1140375
:1038200019460D48FDF714F820237B610123BB6185
:103830000023FB6100233B6207F1140319464FF09C
:103840009040FDF705F800BF2837BD4680BD00BF9A
:1038500000100240000021100008004880B500AFB1
:103860001B4B1C4A1A601A4B1B4A5A60184B002209
:103870009A60174B0122DA60154B00221A61144B33
:1038800000225A61124B00229A61114B0022DA6128
:103890000F4B00221A620E48FDF7A0FA0346002BD8
:1038A00001D000F0DAFD00210948FDF7FFFD0346D5
:1038B000002B01D000F0D1FD00210548FDF741FEAD
:1038C0000346002B01D000F0C8FD00BF80BD00BF43
:1038D0002002002000540040EC9C901080B58AB07B
:1038E00000AF786007F1140300221A605A609A60F2
:1038F000DA601A617B681B68174A934227D1174A1E
:10390000164BDB6C43F00203D364144BDB6C03F007
:1039100002033B613B69C0237B611223BB6101232E
:10392000FB6103233B6204237B6207F11403194606
:103930000B48FCF78DFF094A084B9B6D43F40013BD
:103940009365064B9B6D03F40013FB60FB6800BF9F
:103950002837BD4680BD00BF005400400010024023
:103960000004004880B582B000AF78603960102252
:103970003968786801F012F83B6818460837BD4688
:1039800080BD000080B588B000AF7860224A07F1A2
:10399000180392E803001860043319701F4B1B884A
:1039A0003B8207F1120300221A609A801B4B1B888E
:1039B0003B8107F10A0300210A461A800A469A70E1
:1039C0007868FCF705FC0346BB770023FB7711E022
:1039D00007F110031846FCF7FBFB03461A4607F1F4
:1039E000100313440E491A460B461B881380FB7FB5
:1039F0000133FB77FA7FBB7FC3F106039A42E7DB13
:103A000007F110037968184600F0F6FF0023184606
:103A10002037BD4680BD00BF485400085054000800
:103A2000445400082DE9F04FADF5057D02AF07F1D4
:103A30004C0318606B46BB6407F5BC7050231A46F4
:103A4000002100F0ADFFC82387F8003297F800226C
:103A50001346013BC7F8FC31D3B24FF00004E60037
:103A600046EA5376DD00D3B24FF000044FEAC409B2
:103A700049EA53794FEAC30813460733DB08DB00F2
:103A8000ADEB030D02AB0033C7F8F83197F8002215
:103A90001346013BC7F8F431D3B24FF000044FEAAC
:103AA000C40B4BEA537B4FEAC30AD3B24FF0000476
:103AB000E1007964796C41EA53717964DB003B641D
:103AC00013460733DB08DB00ADEB030D02AB00331D
:103AD000C7F8F03197F800221346013BC7F8EC31E4
:103AE000D3B24FF00004E100F963F96B41EA53717E
:103AF000F963DB00BB63D3B24FF00004E1007963EC
:103B0000796B41EA53717963DB003B6313460733FA
:103B1000DB08DB00ADEB030D02AB0033C7F8E83187
:103B200097F800221346013BC7F8E431D3B24FF0B7
:103B30000004E100F962F96A41EA5371F962DB00BD
:103B4000BB62D3B24FF00004E1007962796A41EAC6
:103B500053717962DB003B6213460733DB08DB00FD
:103B6000ADEB030D02AB0033C7F8E03197F800224C
:103B70001346013BC7F8DC31D3B24FF00004E1003B
:103B8000F961F96941EA5371F961DB00BB61D3B2B4
:103B90004FF00004E1007961796941EA537179617C
:103BA000DB003B6113460733DB08DB00ADEB030DA5
:103BB00002AB0033C7F8D83197F800221346013B17
:103BC000C7F8D431D3B24FF00004E100F960F968CE
:103BD00041EA5371F960DB00BB60D3B24FF00004DF
:103BE000E1007960796841EA53717960DB003B60FC
:103BF00013460733DB08DB00ADEB030D02AB0033EC
:103C0000C7F8D0310023C7F80432002387F8CF313A
:103C10009DE0D7F8F81197F800329AB264239448DF
:103C2000FFF77CF8034687F8CE31D7F8F01197F804
:103C300000329AB264238E48FFF770F8D7F8E81183
:103C400097F800329AB264238948FFF767F8D7F8EB
:103C5000E01197F800329AB264238548FFF75EF8C6
:103C6000D7F8D81197F800329AB264238048FFF74A
:103C700055F8D7F8D01197F800329AB264237C48EF
:103C8000FFF74CF8D7F8F8317A49184600F0C3FE30
:103C9000C7F80402022387F8CF31D7F80432002B8B
:103CA00007D1D7F8F0317349184600F0B4FEC7F8D1
:103CB0000402D7F80432002B07D1D7F8E8316D4958
:103CC000184600F0A8FEC7F80402D7F80432002B0B
:103CD00007D1D7F8E0316749184600F09CFEC7F8D5
:103CE0000402D7F80432002B07D1D7F8D831614944
:103CF000184600F090FEC7F80402D7F80432002BF3
:103D00000AD1002387F8CF31D7F8D0315949184666
:103D100000F081FEC7F80402D7F8043293F84A3065
:103D200087F8CD31D7F8043293F84B3087F8CC318F
:103D300000F07AFCD7F804324A331B780D2B06D0FA
:103D4000D7F804324B331B780A2B7FF462AFD7F8D5
:103D500004322D331B78312B05D0D7F804322D33A4
:103D60001B78322BE6D107F5A67300221A605A6041
:103D70009A60DA601A6107F59C7300221A605A6033
:103D80009A60DA601A6107F5927300221A605A602D
:103D90009A60DA601A61D7F804322D331B7887F8FD
:103DA000CB31002387F80332002387F8023222E068
:103DB00097F8023212331A46D7F8043213441B78AC
:103DC0002E2B13D097F8033297F8022212321146A5
:103DD000D7F804220A44127807F502710B4403F85D
:103DE000982C97F80332013387F8033297F80232A0
:103DF000013387F8023297F80232062BD8D9002314
:103E000087F87731002387F80332002387F80132DF
:103E100022E097F801321F331A46D7F804321344D0
:103E20001B782E2B13D097F8033297F801221F32FC
:103E30001146D7F804220A44127807F502710B44A0
:103E400003F8A02C97F80332013387F8033297F870
:103E50000132013387F8013297F80132072BD8D9A4
:103E6000002387F86F31002387F8033218E000BF82
:103E7000E40200205854000897F8033297F8032210
:103E800036321146D7F804220A44127807F5027137
:103E90000B4403F8A82C97F80332013387F8033258
:103EA00097F8033236331A46D7F8043213441B7896
:103EB0002E2BE1D107F5B873184600F028FD034614
:103EC0001A4607F5A67319461046FFF74BFD07F58E
:103ED000B473184600F01BFD03461A4607F59C73A1
:103EE00019461046FFF73EFD07F5B073184600F07F
:103EF0000EFD03461A4607F5927319461046FFF762
:103F000031FD07F5B873184600F001FD03461A4667
:103F100007F14C031B681A6007F14C031B681C1D5A
:103F200007F5B473184600F0F2FC0346236007F16E
:103F30004C031B6803F1080407F5B073184600F042
:103F4000E6FC0246642303FB02F3236007F14C0303
:103F50001B681B6807F1F00211461846FFF702FDC7
:103F600003461846FFF70EFD07F14C031B680433A8
:103F70001B6807F1BC0211461846FFF7F3FC034625
:103F80001846FFF7FFFC07F14C031B6808331B685A
:103F900007F1880211461846FFF7E4FC034618466D
:103FA000FFF7F0FC07F1BC0107F1F00207F1540044
:103FB00007F1880300930B46084900F0F9FC002341
:103FC000C7F8043207F14C031B68D7F848D01846ED
:103FD00007F50377BD46BDE8F08F00BF60540008C9
:103FE00080B584B004AF094B1B789AB24FF47A7352
:103FF000029301230193064B00930123BE21054840
:10400000FCF77AFF00BFBD4680BD00BF0000002066
:10401000040000202002002080B584B004AF184BBB
:104020001B789AB24FF47A73029301230193154BD4
:1040300000930123BA211448FCF75EFF134B1B7851
:104040009AB24FF47A73029301230193104B0093B9
:104050000123BA210C48FCF74FFF0E4B1B789AB294
:104060004FF47A730293012301930B4B00930123C6
:10407000BA210548FCF740FF00BFBD4680BD00BF28
:10408000080000200C00002020020020100000206A
:1040900014000020180000201C00002080B5D4B0BF
:1040A00002AF07F10C03186007F1080319603B1D0C
:1040B0001A6007F1C00380220021184600F070FC4E
:1040C000794A07F1B40307CA83E807000C2387F88D
:1040D000443107F13403184680231A46002100F0CA
:1040E0005FFC07F12C03714A92E803001860043367
:1040F000197007F124036E4A12881A8002330022D5
:104100001A609A8007F11C03694A12881A800233E8
:1041100000221A609A8007F11403654A12881A80F7
:10412000023300221A609A8007F10C031868FCF72A
:104130004FF8034687F8433107F108031868FCF786
:1041400047F8034687F842313B1D1868FCF740F8F2
:10415000034687F84131002387F8473113E007F120
:1041600024031846FCF734F803461A4607F12403E3
:10417000134450491A460B461B88138097F8473161
:10418000013387F8473197F8472197F84331C3F156
:1041900006039A42E3DB07F10C0307F124021968D6
:1041A000104600F029FC002387F8463113E007F1A0
:1041B0001C031846FCF70CF803461A4607F11C03CB
:1041C00013443C491A460B461B88138097F8463126
:1041D000013387F8463197F8462197F84231C3F109
:1041E00006039A42E3DB07F1080307F11C02196892
:1041F000104600F001FC002387F8453113E007F179
:1042000014031846FBF7E4FF03461A4607F11403AC
:10421000134428491A460B461B88138097F84531EA
:10422000013387F8453197F8452197F84131C3F1BB
:1042300006039A42E3DB3B1D07F11402196810469E
:1042400000F0DAFB07F1240107F12C0207F1C000AE
:1042500007F11403019307F11C0300930B46164961
:1042600000F0A6FB07F1C0031846FBF7B1FF0346B9
:104270009AB207F1C0014FF47A731048FEF7C1FCFF
:1042800007F1340141F2883308220C48FEF746FD5D
:10429000034687F840316420FCF7D8F900BF07F5E2
:1042A000A477BD4680BD00BFAC5400084854000848
:1042B0005054000844540008945400086C02002034
:1042C000B0B592B000AFFCF763F900F04BF8FFF720
:1042D0005DFAFFF7C3FA00F07BF900F0D5F900F0C2
:1042E000A3F9FFF77DFEFFF797FE6420FCF7AEF918
:1042F00000F09AF907F13C031846FFF793FBFB6BBC
:1043000007F1280211461846FFF72CFB04463B6CC8
:1043100007F1140211461846FFF724FB05467B6C93
:104320003A4611461846FFF71DFB03461A46294632
:104330002046FFF7B3FE0A48FEF72BFC0848FEF7BD
:10434000D7FB0748FEF725FC0548FEF7D1FB2021E7
:104350004FF09040FCF730FD6420FCF777F9F0E770
:104360006C02002080B5B8B000AF07F19C03442276
:104370000021184600F014FB07F1880300221A60A0
:104380005A609A60DA601A613B468822002118461A
:1043900000F006FB0223C7F89C304FF48073C7F887
:1043A000A8301023C7F8AC300223C7F8C43002236A
:1043B000C7F8C8300123C7F8CC300A23C7F8D0307B
:1043C0000723C7F8D4300223C7F8D8300223C7F830
:1043D000DC3007F19C031846FDF764F90346002B17
:1043E00001D000F03AF80F23C7F888300323C7F84C
:1043F0008C300023C7F890300023C7F89430002396
:10440000C7F8983007F1880304211846FDF7AEFC81
:104410000346002B01D000F020F863233B6000230B
:10442000BB630023FB630023FB6400233B653B4627
:104430001846FDF7ADFE0346002B01D000F00DF845
:104440004FF40070FDF7D8F80346002B01D000F0C0
:1044500004F800BFE037BD4680BD80B400AF00BFA8
:10446000BD465DF8047B704780B483B000AF0F4A4F
:104470000E4B1B6E43F0010313660C4B1B6E03F0D7
:1044800001037B607B68094A084B9B6D43F08053B6
:104490009365064B9B6D03F080533B603B6800BF08
:1044A0000C37BD465DF8047B704700BF001002402A
:1044B00080B400AF00BFBD465DF8047B704780B498
:1044C00000AFFEE780B400AFFEE780B400AFFEE7C8
:1044D00080B400AFFEE780B400AF00BFBD465DF81A
:1044E000047B704780B400AF00BFBD465DF8047B1D
:1044F000704780B400AF00BFBD465DF8047B7047D5
:1045000080B500AFFCF788F800BF80BD80B584B0EF
:1045100000AF7860114B1B68002B02D10F4B104A83
:104520001A600E4B1B68FB600C4B1A687B681344C7
:104530006A46934207D900F0EFF902460C23136054
:104540004FF0FF3306E0054B1A687B681344034ABB
:104550001360FB6818461037BD4680BD100200206E
:10456000D803002080B400AF174A174BD3F8883027
:1045700043F47003C2F88830144A144B1B6843F0AC
:1045800001031360114B00229A60104A0F4B1B6805
:1045900023F0A85323F4102313600C4B4FF48052E4
:1045A000DA600A4A094B1B6823F480231360074B27
:1045B00000229A61044B4FF000629A6000BFBD4632
:1045C0005DF8047B704700BF00ED00E00010024082
:1045D00080B500AF124B134A1A60114B4FF4E13211
:1045E0005A600F4B00229A600D4B0022DA600C4B90
:1045F00000221A610A4B0C225A61094B00229A616F
:10460000074B00221A62064B00225A620448FEF74A
:104610006FFA0346002B01D0FFF71FFF00BF80BDDC
:104620006C0200200080004080B500AF144B154A9A
:104630001A60134B4FF416525A60114B00229A60C5
:104640000F4B0022DA600E4B00221A610C4B0C2239
:104650005A610B4B00229A61094B0022DA61084B28
:1046600000221A62064B00225A620548FEF740FA01
:104670000346002B01D0FFF7F0FE00BF80BD00BF56
:10468000E40200200038014080B500AF144B154A09
:104690001A60134B4FF4E1325A60114B00229A60BA
:1046A0000F4B0022DA600E4B00221A610C4B0C22D9
:1046B0005A610B4B00229A61094B0022DA61084BC8
:1046C00000221A62064B00225A620548FEF710FAD1
:1046D0000346002B01D0FFF7C0FE00BF80BD00BF26
:1046E0005C0300200044004080B58EB000AF7860CD
:1046F00007F1240300221A605A609A60DA601A6196
:104700007B681B68464A934228D1464A454BDB6D7D
:1047100043F00103D365434BDB6D03F001033B62C0
:104720003B6A404A3F4BDB6C43F00403D3643D4B90
:10473000DB6C03F00403FB61FB6903237B62022350
:10474000BB620023FB6203233B6308237B6307F107
:10475000240319463448FCF77BF85DE07B681B684E
:10476000324A93422AD12F4A2E4B1B6E43F4804388
:1047700013662C4B1B6E03F48043BB61BB69294A53
:10478000284BDB6C43F00103D364264BDB6C03F056
:1047900001037B617B694FF4C0637B620223BB62D0
:1047A0000023FB6203233B6307237B6307F124039E
:1047B00019464FF09040FCF74BF82DE07B681B68E2
:1047C0001B4A934228D1174A164B9B6D43F4003382
:1047D0009365144B9B6D03F400333B613B69114AB5
:1047E000104BDB6C43F00103D3640E4BDB6C03F026
:1047F0000103FB60FB680C237B620223BB62002386
:10480000FB6203233B6307237B6307F12403194601
:104810004FF09040FCF71CF800BF3837BD4680BD14
:1048200000800040001002400008004800380140AD
:104830000044004080B582B000AF78607B681B68A0
:10484000194A93420AD1194A184BDB6D23F0010330
:10485000D36503211648FCF7A3F921E07B681B68A8
:10486000144A93420CD1114A104B1B6E23F480431F
:1048700013664FF4C0614FF09040FCF791F90FE0E0
:104880007B681B680C4A93420AD1084A074B9B6D10
:1048900023F4003393650C214FF09040FCF780F92E
:1048A00000BF0837BD4680BD0080004000100240B8
:1048B000000800480038014000440040DFF834D0D0
:1048C000002103E00C4B5B58435004310B480C4B68
:1048D00042189A42F6D30B4A02E0002342F8043B06
:1048E000094B9A42F9D3FFF73DFE00F01BF8FFF7A2
:1048F000E7FCFEE70080012074560008000000205D
:10490000F4010020F4010020D8030020FEE70A2271
:10491000002100F01BB90000014B1868704700BF70
:104920002400002070B50D4E0D4CA41BA4100025D2
:10493000A54209D10B4E0C4C00F078FDA41BA4102D
:104940000025A54205D170BD56F8253098470135A0
:10495000EEE756F8253098470135F2E76C56000827
:104960006C5600086C56000870560008931E222BE7
:1049700010B50C4604D900230B701C46204610BD10
:104980000A2A09D1002807DA2D230B7040420121A1
:10499000214400F0F1F8F1E70021F9E7FFF7E6BF65
:1049A00002440346934200D1704703F8011BF9E724
:1049B0000EB400B59CB04FF402711DABADF81410ED
:1049C000029006906FF000410A48049107914FF65B
:1049D000FF7153F8042BADF816100068019302A97B
:1049E00000F07AF9029B00221A701CB05DF804EB0B
:1049F00003B070472400002010B502461346013270
:104A00001C78002CFAD1013B11F8012B03F8012F7F
:104A1000002AF9D110BDF0B5037833B1034618462A
:104A20005E1C1B7833B91846F0BD0B78002B18BFFD
:104A30000020F0BD4D1E441E15F8012F002AF3D0B2
:104A400014F8017F97423346F6D0E8E72DE9F84F96
:104A50008046894692461F468B465D460A9815F861
:104A6000014B00F0C9F82044467816F008060BD137
:104A70002D2C0BD12C7801260BF1020567B1102FDC
:104A800014D1302C0AD011E0AB46E6E72B2C04BF42
:104A90002C780BF10205F1E7302C27D12B7803F0AD
:104AA000DF03582B4BD16C7810270235002E0CBF3A
:104AB0006FF000414FF000410022B1FBF7FE1046BD
:104AC00007FB1E1CA4F13003092B11D81C46A7427A
:104AD0001DDD531C07D0864516D301D1A44513DB39
:104AE00000FB0740012215F8014BEBE70A27DDE741
:104AF000A4F14103192B01D8373CE8E7A4F1610385
:104B0000192B04D8573CE2E74FF0FF32EBE7531C78
:104B100008D12223C8F800300846BAF1000F07D1A7
:104B2000BDE8F88F06B14042BAF1000F0CD022B1B7
:104B3000013DCAF80050BDE8F88F4D46F9E7302432
:104B4000002FB3D10827B1E7BDE8F88F084B37B580
:104B50001C68084D236A002B08BF2B4600931346A0
:104B60000A4601462046FFF771FF03B030BD00BF83
:104B70002400002088000020F0B51E4C8BB00346B6
:104B80000F466D4604F1200E206861682E4603C66C
:104B9000083474453546F7D121793171911E20686A
:104BA000306022294FF0000104D939700F46384691
:104BB0000BB0F0BD781E0646B3FBF2F50DF1280EE2
:104BC00002FB153373444C1C13F8283C06F8013FD4
:104BD0002B4665B93D557A18CC1AA342E7DA4478DA
:104BE000157800F8015F013302F80149F4E7214626
:104BF000E2E700BF00550008D0F8EC00704782B033
:104C000001B901A942B14BB113780B601278101CA5
:104C100018BF012002B070471046FBE76FF001009B
:104C2000F8E72DE9F0478E689E4282460C46914691
:104C3000984635D88A8912F4906F31D02568096971
:104C40006F1A6569022305EB450595FBF3F508F13D
:104C500001033B449D4238BF1D46530531D52946CB
:104C600000F044FB064650B90C23CAF80030A38973
:104C700043F04003A3814FF0FF30BDE8F0873A4690
:104C8000216900F0C0FAA38923F4906343F0800304
:104C9000A381266165613E44ED1B2660A560464602
:104CA000464528BF464632464946206800F0B6FAD7
:104CB000A3689B1BA36023681E4426600020BDE8F8
:104CC000F0872A4600F070FB06460028E1D12169F2
:104CD000504600F0BDFAC7E72DE9F04F9DB0804681
:104CE00003938B891C060D4616460FD50B696BB9CD
:104CF000402100F0FBFA2860286128B90C23C8F88D
:104D000000304FF0FF30C5E040236B610023099372
:104D100020238DF8293030238DF82A304FF0010BF5
:104D200037463C4614F8013B002B3CD1B7EB060A52
:104D30000BD05346324629464046FFF772FF0130FA
:104D400000F0A380099B534409933B78002B00F0AB
:104D50009C8000234FF0FF32049307930592069343
:104D60008DF853301A93052221785048FBF738FA12
:104D7000671C049BD8B9D90644BF20228DF8532064
:104D80001A0744BF2B228DF8532022782A2A16D0E6
:104D9000079A00210A20274601343B78303B092B33
:104DA00051D9C9B111E0252BC0D02746B9E73F4AF8
:104DB000801A0BFA00F0184304903C46D3E7039A9C
:104DC000111D12680391002A01DB079204E0524290
:104DD00043F00203079204933B782E2B0ED17B788D
:104DE0002A2B07F1010132D1039B1A1D1B68039284
:104DF000002BB8BF4FF0FF33023705932C4C3978A6
:104E000003222046FBF7ECF938B14023001B03FADC
:104E100000F0049B034304930137397825488DF84B
:104E2000281006227E1CFBF7DBF9002835D0224B28
:104E3000FBB9039B073323F0070308330393099B54
:104E40004B4409936CE700FB02320121A3E70023E6
:104E5000059318460A240F4601313A78303A092A58
:104E600003D9002BCAD00590C8E704FB002001231A
:104E7000F1E703AB00932A46104B04A94046AFF379
:104E80000080B0F1FF3F8146D9D1AB895B063FF589
:104E900038AF09981DB0BDE8F08F03AB00932A46E8
:104EA000064B04A9404600F081F8EAE72F550008B8
:104EB000355500083955000800000000234C000853
:104EC0002DE9F04791461F468A680B69DDF820807E
:104ED0009342B8BF1346C9F8003091F84320064604
:104EE0000C4612B10133C9F800302368990642BF5D
:104EF000D9F800300233C9F80030256815F00605EE
:104F000007D104F1190AE368D9F800209B1A9D42E1
:104F100029DB94F843302268003318BF012392063E
:104F20002ED404F1430239463046C047013021D027
:104F30002368E568D9F8002003F00603042B08BFB6
:104F4000AD1AA36822690CBF25EAE57500259342D6
:104F5000C4BF9B1AED184FF000091A344D451BD100
:104F60000020BDE8F0870123524639463046C0474D
:104F7000013003D14FF0FF30BDE8F0870135C2E7C3
:104F8000E1185A1C302081F84300224494F845105F
:104F900082F843100233C4E70123224639463046E3
:104FA000C0470130E6D009F10109D7E72DE9F04308
:104FB00017460A7E85B06E2A984606460C460C9B1C
:104FC00001F1430E00F0BC801AD8632A2ED00AD813
:104FD000002A00F0C880582A00F08A8004F14205B7
:104FE00084F842202AE0642A01D0692AF6D1216897
:104FF0001A6811F0800F23D0111D1960136827E083
:10500000732A00F0B48008D86F2A2AD0702AE5D11C
:105010000A6842F020020A6003E0752A21D0782A4B
:10502000DCD1782284F845206E4964E01A6801F1E9
:105030004205111D1960136884F842300123A3E072
:1050400011F0400F02F104011960D7D0B2F900301D
:10505000002B03DA2D225B4284F8432062490A22A6
:1050600017E02068196810F0800F03D0081D186041
:105070000B6806E010F0400F01F104001860F7D053
:105080000B8859496F2A14BF0A220822002084F88D
:1050900043006568A560002DC0F29C80206820F068
:1050A00004002060002B3FD1002D40F09580754614
:1050B000082A0BD12368DA0708D5236962689A4267
:1050C000DEBF302305F8013C05F1FF35AEEB0503EB
:1050D0002361CDF800803B4603AA21463046FFF706
:1050E000EFFE013055D14FF0FF3005B0BDE8F08341
:1050F00081F845203C492268186812F0800F00F1C1
:1051000004051D6001D0036802E05506FBD5038845
:10511000D00744BF42F0200222601BB9226822F06F
:10512000200222601022B1E77546B3FBF2F002FBC9
:105130001033CB5C05F8013D03460028F5D1B7E7F5
:1051400008681A68496910F0800F04D0101D1860B3
:105150001368196007E010F0400F02F104001860B6
:105160001368F6D01980002323617546B1E71A68E9
:10517000111D19601568626800212846FBF730F898
:1051800008B1401B606063682361002384F84330EA
:105190009FE723692A4639463046C0470130A2D0EE
:1051A00023689B0707D5002504F11909E368039AD2
:1051B0009B1A9D4205DBE068039B9842B8BF1846E6
:1051C00093E701234A4639463046C04701308AD02A
:1051D0000135EBE7002BA7D10B7884F8423004F1BE
:1051E000420565E7515500084055000849B1FF2ABE
:1051F00085BF8A2303600A704FF0FF3098BF0120FB
:1052000070470846704710B5431E0A44914200D1CA
:1052100010BD11F8014B03F8014FF7E7884210B5B4
:1052200001EB020303D8421E99420CD110BD9842F3
:10523000F9D28118D21AD34200D110BD13F8014D12
:1052400001F8014DF7E711F8014B02F8014FEBE7C8
:1052500038B50546002945D051F8043C0C1F002BF9
:10526000B8BFE41800F0D6F81F4A1368104633B9E7
:10527000636014602846BDE8384000F0CCB8A34213
:105280000CD921686218934204BF1A685B68636096
:1052900004BF521822600460ECE713465A680AB152
:1052A000A242FAD919685818A0420BD120680144CB
:1052B000581882421960DDD1106852685A60014462
:1052C0001960D7E702D90C232B60D3E72068211897
:1052D0008A4204BF11685268626004BF09182160E5
:1052E0005C60C7E738BD00BF1402002070B5CD1C5C
:1052F00025F0030508350C2D38BF0C25002D06467A
:1053000001DBA94203D90C233360002070BD00F0FB
:1053100081F8234A1468214691B9224C23681BB9AD
:10532000304600F067F820602946304600F062F809
:10533000431C26D10C233360304600F06CF8E4E7C0
:105340000B685B1B1AD40B2B0FD90B60CD50CC18FC
:10535000304600F060F804F10B00231D20F0070038
:10536000C31A1BD05A42E25070BD8C420DBF636815
:105370004B686360136018BF0C46E9E70C46496848
:10538000CAE7C41C24F00304A04205D0211A304609
:1053900000F030F80130CDD02560D9E770BD00BFF6
:1053A0001402002018020020F8B5074614460E46E5
:1053B00021B91146BDE8F840FFF798BF22B9FFF7C1
:1053C00047FF25462846F8BD00F026F884420FD94D
:1053D00021463846FFF78AFF05460028F2D03146BD
:1053E0002246FFF710FF31463846FFF731FFE9E765
:1053F0003546E7E738B5064C0023054608462360E6
:10540000FFF784F8431C02D1236803B12B6038BD39
:10541000D40300207047704751F8040C0028A0F115
:105420000400BCBF0B58C01870470000F8B500BF9F
:10543000F8BC08BC9E467047F8B500BFF8BC08BC75
:045440009E467047CD
:105444003000000030323838000000000000000056
:10545400000000002447504747410000257325738E
:105464002573000025730D0A0000000041545A0DF5
:105474000A00000041542B4A5354410D0A00000015
:1054840041542B4A4F494E3D25640D0A000000004B
:1054940041542B53454E443D322C257325732573BB
:1054A40025732C300D0A000041542B53454E443DC6
:1054B40030322C0000000000000000000102030450
:1054C400060708090000000001020304A086010089
:1054D400400D0300801A060000350C0040420F0006
:1054E40080841E0000093D0000127A000024F400AC
:1054F40000366E010048E801006CDC0230313233C2
:105504003435363738396162636465666768696A59
:105514006B6C6D6E6F707172737475767778797A5F
:10552400004300504F534958002E00232D302B20A8
:1055340000686C4C0065666745464700303132337D
:1055440034353637383941424344454600303132E8
:105554003334353637383961626364656600002058
:10556400202020202020202028282828282020200F
:1055740020202020202020202020202020202088BF
:105584001010101010101010101010101010100423
:105594000404040404040404041010101010101073
:1055A4004141414141410101010101010101010167
:1055B400010101010101010101011010101010107D
:1055C4004242424242420202020202020202020237
:1055D4000202020202020202020210101010200053
:1055E40000000000000000000000000000000000B7
:1055F40000000000000000000000000000000000A7
:105604000000000000000000000000000000000096
:105614000000000000000000000000000000000086
:105624000000000000000000000000000000000076
:105634000000000000000000000000000000000066
:105644000000000000000000000000000000000056
:105654000000000000000000000000000000000046
:085664004CACFF7F01000000C7
:04566C00B50100087C
:04567000910100089C
:105674002000000083000000100000005000000023
:1056840011000000010000000B00000030000000C9
:1056940000093D0028000020000000000000000078
:1056A40000000000000000000000000000000000F6
:1056B40000000000000000000000000000000000E6
:1056C40000000000000000000000000000000000D6
:1056D40000000000000000000000000000000000C6
:1056E40000000000000000000000000000000000B6
:1056F4000000000000000000430000000000000063
:105704000000000000000000000000000000000095
:105714000000000000000000430000000000000042
:105724000000000000000000000000000000000075
:105734000000000000000000430000000000000022
:105744000000000000000000000000000000000055
:105754000000000000000000430000000000000002
:105764000000000000000000000000000000000035
:1057740000000000000000004300000000000000E2
:105784000000000000000000000000000000000015
:1057940000000000000000004300000000000000C2
:1057A40000000000000000000000000000000000F5
:1057B40000000000000000004300000000000000A2
:1057C40000000000000000000000000000000000D5
:1057D4000000000000000000ED510008FF4B00082D
:1057E40000000000625500082D55000834550008DB
:1057F4003455000834550008345500083455000861
:105804003455000834550008345500083455000850
:10581400FFFFFFFFFFFFFFFFFFFFFFFFFFFF000092
:10582400010041534349490000000000000000000A
:105834000000000000000000000000000000000064
:1058440000004153434949000000000000000000EB
:105854000000000000000000000000000000000044
:045864000000000040
:04000005080048BDEA
:00000001FF
