:020000040800F2
:100000000050002009060008450E00084F0E0008A9
:1000100000000000000000000000000000000000E0
:10002000000000000000000000000000550E000865
:1000300000000000000000005F0E0008690E0008CC
:100040005906000859060008590600085906000814
:100050005906000859060008590600085906000804
:1000600059060008590600085906000859060008F4
:1000700059060008590600085906000859060008E4
:10008000590600085906000859060008000000003B
:1000900059060008590600085906000859060008C4
:1000A00059060008590600085906000859060008B4
:1000B00059060008590600085906000859060008A4
:1000C00010B5064C2378002B07D1054B002B02D02E
:1000D000044800E000BF0123237010BD5C00002035
:1000E000000000002C3C0008044B10B5002B03D08E
:1000F0000349044800E000BF10BDC04600000000F6
:10010000600000202C3C0008002243088B4274D37E
:1001100003098B425FD3030A8B4244D3030B8B4208
:1001200028D3030C8B420DD3FF22090212BA030C11
:100130008B4202D31212090265D0030B8B4219D3F2
:1001400000E0090AC30B8B4201D3CB03C01A524112
:10015000830B8B4201D38B03C01A5241430B8B425A
:1001600001D34B03C01A5241030B8B4201D30B0343
:10017000C01A5241C30A8B4201D3CB02C01A52416A
:10018000830A8B4201D38B02C01A5241430A8B422D
:1001900001D34B02C01A5241030A8B4201D30B0216
:1001A000C01A5241CDD2C3098B4201D3CB01C01A30
:1001B000524183098B4201D38B01C01A524143093A
:1001C0008B4201D34B01C01A524103098B4201D328
:1001D0000B01C01A5241C3088B4201D3CB00C01A95
:1001E000524183088B4201D38B00C01A524143080D
:1001F0008B4201D34B00C01A5241411A00D2014632
:10020000524110467047FFE701B5002000F0F0F8BA
:1002100002BDC0460029F7D076E7704703460B437E
:100220007FD4002243088B4274D303098B425FD3EF
:10023000030A8B4244D3030B8B4228D3030C8B421B
:100240000DD3FF22090212BA030C8B4202D3121201
:10025000090265D0030B8B4219D300E0090AC30BD6
:100260008B4201D3CB03C01A5241830B8B4201D383
:100270008B03C01A5241430B8B4201D34B03C01A6C
:100280005241030B8B4201D30B03C01A5241C30AE4
:100290008B4201D3CB02C01A5241830A8B4201D355
:1002A0008B02C01A5241430A8B4201D34B02C01A3F
:1002B0005241030A8B4201D30B02C01A5241CDD2E4
:1002C000C3098B4201D3CB01C01A524183098B422F
:1002D00001D38B01C01A524143098B4201D34B0118
:1002E000C01A524103098B4201D30B01C01A52417B
:1002F000C3088B4201D3CB00C01A524183088B4202
:1003000001D38B00C01A524143088B4201D34B00EA
:10031000C01A5241411A00D201465241104670475C
:100320005DE0CA0F00D04942031000D34042534061
:1003300000229C4603098B422DD3030A8B4212D321
:10034000FC22890112BA030A8B420CD38901921153
:100350008B4208D3890192118B4204D389013AD090
:10036000921100E08909C3098B4201D3CB01C01A65
:10037000524183098B4201D38B01C01A5241430978
:100380008B4201D34B01C01A524103098B4201D366
:100390000B01C01A5241C3088B4201D3CB00C01AD3
:1003A000524183088B4201D38B00C01A5241D9D2EB
:1003B00043088B4201D34B00C01A5241411A00D26C
:1003C0000146634652415B10104601D34042002B68
:1003D00000D54942704763465B1000D3404201B5E7
:1003E000002000F005F802BD0029F8D016E770479C
:1003F0007047C046002B11D1002A0FD1002900D12F
:10040000002802D00021C943081C07B4024802A1F9
:100410004018029003BDC046D9FFFFFF03B46846F1
:1004200001B5029800F006F8019B9E4602B00CBC94
:100430007047C046F0B557464E464546DE46E0B5E5
:10044000040083B00D00924699468B422FD82CD0E1
:100450004946504600F0AEF829000600200000F0A2
:10046000A9F8331A9846203B9B4600D574E05346C2
:100470005A4693401F005346424693401E00AF42E7
:1004800029D826D05B46A41BBD41002B00DA79E0B9
:10049000002200230092019301235A4693400193C6
:1004A000012342469340009319E08242D0D90022B2
:1004B0000023009201930C9B002B01D01C605D6017
:1004C0000098019903B03CBC90469946A246AB46C1
:1004D000F0BDA342D6D900220023009201934346E7
:1004E000002BE8D0FB0772081A4346467B080EE053
:1004F000AB4201D1A2420CD8A41A9D41012024197B
:100500006D410021013E24184D41002E06D0AB4222
:10051000EED9013E24196D41002EF8D15B460098BA
:10052000019900196941002B22DB2B005A46D34068
:100530002A004446E2401C005B461500002B2CDBE1
:1005400026009E40330026004746BE403200801AF7
:10055000994100900191AEE7424620239B1A5246F2
:10056000DA40414613004A468A4017001F4382E79B
:10057000424620239B1A2A0046469A402300F34015
:100580001343D5E74246202300219B1A0022009105
:1005900001920122DA40019282E74246202326009E
:1005A0009B1ADE402F00B446974066463B0033431B
:1005B000C9E7C04610B5002903D100F007F8203084
:1005C00002E0081C00F002F810BDC0461C21012307
:1005D0001B04984201D3000C10391B0A984201D326
:1005E000000A08391B09984201D30009043902A204
:1005F000105C40187047C04604030202010101016B
:1006000000000000000000000D488546002103E0C6
:100610000C4B5B58435004310B480C4B42189A4228
:10062000F6D30B4A02E0002313600432094B9A42CE
:10063000F9D300F08DFC03F0D5FA00F001F9FEE7E4
:1006400000500020003D0008000000205C00002059
:100650005C000020C8010020FEE7000080B58AB0E1
:1006600000AF334B324AD26A04210A43DA62304B7C
:10067000DB6A042213403B613B692D4B2C4AD26A52
:1006800080210A43DA622A4BDB6A80221340FB6036
:10069000FB68274B264AD26A01210A43DA62244BBF
:1006A000DB6A01221340BB60BB68214B204AD26A3F
:1006B00002210A43DA621E4BDB6A022213407B608E
:1006C0007B68A023DB0500222021180000F038FF02
:1006D0001423FB18802292011A601423FB18154A78
:1006E0005A601423FB1800229A601423FB18124A44
:1006F0001900100000F0A6FD1423FB1820221A6038
:100700001423FB1801225A601423FB1800229A605C
:100710001423FB180022DA601423FA18A023DB0547
:100720001100180000F08EFDC046BD460AB080BD25
:1007300000100240000021100008005080B500AFFA
:10074000204B214A1A601F4B204A5A601D4B002241
:100750009A601C4B0122DA601A4B00221A61194B75
:1007600000225A61174B00229A61164B0022DA616F
:10077000144B00221A62134B180000F0FFFE031EF8
:1007800004D0134B4221180000F02CFB0D4B00212C
:10079000180001F079FB031E04D00D4B492118000D
:1007A00000F020FB074B0021180001F0B9FB031EED
:1007B00004D0074B5021180000F014FBC046BD4682
:1007C00080BDC046E400002000540040380F3000D7
:1007D000443C000880B588B000AF78607B681B6837
:1007E000144A934222D10C23FB18C02292001A60B3
:1007F0000C23FB1812225A600C23FB1801229A606A
:100800000C23FB180322DA600C23FB1804221A6164
:100810000C23FB18084A1900100000F013FD074BC9
:10082000064A926B802189030A439A63C046BD46FB
:1008300008B080BD00540040000400500010024089
:1008400080B500AF00F0C2FB00F00EF8FFF706FF26
:1008500000F014FBFFF772FF00F0C2F800F0B4F9EB
:1008600000F078FAF8E7000080B59EB000AF444B86
:10087000434A126843490A40802109010A431A6029
:100880004023FB1801221A604023FB18A022D20249
:100890005A604023FB1802229A624023FB188022F0
:1008A0005202DA624023FB18C02212031A6340236B
:1008B000FB188022D2035A634023FB18180001F072
:1008C0007DFB031E07D00623FF331A002E4B1100B9
:1008D000180000F087FA2C23FB180F221A602C2333
:1008E000FB1803225A602C23FB1800229A602C2349
:1008F000FB180022DA602C23FB1800221A612C233B
:10090000FB180121180001F0FBFE031E07D0142381
:10091000FF331A001C4B1100180000F063FA3B1D56
:100920000A221A603B1D00221A613B1D00229A61B7
:100930003B1D180002F00AF9031E07D01C23FF33E9
:100940001A00114B1100180000F04CFA02F070F878
:100950000200FA2399001000FFF7D6FB03001800ED
:1009600000F03CFC042000F047FC01235B42002225
:100970000021180000F01CFCC046BD461EB080BD22
:1009800000700040FFE7FFFF583C000880B586B0CC
:1009900002AFF860B9607A60C046FB681B7899B214
:1009A000BA680E4803230093012300F07DFE031E66
:1009B000F3D1C046FB681B7899B27A6807480323D5
:1009C0000093012300F084FF031EF3D1642000F0A4
:1009D00045FBC046BD4604B080BDC046E4000020D3
:1009E00080B500AF5C4A5D495D4B1800FFF7CEFF54
:1009F0005C4A5D495A4B1800FFF7C8FF5B4A5C49E7
:100A0000574B1800FFF7C2FF584B1B781B029AB2D6
:100A1000C0239B0013409AB24F4B1B789BB2D31854
:100A20009BB21AB2534B1A80504B1B789B019AB25F
:100A3000C0239B0013409AB24A4B1B789BB2D31839
:100A40009BB21AB24C4B1A804A4B00229B5EDB10C1
:100A50001AB24A4B1A80484B00229B5EDB101AB236
:100A6000474B1A80474A48493D4B1800FFF78EFF15
:100A7000464A47493A4B1800FFF788FF434B1B781B
:100A80009BB21B029AB23F4B1B789BB2D3189BB20E
:100A90001AB2404B1A80404A4049314B1800FFF7C8
:100AA00075FF3F4A3F492E4B1800FFF76FFF3C4B45
:100AB0001B789BB21B029AB2374B1B789BB2D318A0
:100AC0009BB21AB2384B1A80384A3949244B180065
:100AD000FFF75CFF374A3849214B1800FFF756FFF4
:100AE000344B1B789BB21B029AB2304B1B789BB2E3
:100AF000D3189BB21AB2314B1A80214B00229B5E55
:100B00001A001E4B00215B5ED31A2C4A0021525E54
:100B10001100204A0020125E8A1A5A43284B1A609C
:100B2000274B1A68204B00215B5E1900194B0020EF
:100B30001B5ECB1A19001000FFF770FB03009AB27E
:100B40000E4B00215B5E9BB2D3189BB21AB21D4BB9
:100B50001A80C046BD4680BD7800002004000020F9
:100B6000000000207C000020080000208000002001
:100B70000C00002084000020880000208C00002051
:100B80009000002094000020100000209800002019
:100B9000140000209C000020A0000020180000206D
:100BA000A40000201C000020A8000020AC000020B1
:100BB00020000020B000002024000020B40000200D
:100BC000400100203C01002080B500AF494A4A495D
:100BD0004A4B1800FFF7DAFE494A4A49474B1800CA
:100BE000FFF7D4FE434B1B789B08DBB21AB2464B8F
:100BF0001A80434B1B789B08DBB21AB2434B1A8016
:100C0000434A44493D4B1800FFF7C0FE424A43495E
:100C10003A4B1800FFF7BAFE3F4B1B789BB21B0202
:100C20009AB23B4B1B789BB2D3189BB21AB23C4B87
:100C30001A803C4A3C49314B1800FFF7A7FE3B4A5B
:100C40003B492E4B1800FFF7A1FE384B1B789BB297
:100C50001B029AB2334B1B789BB2D3189BB21AB2C9
:100C6000344B1A80344A3549244B1800FFF78EFE66
:100C7000334A3449214B1800FFF788FE304B1B786C
:100C80009BB21B029AB22C4B1B789BB2D3189BB21F
:100C90001AB22D4B1A801D4B00229B5E1A001A4B74
:100CA00000215B5ED31A284A0021525E11001C4AC3
:100CB0000020125E8A1A5A43244B1A60234B1A688A
:100CC0001C4B00215B5E1900154B00201B5ECB1AEC
:100CD00019001000FFF7A2FA03009AB20A4B002194
:100CE0005B5E9BB2D3189BB21AB2194B1A80C046F6
:100CF000BD4680BDB8000020280000200000002074
:100D0000BC0000202C00002038010020340100200D
:100D1000C000002030000020C4000020340000206B
:100D20004C010020C800002038000020CC0000202A
:100D30003C00002046010020D000002040000020A0
:100D4000D400002044000020440100203001002095
:100D50003A01002080B500AF174A1849184B180017
:100D6000FFF714FE174A1849154B1800FFF70EFE3F
:100D7000164A1749124B1800FFF708FE0E4B1B7856
:100D80001A04104B1B781B02D318104A12789A18B9
:100D9000104B1A600F4B1A680F4B1A600E4B1B68F2
:100DA000002B02DA0D4A944663441B131AB20C4B13
:100DB0001A80C046BD4680BDD80000204C000020EF
:100DC00048000020DC00002050000020E00000204F
:100DD000540000204801002050010020FF0F0000B7
:100DE0003E01002080B582B000AF78603960FEE738
:100DF00080B500AF124B124A526B01210A435A636D
:100E00000F4B0F4A926B802149050A439A630523D1
:100E10005B4200220021180000F0CAF902235B4265
:100E200000220021180000F0C3F901235B420022D8
:100E30000021180000F0BCF9C046BD4680BDC04688
:100E40000010024080B500AFC046BD4680BD80B5F1
:100E500000AFFEE780B500AFC046BD4680BD80B59F
:100E600000AFC046BD4680BD80B500AF00F0E0F8E1
:100E700000F0DCF9C046BD4680BD000080B500AF83
:100E8000164B174A1A60154BE12252025A60134B57
:100E900000229A60114B0022DA60104B00221A6186
:100EA0000E4B0C225A610D4B00229A610B4B002213
:100EB000DA610A4B00221A62084B00225A62074B81
:100EC000180002F0A7F9031E04D0064B44211800B5
:100ED000FFF788FFC046BD4680BDC04654010020D4
:100EE000004400406C3C000880B588B000AF7860DA
:100EF0007B681B68144A934222D1144B134A926BAD
:100F0000802189020A439A630C23FB180C221A6081
:100F10000C23FB1802225A600C23FB1800229A6053
:100F20000C23FB180322DA600C23FB1804221A613D
:100F30000C23FA18A023DB051100180000F082F939
:100F4000C046BD4608B080BD0044004000100240CD
:100F500080B500AF174B174A1268802149000A4339
:100F60001A60144B134AD26813490A40DA60114BD5
:100F7000104A126811490A401A600E4B0D4A9268D5
:100F800001218A439A600B4B0A4A12680C490A40B5
:100F90001A60084B074AD2680A490A40DA60054BD2
:100FA00000221A61084B802212059A60C046BD4695
:100FB00080BDC046001002400C40FF88F6FFF6FEE0
:100FC000FFFFFBFFFFFF02FF00ED00E080B500AF79
:100FD000074B074A126840210A431A60002000F0BC
:100FE00009F8FFF705FF00231800BD4680BDC04685
:100FF0000020024080B582B000AF78600B4B1A68C9
:10100000FA2399001000FFF77FF80300180000F0A2
:10101000E5F8796801235B420022180000F0C8F867
:1010200000231800BD4602B080BDC0465800002015
:1010300080B500AF034B1B685A1C024B1A60C046B8
:10104000BD4680BDC401002080B500AF024B1B68C7
:101050001800BD4680BDC046C401002080B584B0E4
:1010600000AF78600023FB60FFF7EEFF0300FB603A
:10107000C046FFF7E9FF0200FB68D21A7B689A427C
:10108000F7D3C046BD4604B080BD0000B0B582B005
:1010900000AF02003960FB1D1A70FB1D1B787F2B0F
:1010A00032D92F4CFB1D1B781A000F231340083B2D
:1010B00099082B4AFB1D1B7818000F230340083B9F
:1010C0009B0806339B00D31804331B68FA1D127863
:1010D000100003220240D200FF2090400200D243C1
:1010E0001A403B689B01FF201840FB1D1B781D0028
:1010F00003232B40DB00984003001A438B1D9B0009
:10110000E31804331A6027E0164CFB1D1B785BB212
:101110009B081449FA1D127852B29208C03292000C
:101120005258F91D0978080003210140C900FF2029
:1011300088400100C94311403A689201FF201040E5
:10114000FA1D1278150003222A40D20090400200B6
:101150000A43C0339B001A51C046BD4602B0B0BD21
:1011600000ED00E000E100E080B582B000AF786003
:101170007B68013B0C4A934201D9012310E00B4BE1
:101180007A68013A5A6001235B4203211800FFF795
:101190007DFF064B00229A60044B07221A60002351
:1011A0001800BD4602B080BDFFFFFF0010E000E068
:1011B00080B584B000AFB9607A600F23FB18021CC1
:1011C0001A70BA680F23FB181B785BB21100180065
:1011D000FFF75CFFC046BD4604B080BD80B582B05D
:1011E00000AF78607B681800FFF7BEFF03001800AF
:1011F000BD4602B080BD000080B582B000AF78600F
:101200007B68042B06D1084B074A126804210A4365
:101210001A6005E0044B044A126804218A431A60EC
:10122000C046BD4602B080BD10E000E080B500AF12
:1012300000F003F8C046BD4680BD80B500AFC04693
:10124000BD4680BD80B586B000AF786039600023B0
:101250007B610023FB6000233B6155E13B681B6819
:1012600001217A6991400A001340FB60FB68002B62
:1012700000D146E13B685B68022B03D03B685B68AA
:10128000122B23D17B69DA087B6808329200D3588D
:101290003B617B69072213409B000F229A40130099
:1012A000DA433B6913403B613B681A697B6907215C
:1012B0000B409B009A4013003A6913433B617B69E2
:1012C000DA087B68083292003969D1503B685B6864
:1012D000012B0BD03B685B68022B07D03B685B6837
:1012E000112B03D03B685B68122B30D17B689B6865
:1012F0003B617B695B0003229A401300DA433B6940
:1013000013403B613B68DA687B695B009A401300DD
:101310003A6913433B617B683A699A607B685B6812
:101320003B6101227B699A401300DA433B69134019
:101330003B613B685B681B0901221A407B699A404C
:1013400013003A6913433B617B683A695A607B68D2
:101350001B683B617B695B0003229A401300DA4300
:101360003B6913403B613B685B6803221A407B6921
:101370005B009A4013003A6913433B617B683A690A
:101380001A607B68DB683B617B695B0003229A40E3
:101390001300DA433B6913403B613B689A687B6901
:1013A0005B009A4013003A6913433B617B683A69DA
:1013B000DA603B685A6880235B05134000D1A0E0E7
:1013C000574B574A526B01210A435A63554A7B696E
:1013D0009B0802339B009B583B617B6903221340AF
:1013E0009B000F229A401300DA433B6913403B6194
:1013F0007A68A023DB059A421FD07B684A4A934251
:1014000019D07B68494A934213D07B68484A93427B
:101410000DD07B68474A934207D07B68464A934287
:1014200001D105230AE0062308E0042306E0032394
:1014300004E0022302E0012300E000237A69032193
:101440000A40920093403A6913433B6135497B69F6
:101450009B0802339B003A695A50384B1B683B612A
:10146000FB68DA433B6913403B613B685A68802361
:101470005B02134003D03A69FB6813433B612F4B77
:101480003A691A602D4B5B683B61FB68DA433B6944
:1014900013403B613B685A6880239B02134003D092
:1014A0003A69FB6813433B61244B3A695A60234B0A
:1014B0009B683B61FB68DA433B6913403B613B68D7
:1014C0005A6880235B03134003D03A69FB681343D7
:1014D0003B611A4B3A699A60184BDB683B61FB68C9
:1014E000DA433B6913403B613B685A6880239B03A6
:1014F000134003D03A69FB6813433B610F4B3A69D1
:10150000DA607B6901337B613B681A687B69DA408A
:10151000131E00D0A2E6C046BD4606B080BDC04640
:10152000001002400000014000040050000800507C
:10153000000C005000100050001C0050000401403E
:1015400080B582B000AF786008001100BB1C021C9F
:101550001A807B1C0A1C1A707B1C1B78002B04D081
:10156000BB1C1A887B689A6103E0BB1C1A887B68E5
:101570009A62C046BD4602B080BD000080B582B010
:1015800000AF78607B68002B01D1012381E07B688C
:1015900041229B5CDBB2002B07D17B6840220021FB
:1015A00099547B681800FFF715F97B6841222421C4
:1015B00099547B681B687A681268126801218A4313
:1015C0001A607B681B687A68526834490A401A615D
:1015D0007B681B687A681268926831490A409A6091
:1015E0007B68DB68012B08D17B681B687A6892688E
:1015F000802109020A439A6007E07B681B687A68C9
:101600009268842109020A439A607B68DB68022B96
:1016100004D17B681B68802212015A607B681B68BA
:101620007A68126852681F490A435A607B681B68CF
:101630007A681268D2681A490A40DA607B681B68C7
:101640007A6811697A68526911437A68926912025C
:101650000A43DA607B681B687A68D1697A68126A23
:101660000A431A607B681B687A6812681268012155
:101670000A431A607B6800225A647B684122202159
:1016800099547B6800221A637B6842220021995496
:1016900000231800BD4602B080BDC046FFFFFFF02A
:1016A000FF7FFFFF0080000290B589B002AFF860B5
:1016B00008007A6019000A23FB18021C1A8008230C
:1016C000FB180A1C1A8000237B61FB6841229B5C8B
:1016D000DBB2202B00D0F1E0FB6840229B5C012BA9
:1016E00001D10223EBE0FB68402201219954FFF76E
:1016F000ABFC03007B6180231902F8687B690093CF
:101700001923012200F01AFA031E01D00323D6E0A8
:10171000FB68412221219954FB68422210219954EF
:10172000FB6800225A64FB687A685A62FB680822E8
:10173000BA1812885A85FB6800225A63FB685B8DD1
:101740009BB2FF2B11D9FB68FF221A85FB681B8D0A
:10175000DAB280235C040A23FB181988F8685A4B14
:101760000093230000F05AFB79E0FB685B8D9AB28E
:10177000FB681A85FB681B8DDAB280239C040A2360
:10178000FB181988F868504B0093230000F046FBC3
:1017900065E07A69B96AFB68180000F008FA031E70
:1017A00007D0FB685B6C042B01D1012387E0032386
:1017B00085E0FB681B68FA68526A501CF968486249
:1017C00012789A62FB685B8D9BB2013B9AB2FB6810
:1017D0005A85FB681B8D013B9AB2FB681A85FB6832
:1017E0001B8D002B3BD1FB685B8D9BB2002B36D051
:1017F000BA6AF8687B69009313000022802100F028
:101800009DF9031E01D0032359E0FB685B8D9BB259
:10181000FF2B11D9FB68FF221A85FB681B8DDAB2FA
:1018200080235C040A23FB181988F86800230093BE
:10183000230000F0F3FA12E0FB685B8D9AB2FB68BC
:101840001A85FB681B8DDAB280239C040A23FB18DF
:101850001988F86800230093230000F0DFFAFB6882
:101860005B8D9BB2002B94D17A69B96AFB68180032
:1018700000F0DCF9031E07D0FB685B6C042B01D180
:1018800001231CE003231AE0FB681B682022DA61B5
:10189000FB681B68FA68126852680C490A405A6073
:1018A000FB68412220219954FB684222002199546F
:1018B000FB68402200219954002300E00223180015
:1018C000BD4607B090BDC0460020008000E800FE85
:1018D00090B589B002AFF86008007A6019000A2359
:1018E000FB18021C1A800823FB180A1C1A8000230C
:1018F0007B61FB6841229B5CDBB2202B00D0F2E0D5
:10190000FB6840229B5C012B01D10223ECE0FB68C9
:10191000402201219954FFF797FB03007B6180234C
:101920001902F8687B6900931923012200F006F977
:10193000031E01D00323D7E0FB68412222219954E2
:10194000FB68422210219954FB6800225A64FB680C
:101950007A685A62FB680822BA1812885A85FB68AE
:1019600000225A63FB685B8D9BB2FF2B11D9FB6889
:10197000FF221A85FB681B8DDAB280235C040A23E0
:10198000FB181988F8685A4B0093230000F046FAB8
:101990007AE0FB685B8D9AB2FB681A85FB681B8D49
:1019A000DAB280239C040A23FB181988F868504B8C
:1019B0000093230000F032FA66E07A69B96AFB68A6
:1019C000180000F06FF9031E07D0FB685B6C042B56
:1019D00001D1012388E0032386E0FB685B6A591C80
:1019E000FA685162FA681268526AD2B21A70FB68D9
:1019F0001B8D013B9AB2FB681A85FB685B8D9BB21D
:101A0000013B9AB2FB685A85FB681B8D002B3BD1CA
:101A1000FB685B8D9BB2002B36D0BA6AF8687B6995
:101A2000009313000022802100F088F8031E01D0EB
:101A3000032359E0FB685B8D9BB2FF2B11D9FB6838
:101A4000FF221A85FB681B8DDAB280235C040A230F
:101A5000FB181988F86800230093230000F0DEF9D2
:101A600012E0FB685B8D9AB2FB681A85FB681B8DE0
:101A7000DAB280239C040A23FB181988F868002333
:101A80000093230000F0CAF9FB685B8D9BB2002B2A
:101A900093D17A69B96AFB68180000F0C7F8031E91
:101AA00007D0FB685B6C042B01D101231CE00323EE
:101AB0001AE0FB681B682022DA61FB681B68FA6881
:101AC000126852680B490A405A60FB684122202183
:101AD0009954FB68422200219954FB68402200215E
:101AE0009954002300E002231800BD4607B090BDC2
:101AF0000024008000E800FE80B582B000AF78606E
:101B00007B681B689B6902221340022B03D17B6810
:101B10001B6800229A627B681B689B690122134044
:101B2000012B07D07B681B687A68126892690121D3
:101B30000A439A61C046BD4602B080BD80B584B0FC
:101B400000AFF860B9603B60FB1D1A701BE03B689A
:101B5000013318D03B68002B07D0FFF775FA02005D
:101B6000BB69D21A3B689A420DD9FB6841222021F9
:101B70009954FB68422200219954FB6840220021BD
:101B8000995403230FE0FB681B689B69BA681A40ED
:101B9000BB68D31A5A425341DBB21A00FB1D1B78B3
:101BA0009A42D4D000231800BD4604B080BD80B551
:101BB00084B000AFF860B9607A602BE07A68B968E9
:101BC000FB68180000F0CCF8031E01D0012329E0C7
:101BD000BB6801331ED0BB68002B07D0FFF734FA77
:101BE00002007B68D21ABB689A4213D9FB685B6C0F
:101BF00020221A43FB685A64FB6841222021995431
:101C0000FB68422200219954FB684022002199542C
:101C1000032307E0FB681B689B6902221340022B29
:101C2000CCD100231800BD4604B080BD80B584B07F
:101C300000AFF860B9607A6028E07A68B968FB683C
:101C4000180000F08DF8031E01D0012326E0BB68C8
:101C5000002B07D0FFF7F8F902007B68D21ABB68A7
:101C60009A4213D9FB685B6C20221A43FB685A64C2
:101C7000FB68412220219954FB684222002199549B
:101C8000FB68402200219954032307E0FB681B688E
:101C90009B6920221340202BCFD100231800BD4682
:101CA00004B080BD80B584B000AFF860B9607A60E0
:101CB00048E07A68B968FB68180000F051F8031E24
:101CC00001D0012346E0FB681B689B69202213407A
:101CD000202B1CD1FB681B682022DA61FB681B6883
:101CE000FA68126852681D490A405A60FB6800226F
:101CF0005A64FB68412220219954FB68422200214A
:101D00009954FB68402200219954012322E0BB68CA
:101D1000002B07D0FFF798F902007B68D21ABB6846
:101D20009A420FD9FB685B6C20221A43FB685A6405
:101D3000FB68412220219954FB68402200219954DC
:101D4000032307E0FB681B689B6904221340042BF4
:101D5000AFD100231800BD4604B080BD00E800FEEE
:101D600080B584B000AFF860B9607A60FB681B682A
:101D70009B6910221340102B48D11BE0BB68013334
:101D800018D0BB68002B07D0FFF75EF902007B6814
:101D9000D21ABB689A420DD9FB684122202199547E
:101DA000FB68422200219954FB684022002199548B
:101DB00003232CE0FB681B689B6920221340202B27
:101DC000DCD1FB681B681022DA61FB681B682022EB
:101DD000DA61FB681800FFF78FFEFB681B68FA6882
:101DE000126852680C490A405A60FB6804225A641F
:101DF000FB68412220219954FB684222002199541A
:101E0000FB68402200219954012300E000231800C0
:101E1000BD4604B080BDC04600E800FE90B585B068
:101E200000AFF860080011007B600A23FB18021C59
:101E30001A800923FB180A1C1A70FB681B68FA68D1
:101E400012685268396A480D8021C90001400D4866
:101E50000143C94311400A22BA1812889205900D15
:101E60000922BA1812781404FF22120422401043E7
:101E70007A6810433A6A02430A435A60C046BD4634
:101E800005B090BDFF63FF0380B582B000AF7860FE
:101E900039607B6841229B5CDBB2202B38D17B68A8
:101EA00040229B5C012B01D1022332E07B6840225F
:101EB000012199547B684122242199547B681B6835
:101EC0007A681268126801218A431A607B681B686D
:101ED0007A681268126811490A401A607B681B68A8
:101EE0007A68126811683A680A431A607B681B684E
:101EF0007A681268126801210A431A607B684122DD
:101F0000202199547B68402200219954002300E04D
:101F100002231800BD4602B080BDC046FFEFFFFFA0
:101F200080B584B000AF786039600023FB607B68C7
:101F300041229B5CDBB2202B39D17B6840229B5C29
:101F4000012B01D1022333E07B6840220121995407
:101F50007B684122242199547B681B687A68126847
:101F6000126801218A431A607B681B681B68FB604A
:101F7000FB68114A1340FB603B681B02FA6813437D
:101F8000FB607B681B68FA681A607B681B687A686C
:101F90001268126801210A431A607B6841222021DD
:101FA00099547B68402200219954002300E00223C9
:101FB0001800BD4604B080BDFFF0FFFF80B586B0BD
:101FC00000AF786000233B617B681B6801221340EF
:101FD00000D187E0C04BDB680C221340082B0ED0E9
:101FE000BD4BDB680C2213400C2B16D1BA4BDA68C0
:101FF00080235B021A4080235B029A420DD1B64BCC
:102000001A6880239B02134000D16AE07B685B68FA
:10201000002B66D1012300F069FB7B685A6880239E
:102020005B029A4207D1AC4BAB4A1268802149024D
:102030000A431A6027E07B685A68A023DB029A42B1
:102040000ED1A54BA44A12688021C9020A431A6026
:10205000A14BA14A1268802149020A431A6012E08A
:102060009D4B9D4A12689D490A401A609A4B1A6816
:1020700080235B021340FB60FB68974B964A126813
:1020800097490A401A607B685B68002B14D0FEF702
:10209000DBFF03003B6108E0FEF7D6FF02003B696F
:1020A000D31A642B01D9032320E38B4B1A688023B6
:1020B0009B021340F0D015E0FEF7C6FF03003B6122
:1020C00008E0FEF7C1FF02003B69D31A642B01D977
:1020D00003230BE3804B1A6880239B021340F0D14B
:1020E00000E0C0467B681B680222134000D16CE010
:1020F000794BDB680C221340042B0BD0764BDB684A
:102100000C2213400C2B1BD1734BDA6880235B022B
:10211000134015D1704B1B680422134005D07B6817
:10212000DB68012B01D00123E0E26B4A6A4B5B685C
:102130006C4919407B681B691B020B43536044E0E8
:102140007B68DB68002B27D0634A634B1B6809213F
:102150008B4319007B68DB680B431360FEF774FF49
:1021600003003B6108E0FEF76FFF02003B69D31AF2
:10217000022B01D90323B9E2574B1B6804221340F9
:10218000F1D0554A544B5B68564919407B681B692E
:102190001B020B43536018E04F4B4F4A126801215A
:1021A0008A431A60FEF750FF03003B6108E0FEF728
:1021B0004BFF02003B69D31A022B01D9032395E29E
:1021C000454B1B6804221340F1D17B681B68102229
:1021D000134000D1C2E0404BDB680C22134062D1B7
:1021E0003D4B1A6880239B00134005D07B68DB6958
:1021F000002B01D1012379E27B685A6A364B59687A
:10220000E0231B020B409A421CD97B685B6A1800D2
:1022100000F044FC031E01D0012367E22E4A2E4B3E
:102220005B68314919407B685B6A0B4353602A4AFB
:10223000294B5B681B02190A7B681B6A1B060B4350
:1022400053601BE0244A244B5B68274919407B6894
:102250005B6A0B435360204A1F4B5B681B02190AE1
:102260007B681B6A1B060B4353607B685B6A180024
:1022700000F014FC031E01D0012337E27B685B6A87
:102280005B0B0133802212029A40134BDB681B095F
:102290000F210B401549CB5CDA40154B1A6000202A
:1022A000FEF7A8FE5AE07B68DB69002B3CD00A4BA6
:1022B000094A1268802149000A431A60FEF7C4FEE9
:1022C00003003B6116E0FEF7BFFE02003B69D31A34
:1022D000022B0FD9032309E200100240FFFFFEFF8B
:1022E000FFFFFBFFFFE0FFFFFF1FFFFF843C000835
:1022F00058000020C74B1A6880239B001340E2D08F
:10230000C44AC44B5B68C44919407B685B6A0B4391
:102310005360C04ABF4B5B681B02190A7B681B6A8B
:102320001B060B43536019E0BA4BBA4A1268BB490B
:102330000A401A60FEF788FE03003B6108E0FEF7E2
:1023400083FE02003B69D31A022B01D90323CDE19E
:10235000B04B1A6880239B001340F0D17B681B6848
:102360000822134036D07B685B69002B19D0A94B3B
:10237000A84A126D01210A431A65FEF765FE0300A3
:102380003B6108E0FEF760FE02003B69D31A022BB6
:1023900001D90323AAE19F4B1B6D02221340F1D008
:1023A00018E09C4B9B4A126D01218A431A65FEF787
:1023B0004BFE03003B6108E0FEF746FE02003B696E
:1023C000D31A022B01D9032390E1924B1B6D0222F9
:1023D0001340F1D17B681B680422134000D1AFE0A9
:1023E0001723FB1800221A708A4B9A6B80235B0517
:1023F00013400AD1874B874A926B802149050A43D3
:102400009A631723FB1801221A70854B1A688023E0
:102410005B0013401AD1824B814A12688021490027
:102420000A431A60FEF710FE03003B6108E0FEF766
:102430000BFE02003B69D31A642B01D9032355E13B
:10244000774B1A6880235B001340F0D07B689A6852
:1024500080235B009A4207D16E4B6E4A126D802139
:1024600049000A431A6531E07B689B68002B0CD158
:10247000684B684A126D69490A401A65654B654A9E
:10248000126D68490A401A6520E07B689A68A023AB
:10249000DB009A420ED15F4B5E4A126D8021C9006B
:1024A0000A431A655B4B5B4A126D802149000A435F
:1024B0001A650BE0574B574A126D58490A401A6586
:1024C000544B544A126D57490A401A657B689B6801
:1024D000002B15D0FEF7B8FD03003B6109E0FEF7C5
:1024E000B3FD02003B69D31A4F4A934201D903233B
:1024F000FCE0484B1A6D80239B001340EFD014E0A2
:10250000FEF7A2FD03003B6109E0FEF79DFD02001E
:102510003B69D31A444A934201D90323E6E03D4B79
:102520001A6D80239B001340EFD11723FB181B78F3
:10253000012B05D1374B374A926B3C490A409A63CD
:102540007B681B682022134049D07B689B69002B65
:1025500026D0304B2F4A926801210A439A602D4BB6
:102560002C4A526B01210A435A63314B304A126A9A
:10257000802189010A431A62FEF766FD03003B6170
:1025800008E0FEF761FD02003B69D31A022B01D976
:102590000323ABE01F4B9B6802221340F1D01EE0E7
:1025A0001C4B1C4A926801218A439A60204B204AA6
:1025B000126A20490A401A62FEF746FD03003B6199
:1025C00008E0FEF741FD02003B69D31A022B01D956
:1025D00003238BE00F4B9B6802221340F1D17B68F1
:1025E0009B6A002B00D180E00A4BDB680C22134071
:1025F0000C2B00D177E07B689B6A022B58D1054BEE
:10260000044A12680C490A401A60FEF71DFD0300D7
:102610003B611CE000100240FF1FFFFFFFFEFFFFB9
:1026200000700040FFFBFFFF88130000FFFFFFEF7B
:1026300000000140FFDFFFFFFFFFFFFEFEF704FD8C
:1026400002003B69D31A022B01D903234EE0294B28
:102650001A6880239B041340F0D1264A254BDB687F
:10266000254919407B68D86A7B681B6B18437B68D7
:102670005B6B03430B43D3601E4B1E4A12688021E1
:1026800049040A431A60FEF7DFFC03003B6108E0DF
:10269000FEF7DAFC02003B69D31A022B01D90323AF
:1026A00024E0144B1A6880239B041340F0D01CE0F4
:1026B000104B104A126811490A401A60FEF7C4FC18
:1026C00003003B6108E0FEF7BFFC02003B69D31A40
:1026D000022B01D9032309E0064B1A6880239B04CF
:1026E0001340F0D101E0012300E000231800BD46B3
:1026F00006B080BD00100240FFFF02FFFFFFFFFE9B
:1027000080B584B000AF786039600023FB60824BF5
:102710001B6801221A403B689A4211D27E4B7E4AC6
:10272000126801218A4311003A680A431A607A4B01
:102730001B6801221A403B689A4201D00123E6E05F
:102740007B681B680222134009D0744A734BDB6814
:10275000F0218B4319007B689B680B43D3607B6837
:102760001B680122134000D189E07B685B68022B63
:1027700007D16A4B1A6880239B02134020D10123A2
:10278000C5E07B685B68032B07D1644B1A68802324
:102790009B04134014D10123B9E07B685B68012BD3
:1027A00006D15E4B1B680422134009D10123AEE021
:1027B0005A4B1A6880239B00134001D10123A6E0E5
:1027C000564A564BDB6803218B4319007B685B68D4
:1027D0000B43D360FEF738FC0300FB607B685B684B
:1027E000022B11D109E0FEF72FFC0200FB68D31A7F
:1027F0004B4A934201D9032389E0484BDB680C2202
:102800001340082BEFD13AE07B685B68032B11D1B2
:1028100009E0FEF719FC0200FB68D31A404A934214
:1028200001D9032373E03D4BDB680C2213400C2BD2
:10283000EFD124E07B685B68012B1BD109E0FEF738
:1028400003FC0200FB68D31A354A934201D90323E3
:102850005DE0324BDB680C221340042BEFD10EE01D
:10286000FEF7F2FB0200FB68D31A2D4A934201D90E
:1028700003234CE0294BDB680C221340F0D1264B9C
:102880001B6801221A403B689A4211D9224B224A06
:10289000126801218A4311003A680A431A601E4BEC
:1028A0001B6801221A403B689A4201D001232EE0A6
:1028B0007B681B680422134008D0184A174BDB685A
:1028C000184919407B68DB680B43D3607B681B6841
:1028D0000822134009D0114A104BDB6812491940F5
:1028E0007B681B69DB000B43D36000F023F8010019
:1028F0000A4BDB681B090F2213400C4AD35C0A0009
:10290000DA400B4B1A600020FEF774FB002318001E
:10291000BD4604B080BDC046002002400010024009
:1029200088130000FFF8FFFFFFC7FFFF843C00088B
:102930005800002080B586B000AF0023FB60002364
:10294000BB6000237B6000237B6100233B6000238E
:102950003B61324BDB68FB60FB680C221340082BA9
:102960000ED00C2B0FD0042B45D12C4B1B68102202
:10297000134002D02A4B3B614BE02A4B3B6148E0BD
:10298000294B3B6145E0FB689B0C0F221340274A13
:10299000D35CBB60FB689B0D0322134001337B605B
:1029A0001E4BDA6880235B02134009D0BB681E4AC5
:1029B000534379681800FDF7A7FB03007B6117E01C
:1029C000164B1B681022134009D0BB68144A5343AE
:1029D00079681800FDF798FB03007B6108E0BB688D
:1029E000104A534379681800FDF78EFB03007B61A2
:1029F0007B693B610DE0094B5B685B0B0722134071
:102A00003B603B680133802212029A4013003B6115
:102A1000C0463B691800BD4606B080BD00100240AC
:102A200000093D000024F40000127A009C3C0008DC
:102A300080B500AF024B1B681800BD4680BDC04684
:102A40005800002080B500AFFFF7F2FF0100064BF1
:102A5000DB681B0A07221340044AD35CD9400B00F1
:102A60001800BD4680BDC04600100240943C0008DE
:102A700080B500AFFFF7DCFF0100064BDB68DB0A27
:102A800007221340044AD35CD9400B001800BD460E
:102A900080BDC04600100240943C000880B584B060
:102AA00000AF78600023FB600023BB60234BDB6832
:102AB000F02213402BD1214B9A6B80235B051340EE
:102AC00006D01F4B1A68C0235B011340FB6012E065
:102AD0001A4B1A4A926B802149050A439A63184B94
:102AE0001A68C0235B011340FB60144B134A926BBE
:102AF00014490A409A63FA68C0235B019A4206D1DE
:102B00007A68C0231B029A4201D10123BB600E4B9D
:102B10000D4A126801218A431100BA680A431A60FB
:102B2000094B1B6801221A40BB689A4201D001235D
:102B300000E000231800BD4604B080BD0010024034
:102B400000700040FFFFFFEF0020024080B586B01C
:102B500000AF786000233B610023FB607B681B684B
:102B60002022134006D17B681A6880231B01134082
:102B700000D1D9E01723FB1800221A709F4B9A6BE3
:102B800080235B0513400AD19C4B9C4A926B8021A9
:102B900049050A439A631723FB1801221A70984BC0
:102BA0001A6880235B0013401AD1954B944A12682F
:102BB000802149000A431A60FEF746FA03003B6190
:102BC00008E0FEF741FA02003B69D31A642B01D9F1
:102BD00003230FE18A4B1A6880235B001340F0D077
:102BE000864B1A68C0239B031340FB607B685A68BE
:102BF000C0239B031A40FB689A4207D17B689A68FE
:102C0000C0239B031A40FB689A4210D07B685A6825
:102C1000C0239B021A40C0239B029A4207D1774BE4
:102C20001A6880239B02134001D00123E2E0734B1A
:102C30001A6DC0239B021340FB60FB68002B49D038
:102C40007B685A68C0239B021A40FB689A4204D0F2
:102C50007B681B68202213400DD17B689A68C023D3
:102C60009B021A40FB689A4234D07B681A68802322
:102C70001B0113402ED0614B1B6D624A1340FB6059
:102C80005E4B5E4A126D802109030A431A655B4B55
:102C90005A4A126D5C490A401A65584BFA681A651F
:102CA000FA6880235B00134014D0FEF7CDF90300CF
:102CB0003B6109E0FEF7C8F902003B69D31A534AA9
:102CC000934201D9032395E04C4B1A6D80239B005E
:102CD0001340EFD07B685A68C0239B021A40C02380
:102CE0009B029A420BD1454A444B1B684849194004
:102CF0007B685868C0239B0303400B4313603F4A23
:102D00003E4B196D7B685868C0239B0203400B4300
:102D100013651723FB181B78012B05D1374B374A56
:102D2000926B3C490A409A637B681B6801221340FE
:102D300009D0324A314BDB6C03218B4319007B688D
:102D4000DB680B43D3647B681B680222134009D005
:102D50002A4A2A4BDB6C0C218B4319007B681B69C8
:102D60000B43D3647B681B680422134008D0234ABA
:102D7000224BDB6C284919407B685B690B43D364A9
:102D80007B681B680822134008D01C4A1B4BDB6C75
:102D9000224919407B689B690B43D3647B681A689E
:102DA00080235B00134008D0144A144BDB6C154998
:102DB00019407B68DB690B43D3647B681B68402246
:102DC000134008D00D4A0D4BDB6C154919407B6848
:102DD0005B6A0B43D3647B681B688022134008D076
:102DE000064A064BDB6C0F4919407B681B6A0B4394
:102DF000D36400231800BD4606B080BD0010024019
:102E000000700040FFFFFCFFFFFFF7FF881300008A
:102E1000FFFFCFFFFFFFFFEFFFF3FFFFFFCFFFFF3E
:102E2000FFFFFFFBFFFFF3FF80B58AB000AF7860C4
:102E30000023FB610023BB6100237B6200237B61D5
:102E400000233B610023FB6000233B627B68102B67
:102E500000D188E10ED8022B00D1F3E003D8012B7A
:102E600000D1BEE0CCE1042B00D11CE1082B00D145
:102E700051E1C5E1402B00D160E002D8202B0AD0FF
:102E8000BEE180225200934200D191E180221201E2
:102E9000934200D0B4E1BC4B1B6DFB61BA4B1A6D81
:102EA000C0239B0213407B617A6980235B029A42B4
:102EB00008D1FA6980239B00134003D080231B02B2
:102EC0007B623AE07A6980239B029A4206D1FB69D1
:102ED0000222134002D0AD4B7B622EE07A69C02300
:102EE0009B029A4226D1A84B1A6880239B0213406A
:102EF00020D0A54B1A68C0239B031340BB61BB695C
:102F00008022920393420BD0C0229203934204D0BA
:102F100080225203934206D008E09D4B7B6208E07A
:102F20009C4B7B6205E09C4B7B6202E09B4B7B628F
:102F3000C04602E000237B6262E161E1924BDA6C01
:102F40008023DB0413407B617B69002B38D18E4BDF
:102F50001A6880239B04134032D08B4BDA68F0232D
:102F60009B0313403B61884BDA68C0231B0413406A
:102F7000FB603B699B0C8A4AD35C3B61FB689B0D01
:102F80000133FB60804BDA6880235B0213400AD177
:102F90007D4B1B681022134002D0804B3B6204E043
:102FA000804B3B6201E0804B3B623B6A3A69534392
:102FB0003B62F968386AFDF7A7F803007B620FE00F
:102FC0007A698023DB049A4207D16F4B9B68022207
:102FD000134002D0754B7B6202E000237B620FE15D
:102FE0000EE1694BDB6C032213407B617B69002B94
:102FF00004D1FFF73DFD03007B6201E17B69022BF9
:1030000007D1614B1B680422134002D0654B7B62E1
:1030100017E07B69012B04D1FFF78CFC03007B6276
:10302000EEE07B69032B09D1574B1A6D80239B007F
:10303000134003D080231B027B6202E000237B62EB
:10304000DEE0DDE0504BDB6C0C2213407B617B69E2
:10305000002B04D1FFF7F6FC03007B62D0E07B6914
:10306000082B07D1484B1B680422134002D04D4B5C
:103070007B6217E07B69042B04D1FFF75BFC030044
:103080007B62BDE07B690C2B09D13F4B1A6D80231D
:103090009B00134003D080231B027B6202E00023CD
:1030A0007B62ADE0ACE0384BDA6CC0231B0113400F
:1030B0007B617B69002B04D1FFF7C4FC03007B62BA
:1030C0009EE07A6980231B019A4207D12E4B1B6830
:1030D0000422134002D0334B7B621BE07A698023C9
:1030E000DB009A4204D1FFF725FC03007B6287E0F6
:1030F0007A69C0231B019A4209D1234B1A6D8023A0
:103100009B00134003D080231B027B6202E000235C
:103110007B6275E074E01C4BDA6CC0239B011340AA
:103120007B617B69002B04D1FFF78CFC03007B6281
:1031300066E07A6980239B019A4207D1124B1B6893
:103140000422134002D0174B7B6259E07A69802336
:103150005B019A4204D1FFF7EDFB03007B624FE075
:1031600000237B624CE0084B9A6B8023DB031A4000
:103170008023DB039A4204D1FFF764FC03007B62E7
:103180003EE000237B623BE000100240889000009C
:1031900020A1070040420F0080841E0000093D006E
:1031A0009C3C00080024F40000127A00006CDC0251
:1031B000164BDA6CC0239B0213407B617B69002BAA
:1031C00004D1FFF73FFC03007B6218E07A6980239B
:1031D0009B029A4207D10D4B1B680422134002D078
:1031E0000B4B7B620BE07A6980235B029A4204D12D
:1031F000FFF7A0FB03007B6201E000237B62C04677
:103200007B6A1800BD460AB080BDC046001002406F
:103210000024F40080B582B000AF78607B68002B9A
:1032200001D1012347E07B6869229B5CDBB2002B64
:1032300007D17B686822002199547B681800FDF74C
:1032400053FE7B686922242199547B681B687A6845
:103250001268126801218A431A607B685B6A002B3E
:1032600003D07B68180000F07BFB7B68180000F03F
:1032700029F80300012B01D101231CE07B681B68A6
:103280007A68126852680E490A405A607B681B6867
:103290007A68126892682A218A439A607B681B6860
:1032A0007A681268126801210A431A607B68180064
:1032B00000F002FC03001800BD4602B080BDC0460D
:1032C000FFB7FFFFB0B58CB000AFF8610023FB6221
:1032D000132318229446BC44634410221A700C2312
:1032E00018229446BC44634400221A8010231822FA
:1032F0009446BC44634400221A800F23182294464B
:10330000BC44634400221A70FB699A68FB691B691C
:103310001A43FB695B691A43FB69DB691343FB6270
:10332000FB691B68FA6912681268C7491140FA6A9A
:103330000A431A60FB691B68FA6912685268C3493C
:103340001140FA69D2680A435A60FB699B69FB62C3
:10335000FB691B68BE4A934204D0FB691B6AFA6A88
:103360001343FB62FB691B68FA6912689268B949EA
:103370001140FA6A0A439A60FB691B68B64A934295
:1033800034D1B64BDB6C03221340012B15D004D390
:10339000022B0AD0032B18D01FE0132318229446C7
:1033A000BC44634401221A70BCE0132318229446E3
:1033B000BC44634402221A70B4E0132318229446DA
:1033C000BC44634404221A70ACE0132318229446D0
:1033D000BC44634408221A70A4E0132318229446C4
:1033E000BC44634410221A70C0469BE0FB691B6812
:1033F0009B4A934237D1994BDB6C0C221340042B30
:1034000018D002D8002B05D024E0082B0AD00C2BB2
:1034100018D01FE0132318229446BC4463440022B2
:103420001A707FE0132318229446BC44634402229E
:103430001A7077E0132318229446BC446344042294
:103440001A706FE0132318229446BC446344082288
:103450001A7067E0132318229446BC446344102278
:103460001A70C0465EE0FB691B687E4A934207D132
:10347000132318229446BC44634400221A7052E07D
:10348000FB691B68784A934207D11323182294469C
:10349000BC44634400221A7045E0FB691B686C4A17
:1034A000934240D16D4BDA6CC0231B011340802244
:1034B000D20093421FD08022D200934202D8002B28
:1034C00009D028E08022120193420CD0C0221201C0
:1034D000934218D01FE0132318229446BC4463443F
:1034E00000221A701EE0132318229446BC44634441
:1034F00002221A7016E0132318229446BC44634437
:1035000004221A700EE0132318229446BC4463442C
:1035100008221A7006E0132318229446BC44634420
:1035200010221A70C0460220FFF77EFC03003B62A7
:10353000FB691B68464A934200D09FE00023FB6270
:10354000132318229446BC4463441B78022B0DD0ED
:1035500002DC002B05D01DE0042B12D0082B15D067
:1035600018E0FFF76FFA0300FB621BE03B4B1B68A0
:103570001022134002D03D4BFB6213E03C4BFB6238
:1035800010E0FFF7D7F90300FB620BE080231B027A
:10359000FB6207E00F2318229446BC4463440122D7
:1035A0001A70C046FB6A002B00D1C0E1FB695A6863
:1035B00013005B009A18FB6A9A4205D8FB695B68A6
:1035C0001A03FB6A9A4207D20F2318229446BC447E
:1035D000634401221A70AAE1FB6A3B6100237B610C
:1035E00039697A690B001B0E100005021D430B00A0
:1035F0001C02FB695B685B08BB600023FB60B8686A
:10360000F96800196941FB695B683B6000237B60D6
:103610003A687B68FCF7EEFE03000C00FB62FB6A75
:10362000144A934208D9FB6A134A934204D8FB69AF
:103630001B68FA6ADA607AE10F2318229446BC44C8
:10364000634401221A7072E1F369FFEFFFCFFFFFBD
:1036500000480040FFF4FFFF003801400010024026
:1036600000440040004C00400050004000093D0074
:103670000024F400FF020000FFFF0F00FB69DA697D
:1036800080231B029A4200D0CAE0132318229446DA
:10369000BC4463441B78082B00D989E09A00A94BED
:1036A000D3181B689F463B6A5A00FB695B685B083E
:1036B000D218FB695B6819001000FCF725FD0300B8
:1036C0001A00102318218C46BC4463441A8077E00A
:1036D000FFF7CEF903005A00FB695B685B08D2185C
:1036E000FB695B6819001000FCF70EFD03001A006F
:1036F000102318218C46BC4463441A8060E0924B2E
:103700001B681022134013D0FB695B685B088F4A6B
:103710009A18FB695B6819001000FCF7F5FC0300C0
:103720001A00102318218C46BC4463441A8047E0D9
:10373000FB695B685B08864A9A18FB695B6819003D
:103740001000FCF7E1FC03001A00102318218C463E
:10375000BC4463441A8033E0FFF7ECF803005A00DE
:10376000FB695B685B08D218FB695B681900100095
:10377000FCF7CAFC03001A00102318218C46BC4435
:1037800063441A801CE0FB695B685B08802252027C
:103790009A18FB695B6819001000FCF7B5FC030080
:1037A0001A00102318218C46BC4463441A8007E099
:1037B0000F2318229446BC44634401221A70C04669
:1037C0000C2318229446BC446344102218218C46D2
:1037D000BC44624412880F218A431A8010231822A5
:1037E0009446BC4463441B885B109BB20722134081
:1037F00099B20C2318229446BC4463440C2218202E
:103800008446BC44624412880A431A80FB691B68E0
:103810000C2218218C46BC4462441288DA6086E08F
:10382000132318229446BC4463441B78082B76D893
:103830009A00484BD3181B689F46FB691C68FFF72A
:1038400001F90200FB695B685B08D218FB695B68E1
:1038500019001000FCF758FC03009BB2E36066E01F
:10386000FB691C68FFF704F90200FB695B685B08F1
:10387000D218FB695B6819001000FCF745FC0300D7
:103880009BB2E36053E0304B1B681022134010D012
:10389000FB691C68FB695B685B082F4A9A18FB6927
:1038A0005B6819001000FCF72FFC03009BB2E3607B
:1038B0003DE0FB691C68FB695B685B08274A9A1856
:1038C000FB695B6819001000FCF71EFC03009BB24B
:1038D000E3602CE0FB691C68FFF72CF80200FB6931
:1038E0005B685B08D218FB695B6819001000FCF785
:1038F0000BFC03009BB2E36019E0FB691C68FB69E9
:103900005B685B08802212029A18FB695B681900E9
:103910001000FCF7F9FB03009BB2E36007E00F2304
:1039200018229446BC44634401221A70C0460F23F7
:1039300018229446BC4463441B781800BD460CB062
:10394000B0BDC046A83C00080010024000127A003A
:103950000048E801CC3C000800093D000024F400C8
:1039600080B582B000AF78607B685B6A012213404B
:103970000AD07B681B687A68126852684549114012
:103980007A68926A0A435A607B685B6A0222134033
:103990000AD07B681B687A68126852683E491140F9
:1039A0007A68D26A0A435A607B685B6A04221340D1
:1039B0000AD07B681B687A681268526837491140E0
:1039C0007A68126B0A435A607B685B6A082213406C
:1039D0000AD07B681B687A681268526830491140C7
:1039E0007A68526B0A435A607B685B6A1022134004
:1039F0000AD07B681B687A6812689268294911406E
:103A00007A68926B0A439A607B685B6A2022134053
:103A10000AD07B681B687A68126892682249114054
:103A20007A68D26B0A439A607B685B6A40221340D3
:103A30001BD07B681B687A68126852681B4911406A
:103A40007A68126C0A435A607B681A6C80235B03A5
:103A50009A420AD17B681B687A68126852681449D6
:103A600011407A68526C0A435A607B685B6A802214
:103A700013400AD07B681B687A68126852680D4947
:103A800011407A68926C0A435A60C046BD4602B043
:103A900080BDC046FFFFFDFFFFFFFEFFFFFFFBFFF6
:103AA000FF7FFFFFFFEFFFFFFFDFFFFFFFFFEFFFE6
:103AB000FFFF9FFFFFFFF7FF80B586B002AF786082
:103AC0000023FB607B680022DA66FDF7BDFA030085
:103AD000FB607B681B681B6808221340082B0DD114
:103AE000FA68802399037868174B0093130000222B
:103AF00000F02CF8031E01D0032321E07B681B6833
:103B00001B6804221340042B0DD1FA688023D903CB
:103B100078680D4B00931300002200F017F8031E85
:103B200001D003230CE07B686922202199547B6833
:103B30006A22202199547B6868220021995400232D
:103B40001800BD4604B080BDFFFFFF0180B584B002
:103B500000AFF860B9603B60FB1D1A702BE0BB69D9
:103B6000013328D0BB69002B07D0FDF76DFA0200A6
:103B70003B68D21ABB699A421DD9FB681B68FA6878
:103B80001268126816490A401A60FB681B68FA68D6
:103B90001268926801218A439A60FB686922202199
:103BA0009954FB686A2220219954FB6868220021FD
:103BB000995403230FE0FB681B68DB69BA681A405D
:103BC000BB68D31A5A425341DBB21A00FB1D1B7863
:103BD0009A42C4D000231800BD4604B080BDC04640
:103BE0005FFEFFFF70B500260C4D0D4C641BA4104A
:103BF000A64209D1002600F019F80A4D0A4C641BB0
:103C0000A410A64205D170BDB300EB589847013609
:103C1000EEE7B300EB5898470136F2E7F83C0008AE
:103C2000F83C0008F83C0008FC3C0008F8B5C04629
:103C3000F8BC08BC9E467047F8B5C046F8BC08BC46
:043C40009E467047E5
:103C44002E2E5C2E2E5C2E2E5C5372635C693263C6
:103C54002E6300002E2E5C2E2E5C2E2E5C5372637F
:103C64005C6D61696E2E63002E2E5C2E2E5C2E2EF2
:103C74005C5372635C75736172742E6300000000A0
:103C84000000000000000000010203040607080908
:103C94000000000001020304030406080C101820AD
:103CA40030000000A6360008D0360008FE360008B2
:103CB400B037000858370008B0370008B03700089C
:103CC400B0370008863700083A3800086038000822
:103CD400863800081E390008D43800081E39000848
:0C3CE4001E3900081E390008FA380008DC
:083CF00044C7FF7F0100000042
:043CF800E9000008D7
:043CFC00C1000008FB
:103D0000BE0000003200000033000000350000005B
:103D10003C0000003D0000003E0000003F000000AD
:103D20002A0000002B0000003000000031000000DD
:103D300036000000370000003A0000003B000000A1
:103D40002800000029000000BA0000002A0000003E
:0C3D5000290000002800000000002000F6
:0400000508000609E0
:00000001FF
